:020000040000FA
:0600000002010702206C62
:03002B000224E1CB
:030033000224C3E1
:03003B0002250299
:030043000224771D
:030053000220E2A6
:03006B0002249DCF
:10008300021F1BE5C754F84401F5C779012200009C
:100093000080FB120086B900030200F1E4792178A5
:1000A30008B800028004F709D8FCE479297802B87B
:1000B30000028004F709D8FCE4900281784E790BA2
:1000C3008002F0A3D8FCD9FA7ACE7B0C9001377862
:1000D300F279038015E493A3AD82AE838A828B8386
:1000E300F0A3AA82AB838D828E83D8E9D9E7758288
:1000F300D175839774031201197582917583007406
:100103000012011975D00075813F751881751902A8
:10011300759F00020096C09FF59FE473D09F22D085
:1001230083D082C09FE493C0E0740193C0E0740263
:1001330093F59F2209095541525432424C45051209
:1001430008000800020A00020106554152543242D7
:100153004C450000000000000000000000000034D7
:100163000400003A04FF0000B4000028002800281F
:100173003075A000A000A000A00000080008E00166
:10018300F0001000100010001000100010005000CC
:100193005000500010001000D007000000000000C5
:1001A3000F0001000500307507001000010081FFFA
:1001B30000000000FF440662064A06FF020202082E
:1001C300025000A0000000E80302D68F010000C027
:1001D3008F02F48F010000560D02E08F010000B77B
:1001E3000202F48F010000570D02E28F010000CDDF
:1001F3000202F48F010000580D02E48F010000CFCA
:100203000202F48F010000590D02E68F080000D0AE
:100213000202F48F0100005A0D02E88F0100005B17
:100223000DFF0100FF2002D68F010000BD8F02F4F5
:100233008F010000BF0D02EA8F000000000002DE04
:100243008F0300001D036E0C6E0C6E0C6E0C6E0C97
:100253006E0C6E0C6E0C6E0C6E0C6E0C6E0C6E0CCB
:10026300440F5C0F3E0FFFFF020202020202020272
:1002730002010D000000100102D68F010000C38FA0
:1002830002F48F010000020E02EE8F0100006107ED
:1002930002F48F010000030E02EC8F010000158FA2
:1002A30002F48F010000040E02D08F010000078FBB
:1002B30002F48F010000050E02CE8F010000A58E0F
:1002C30002F48F010000060E020290010000B78EB7
:1002D30002F48F010000070E02CC8F010000818E13
:1002E30002F48F010000080E022A8F010000938E92
:1002F30002F48F010000090E02DA8F010000F98E6B
:1003030002F48F0100000A0E02F28F0100000B0EAF
:1003130001053F100AFF00013075030201060000CA
:1003230000000000000000000000000000000000CA
:1003330000000000000000000000FFFF0600800C2A
:10034300E803020A436861726163746572697374D6
:100353006963203100024368617261637465726985
:100363007374696320320008436861726163746562
:100373007269737469632033001043686172616347
:10038300746572697374696320340002436861722F
:100393006163746572697374696320350002D68F73
:1003A300010000C68F02F48F010000DD0E02F88FFA
:1003B300030000AC0C02DC8F010000DE0E02F48FA0
:1003C300010000EF0E02FA8F010000AD0C02DC8F7A
:1003D300010000F00E02F48F010000010F02FC8FF8
:1003E300020000AE0C02DC8F010000020F02F48F4A
:1003F300010000130F02FE8F000000C20C02DE8F0B
:10040300030000C30C02DC8F010000140F02F48F01
:10041300010000250F020090040000C90C02DC8FCC
:10042300010000260F120122A1E2021201224BE475
:10043300021201221AE5021201223CE502120122F4
:1004430074E50212012222FE0212012239FE021277
:1004530001226AFE02120122A5FE02120122CFFE30
:1004630002120122F9FE0212012210FF02120122DE
:1004730027FF021201223EFF0212012267FF02122E
:1004830001227AFF0212012290FF02120122A3FF2E
:1004930002120122CAFF0212012292F50112012265
:1004A30096F601120122CEF601120122F1F6011293
:1004B3000122FCF6011201221FF7011201222EF87C
:1004C3000112012203F9011201227EF90112012214
:1004D30006FA0112012241FA0112012278FA0112ED
:1004E300012206FB01120122DFFB011201223FFC64
:1004F300011201224AFC01120122C9FC011201224C
:10050300CCFC01120122CFFC011201225EFD01127B
:10051300012261FD0112012291FD01120122BBFDA5
:1005230001120122A9FE011201225BFF0112012225
:10053300ADD002120122D5D00212012203D1021240
:1005430001223AD10212012298D102120122E3D1EF
:10055300021201222ED2021201226ED202120122B3
:10056300B4D202120122E2D2021201229FD302125A
:100573000122A9D302120122B6D302120122E9D326
:1005830002120122B5D402120122C1D402120122A5
:10059300D9D402120122E3D40212012223930312BB
:1005A3000122319303120122499303120122619321
:1005B30003120122FCAF01120122A8B00112012291
:1005C30023B10112012244B20112012280B20112AD
:1005D300012229B30112012210B40112012274B5C0
:1005E30001120122CBB5011201224CB601120122E4
:1005F3003CB70112012289B7011201220FB801127F
:10060300012241B80112012255BA0112012297BAFF
:1006130001120122B5BA0112012238BB01120122D3
:100623000CBC01120122D4BC0112012230BA021205
:10063300012203BB02120122ACBB02120122FFBB47
:1006430002120122AFBC021201223BBD021201229F
:1006530027BE0212012256BE0212012269BF0212F4
:100663000122B1BF0212012286C002120122C2C0BE
:1006730002120122DEC0021201227F96031201221E
:10068300FCED0212012212EE0212012238EE0212D6
:10069300012254EF021201225EEF0212012293F0B3
:1006A300021201228BF102120122C3C6021201229D
:1006B300F3C70212012226C80212012270C80212D5
:1006C300012237CA021201220DA00112012277A0D2
:1006D30001120122D6A101120122E6A10112012277
:1006E30013A2011201226AA20112012213A3011211
:1006F30001221AA401120122E4A40112012244A638
:100703000112012287A6011201222CA70112012244
:1007130079A7011201229FA701120122ADA901129B
:100723000122B2A901120122B7AB0112012204ACCA
:100733000112012277AC01120122AAAC011201229B
:100743004CAD01120122F5AD011201222DAE0112B1
:10075300012230AE0112012278AE01120122B8AE9D
:10076300011201220FAF011201224FFB02120122DB
:1007730067FB02120122AFFB02120122C5FB021228
:1007830001220CFC0212012220FD02120122ADFD06
:1007930002120122F8FD0212012274250012012225
:1007A300AF2500120122F42500120122B426001203
:1007B30001223A27001201229F2700120122CB2790
:1007C30000120122042800120122422A00120122EF
:1007D300262C001201220C2E001201224F2F001290
:1007E30001229D3100120122AF3200120122FA339D
:1007F300001201220A3500120122273500120122BC
:10080300623500120122843500120122E7350012FD
:100813000122A83A001201223D3B001201228E3B25
:1008230000120122B53B00120122073C00120122F3
:10083300253C001201227F3C00120122683D001278
:100843000122DE3E00120122623F001201226AD51C
:100853000212012274D502120122B7D5021201221B
:10086300D2D50212012262D6021201228AD60212C4
:100873000122C7D602120122FED60212012227D775
:10088300021201229CD702120122B1D702120122C5
:10089300C6D702120122F7D7021201220BD8021285
:1008A300012230D8021201226AD80212012296D8FC
:1008B3000212012222D9021201224DD9021201226F
:1008C30096D902120122C0D902120122EBD90212D7
:1008D30001222D9003120122BFE801120122EDE84B
:1008E300011201223BEA011201221BEB0112012238
:1008F3003AEB01120122B7EB01120122FAEB0112CA
:10090300012250ED0112012211EE0112012298F091
:100913000112012239F1011201222FF201120122E7
:100923002CF30112012286F40112012211F50112A6
:100933000122A38D031201220C8E03120122608E69
:1009430003120122878E03120122B88E03120122A1
:1009530013DA0212012280DA02120122C7DA02122A
:100963000122DFDB02120122DBDC02120122BEDDE7
:10097300021201229A7600120122DC760012012271
:10098300AE770012012287780012012281790012CA
:100993000122637A00120122CC7A00120122827BA7
:1009A30000120122F67B00120122627C0012012256
:1009B3008B7C00120122057D001201229E7D001214
:1009C3000122037E00120122187E001201225E7EA4
:1009D30000120122777E00120122DC7E0012012226
:1009E300DF7E0012012256F8021201227EF8021263
:1009F3000122BCF8021201227AF902120122E1F962
:100A030002120122FDF90212012225FA0212012229
:100A130055FA0212012264FA02120122E1FA0212C9
:100A2300012207FB02120122059001120122A39168
:100A330001120122BE9301120122FA930112012233
:100A43002794011201220C950112012253950112E0
:100A53000122979501120122A99501120122E9951C
:100A6300011201221696011201226196011201223E
:100A7300A19601120122CF960112012221970112A0
:100A83000122B197011201224F9A01120122659CA2
:100A930001120122A39C01120122349E01120122A0
:100AA300799E01120122F09E011201223A9F011246
:100AB3000122E29F0112012247A102120122C6A1D3
:100AC3000212012288A70212012297A80212012210
:100AD300FFA90212012296AA02120122C93F0012A3
:100AE30001221240001201223F40001201227240F3
:100AF300001201227F40001201228B4000120122CA
:100B03009D4000120122844100120122E2410012A1
:100B130001221742001201225A4300120122A74365
:100B230000120122CB430012012238440012012299
:100B3300F64400120122AF45001201221C460012A6
:100B43000122CE4600120122DE4600120122654731
:100B530000120122244800120122514800120122EE
:100B6300CA480012012227490012012271490012CA
:100B73000122074A00120122D24A00120122874BA6
:100B830000120122FC4B001201225D4C00120122D3
:100B9300C74C00120122004D00120122A24D001287
:100BA3000122B24E00120122F24E001201220F4F17
:100BB300001201222E4F00120122754F0012012252
:100BC3009A4F00120122C74F001201224150001216
:100BD3000122825000120122A65100120122565214
:100BE30000120122AD5200120122175300120122FA
:100BF3003053001201227D9702120122D097021274
:100C03000122DC9702120122B19802120122D89824
:100C1300021201221399021201227F990212012268
:100C2300BB9902120122F499021201220C9A0212B8
:100C33000122619A021201227A9A02120122C39AB4
:100C430002120122D69A02120122F09A0212012202
:100C5300069B02120122399C02120122809D02127C
:100C63000122829E021201227C9F02120122FA7F3C
:100C73000012012288DB01120122B8DB01120122DA
:100C830080DF01120122D7E001120122A0E101124B
:100C9300012220E301120122F1E3011201222EE4D9
:100CA3000112012251E4011201228FE401120122F7
:100CB30098E401120122E2E401120122ECE40112A0
:100CC300012296E5011201226FE601120122C3E619
:100CD3000112012225E70112012278E70112012204
:100CE300A7E701120122E4E7011201220D650012B8
:100CF30001227468001201227A6800120122FC6D3D
:100D0300001201227572001201224B760012012299
:100D130004F5021201227AF50212012290F5021261
:100D23000122D1F5021201220BF60212012284F6EE
:100D330002120122BFF60212012232F7021201222D
:100D430070F70212012279F70212012285F70212CB
:100D53000122A1F702120122CCF702120122E2F7CB
:100D63000212012226F802120122EACB0212012208
:100D7300FDCB0212012217CC0212012240CC021237
:100D8300012283CC02120122C2CC0212012200CD25
:100D93000212012265CD021201227ACD0212012232
:100DA30085CD0212012292CD02120122A9CD021297
:100DB3000122B7CD02120122C2CD02120122CECDF1
:100DC30002120122E1CD02120122ECCD0212012214
:100DD3000FCE02120122B6CE02120122C6CE021299
:100DE3000122E0CE02120122FDCE0212012219CF0E
:100DF300021201223ECF0212012249CF0212012226
:100E03005ECF0212012272CF02120122D3CF02124D
:100E13000122D9CF02120122DFCF02120122E5CF34
:100E230002120122FDCF0212012230D0021201224E
:100E33005ECD01120122E2CD0112012291CE0112F7
:100E43000122F0CF0112012211D201120122FDD29F
:100E53000112012232D30112012254D301120122C1
:100E630003D401120122FBD50112012224D601125F
:100E73000122B6D601120122E8D601120122F5D6CB
:100E8300011201224CD70112012272D70112012251
:100E9300DFD901120122E2DA011201223ADB011247
:100EA3000122EDBE01120122F7BF01120122DEC0B1
:100EB30001120122E8C0011201220AC1011201221A
:100EC30016C101120122AFC201120122DEC20112B8
:100ED3000122FAC30112012253C401120122B9C52E
:100EE3000112012298C601120122F4C60112012245
:100EF30061C7011201229CC701120122DBC7011243
:100F0300012294CA01120122AECA011201223ACB74
:100F13000112012248CB01120122A1CB01120122AD
:100F2300AFCB0112012222CC0112012286CC011285
:100F33000122D0CC011201224F8C02120122718CAA
:100F430002120122978E02120122AC910212012297
:100F5300C4920212012277930212012259940212BF
:100F63000122E988031201220E89031201228089DA
:100F730003120122B6B202120122BFB202120122EF
:100F8300C8B2021201229FB30212012250B502120B
:100F9300012286B502120122C0B502120122F6B562
:100FA3000212012230B60212012264B60212012299
:100FB30090B602120122D9B60212012213B702120D
:100FC30001225CB702120122B4B702120122E9B76F
:100FD3000212012244B8021201227EB80212012237
:100FE300CFB80212012205B9021201223FB902123F
:100FF30001226DB90212012290B902120122B094AA
:1010030003120122DC9403120122379503120122F9
:1010130041950312012251950312012253C1021279
:1010230001225DC1021201229BC102120122E4C10D
:10103300021201221EC20212012274C202120122F2
:1010430095C2021201229EC202120122E9C20212B9
:10105300012212C3021201221CC30212012288C3FD
:10106300021201221EC40212012268C402120122CA
:1010730098C40212012221C50212012261C5021283
:10108300012299C502120122ABC502120122CAC56F
:1010930002120122D3C50212012299C602120122B1
:1010A3006D9703120122037F00120122FA860312B5
:1010B3000122308703120122668703120122AF88BF
:1010C300031201220397031201221997031201222B
:1010D30023970312012280DE0212012295DE0212FF
:1010E300012248DF0212012288DF02120122A1DF5E
:1010F30002120122D5DF0212012222E00212012292
:1011030056E00212012298E00212012294E2021236
:1011130001224A92031201227392031201229C922A
:1011230003120122DE920312012200800312012224
:101133002580031201226D98031201226C530012C1
:1011430001221D55001201221F5600120122A8562A
:10115300001201222C5700120122655A00120122AB
:10116300D95A00120122CA5B00120122045C001248
:101173000122445C00120122F75D001201224A5E43
:1011830000120122935E00120122015F001201226C
:10119300335F001201224B5F0012012260600012D4
:1011A30001227060001201228B6100120122AD61E5
:1011B30000120122E361001201228763001201225F
:1011C300C66300120122E86400120122FA9303129B
:1011D30001220B9403120122249803120122639823
:1011E30003120122B498031201225B950312012218
:1011F3006B9503120122869503120122EE950312C9
:101203000122469103120122CB9103120122319252
:10121300031201222B8C03120122548C031201228C
:10122300BF8C03120122108D03120122698D031258
:101233000122FE8E03120122138F03120122878FD4
:1012430003120122A18F03120122B88F031201227C
:10125300CB8F03120122E38F03120122F88F0312B3
:10126300012260EA0212012277EA02120122F0EA65
:1012730002120122C5EB0212012297ED0212012292
:1012830095F10212012225F202120122A3F20212A7
:1012930001222CF302120122C1F3021201224BF4A8
:1012A3000212012255F40212012264F402120122F5
:1012B3007AF4021201228DF402120122EDF40212D9
:1012C300012201F502120122F8950312012262960E
:1012D300031201227496031201228E8A0312012241
:1012E300DE8A03120122678B03120122CD8B0312C4
:1012F3000122A28203120122CC82031201229283D1
:10130300031201226D8403120122C0AA02120122D8
:101313007DAB02120122B8AB02120122E0AB021232
:10132300012242AC021201228EAC02120122EEAC67
:101333000212012281AD0212012280AE02120122A9
:101343000FB00212012292B002120122F9B002126E
:10135300012210B1021201221AB20212012258B262
:10136300021201220080021201226883021201226A
:10137300BF8302120122DE83021201225C84021265
:101383000122EC8502120122D08602120122DC8A9C
:1013930002120122AC8B02120122DF84031201220A
:1013A300F58403120122228503120122DF85031231
:1013B30001222D8603120122B58603120122D6864D
:1013C3000312012293E602120122D8E6021201223D
:1013D300F5E602120122B1E7021201220CE8021221
:1013E3000122EDE80212012227EA02120122CCFFB8
:1013F30001120122DCFF02E066701008A3E06670B0
:101403000A08A3E066700408A3E06622C3E796080F
:1014130009E7960809E7960809E79622C3E09608C4
:10142300A3E09608A3E09608A3E09622C008C3E0D1
:1014330096F50808A3E096420808A3E09642080838
:10144300A3E09645087001D3D00822080808EAC033
:10145300E0EBC0E086F0E7A4FA180986F0E7A42AD7
:10146300FA180986F0E7A42AFA180986F0E7A42AED
:10147300FA1986F0E7A4FBE5F02AFA190886F0E7E3
:10148300A42BFBE5F03AFA190886F0E7A42BFBE559
:10149300F03AFA18180986F0E7A4C5F02BFBE43AF2
:1014A300FA1908E7C5F0C6A426F6E5F03BFBE43AD3
:1014B300FA1886F0E7A4F6E5F00826F6E43B08F60A
:1014C300E43A08F6D0E0FBD0E0FA22E4CFC0E0E44F
:1014D300CEC0E0E4CDC0E0E4CCC0E075F020E62669
:1014E300F608E633F608E633F608E633F618181876
:1014F300EC33FCED33FDEE33FEEF33FFC3EC970922
:10150300ED9709EE9709EF97191919400FFFEC971B
:10151300FC09ED97FD09EE97FE191906D5F0BFEC0E
:10152300F709EDF709EEF709EFF7191919D0E0FC00
:10153300D0E0FDD0E0FED0E0FF226016080808C628
:10154300C313C618C613C618C613C618C613C6D502
:10155300E0EA227009080808226016181818C6C3A2
:1015630033C608C633C608C633C608C633C6D5E075
:10157300EA22E627F60809E637F60809E637F60809
:1015830009E637F622E026F608A3E036F608A3E0DC
:1015930036F608A3E036F622E026F008A3E036F09C
:1015A30008A3E036F008A3E036F022C3E697F60876
:1015B30009E697F60809E697F60809E697F622C3BF
:1015C300E096F008A3E096F008A3E096F008A3E005
:1015D30096F022E056F608A3E056F608A3E056F686
:1015E30008A3E056F622E056F008A3E056F008A35D
:1015F300E056F008A3E056F022E0F608A3E0F60870
:10160300A3E0F608A3E0F622E6F008A3E6F008A3B9
:10161300E6F008A3E6F022E0FAA3E0FBA3E0FCA3D4
:10162300E0FD22EAF0A3EBF0A3ECF0A3EDF022E05F
:10163300F8A3E0F9A3E0FAA3E0FB22E8F0A3E9F0C2
:10164300A3EAF0A3EBF022CAC0E0E6F0A308DAFABB
:10165300D0E0FA22CAC0E0E0A3C582CCC582C5832C
:10166300CDC583F0A3C582CCC582C583CDC583DA3E
:10167300E6D0E0CA22C3E498F8E499F91216B980D7
:1016830026C3E49AFAE49BFBE920E7E91216B9E4DE
:1016930098F8E499F922C3E498F8E499F91216B991
:1016A300E498F8E499F9C3E49AFAE49BFB22EB206B
:1016B300E7CFE920E7E0B90010BB0008E88AF0842F
:1016C300F8AAF022E4FBC8FA22EB70227B10C8339D
:1016D300C8C933C9335007C39AC3DBF280069A5093
:1016E300012ADBEAC833F4C8C933F4C9FA2275F016
:1016F30008E4C833C8C933C933C99AC99B5004C95C
:101703002AC93BD5F0ECFBC833F4C8E4C9FA22601C
:101713000D08C6A2E713C618C613C6D5E0F32260A8
:101723000C08C6C313C618C613C6D5E0F42270044A
:1017330022600D18C6C333C608C633C6D5E0F418F5
:1017430022251810AF08F518400C15198008F51854
:1017530040021519D2AF2200C0D0251810AF08F5EA
:1017630018500C05198008F51850020519D2AFD08E
:10177300D0222518F58210AF08F518400C151980F2
:1017830008F51840021519D2AF851983222518F5DB
:1017930082E43519F583222518F8E43519F9222551
:1017A30018FAE43519FB222518FCE43519FD22E467
:1017B300732518C582C0E0E51934FFC583C0E0E591
:1017C30018C3958224F810AF088583198582188081
:1017D30008858319858218D2AFCEF0A3E520F0A344
:1017E3007808E608F0A3DEFAEFF0A3E58124FAF81F
:1017F300E608F0A3E608F0A3E608F0A30808E60865
:10180300F0A3E608F0A315811581D0E0FED0E0F83F
:10181300158115811581E8C0E0EEC0E0222518C5C9
:1018230082C0E0E51934FFC583C0E0E518C39582A3
:1018330024F910AF088583198582188008858319D8
:10184300858218D2AFCEF0A3E520F0A37808E6088E
:10185300F0A3DEFAEFF0A3E58124FBF8E608F0A39A
:10186300E608F0A30808E608F0A3E608F0A315814C
:101873001581D0E0FED0E0F815811581E8C0E0EED7
:10188300C0E022851983851882E0A3FEE0A3F5203A
:101893007808E0A3F608DFFAE0A3FFE0A3C0E0E0E6
:1018A300A3C0E0E0A3C0E0E0A3C0E0E0A3C0E01079
:1018B300AF08858218858319800885821885831966
:1018C300D2AFD083D08202011F851983851882E0AD
:1018D300A3FEE0A3F5207808E0A3F608DFFAE0A36F
:1018E300FFE0A3C0E0E0A3C0E0E0A3C0E0E0A3C04A
:1018F300E010AF08858218858319800885821885D2
:101903008319D2AFD083D08222C0D02518C582C01C
:10191300E0E51934FFC583C0E0E518C3958224F3DD
:1019230010AF0885831985821880088583198582FD
:1019330018D2AFC8F0A3E9F0A3EAF0A3EBF0A379C0
:1019430008E709F0A3D8FAECF0A3EDF0A3EEF0A3B7
:10195300EFF0A3D0E0F0A3D0E0F0A3D0E0F0A3E554
:1019630020F0A3E5F0F0A322851983851882E0C057
:10197300E0A3E0F9A3E0FAA3E0FBA37808E0F6080C
:10198300A3DFFAE0FCA3E0FDA3E0FEA3E0FFA3E0F6
:10199300C0E0A3E0C0E0A3E0F5D0A3E0F520A3E01E
:1019A300A3F5F010AF088583198582188008858315
:1019B30019858218D2AFD082D083D0E0F8D0E0323C
:1019C30074048006740280027401C0E0F4041217E8
:1019D30075D0E012164A227404800474028000CC8D
:1019E300C0E0EDC0E0E518C39CCCAD1950011D105B
:1019F300AF068C188D1980068C188D19D2AF12166C
:101A030057D0E0FDD0E0FC22D083D082E9C0E0E4EF
:101A130093A3C386F0C5F095F0F908E493A386F089
:101A2300C5F095F0700BE493A3C3994005E90480D6
:101A330002A3E475F002A42582F582E5F03583F56F
:101A430083D0E0F9E493A3C0E0E493C0E022D08321
:101A5300D082ECC0E0EDC0E0E493A3FCE493A3FDEB
:101A6300ED4C600D121A9DEC24FFFCED34FFFD805C
:101A7300EFE493A3FCE493A3FDED4C600D121ADC99
:101A8300EC24FFFCED34FFFD80EFD0E0FDD0E0FC63
:101A9300E493A3C0E0E493C0E022C0E0C3E49396E0
:101AA300087401939618400FE49366700808740154
:101AB30093661870007019A3A3C3E4939608740186
:101AC300939618A3A3400DD0E0D0E0D0E0021A8D86
:101AD300A3A3A3A3A3A3D0E022C0E0C0F088F0E4B3
:101AE300936670080874019366187000A8F0A3A3A6
:101AF300700BD0F0D0E0D0E0D0E0021A8DA3A3D0D9
:041B0300F0D0E0221C
:101B080074F5121820EAFEEBFFEE2434F8EF3400E7
:101B1800F988088909EE2435121C34F8EE243712A6
:101B28001C34F50AEC850AF0A4FCAAF0850AF0ED4D
:101B3800A42AFDE82CF8E43DF97A257B001216B9B1
:101B4800EA850882850983F074075AF87401B80099
:101B5800028004C333D8FCFBEA131313541FF8EEB6
:101B680028F8EF3400F9E8245DF582E9121C375BA8
:101B78006003EA801CEE2436121C34F5F0EA84A8CF
:101B8800F0EE28F8EF3400F9E82438F582E9121C61
:101B980037F97F040218CC74F5121820EAFEEBFF1F
:101BA800EE2434121C34C0E0EE2435F582EF340004
:101BB800F583D0E0F08E828F83A3A3A3A3A3E0FADA
:101BC800A3E0FB8E828F83A3A3A3A3A3A3A3E0FC1C
:101BD800A3E0FDECC39AF50AED9BF50BEE247FF527
:101BE80008EF3400F509850882F583E06401702B5D
:101BF800EE2480F582EF3400F5831219DE121C3DC5
:101C0800740212175AE960137CE07D04EEFAEFFBC8
:101C1800120B96850882850983E4F0AC0AAD0BEEB9
:101C2800FAEFFB121B08122463021B9AF582EF34A9
:101C380000F583E022C082C083851882851983E07D
:101C4800F8A3E0F9C3EA9CEB9D5010C3EC98ED991A
:101C5800401BC3EA98EB995014800EC3EA98EB999D
:101C68004007C3EC98ED994004790180027900D0CF
:101C780083D08222EAC39CFAEB9DFB2274ED1218F2
:101C8800209003A6E064086005E06407702C90616A
:101C9800C8E060269003D4E0F874FF68601CE8751B
:101CA800F003A4C8AAF02AF974D628FE740339FFF1
:101CB8008E828F83A3A3A3E070057900021E24EE11
:101CC8002468F510EF3400F511906060E08510820B
:101CD800851183F0750A49750B05750800750900AB
:101CE800E5D914F50EE5D95403F50F601CEE2482EE
:101CF800F50CEF3400F50D7403650F6058E50E60C0
:101D080013EE2467121C34700B793DEEFAEFFB12C8
:101D18000BBA80A6900544E064016026850C828594
:101D28000D83E06004780480027800850E08E508D9
:101D3800C398FA95E0FB120A3A8A088B09EA450922
:101D48007006120E12021CC2850C82850D83E0708B
:101D5800048A0A8B0B78008016E5D9C0E08812E562
:101D68000A2512F582E50B3400F583D0E0F008E887
:101D7800C3950E40E4850C82850D83E0602874FCD1
:101D8800250EF50E780A1219C7AC0EA90FEEFAEF58
:101D9800FB120C68740212175AE9700AAA08AB09F8
:101DA8001212E0021D117403650F6058850E0C7540
:101DB8000D00780C1219C7AC0AAD0BAA08AB0912B2
:101DC8000C2C740212175A851082851183E0F8745E
:101DD80080687005750C7F8002880CE50CF50A7820
:101DE8000A1219CBE50FF50A780A1219CBA90EAC1D
:101DF80008AD099003D4E0FA7B001208D2740212ED
:101E0800175A80139003A6E06408600BAC0AAD0B68
:101E1800EEFAEFFB120CFE120E1E79017F0C02186F
:101E2800CC74F312182074FC121744EAFEEBFF89F5
:101E380008A2AFE433F509C2AFEE2463F50AEF3424
:101E480000F50B8010AA0AAB0B120BE41212E090FB
:101E580004E7E004F0850A82850B83E0F8A3E0F943
:101E6800E849602FE82402FAE93400FBEA2402F585
:101E78000CEB3400F50D780C1219C78A828B83E0BD
:101E8800FCA3E0F9EEFAEFFB120BD8740212175A12
:101E9800E960B29004E7E060579004E8E0F8900445
:101EA800E7E0C398500C7402650870449004E9E0B8
:101EB800603E8E828F83A3A3A3A3E0851882851931
:101EC80083121F087402121790E8121F089004E684
:101ED800E028F07402121790AC82AD8385188285D1
:101EE8001983AA82AB8379011208DE9004E7E4F033
:101EF800E509A2E092AF740412175A7F060218CCC3
:101F0800F0A3E4F09004E7E0F8220000852187853B
:101F180022C622C0E074EF12190CA2AFE433FEC24D
:101F2800AF759B00906182E0A2E05012E591A2E0BB
:101F3800500C7591FE740165217003121C84E0A297
:101F4800E55051E591A2E5504B7591DF9003A6E06D
:101F580064076005E06408702374016521703579B1
:101F6800019003D4E0FA75F003A4CAA8F028FB7422
:101F7800D62AFA74033BFB121E298018E0640D7000
:101F8800139003C8E004F064287002E4F07A00E0DB
:101F9800F9120E24906182E0A2E64003022042E595
:101FA80091A2E640030220427591BF9003A6E06427
:101FB800057008120D40120D4C8003120D46752154
:101FC80000120DB2E99003A7F07900120DA6120BCA
:101FD800007A017B009003A5E0F91210769078034F
:101FE800E064427055900548E014F0704DC2AF129D
:101FF8001FFA00782AD0E0F618D0E0F6E59F5407DB
:1020080070057509FF800375097FC4C0E07829E66B
:10201800F50808E65509F509740B7808121722D057
:10202800E02508F8906270E0A2E740F8E8C3339032
:102038006272F0906270E0D2E0F0906181E0A2E319
:102048005009E5E9A2E3500375E9F7A3E0A2E750D8
:1020580009E591A2E7500375917FEEA2E092AF7F68
:102068000402196BC0E0C0D0C082C083906183E0D5
:10207800A2E05009E5BFA2E0500375BFFEE0A2E16F
:102088005009E5BFA2E1500375BFFDE0A2E2500987
:10209800E5BFA2E2500375BFFBE0A2E35009E5BF2C
:1020A800A2E3500375BFF7E0A2E45009E5BFA2E43C
:1020B800500375BFEFE0A2E55009E5BFA2E5500364
:1020C80075BFDFE0A2E65009E5BFA2E6500375BF81
:1020D800BFD083D082D0D0D0E032C0E074F21219E1
:1020E8000CE5A7A2E4500FE5A1A2E4500953A7EF1D
:1020F80075A1EF122136E5A7A2E5500CE5A1A2E5EE
:10210800500653A7DF75A1DFE5A7A2E15009E5A1B5
:10211800A2E1500375A1FDE5A7A2E2500CE5A1A23A
:10212800E2500653A7FB75A1FB7F0102196B74F8F7
:102138001218207521019003A6E0640670077A0042
:102148007B00120D28A2AFE433FED2AF9003ACE0BF
:10215800640170187A207B009003A5E0F91210FA48
:102168007A207B009003A5E0F912107C906182E050
:10217800D2E6F0900545E0602185C62280169003DE
:10218800ABE064017008E5C654F84405F5C653BED3
:10219800FC121F147401652160E4EEA2E092AF7F87
:1021A800010218CC8E238F248582288583278518E1
:1021B80082851983E0CEA3E0CF852882852783EB2B
:1021C800C9EAC8EDCBECCA75F010C3E833C8E933E7
:1021D800C9EA33CAEB33CBC3EA9EF526EB9FF52554
:1021E800B35004AB25AA26EC33CCED33CDD5F0DAC9
:1021F800AE23AF242274F11218208A088B098C0AA6
:102208008D0B908FA178081215D6740F121790783D
:102218000C1215FC908FA1780C1215D67808790C41
:1022280012140F908F6950107808790C1215AE7837
:102238000812142F4014800E780C79081215AE7805
:102248000C12142F50047901800279007F080218BB
:10225800CC74ED1218208A088B098C0A8D0B908F8C
:10226800A178081215D67413121790780C1215FC61
:10227800908FA1780C1215D6780C790812140F409B
:10228800117808790C1215AEAA08AB09AC0AAD0B87
:1022980080227510007511007512007513017810F1
:1022A800790C1215AE78107908121575AA10AB11B1
:1022B800AC12AD137F0C0218CC908FA178081215C0
:1022C800FC8A828B8378081215E97F040218CC7483
:1022D800F51218208C828D8378081215FC8A828B5F
:1022E8008378081215C212232BC3E098F0A3E09953
:1022F80012231D401E908F9D78081215FC8A828B30
:1023080083780812159B8E828F83E02420F0A3E047
:10231800344EF080A4F08E828F83C3E09420A3E033
:10232800944E22EA2404F8EB3400F9E8FEE9FF8C25
:10233800828D83A3A3A3A3E0F8A3E0F98E828F8301
:102348002274F5121820E9FE9004FBE0FAA3E0FBE2
:10235800EEC333F8E433F974C928F582748E39F57D
:1023680083E02AF508A3E03BF50978081219C7901D
:102378008F9912161A1221AC740212175A8A088BF6
:10238800098C0A8D0B7410780812153DAA08AB0940
:102398007F040218CC74F11218208A0C8B0D8C0E55
:1023A8008D0F740F121790E0FAA3E0FB7411121747
:1023B80090E0F508A3E0F50978081219C7EA2401A6
:1023C800F508EB3400F509E4F50AF50B780C790803
:1023D80012144E908F7578081215FC780C79081233
:1023E800144EAA0CAB0DAC0EAD0F1221AC74021238
:1023F800175A8B09EA450960047A0180027A00ECD1
:102408002AFCED3400FD7413121790E0F8A3E0F9EC
:10241800E8FEE9FFECF8EDF97A717B021216B9884B
:10242800088909E4F50AF50B8E828F83780812165D
:102438000BECF8EDF97A717B021216B98A088B0950
:10244800740578081217318E828F83A3A3A3A3E59E
:1024580008F0A3E509F07F080218CCC082C083E920
:10246800906000F0D083D08222C2AF02000022C068
:10247800E074F212190CA2AFE433FED2AFC2C0E589
:10248800D1A2E4500653D1EF1212C2EEA2E092AFED
:102498007F0102196BC0E074F212190CA2AFE43389
:1024A800FED2AFE589A2E1500312122C758900C251
:1024B800C5EEA2E092AF7F0102196BC0E074F21280
:1024C800190CA2AFE433FED2AFE58BA2E0500312A1
:1024D800122C758B00C2E880D8C0E0C0D0E8C0E0FC
:1024E800E9C0E0E5A8D2AFC2C7A2E7A2E792AFD0A1
:1024F800E0F9D0E0F8D0D0D0E032C0E0C0D0E8C0F9
:10250800E0E9C0E0C008C009C082C083A2AFE433DC
:10251800F9D2AF9009FDE0F8A3E0687008539AFB80
:10252800A374018025C2E99009FDE0F5087401252E
:1025380008F0747D2508F582E43409F583E0F5C1D7
:102548009009FDE0C394804002E4F0E9A2E092AF74
:10255800D083D082D009D008D0E0F9D0E0F8D0D02C
:03256800D0E0328E
:10256C00FFFFFFFFFFFFFFFF74F71217B4E99002A4
:10257C00E5F07C1D7D037AFF7BFF1208249002E6B8
:10258C0074FFF0A3F0A3E4F0A3F079051207AC906C
:10259C0002E5E0F91206D47A427B081209EC7F01BD
:1025AC0002188674F41217B48A088B09EB548060F5
:1025BC00309002E5E0F912105E8A0A8B0BAE0AAF7E
:1025CC000BEE4F60138E828F83E064B070031207A2
:1025DC00C4EEFAEFFB12104CAA08E5096480FB80EC
:1025EC00047A007B000227C674F21217B474FC1232
:1025FC001744EAFEEBFFEE4F60387402121790EEB0
:10260C00F0A3EF122A2BECF0A3ED122A2BAA82AB2B
:10261C00831206CEE9F508707374121217901235F6
:10262C00DFE50A450B60658E828F831226A2EE4F82
:10263C00700575080280557A067B001210B88A0C5A
:10264C008B0DA80CA90DE8497005750813803D8801
:10265C00828983E41226ACA3A3EEF0A3EF123A789E
:10266C00E50AF0A3E50BF09002EB1227349002EB95
:10267C006017E0FCA3E08003EAFCEBFD8C828D8309
:10268C0012273470F38C828D83123504A9087404DC
:10269C0012175A023C7AA3A3A3A3E0FEA3E0FF22E5
:1026AC00F0A3F0888289832274F21217B4890AE9A4
:1026BC0075F017A4FEAFF09002EAE4F09002E81275
:1026CC002734600A1210BE9002E8E4F0A3F0EEFA90
:1026DC00EFFB1210B88A088B09EA4509602FEEFC53
:1026EC00EFFD790012103A9002E8E508F0A3E50935
:1026FC00F07B00800812271EE4F0A3F00BEBC395CF
:10270C000A40F2E50A9002EAF0790080027913029D
:10271C003C7AEB75F017A4F8A9F09002E8E028FADF
:10272C00A3E0398A82F5832212329AEA4B2274F49E
:10273C001217B4750800750900740C121790123A30
:10274C004CFEE9FF800CE5082401F508E50934008E
:10275C00F509C3E5089CE5099D503285080A8509F1
:10276C000B7403780A121731EA250AF8EB350BF9CA
:10277C0088828983A3A3A3A3A3A31235DFEE650AE2
:10278C007003EF650B70BFE8FAE9FB80047A007BFD
:10279C0000802774F41217B47900EAA2E0501B757C
:1027AC00083E75098F78081219C77C047D007AC021
:1027BC007B0D1207A6740212175A7F04021886C0EA
:1027CC0082C0839002EB1227FE601C88828983A34F
:1027DC00A3E06A7003A3E06B8882898370E8A3A3EB
:1027EC00A3A312329680047A007B00D083D082029D
:1027FC00011F123D4DE8492274EE1217B474FC12FD
:10280C001744EAFEEBFF851882851983E4F0A3F0E8
:10281C00EE24021234E8EE2405122A19EE2404F5F3
:10282C000EEF122DFEE024FE603924FC604624FEDF
:10283C00605224FE605E24FE700302291E24FE708A
:10284C000302299624FE70030229A524FE700302BC
:10285C0029B424FC70030229C324FE70030229D27C
:10286C00022A0F9003047417F0A3E4122A33120403
:10287C004C022A0F851882851983AC82AD8312070E
:10288C00CA0229DF851882851983AC82AD831207B1
:10289C00D00229DF850C08850D097402121790AC43
:1028AC0082AD838508828509831232961206F28ADC
:1028BC000C8B0DAC0CAD0DEC4D6042E4F50CF50D34
:1028CC00780C1219C7750C04750D03780C1219C706
:1028DC00750C05750D03780C1219C7740812179036
:1028EC001219DE791612329012080C740812175A4B
:1028FC00E9F50C700B12328C120464800F750C010C
:10290C00850882850983122A21123504850C080258
:10291C0029E27402121790AC82AD83850C82850D6E
:10292C00831232961206F28A108B11AC10AD11EC98
:10293C004D6043850C82850D83A3A31219DE75109F
:10294C000475110378101219C775100575110378E9
:10295C00101219C774081217901219DE7916123258
:10296C009012080C740812175AE9F509700B123200
:10297C008C12046A800F750901850C82850D8312F7
:10298C002A21123504850908804C85188285198303
:10299C00AC82AD831207D6803A851882851983AC38
:1029AC0082AD831207DC802B851882851983AC825B
:1029BC00AD831207E2801C851882851983AC82AD29
:1029CC00831207E8800D851882851983AC82AD834C
:1029DC001207EEE9F508E50860298E828F83A3E0E3
:1029EC006414601F850E82850F83E0900304122A05
:1029FC002B123D49900305123504E508A3122A3326
:102A0C00120446EEFAEFFB1207700233F0F50CEFEE
:102A1C003400F50D22123D4D85188285198322F064
:102A2C0085188285198322F07C047D03850A8285B2
:102A3C000B8312329A2274EE1217B474FC121744E0
:102A4C008A0A8B0B8C0E8D0FEA2405F508EB3400EB
:102A5C00F5097C157D0079007A047B0312103AE5A8
:102A6C00082402F50CE509122A1C851882851983A5
:102A7C0085821085831178101219C7850882850903
:102A8C0083A3A3A3A3122F461219C7E5082405F5A7
:102A9C0010E5093400F51178101219C7850C8285E0
:102AAC000D831232A01206EC740612175A8A108B80
:102ABC0011AE10AF11E50A2402F50AE50B1234EB46
:102ACC00EE4F7003022C088017740212179012320A
:102ADC009688828983EAF0A3EBF0900304E004F07B
:102AEC00900304E0C394054003022C08E4F510F5B0
:102AFC001178101219C77510ED7511027810121992
:102B0C00C77510EE75110278101219C774061217DA
:102B1C00901219DE7910EEFCEFFD12329012080CB7
:102B2C00740812175AE9705E850882850983A3A37D
:102B3C00A3A3A3A3A3E0F89002EDE0687048122FC2
:102B4C00461219C77CEE7D02E5082408FAE5093423
:102B5C0000FB121034740212175AE960298E828F0E
:102B6C0083A3A3A3A3123296900304E0F51074027E
:102B7C00781012173174052510F58274033511F590
:102B8C0083EAF0A3EBF07402121790858210858310
:102B9C001178101219C774021217901219DE850CD5
:102BAC0082850D83123D5E1206F8740412175A8A40
:102BBC00108B11AE10AF11900304E0F510751100DD
:102BCC007402781012173174042510F8740335113F
:102BDC00F988828983A31227347003022ACCE82453
:102BEC0003F8E93400F9EE4F6003022AD588828994
:102BFC008374FFF0A3F0900304E004F0900304E06E
:102C0C00600A12328C1204587900800B8508828578
:102C1C0009831234FB790A0233F074EA1217B47484
:102C2C00FE1217448C128D13EA2405F50CEB123EA0
:102C3C00C81226A6750800750900EA2402F510EBE7
:102C4C003400F51185188285198385820A85830BDA
:102C5C00780A1219C7850C82850D83A3A3A3A3122E
:102C6C002E081219C7E50C2405F50AE50D1234EBF4
:102C7C00780A1219C7850C82850D83123D5C1206E9
:102C8C00EC740612175A8A0A8B0BEA450B70030276
:102C9C002DB9EA2404F50EEB122DFE1226A68A821B
:102CAC008B83A3A3A3E0F98510828511831232963E
:102CBC001206DAE9F5096003022DB9E4F514F515ED
:102CCC0078141219C77514ED75150278141219C7FA
:102CDC007514EE75150278141219C7740612179034
:102CEC001219DE7913AC0AAD0B8510828511831293
:102CFC00329612080C740812175AE9F5096003028F
:102D0C002DB99002EDE0F8E5087009E0240290037B
:102D1C0005F08017900305E0FCE82402FAE4340087
:102D2C00FBEA6C7001EB6003022DBD850882AA8260
:102D3C00122F3D9414122F355073850E82850F83FC
:102D4C00E0C0E074062A122DF5D0E0F00508850EDF
:102D5C0082850F83A3E0C0E085080A7406250A1259
:102D6C002DF5D0E0F005089002ED122E081219C7CF
:102D7C007CEE7D0285080A7406250AFA7403340079
:102D8C00FB121022740212175A9002EDE02508F57E
:102D9C000874FF6E700374FF6F6012EE24010EEF67
:102DAC003400FFE508C394145003022C50E508606E
:102DBC001312318185108285118312329612045EB2
:102DCC0079008014E509700375090A851282851350
:102DDC0083EEF0A3EFF0A909740212175A7F0E02CA
:102DEC00188685080C7406250CF58274033400F5DE
:102DFC0083223400F50F850E82F58322123A8B2242
:102E0C0074EE1217B474FE1217448C0E8D0FEA2454
:102E1C0005F50CEB122A1C750B00900304E4F0F57D
:102E2C000AEA2402F508EB3400F509804990030402
:102E3C00E0FA9002EDE0F8122F3D9417122F354076
:102E4C000D900304E0F87416C3989002EDF0122F65
:102E5C00461219C77CEE7D0274052AFA74033400FD
:102E6C00FB121022740212175A9002EDE0F8900334
:102E7C0004E028F0050AE50C2416F582E50D122D68
:102E8C00F9E0F8E50AC3984003022F1E900304E012
:102E9C00C39416507DE50AC333F8E433F9E50C28E6
:102EAC00FEE50D39FF851882851983AC82AD838EC2
:102EBC00828F831232961206F28A108B11AC10ADEF
:102ECC0011EC4D7005750B018043E4F510F511788C
:102EDC00101219C77510ED75110278101219C775FB
:102EEC0010EE75110278101219C774061217901291
:102EFC0019DE791685088285098312329612080C20
:102F0C00740812175AE9F50B7003022E391234F7B4
:102F1C0080107C047D038508828509831232961209
:102F2C000470A90B74020233F2E99400C365D03328
:102F3C0022EA28F8E43400F9E822E0F510751100D3
:102F4C0078102274EA1217B474FC1217448A0C8B92
:102F5C000D8C128D13EA2405F50AEB1234EB75086F
:102F6C0000750900E50A2402F510E50B3400F51193
:102F7C00740212179085820E85830F780E1219C772
:102F8C00850A82850B83A3A3A3A3123A371219C710
:102F9C00E50A2405F50EE50B3400F50F780E121931
:102FAC00C78510828511831234F11232901206EC0F
:102FBC00740612175A8A0E8B0FAE0EAF0FE50C2447
:102FCC0002F50EE50D3400F50F804088828983747C
:102FDC00FFF00508122DEE74FFF005089002EDE0ED
:102FEC00F50C750D00780C1219C77CEE7D02850866
:102FFC000C7406250CFA74033400FB1210227402B4
:10300C0012175A9002EDE02508F508EE4F60718E0C
:10301C00828F83A3A3A3E0F9850E82850F831232DE
:10302C00961206DAE9F509EE2404122A19E970441D
:10303C00E4F514F51578141219C77514ED7515020D
:10304C0078141219C77514EE75150278141219C775
:10305C0074081217901219DE7911EEFCEFFD850E33
:10306C0082850F8312329612080C740812175AE9D3
:10307C00F5096027850C82850D8312317712350492
:10308C00E508700302315D123181850E82850F8354
:10309C001232961204767900023172850882AA8265
:1030AC00EA9002ED7009E02404900305F08022E020
:1030BC00F8900305E0F514E82404FCE43400FDEC7E
:1030CC0065147001ED70C0122F3D9412122F355003
:1030DC00B6850C82850D83E0C0E074062A122DF5AE
:1030EC00D0E0F00508850C82850D83A3E0C0E012CA
:1030FC002DEED0E012319385820C85830D780C1265
:10310C0019C774041217901219DE85108285118369
:10311C00123D5E1206F8740412175A8A0C8B0DAE0F
:10312C000CAF0D85080C7406250CF874033400F9EB
:10313C00EE4F7003022FD7851882851983E08882A1
:10314C008983123193A3E0C0E0122DEED0E0022F60
:10315C00E5E509700375090A850A82850B8312312E
:10316C0077123504A9097404022DE6123D4D85121F
:10317C008285138322900305E0F5F0E50884900323
:10318C0004F07C047D0322F00508851882851983E0
:10319C002274EC1217B474FE1217448A088B098C33
:1031AC000E8D0FEA2405FEEB3400FF85188285197D
:1031BC0083AC82AD838E828F831232961206F28A92
:1031CC000A8B0BEE2418122A19EA450B70030232F3
:1031DC00671233D9503285188285198312329612B0
:1031EC0008008A108B11EA4511606B7912AC0AAD9C
:1031FC000B8508828509831232968510828511838E
:10320C001217B2E9F50A7058E4F50AF50B780A12B0
:10321C0019C78E828F83A3A3E0F50A780A1219C707
:10322C00EE24031234E8780A1219C78E828F8312A7
:10323C0032A0120812740612175AE9F50A70218589
:10324C000C82850D83E0701F8508828509831232FC
:10325C009612047C8011750A0E8009750A0180048F
:10326C00E50A60031234F7850C82850D83E0600457
:10327C0079008002A90A740212175A7F0C02188670
:10328C007C047D03850A82850B8312329A22E0FA34
:10329C00A3E0FB22E0FCA3E0FD85088285098312F4
:1032AC00329A2274EE1217B474FE1217448A088BE9
:1032BC00098C0C8D0DEA2405FEEB3400FF750E0015
:1032CC00851882851983AC82AD838E828F831232EE
:1032DC00961206F28A0A8B0BEA450B70030233C571
:1032EC001233D950358518828519831232961208FB
:1032FC00008A0E8B0FEA450F605E7912AC0AAD0B9B
:10330C00850882850983123296850E82850F831279
:10331C0017B2E9F50E60030233C88508828509836C
:10332C001235DFAA0AFB1207F48A108B11A810A918
:10333C0011E849701E7AFF7BFF1207F48A108B117B
:10334C00A810A911E849606C88828983E50AF0A36A
:10335C00E50BF0750A008007750E0E805F050A906C
:10336C0002EAE0FAE50AC39A504AE50A75F017A496
:10337C00FAABF088828983A3A3E02AFAA3E03BFB93
:10338C008A828B831234F1EC4D70D2750A17750B4F
:10339C0000780A1219C7EEFCEFFD1210227402120B
:1033AC00175AEEFCEFFD85088285098312329612BE
:1033BC0004828014750E098003750E01123D45853B
:1033CC000C82850D83123504A90E022F30E50824DA
:1033DC0002F508E5093400F5098A828B83A3A3A3BF
:1033EC00E0A2E522740412175A7F0A02188674ECC4
:1033FC001217B48C108D11EA2405F50CEB122A1C53
:10340C00750F00EA2402F50AEB1234EB850A82F5FB
:10341C00831232961207F48A088B09EA4509700365
:10342C000234DD750E008071850C82850D83E0649D
:10343C0001704F8E828F83A3A31219DE8E828F832D
:10344C00A3A3A3A3E0F51275130078121219C7EE0B
:10345C002405F512EF3400F51378121219C7123245
:10346C0090120812740612175AE9F50F6014850CA5
:10347C0082850D83E4F0123D4585108285118312FF
:10348C0035047C177D007900EEFAEFFB12103A8EB2
:10349C00828F83E4F0A3F0050E9002EAE0F8E50ECB
:1034AC00C398501EE50E75F017A4F8A9F085088294
:1034BC00850983A3A3123ED21234F1EC4D600302B2
:1034CC00343485088285098374FFF0A3F0E50F700E
:1034DC0006123290120488A90F023287F50AEF34D3
:1034EC0000F50B22A3E0FCA3E0FD228E828F831259
:1034FC003D4D850E82850F83E8F0A3E9F022C08252
:10350C00C0839002E6E06A7003A3E06B70067AE673
:10351C007B0280047A007B000227F7C082C083788C
:10352C00008C828D83E06A7003A3E06B7010E875E9
:10353C00F003A4F8A9F0EC28FAED39FB8015088CFF
:10354C00828D83A3A3A3E06A7003A3E06B60DF7A90
:10355C00007B000227F774F61217B41207BE8A829A
:10356C008B83E582458370067A007B008007A3A3DA
:10357C00A3A3123296023BF674F21217B4E9FE744E
:10358C000E1217901235DF7410121790123A578CD6
:10359C00828D83E064027036A3123D53F50CA3E0D8
:1035AC00F9A80C74026870037429697021750C02F7
:1035BC00750D00780C1219C778081219C7780A1201
:1035CC0019C7EEF9120836740612175A80027901DF
:1035DC00023C7AE0F50AA3E0F50B2274E81217B46A
:1035EC0074FB121744E9851882851983F08A168BAF
:1035FC0017ECFEEDFF751000741D121790123D496B
:10360C00741D1217901235048E828F83A3A3A3E02E
:10361C00A2E4502D741D1217901232961208008AD3
:10362C00828B83E58245837003023A28790AEEFC8B
:10363C00EFFDAA16AB171217B2E9F5106003023AA8
:10364C002B741F121790123A5774211217901235BF
:10365C00DF7423121790E0F50EA3E0F50F8E828F26
:10366C0083E0640260030239D6A3123D49850882C7
:10367C00850983A3858212858313EE2406122A19E9
:10368C0088828983E0FAA3E0F9EA2400F514E4398E
:10369C00F5157814121A51010000280128CB3607B1
:1036AC0000022890370328FD360029C7380129F27B
:1036BC0038022993380329C73804297139D639E5DA
:1036CC000E450F60030239D1850C82850D83123AA9
:1036DC004CFAE9FB8A828B83E0850A82850B831284
:1036EC003A821219C78A828B83A3E0FCA3E00239C9
:1036FC005BE50E450F60030239D1850A82850B8389
:10370C007401F0123A5F850882850983F07C007D94
:10371C00008E828F83A3A3A3A3E02401FAA3E03439
:10372C0000FB1206F2EA4B60418A828B83E0240292
:10373C00F8850A82850B83E028F0EA2404F8EB3440
:10374C0000F988828983E0851282851383123A946A
:10375C00123A821219C78A828B831234F0E508243C
:10376C0003FAE5093400FB023960850A82850B8374
:10377C00E02404F07C047D007900AA12AB13121033
:10378C003A023A2BE50E450F60030239D1123A5F2B
:10379C00FEA3E0FF850A82850B837404F0EE850896
:1037AC0082850983F0EF851282851383F0740312EE
:1037BC001790AC82AD83EEFAEFFB1206F28A0C8BFB
:1037CC000DEA450D70030238748A828B83A3A31211
:1037DC0026A2740112179085820E85830F780E1223
:1037EC0019C774051217901219DE7CFF7DFF1206A3
:1037FC00F8740412175A8B0FEA450F7033850C823C
:10380C00850D83123A371219C7850C82850D83A357
:10381C001219DE7C027D007AD87B8F120524740489
:10382C0012175AE9700A740112179074FFF0A3F082
:10383C008E828F83E064027039750C02750D0078EE
:10384C000C1219C78E828F831234F0E5082404FA07
:10385C00E5093400FB121022740212175A850A82F1
:10386C00850B83E0240280097401121790EEF0A3FB
:10387C00EFF07401121790123A48F074011217907D
:10388C00A3123A400239CBE50E450F60030239D141
:10389C00850C82850D831234F1AA16AB1712082AF7
:1038AC00850A82850B837402F0EA85088285098378
:1038BC00F0851282851383EB0239CEE50E450F603D
:1038CC00030239D1123A5FF8A3E0F9850A82850B1D
:1038DC00837402F0E8850882850983F0E9851282F9
:1038EC008513830239CE850C82850D831232961294
:1038FC00101CEAFC8C82A882C3950EE4950F405FE5
:10390C00E8650E7002E50F70047C00802285188239
:10391C00851983E0FAE50E2AFAE50F3400FBC3EAB9
:10392C0098EB94005003E08005E50ECCC39CFCECB6
:10393C00850A82850B83F08C0A750B00780A1219A4
:10394C00C7850C82850D83E0250EFCA3E0350FFDA9
:10395C00AA08AB09121022740212175A023A2B75DC
:10396C001007023A2BE50E450F705A850C82850D17
:10397C0083123D49850A82850B8374071226AE1289
:10398C003A401226AEA3E0851282851383F0E82418
:10399C0002FAE93400FB8A828B83123A40123A6FA6
:1039AC00123A48A3123A78123A51F0E82405F8E991
:1039BC003400F988828983123A51A3123A94A3A352
:1039CC00A3A3F0805A75100B8055741D121790121A
:1039DC0032961207BE8A828B83E5824583603D1244
:1039EC003D49880C890DE8450D6031780E1219C7D8
:1039FC00780A1219C778081219C77406121790E0C2
:103A0C00F9EEFCEFFDAA16AB17850C82850D83121F
:103A1C0017B2740612175AE9F510800375100EA927
:103A2C0010740512175A7F10021886E0F50E750FE8
:103A3C0000780E22E085088285098322123A9E22A4
:103A4C00123D4DE822123A9EA3A322E0F508A3E012
:103A5C00F50922850C82850D83E0F8A3E0F58388B7
:103A6C0082E022A3A3F08A828B83A322F08882892E
:103A7C0083A3A3A3A322F08A828B83123A8B22E026
:103A8C00F50A750B00780A22F088828983A3123A12
:103A9C009E22E0850882850983A3A32274EE121767
:103AAC00B474FE1217448A0A8B0BECFAEDFB7414F7
:103ABC00121790E0F510A3E0F5117416121790E0B0
:103ACC00FE7418121790E0F50EA3E0F50F8518821E
:103ADC00851983AC82AD831206F28A0C8B0DEA45F4
:103AEC000D60498518828519831232961207BE8A99
:103AFC00828B83E5824583602FA3A3123A57E50896
:103B0C0045096024780E1219C778101219C7EEF9FE
:103B1C00AC0CAD0DAA0AAB0B850882850983121774
:103B2C00B2740412175A8006790E80027901022FA2
:103B3C003074F61217B474FE121744740C121790EA
:103B4C00123A4C851882851983F07401121790E98A
:103B5C00F0E4F508F50978081219C7750802780819
:103B6C001219C77404121790858208858309780886
:103B7C001219C7120812740612175A740212175A25
:103B8C00806874F71217B4EAFEEBFF89087C1D7D80
:103B9C000312082AEA5402600BA908EEFAEFFB1292
:103BAC0006E6800279010225AA74F61217B474FF96
:103BBC006A700374FF6B70168C828D83123BFBE46E
:103BCC00F08C828D83A3A3A3123BFBA38018120756
:103BDC00FA8A088B09A808A909E849600D88828926
:103BEC008374FF1226ACA3A3E4F07F020218867440
:103BFC00FFF0A3F08C828D83A3A32274F61217B46A
:103C0C001207FA8A828B83E58245836006A3A3E0C0
:103C1C00FA80027A007B0080D174F21217B48A0801
:103C2C008B09ECFEEDFF740E121790E0F50A1207EB
:103C3C00FA8A0C8B0DA80CA90DE8497026EEFCEF46
:103C4C00FD7AFF7BFF1207FA8A0C8B0DA80CA90DCD
:103C5C00E84970047911801688828983E508F0A3FD
:103C6C00E509F088828983A3A3E50AF079007F0631
:103C7C0002188674EE1217B4EAFEEBFF8C088D095D
:103C8C00890C7414121790123D4974161217901265
:103C9C003296750D00E8496003023D3D7402650CD7
:103CAC006003023D387412121790123D53FCA3E0CE
:103CBC00F9EC2400F50EE439F50FEAF4F8EBF4F91D
:103CCC00EC58F8E50F59F9E849705CE5082406F85A
:103CDC00ED3400F9880A890B8882F583123D5E1257
:103CEC00082A8A108B11E50E65107004E50F65111A
:103CFC006042780E1219C7850A82850B83123D5ECD
:103D0C00120830740212175AE9F50D7027780E124A
:103D1C0019C7850882850983A3A3123D5C12084844
:103D2C00740212175A800D750D808008750D0D8068
:103D3C0003750D0BA90D0233F58E828F83123D4D49
:103D4C0022E0F8A3E0F922123D4D88828983E0221B
:103D5C00A3A3E0FCA3E0FDEEFAEFFB2274E812173C
:103D6C00B474E7121744851882851983EAF0A3EB23
:103D7C00F08C168D17890E750800750900743112B8
:103D8C001790E0F512A3E0F5137433121790E0F5D9
:103D9C0014A3E0F5157435121790E0F50FE50975CD
:103DAC00F003A4F8A9F0851882851983123ED2E09D
:103DBC00F47003A3E0F47003023EB5EE2402F50C9C
:103DCC00EF123EC8E07003023EB585160A85170B4C
:103DDC00780A1219C7AC14AD15AA12AB131207B29C
:103DEC00740212175A8A0A8B0BEA450B7003023EB7
:103DFC00B5E4F510F51178101219C7740612179066
:103E0C0085821085831178101219C77409121790C6
:103E1C0085821085831178101219C785128285133B
:103E2C0083A3A3A3A31219DE7914AC0AAD0B8E8263
:103E3C008F8312329612080C740812175AE97069A3
:103E4C00850A82850B83A3A3A3A3123D4974021296
:103E5C001790123504850C82850D83E0A2E0501872
:103E6C00A90E7402121790AC82AD838E828F8312CE
:103E7C00329612070AE94208850C82850D83E0A26E
:103E8C00E15026E50FF50A780A1219CBA90E740336
:103E9C00121790AC82AD838E828F831232961207EA
:103EAC0004740112175AE942080509E509C3940282
:103EBC005003023DA9A9087419023A2F3400F50DDC
:103ECC00850C82F58322E028FEA3E039FF8E828FD9
:103EDC00832274F21217B4EAFEEBFF890B740165AE
:103EEC000B600E7402650B706A7901120A0AE97094
:103EFC0062EEFAEFFB1207F48A088B09EA450960B7
:103F0C0047750A00800B7C177D00790012103A056A
:103F1C000A9002EAE0F8E50AC3985021E50A75F028
:103F2C0017A4F8A9F0850882850983A3A3E028FAD1
:103F3C00A3E039FB8A828B831227FE70C985088225
:103F4C0085098374FFF0A3F07C1D7D03EEFAEFFB73
:103F5C00120824023C7A74F21217B48A088B09EC0A
:103F6C00FEEDFF740E1217901235DF900DBEE0F4CB
:103F7C00603D7A097B00121046EA4B60328A828BD4
:103F8C008374B1F0A3E4123A71A3123A6FA3E5085B
:103F9C00F0A3E509123FBEEEF0A3EF123FBEA3A3C0
:103FAC00E50AF0A3E50BF0900DBEE0F912105202F9
:103FBC003C7AF08A828B83A3A3A3A3A322C082C0E2
:103FCC00839061907404F0A37448F0A3E4F09061C2
:103FDC00807440F09061BC7407F09061877469F054
:103FEC009061B67416F07900120B067902120B0C64
:103FFC0090256CE493F46006E493F9120AE27905D7
:10400C00120E060243C4C082C083E9540FF99061BA
:10401C0085E0696012E5C654804449F5C6E59E54B6
:10402C007F644970F8E9F053C680E59E547F70FABE
:10403C000243C474F71217B4E5A8FE53A87E120A03
:10404C00EEC2BA539AFEC289759B00C2C2120AF420
:10405C0075A91175B905120AFAD2BA439A0174807E
:10406C005E42A802495BC082C083906181E4F0A3E8
:10407C000243C175E90075910075BF0002011FC0B4
:10408C0082C083906181E4F0A374C0F0A3E4024386
:10409C00C3C082C08374F81217449003A81252F460
:1040AC00700302417C9003A8E0544060237908859A
:1040BC001882851983AA82AB83120C02851882851B
:1040CC001983AA82AB831208BA9003A8E054BFF0FC
:1040DC00E054806010790C7A697B05120C02900315
:1040EC00A8E0547FF0E0A2E0500F7900120B06120A
:1040FC0008C09003A8E054FEF0E05402600F790170
:10410C00120B061208C09003A8E054FDF0E0540412
:10411C00600F7900120B0C1208C69003A8E054FB38
:10412C00F0E05408600F7901120B0C1208C69003D2
:10413C00A8E054F7F0E05410600F7902120B0C1247
:10414C0008C69003A8E054EFF0E05420600F790308
:10415C00120B0C1208C69003A8E054DFF0A3E05435
:10416C0001600D120B181208CC9003A9E054FEF05C
:10417C00740812175A0243C4C082C083E960051444
:10418C00602A804F90619A7433F0A37455F090615B
:10419C00A0743AF0900543E064017009C291900359
:1041AC00AA7467802D9003AA7461802690619A741A
:1041BC003FF0A3745AF09061A0747FF0900543E037
:1041CC0064017009D2919003AA747180059003AABE
:1041DC00746AF00243C4C082C083E9600B14600DA2
:1041EC0014601714600C8020902570801590257138
:1041FC008010900543E06401700590257280039057
:10420C002573E493906186F00243C474EE1217B4E4
:10421C0074F4121744851882851983AC82AD8375AA
:10422C00838F758281740412165790257093F460F5
:10423C0003024341907808E0C394025003024321E7
:10424C007404121790AC82AD8375838F75822274BF
:10425C0008121657FC7EFF7FFF8E0C7D008C82852A
:10426C00820E800F74086D606D74096D6068740A3D
:10427C006D60638D0875090074027808121731128D
:10428C00434B1215FCA909E50AC9F8881074187873
:10429C000812153DE5104508FAE9FBE50EC333F8A5
:1042AC00E433F97404121790E58228F582E583391A
:1042BC0012484BC3E89AE99B4008E8C39AF8E99B7B
:1042CC008006EAC398F8EB99F9C3E89EE99F50067B
:1042DC00E8FEE9FF8D0C0DEDC39413408774FF6E5F
:1042EC00700374FF6F6024850C0874027808121731
:1042FC003112434B1215FC851882851983E58225F2
:10430C000EF582E583124CEAE508F00CECC394043C
:10431C00500302426175080175090078081219C72B
:10432C007402121790AC82AD837A5C7B091212086E
:10433C00740212175A740C12175A7F0A02188674D8
:10434C00482508F58274783509F583780822C082EF
:10435C00C083906186E0F8902573E49368700990AF
:10436C002572E493906186F09061AE7468F0A3744A
:10437C006AF090624574FBF0A304F053F4FD43FE25
:10438C00029005437401F09061A0E0643A700479E6
:10439C000080027901120B060243C4C082C08390D4
:1043AC0004F5E06401700A9004FAE06004790C8072
:1043BC000279008003F0A3F0D083D08202011FC0E9
:1043CC0082C08375E1F19004F8E0604D146009142B
:1043DC006051146049147050120B2A9004EEE0F9ED
:1043EC007AEF7B04120D88908F7D12161A120DBE77
:1043FC00908FB912161A120D949004F9E0F9120D5F
:10440C00A07901120DFA1244E72416124CE77442FB
:10441C00F0A3740BF07900809F120B3080BD120B4F
:10442C003680B8120B3C80B3791280EB74F41217FF
:10443C00B475D90D9004D9E0A2E0E4331313F8124B
:10444C0044DD484401F5D9780012454A40FB780018
:10445C00880874DA12524A740412455440F275E119
:10446C00959004D9E0F97ADA7B04120D8E900DE068
:10447C0074B8F0A3740A12455A12459E124595124F
:10448C0046B29004F8E064019004EC700B1244F016
:10449C001215FC908F7980091244F01215FC908F44
:1044AC00717808121588908FA178081215D61244CD
:1044BC00E7240E124CE7780812160B1244E724146A
:1044CC00124CE77413F09003A67402F07F040218E8
:1044DC00869004EEE0C4333354C0229004ECE0F830
:1044EC00A3E0C82212518278082274F61217B41273
:1044FC0046838AD9780012454A40FB780080061220
:10450C0045FB124738E8C39940F512467512454AE7
:10451C0040FB780080081252467405124738E8C3F5
:10452C009940F375E195900DE074C4F0A3740A12F0
:10453C00455A1245647412F09003A602491F88086C
:10454C0074EF2508F58274041248B59406221246BD
:10455C009B74BEF0A3740A2212459E124595124616
:10456C00B69004ECE0F8A3E0C8240E12458D74FF5D
:10457C00124FBF9004ECE0F8A3E0C8241412458D50
:10458C0022F582E83400F58322F0A374D6F0A374EC
:10459C000A221245A2221245A622F0A3746EF0A3A1
:1045AC00740C2274F61217B41245F01244DD440256
:1045BC00F5D9780012454A40FB780080061245FB7D
:1045CC00124738E8C39940F575E195900DE0124615
:1045DC0006F0A31246061245677414F09003A674F5
:1045EC00040249219004FEE0F9740729F5D92288C8
:1045FC000874FF2508F58274042274D01246131235
:10460C004613F0A3740A22F0A3740AF0A374D02208
:10461C0074F61217B412468374064AF5D978001250
:10462C00454A40FB780080061245FB124738E8C328
:10463C009940F512467512454A40FB7800800812E5
:10464C0052467405124738E8C39940F375E19590CA
:10465C000DE074CAF0A3740A1246911245647415E5
:10466C00F09003A6740302492190051E1245F374C1
:10467C00044AF5D97800221245F09004EEE0C433D8
:10468C003354C0FA2212469B746EF0A3740C22129F
:10469C00469F221246AC746EF0A3740C1246AC22E8
:1046AC001245A6F0A3221246B622F0900DEE746EBF
:1046BC00F0A3740C12469F746EF0A3740C1245A2F6
:1046CC00F022C082C0831244E72406124CE7E402B5
:1046DC0043C174F71217B49003D4E0F875F003A437
:1046EC00C8AAF02AF974D628F8740339F9E8240515
:1046FC00FAE9125195A3A3A3A3A3A3A3A3A31252B4
:10470C0096A3A3A3A3A3A3A3E024FFF8A3E034FFE1
:10471C00F98A828B83E8F0A3E9F002495B7F0602F9
:10472C001886880874492508F5827405124CC1F561
:10473C00D90822EAFEEBFF9061D0E0F87480C398B0
:10474C00FAEE248222124757940422F582E93400AF
:10475C00F583E0F5D90AEAC32274F61217B4EAFE1F
:10476C00EBFF9061D0E060030247F975D90E75D963
:10477C000375D9047A008A08EE250812524F248B4F
:10478C001247FE40F17A008A08EE250812524F2497
:10479C008312475140F175E1957908EE248BFAEFBD
:1047AC003400FB120BF67904EE2483FAEF3400FB91
:1047BC00120BF67C008C82AA82C3E49AF895E0F97D
:1047CC00EE28F8EF39F9E8248AF582E9124CBDC0DD
:1047DC00E0EE2A12524F24AAF582E9124CEAD0E0FC
:1047EC00F00CECC3940840CD12480780027900020B
:1047FC00492212475794082275E195EE246FF582F1
:10480C00EF124590125311EE2471F582EF12459080
:10481C00E8F0A3E9F0790122C082C08375D9027552
:10482C00D90375D90575E195EA246FF582EB124829
:10483C0049EA2471F582EB1248190243C43400F59D
:10484C00831253112274F61217B4EAFEEBFF900593
:10485C004974061248C01219C77C017903120C6204
:10486C00740212175A75D90675D90378001248A527
:10487C0040FB75E1959003A6E064087017EE246F79
:10488C00F582EF124849EE2471F582EF124CEAE8FA
:10489C00F0A3E9F07901024922880874492508F54A
:1048AC008274051248B59405223400F583E0F5D9DD
:1048BC0008E8C322F075084975090578082274F6D2
:1048CC001217B4EAFEEBFF9061D0E07042790190D0
:1048DC000549740BF09003A6E0640770197508493C
:1048EC0075090578081219C77C010909120C627444
:1048FC000212175A7905740129F5D975D903780074
:10490C00800312472EE8C39940F8124804800279BC
:10491C000080037401F07F0202188674F71217B43A
:10492C00EAFEEBFF75D90375D90375D90DEE24DDBD
:10493C0012494C75E1957904120DC4124807800F89
:10494C00F582EF124CC1F5D922A2E092AF79007F2B
:10495C00010218867F030218867401250AF5D975A1
:10496C00D90378002274F51217B41249F160047857
:10497C000480027800E8240BF8EAC3984055750AC5
:10498C00099005497409F079081249E4120BF08575
:10499C000882850983E0601E750849750905780849
:1049AC001219C77C097903EEFAEFFB120C62740240
:1049BC0012175A750A0D124965800312472EE8C367
:1049CC00950A40F775E1957904120DC4124B647980
:1049DC000180027900024960EE24E2FCEF3400FD14
:1049EC007A4A7B052212473FF8EF1249FA2234002B
:1049FC00F9880889098882F583E02274F31217B4C8
:104A0C008A088B09124B70FAE5082482F50AEB121E
:104A1C004AC76004780480027800E82408F8EAC3E6
:104A2C00985003024AC0750C06900549740CF0901E
:104A3C0003C3E090054AF07402C0E0F97CC47D0326
:104A4C007A4B7B05120BF0D0E0F97CC67D03120B80
:104A5C00F0850A82850B83E0601E750A49750B058B
:104A6C00780A1219C77C067903AA08AB09120C62E2
:104A7C00740212175A750C0A7401250CF5D975D9E4
:104A8C000378008009880A7449250A124734E8C360
:104A9C00950C40F175E1957904120DC4E508246F6D
:104AAC00F582E509124849E5082471F582E50912F9
:104ABC004819800279007F050218863400F50B85B1
:104ACC000A82F583E02274F61217B4EAFEEBFF12A9
:104ADC004B70FCEE2482F8EF124BF360047A0480E6
:104AEC00027A00EA2404FAECC39A40607A02900538
:104AFC0049EAF0EE24F4F582EF124B7A601B75084C
:104B0C004975090578081219C77C027903EEFA1267
:104B1C000C62740212175A7A0674012AF5D975D9E7
:104B2C00037800800312472EE8C39A40F875E1958C
:104B3C00EE2473124B5DEE247F124B5D124B6479A5
:104B4C0004120DC4EE240D12480A800279000249A9
:104B5C0022F582EF124CF922EE241DF582EF124C55
:104B6C00F9A3F0229061D0E0F87480C39822124C23
:104B7C00C190054AF088828983E02274F61217B43A
:104B8C00124B70FEEA2482F8EB124BF360047C04A7
:104B9C0080027C00EC2404FCEEC39C40457C02901B
:104BAC0005497407F0EA24F5F582EB124B7A60178D
:104BBC0075084975090578081219C77903120C6232
:104BCC00740212175A7C0674012CF5D975D9037826
:104BDC0000800312472EE8C39C40F875E1957901DB
:104BEC00800279000249223400F988828983E0220C
:104BFC0074F51217B4E9FEA2AFE433F50AC2AF7F25
:104C0C0000EA246EF8EB3400F980010F8882898366
:104C1C00E0F508EFC3950850188F08EA2508FCEB5F
:104C2C003400FDEC246AF582ED124CBD6E70DC8014
:104C3C0017EA2508FAEB3400FBEA246AF582EB123A
:104C4C004CEAEE124B8004F0E50AA2E092AF024966
:104C5C006074F61217B4A2AFE433FFC2AFEA246E4D
:104C6C00F8EB125027E014F07E0080218E08EA2524
:104C7C0008F8EB125251246BF582E9124CBDC0E0DE
:104C8C00E8246AF582E9124CEAD0E0F00E8C828DB1
:104C9C0083E0F8EEC39840D4EA246DF582EB124C15
:104CAC00EA74FF124CEEEFA2E092AF024922F582B9
:104CBC00EB124CC1223400F583E022C082C083E5A4
:104CCC00A8F8C2AFEA246AF582EB124CEAE9124C5E
:104CDC00EEE8A2E7A2E792AF0243C4F582E81245E0
:104CEC009022F0EA2469F582EB124CF9223400F59B
:104CFC0083E4F02274F21217B48C828D83A3A3A3E5
:104D0C00A3E0541FF0EA243612501D8E828F83E4E8
:104D1C00F0F50C850C8285820AEC250AF8ED124917
:104D2C00FAC0E0EA250AF8EB124D95D0E0F0750DCB
:104D3C0000850882850983E0F50A750B00E50D787E
:104D4C000A121712E50AA2E0502AE50C3333335449
:104D5C00F8250DC0E08E828F83E0F8EA28F8EB127C
:104D6C0052512438F582E9124CEAD0E0F08E828F51
:104D7C0083E004F0050DE50DC3940840B4050CE583
:104D8C000CC39405408D0247293400F9E8245DF5E5
:104D9C0082E91245902274F61217B49003D2E064A3
:104DAC00017003024EA37A009003D8E06003024E18
:104DBC00A37401F0A3E4F0A3F090043804F0900481
:104DCC003DF09003DB124FBA9003E504F090040B16
:104DDC00E4F09003EE124FBBA3F0A3F0A3F0900409
:104DEC0055F0900449F090043E7480F0A3E4F090E8
:104DFC000444F09004C0124EAA9004C9F0900458D8
:104E0C00F09004A8124EAAA3F0A3F09004B4F09072
:104E1C0004B6F09004B2F09004CC124EAA8A087436
:104E2C004012524A7404124CEA74FFF00AEAC3941A
:104E3C000440EA7A008A82A88274E028F58274041D
:104E4C00124CBDC0E0743328F5827404124CEAD0C5
:104E5C00E0F00AEAC3940540DC7A008A82A88274E6
:104E6C00BA28F5827403124CBDC0E074B828F582E0
:104E7C007404124CEAD0E0F00AEAC3940840DC90C7
:104E8C0003D2E004F0640170089003DAE09003D4DC
:104E9C00F07AD67B0380047A007B00024922124F01
:104EAC00BFA3124FBF22C082C083EA2403124CBAA4
:104EBC006008E4F09003D3E014F09003D2E014F017
:104ECC0070069003D474FFF08A828B83A3A3E4F062
:104EDC009004E5E0700D9003D3E064017005790057
:104EEC00120DA60243C4C082C0839003D9E4F09093
:104EFC0003D8F09003D2F0A3F0A374FFF075E1F1A6
:104F0C000243C4C082C083780079009003D9E0606A
:104F1C000478D6790388828983A3A3A3A3E0F9023A
:104F2C0043C474F61217B4EAFEEBFFEE2463F508E3
:104F3C00EF3400F5098016AA08AB09120BE4121223
:104F4C00E09004E6E004F09004E7E004F0850882C9
:104F5C008509831252F470DFEEFAEFFB120BA2EE0E
:104F6C00FAEFFB120C9802492274F71217B4EAFEFE
:104F7C00EBFF8E828F83A3A3A3A3E0FA7B0012091D
:104F8C000EEEFAEFFB120BB4120C7A02495B74F6BC
:104F9C001217B47800880874BA12524A7403124B70
:104FAC006008E8C3940840ED9003BA02491FE4126C
:104FBC004FBF22F0A3F0A3F0A3F02274F61217B4A3
:104FCC00EA240D12501DEC2403F8ED3400F9880886
:104FDC008909EC2407F8ED12502712484D850882F8
:104FEC00850983E0FAA3E0FB1216B98E828F83E861
:104FFC00F0A3E9125308850882850983E0FAA3E03F
:10500C00FB1216B98B09EA450960031250330249A9
:10501C0022F8EB3400F9E8FEE9FF223400F9E8FC51
:10502C00E9FD8C828D83228E828F83E02401F0A394
:10503C00E03400F02274F61217B4EA242E124CBAA3
:10504C00FCA3E0FDEA246F12501D780079FAECFA0B
:10505C00EDFB1216B98E828F83E8F0A3E9F078008D
:10506C0079FAECFAEDFB1216B98B09EA45096003E3
:10507C0012503302492274F01217B4EAFEEBFF749B
:10508C001012179078081215FC120D588A0C8B0D03
:10509C008C0E8D0F908F6D780C121588908FA178D7
:1050AC000C1215D6780C1219C38E828F8312517E76
:1050BC0012161A1221FD740412175AE960030251D8
:1050CC006E8E828F83E02402F8A3E0125251FAE92B
:1050DC00FB8A828B83780812159B908FA17808121B
:1050EC0015FC8A828B8378081215E9EE240BF58265
:1050FC00EF124CEAC082C0838E828F83A3A3A3A33A
:10510C00A3E02401F8A3E03400F9D083D082E06856
:10511C007003A3E069700479018049EE2407F8EF6D
:10512C003400F988828983125037EE24731251753A
:10513C007014EE247412518D7003A3E06D70078A05
:10514C00828B83125037EE247F1251757014EE242B
:10515C008012518D7003A3E06D70078A828B8312CD
:10516C00503779007F08021886F582EF124CC16423
:10517C00012212518222E0F8A3E0F5838882A3A3D6
:10518C0022FAEF125195E06C223400FB8A828B8359
:10519C00E0FCA3E0FD888289832274F31217B4E942
:1051AC00FEECFFEA2462F582EB12517860030252A6
:1051BC00419061D0E0F508EA2482124CBAF50C60FB
:1051CC00047804800278007480C39508FC95E0FD97
:1051DC00EF28F8E41252512402F8E93400F9EC9863
:1051EC00ED99A2D265D0334048740D121790E0F5BA
:1051FC000AA3E0F50BE50C6015780A1219C7EFFC51
:10520C00EEF9120C62740212175A74042FFF740117
:10521C002FF5D98ED97800800C8808E50A12524AED
:10522C00E50B124738E8C39F40EF75E19579008094
:10523C00067907800279FF024AC28808741F250884
:10524C00F58222F8EF3400F9E82274F71217B4A2B1
:10525C00AFE433F508C2AFEA2402F8EB3400F98A64
:10526C00828B83E0FEA3E0FFEE4F600E8882898381
:10527C00E0FAA3E0F5838A8280048A828B8312523F
:10528C00961252A0F0E508024955ECF0A3EDF08817
:10529C0082898322ECF0A3EDF08C828D83E4F0A361
:1052AC002274F71217B4EAFCEBFD7A007B00A2AF74
:1052BC00E433FEC2AF8C828D831252F46022E8FA82
:1052CC00E9FB8A828B8312484D1252FAE4F0A31246
:1052DC005308E849700A8C828D83A3A3E4F0A3F0F1
:1052EC00EEA2E092AF02495B125311E849228C8284
:1052FC008D83E8F0A3E9F08A828B8322F08C828D77
:10530C008312531122E0F8A3E0F922C082C08380FB
:10531C0003125345E9F874FF28190470F4ECFAED04
:10532C00FB0243C4C082C0838003125345E9F87466
:10533C00FF28190470F40243C48C828D83E08A82A6
:10534C008B83F08C828D83A3AC82AD838A828B831A
:10535C00A3AA82AB8322740E12175A7F04021886FA
:10536C0074F01217B474B11217448C0C8D0D908F0D
:10537C004A74201217AA740612165774201217AA10
:10538C00121142E9FE745F121790E0F50AEEC39415
:10539C000A40030254E975F006EEA4F508744112B4
:1053AC0017AA7A0E74202508F9121358E97009749B
:1053BC004D121790E0FF80027F00900EAAE064026D
:1053CC007005750E018003750E007408650A700473
:1053DC007422800274212508F50F7C1B7D00790056
:1053EC0074261217A212103AEFA2E0E433F50974F6
:1053FC00261217AA7A1BA90F121358E970257440AC
:10540C00121790E024F9C3940A5018780E1219CB95
:10541C0074271217AAA909AA0CAB0D1205D2740194
:10542C0012175A7C147D007900740C1217A21210FA
:10543C003A740C1217AA7A1074242508F91213580E
:10544C00E970307C1079FF740C1217A212109AE9D3
:10545C007021741C121790AC82AD837A04742525CC
:10546C0008F9121358740C1217AAA909AA0CAB0D3F
:10547C001205BAAC18AD197A0C74702EF9121358B7
:10548C00E97049AA18AB1912116C7E00EE75F00385
:10549C00A4F8A9F0851882851983E58228F8E5839C
:1054AC00125BFD125DEB601D88828983A3A3E0F57E
:1054BC000875090078081219C7AA0CAB0D12081848
:1054CC00740212175A0EEEC3940440C0EFA2E150BE
:1054DC000C900769E0F9AA0CAB0D12081E74046558
:1054EC000A7027900EAAE06402701F7A0090077D64
:1054FC00E060010A90076AE060047804800278009A
:10550C00E84AF9AA0CAB0D12067A7900744F0256D0
:10551C001774F01217B474F0121744EAFEEBFF8CF8
:10552C00088D09750A0AE9600C14600914603B14B3
:10553C00607D02561312117EE9F50AC3940A4003EA
:10554C00025613E50845097003025613750C0675CF
:10555C000D00780C1219C7EEFCEFFDAA08AB09126E
:10556C001022740212175A025613750C00750E068F
:10557C00750F00780E1219C7EEFCEFFDE50C75F0F7
:10558C000EA4F8A9F0748B28FA740739FB121034A6
:10559C00740212175AE9700B050CE50CC3940A50EF
:1055AC006680CA850C0AE50AC3940A505A8049756C
:1055BC000C00AC18AD197A1075F006E50CA4242378
:1055CC00F9121358E9701C7C1079FFAA18AB191248
:1055DC00109AE9700EEEFCEFFDAA18AB1912059C9F
:1055EC00E9600B050CE50CC3940A501B80C4850CB8
:1055FC000AE50AC3940A500FE50845096009AA0890
:10560C00AB09A90A121178A90A741012175A7F084B
:10561C0002188674F41217B4890875091574FF6A98
:10562C00700374FF6B70277E00AC087A027B00EE6F
:10563C00F912115AE960037509000EEEC3940A4081
:10564C00E8E50860527AA87B11120A1C80491209FD
:10565C00FE8A0A8B0BAE0AAF0BEE4F60377C007DD7
:10566C0000EE2405FAE43FFB8E828F83A3A3A3A351
:10567C00E0F9121142E9C3940A500CAC087A027B8F
:10568C000012115A750900E508600CEEFAEFFB12D6
:10569C0011A88003750914A90902536774F2121733
:1056AC00B4ECFEEDFF750815740E121790E0F50AB8
:1056BC00A3E0F50B74FF6A700374FF6B702175091E
:1056CC0000AC0AAD0BEEFAEFFBA909121160E96010
:1056DC00037508000509E509C3940A503E80E212DF
:1056EC0009FE8A828B83E5824583602C7C007D00D9
:1056FC00E5822405FAE43583FBA3A3A3A3E0F91206
:10570C001142E9C3940A5013AC0AAD0BEEFAEFFB4D
:10571C001211607508008003750814A908025BC596
:10572C0074F01217B474EC121744EAFEEBFFEE247B
:10573C000CF50CE43FF50DEE2405F50EE43FF50FEA
:10574C00EE2409F50AE43FF50BEE2403F508E43FDB
:10575C00F5098E828F83A3A3E024FA70030259E724
:10576C0024FD7003025905147003025802146010D2
:10577C0024FD70030258DC14700302593C025A3E9B
:10578C001264DD6049E0F5838882125A48880E89DC
:10579C000FE8450F6038850C82850D83E0F50C7899
:1057AC000C1219CBEE240BF582E43FF583E0F9855E
:1057BC000A82850B83125DF10A0A0AAB09850E82F7
:1057CC00850F831217B2740112175A025A3E850ABA
:1057DC0082850B831219DE90077F12161A1205CCE4
:1057EC00740212175AE97003025A3E7901850A8233
:1057FC00850B830259B28E828F83A385820A85839F
:10580C000BE060030258BF850E82850F83E0A2E097
:10581C0040030258BF90081D1264E060030258BF99
:10582C007C0E7D007900AA18AB1912103A850C82F7
:10583C00850D831261A7EA4B6010750C06750D007F
:10584C00780C1219C7EA2410801B1261A11209FEF0
:10585C00EA4B7003025A3E750C06750D00780C125B
:10586C0019C7EA2405FCE43BFD74021217A21210BE
:10587C0022740212175A850E82850F83E0A2E25021
:10588C0004D2F08002C2F0A2F0E433F8740C1217C8
:10589C0090E048F0EEFCEFFDAA18AB19121172E97A
:1058AC0070117A027B00900769E0F912107679008A
:1058BC00025A401264DD7003025A3E125A4E7003B3
:1058CC00025A3E850A82850B83E0FC79010259DB82
:1058DC001264DD7003025A3E125A45890BE8450BDF
:1058EC007003025A3E8E828F83A3E0FC7902126110
:1058FC00A18882850B830259E27C007D00EE240492
:10590C00FAE43FFB850882850983E0F9121142E92C
:10591C00F8C3940A4003025A3EEE240AFCE43FFD0D
:10592C007A0475F006E8A42425F9121352025A3EA3
:10593C001261A190077EE06007900EABE0F98069E0
:10594C00900EAAE070047905805F1209FE8A0C8B18
:10595C000DA80CA90DE82404F50CE439F50D8E8284
:10596C008F83A3A3A3A3A3A3A3E0A2E05041E84980
:10597C007003025A3E850C82850D83E0FE603085F3
:10598C000A82850B83E054107025740E1217AAE856
:10599C002405FAE439FBEEF9121142E9701179038E
:1059AC008508828509831261A71205C6025A3EAC8E
:1059BC000EAD0F850C82850D83E0F91261A11211D9
:1059CC00B41264DD606C125A4E60677C0079001270
:1059DC0061A18E828F831217B28057120692E970E2
:1059EC0051900812E064017015121190900812E4A5
:1059FC00F07C0AFDF97A137B0812103A802C750A98
:105A0C0000850A0874132508FEE43408FF8E828F83
:105A1C0083E06401700BA90A1211968E828F83E4C5
:105A2C00F0050AE50AC3940A40D7795012135E12A6
:105A3C00118479017414025617125A5DE0F8A3E030
:105A4C00F922125A5DE0F8A3E0F9E8FEE9FFEE4F07
:105A5C0022E0F5838882A3A32274F41217B474F2A3
:105A6C00121744EAFE8C0B75F006E9A42420F50805
:105A7C00AC18AD197A0EF9121358E9704B7C0679F3
:105A8C00FFAA18AB1912109AE9703D740C121790FA
:105A9C00125A48E8F509E50B6005EE42098004EE60
:105AAC00F45209850982AA82E86A7001E9601574CA
:105ABC000C121790EAF0A3E4F0AC18AD197A0EA909
:105ACC000812135279018002790002536274F212A7
:105ADC0017B474E6121744890A8A088B09ECFEED98
:105AEC00FF740C1217AA7A0E75F006E9A42420F99B
:105AFC00121358E96003025BBE7C0679FF740C122A
:105B0C0017A212109AE96003025BBE7470250AF5A5
:105B1C000BAC18AD197A0CF9121358E96003025B3F
