:020000040000FA
:06000000020107022113BA
:03002B0002254962
:03003B0002256E2D
:0300430002252172
:0300530002218601
:10008300021F7FE5C754F84401F5C7790122000038
:100093000080FB120086B900030200F1E4792178A5
:1000A30008B800028004F709D8FCE479297802B87B
:1000B30000028004F709D8FCE49002817821790BCF
:1000C3008002F0A3D8FCD9FA7AA17B0C900137788F
:1000D300F279038015E493A3AD82AE838A828B8386
:1000E300F0A3AA82AB838D828E83D8E9D9E7758288
:1000F300547583BA74031201197582917583007460
:100103000012011975D00075813F751881751902A8
:10011300759F00020096C09FF59FE473D09F22D085
:1001230083D082C09FE493C0E0740193C0E0740263
:1001330093F59F2209095541525432424C45051209
:1001430008000800020A00020106554152543242D7
:100153004C45000000000000000000000000003AD1
:100163000400004004FF0000B40000280028002819
:100173003075A000A000A000A00000080008E00166
:10018300F0001000100010001000100010005000CC
:100193005000500010001000D007000000000000C5
:1001A3000F0001000500307507001000010081FFFA
:1001B30000000000FF4A0668065006FF020202081C
:1001C300025000A0000000E803029A8101000086AB
:1001D30081029E81010000290D02A481010000B764
:1001E30002029E810100002A0D02A681010000CDBA
:1001F30002029E810100002B0D02A881010000CFA5
:1002030002029E810100002C0D02AA81080000D089
:1002130002029E810100002D0D02AC810100002E1F
:100223000DFF0100FF20029A810100008381029EDD
:1002330081010000920D02AE81000000000002A2C5
:10024300810300001D03140C140C140C140C140C67
:10025300140C140C140C140C140C140C140C140C9B
:10026300960EAE0E900EFFFF02020202020202027F
:1002730002010D0000001001029A8101000080813B
:10028300029E81010000D50D02B4810100006107C7
:10029300029E81010000D60D02B281010000178188
:1002A300029E81010000D70D02B081010000FB8096
:1002B300029E81010000D80D029481010000B980E3
:1002C300029E81010000D90D02928101000083800A
:1002D300029E81010000DA0D029081010000A780D7
:1002E300029E81010000DB0D028E810100009580DA
:1002F300029E81010000DC0D028C81010000098156
:10030300029E81010000DD0D029C81010000DE0DD3
:1003130001053F100AFF00013075030201060000CA
:1003230000000000000000000000000000000000CA
:1003330000000000000000000000FFFF0600800C2A
:10034300E803020A436861726163746572697374D6
:100353006963203100024368617261637465726985
:100363007374696320320008436861726163746562
:100373007269737469632033001043686172616347
:10038300746572697374696320340002436861722F
:1003930061637465726973746963203500029A81BD
:1003A3000100007D81029E81010000B00E02BA812E
:1003B3000300007F0C02A081010000B10E029E81A8
:1003C300010000C20E02BC81010000800C02A0816A
:1003D300010000C30E029E81010000D40E02BE8103
:1003E300020000810C02A081010000D50E029E8153
:1003F300010000E60E02C081000000950C02A281FC
:10040300030000960C02A081010000E70E029E810A
:10041300010000F80E02C2810400009C0C02A081BE
:10042300010000F90E1201229CF40212012276F659
:100433000212012290F70212012293F70212012203
:10044300B7F702120122F5F702120122F6AE0312E8
:1004530001220DAF031201223EAF0312012279AF35
:1004630003120122A3AF03120122CDAF0312012213
:10047300E4AF03120122FBAF0312012212B00312F5
:1004830001223BB0031201224EB00312012264B0D9
:100493000312012277B0031201229EB0031201223C
:1004A300EAB202120122EEB30212012226B40212B0
:1004B300012249B40212012254B40212012277B478
:1004C3000212012286B5021201225BB60212012238
:1004D300D6B6021201225EB70212012299B70212A6
:1004E3000122D0B7021201225EB80212012237B9EB
:1004F3000212012297B902120122A2B902120122A9
:1005030021BA0212012224BA0212012227BA0212CC
:100513000122B6BA02120122B9BA02120122E9BAC1
:100523000212012213BB0212012201BC0212012298
:10053300B3BC02120122008003120122288003129D
:1005430001225680031201228D8003120122EB80C7
:100553000312012236810312012281810312012237
:10056300C181031201220782031201223582031281
:100573000122F28203120122FC8203120122098367
:10058300031201223C830312012208840312012275
:100593001484031201222C840312012236840312D1
:1005A3000122CAB503120122D8B503120122F0B504
:1005B3000312012208B60312012272DA0112012288
:1005C3001EDB0112012299DB01120122BADC0112A6
:1005D3000122F6DC011201229FDD0112012286DED7
:1005E30001120122EADF0112012241E0011201227C
:1005F300C2E001120122B2E101120122FFE1011264
:10060300012285E201120122B7E201120122CBE4A9
:10061300011201220DE5011201222BE50112012233
:10062300AEE50112012282E6011201224AE701121C
:1006330001220AD702120122DDD70212012286D833
:1006430002120122D9D80212012289D902120122EF
:1006530015DA0212012201DB0212012230DB02123F
:10066300012243DC021201228BDC0212012260DD33
:10067300021201229CDD02120122B8DD02120122C4
:100683004EB9031201222092031201223692031261
:1006930001225C92031201227893031201228293B6
:1006A30003120122B79403120122AF950312012210
:1006B30075EF02120122A5F002120122D8F00212F4
:1006C300012222F102120122E9F20212012220BBCD
:1006D300011201228ABB01120122E9BC011201228B
:1006E300F9BC0112012226BD011201227DBD0112B6
:1006F300012226BE011201222DBF01120122F7BFE2
:100703000112012257C1011201229AC101120122D1
:100713003FC2011201228CC201120122B2C2011294
:100723000122C0C401120122C5C401120122CAC69A
:100733000112012217C7011201228AC701120122E5
:10074300BDC7011201225FC80112012208C90112AB
:10075300012240C90112012243C9011201228BC99E
:1007630001120122CBC90112012222CA0112012264
:10077300FFA40312012217A5031201225FA503128E
:10078300012275A503120122BCA503120122D0A6E2
:10079300031201225DA703120122A8A7031201225B
:1007A300F425001201222F260012012274260012C2
:1007B3000122342700120122BA27001201221F2826
:1007C300001201224B280012012284280012012268
:1007D300C22A00120122A62C001201228C2E001222
:1007E3000122CF2F001201221D32001201222F33CA
:1007F300001201227A34001201228A3500120122EA
:10080300A73500120122E23500120122043600123C
:100813000122673600120122283B00120122BD3B50
:10082300001201220E3C00120122353C001201226B
:10083300873C00120122A53C00120122FF3C00125A
:100843000122E83D001201225E3F00120122E23F35
:1008530000120122BD8403120122C7840312012264
:100863000A8503120122258503120122B58503128D
:100873000122DD85031201221A8603120122518609
:10088300031201227A8603120122EF860312012248
:100893000487031201221987031201224A870312D4
:1008A30001225E8703120122838703120122BD877F
:1008B30003120122E9870312012275880312012220
:1008C300A08803120122E98803120122138903126B
:1008D30001223E8903120122B1B403120122E99AD3
:1008E30002120122179B02120122659C02120122AD
:1008F300459D02120122649D02120122E19D021212
:100903000122249E021201227A9F021201223BA09D
:1009130002120122C2A20212012263A302120122C5
:1009230059A40212012256A502120122B0A60212F4
:1009330001223BA70212012271FE02120122DAFEFA
:10094300021201222EFF0212012255FF021201227E
:1009530086FF02120122668903120122D389031240
:1009630001221A8A03120122328B031201222E8CD6
:1009730003120122118D0312012227C70212012241
:1009830069C7021201223BC80212012214C90212D2
:1009930001220ECA02120122F0CA0212012259CB0D
:1009A300021201220FCC0212012283CC0212012275
:1009B300EFCC0212012218CD0212012292CD0212B3
:1009C30001222BCE0212012290CE02120122A5CEC9
:1009D30002120122EBCE0212012204CF02120122E3
:1009E30069CF021201226CCF021201222D9F031242
:1009F3000122559F03120122939F0312012251A04A
:100A030003120122B8A003120122D4A0031201226F
:100A1300FCA0031201222CA1031201223BA1031209
:100A23000122B8A103120122DEA1031201220FCB7E
:100A330001120122EDCC011201221FCF011201226A
:100A43005BCF0112012288CF0112012272D0011261
:100A53000122BDD00112012208D1011201221AD1B3
:100A6300011201225AD1011201228FD10112012256
:100A7300DDD1011201220CD2011201222FD2011267
:100A830001227CD20112012201D3011201221BD5C2
:100A9300011201225AD7011201229BD7011201220E
:100AA3003DD9011201227ED901120122F1D901128D
:100AB300012247DA01120122D48D02120122D28EC1
:100AC300021201226B95021201228C97021201225B
:100AD300579902120122BF9A02120122F5590012FC
:100AE3000122A45A00120122EA5A001201222A5CAE
:100AF30000120122C05D001201223A5E001201229F
:100B0300555E00120122D05E001201222A600012FB
:100B130001228A6100120122906200120122F16314
:100B2300001201220A6400120122686400120122E9
:100B3300566500120122896500120122F96500122F
:100B43000122736600120122BD660012012287672B
:100B5300001201225C68001201223B69001201228B
:100B6300C66900120122346A00120122A86A001227
:100B73000122D36A00120122926B00120122F76C48
:100B830000120122146D00120122336D00120122A2
:100B9300246E00120122496E00120122736E0012AC
:100BA3000122EE6E00120122486F00120122B17081
:100BB300001201225F7100120122A07100120122B2
:100BC3000080021201224E80021201225A80021278
:100BD30001223881021201226981021201229A81C3
:100BE300021201221A8202120122528202120122ED
:100BF300A48202120122E18202120122FE84021265
:100C030001222487021201220F8902120122F98A8A
:100C130002120122E92500120122D69601120122B5
:100C2300069701120122DF9D01120122649F011226
:100C3300012261A50112012249A60112012286A601
:100C430001120122A9A601120122DAA60112012230
:100C5300E3A601120122EDA601120122DBA7011274
:100C63000122D1A801120122C78101120122C685E6
:100C730001120122CC8501120122078D01120122EA
:100C8300209201120122B99503120122B396031295
:100C93000122279703120122659703120122D99794
:100CA300031201225298031201225B9803120122BC
:100CB3006798031201227C9803120122BA98031247
:100CC3000122D09803120122D38D03120122E08D59
:100CD30003120122FA8D03120122398E031201221B
:100CE300778E03120122DC8E03120122F18E03128E
:100CF3000122FC8E03120122098F03120122208F8D
:100D0300031201222E8F03120122398F03120122B3
:100D1300458F03120122548F031201225F8F0312A6
:100D23000122828F0312012229900312012239909A
:100D33000312012253900312012270900312012225
:100D43008C9003120122B19003120122BC90031272
:100D53000122D19003120122E59003120122469150
:100D6300031201224C910312012252910312012218
:100D7300589103120122709103120122A3910312CD
:100D83000122D57100120122597200120122087347
:100D930000120122677400120122887600120122D8
:100DA300747700120122A97700120122CB77001277
:100DB30001227A7800120122727A001201229B7AB0
:100DC300001201222D7B001201225F7B00120122FF
:100DD3006C7B00120122C37B00120122E97B00120B
:100DE3000122567E00120122597F00120122B17F97
:100DF3000012012263E9011201226DEA01120122AC
:100E030054EB011201225EEB0112012280EB01126D
:100E130001228CEB0112012225ED0112012254ED76
:100E23000112012270EE01120122C9EE0112012208
:100E33002FF0011201220EF1011201226AF10112B7
:100E43000122D7F10112012212F20112012251F201
:100E5300011201220AF50112012224F501120122D5
:100E6300B0F501120122BEF50112012217F601129B
:100E7300012225F60112012298F601120122FCF645
:100E83000112012246F701120122BCA7021201221C
:100E9300DEA70212012204AA0212012219AD0212D4
:100EA300012231AE02120122E4AE02120122C6AFC8
:100EB30002120122B0B003120122D5B003120122A3
:100EC30047B10312012290CF0212012299CF0212DD
:100ED3000122A2CF0212012279D0021201222AD2C8
:100EE3000212012260D2021201229AD202120122BC
:100EF300D0D2021201220AD3021201223ED30212DD
:100F030001226AD302120122B3D302120122EDD3CA
:100F13000212012236D4021201228ED402120122BD
:100F2300C3D4021201221ED50212012258D5021285
:100F33000122A9D502120122DFD50212012219D6FC
:100F43000212012247D6021201226AD6021201229C
:100F530052B7031201227EB703120122D9B703123B
:100F63000122E3B703120122F3B703120122CFF7E1
:100F730001120122E4F70112012240F801120122B9
:100F8300ABF801120122F3F80112012265F90112F3
:100F9300012294F901120122A2F90112012204FA99
:100FA3000112012242FA011201225DFA0112012209
:100FB300F8FA01120122A1FB0112012224FC011201
:100FC30001225DFC01120122E8FC011201223FFD16
:100FD300011201229EFD01120122B0FD0112012224
:100FE300D6FD01120122DFFD0112012233FF01129E
:100FF3000122FDB70312012255B20312012233B3BA
:10100300031201229BAA03120122E0AA0312012266
:1010130026AB03120122B8AC03120122D2B9031288
:101023000122EDB903120122FDB90312012290E45A
:1010330002120122B0E402120122B6E502120122D9
:1010430002E60212012222E60212012275E60212D0
:101053000122E2E60212012228E7021201228CE7B2
:10106300021201228FB303120122C0B30312012221
:10107300EAB30312012248B4031201228CF90212CB
:101083000122B1F9021201226AFF01120122494031
:1010930000120122DC4100120122874200120122C8
:1010A3002A4300120122C243001201227B4800128C
:1010B30001221249001201224E4A00120122B64AAD
:1010C300001201226A4B00120122204E001201225B
:1010D3005A4E00120122C44E00120122224F001266
:1010E3000122804F00120122DD4F00120122CC5059
:1010F3000012012212510012012257510012012243
:101103007A5100120122C15200120122D55200125B
:101113000122DE53001201221D5400120122495400
:10112300001201229C5400120122BD54001201221C
:10113300FB54001201224157001201228257001270
:1011430001221D5800120122885800120122C159A0
:1011530000120122F8BA0312012226A2031201226D
:10116300F1A403120122A9BA03120122A1B60312A8
:101173000122B1B603120122C8B60312012244B7F9
:1011830003120122269C03120122D09C0312012286
:10119300129F03120122F4FF01120122E6BA031285
:1011A30001222DDE021201222AE002120122B0E006
:1011B30002120122B7E1021201227BE20212012292
:1011C300F9E202120122DCE302120122DFE302123E
:1011D3000122EDE3021201220AE40212012233E4A6
:1011E300021201225CE4021201226AE402120122C9
:1011F30082E402120122A6B8031201221FB90312CC
:1012030001223EB903120122FCAC0312012263AD99
:101213000312012220AE031201229EAE0312012209
:101223000099031201223399031201223B9A0312FC
:1012330001225F9B0312012224BD0212012200BE80
:101243000212012247BE0212012284BE02120122AF
:10125300F2BE021201224CBF02120122BCBF0212D3
:10126300012294C00212012287C102120122FEC18F
:1012730002120122A1C3021201222EC40212012270
:10128300A1C4021201221DC50212012234C5021299
:10129300012261C602120122BBC602120122E9AA7F
:1012A3000112012281AF01120122AAAF0112012210
:1012B300D3AF0112012285B00112012269B20112DA
:1012C3000122A3B301120122D7B80112012210B9DE
:1012D3000112012254B90112012260BA0112012242
:1012E300D2A703120122EAA7031201223FA8031285
:1012F300012242A80312012234A9031201228CA95C
:101303000312012242AA0312012264AA0312012238
:1013130038EA021201228BEA02120122A8EA02121F
:101323000122B2EB0212012257EC0212012282EDDA
:101333000212012238EF02120122CCFF0212012213
:10134300C8BA03E066701008A3E066700A08A3E059
:1013530066700408A3E06622C3E7960809E79608C7
:1013630009E7960809E79622C3E09608A3E09608E2
:10137300A3E09608A3E09622C008C3E096F5080808
:10138300A3E096420808A3E096420808A3E0964526
:10139300087001D3D00822080808EAC0E0EBC0E0D7
:1013A30086F0E7A4FA180986F0E7A42AFA18098652
:1013B300F0E7A42AFA180986F0E7A42AFA1986F0B6
:1013C300E7A4FBE5F02AFA190886F0E7A42BFBE56E
:1013D300F03AFA190886F0E7A42BFBE5F03AFA187D
:1013E300180986F0E7A4C5F02BFBE43AFA1908E7DD
:1013F300C5F0C6A426F6E5F03BFBE43AFA1886F0FE
:10140300E7A4F6E5F00826F6E43B08F6E43A08F626
:10141300D0E0FBD0E0FA226016080808C6C313C662
:1014230018C613C618C613C618C613C6D5E0EA22D3
:101433007009080808226016181818C6C333C608AE
:10144300C633C608C633C608C633C6D5E0EA22E6A5
:1014530027F60809E637F60809E637F60809E637F6
:10146300F622E026F608A3E036F608A3E036F608EF
:10147300A3E036F622E026F008A3E036F008A3E066
:1014830036F008A3E036F022C3E697F60809E6979C
:10149300F60809E697F60809E697F622C3E096F000
:1014A30008A3E096F008A3E096F008A3E096F022E4
:1014B300E657F60809E657F60809E657F60809E677
:1014C30057F622E056F608A3E056F608A3E056F6D0
:1014D30008A3E056F622E056F008A3E056F008A36E
:1014E300E056F008A3E056F022E0F608A3E0F60881
:1014F300A3E0F608A3E0F622E6F008A3E6F008A3CB
:10150300E6F008A3E6F022E0FAA3E0FBA3E0FCA3E5
:10151300E0FD22EAF0A3EBF0A3ECF0A3EDF022E070
:10152300F8A3E0F9A3E0FAA3E0FB22E8F0A3E9F0D3
:10153300A3EAF0A3EBF022CAC0E0E6F0A308DAFACC
:10154300D0E0FA22CAC0E0E0A3C582CCC582C5833D
:10155300CDC583F0A3C582CCC582C583CDC583DA4F
:10156300E6D0E0CA22C3E498F8E499F91215A980F9
:1015730026C3E49AFAE49BFBE920E7E91215A9E400
:1015830098F8E499F922C3E498F8E499F91215A9B3
:10159300E498F8E499F9C3E49AFAE49BFB22EB207C
:1015A300E7CFE920E7E0B90010BB0008E88AF08440
:1015B300F8AAF022E4FBC8FA22EB70227B10C833AE
:1015C300C8C933C9335007C39AC3DBF280069A50A4
:1015D300012ADBEAC833F4C8C933F4C9FA2275F027
:1015E30008E4C833C8C933C933C99AC99B5004C96D
:1015F3002AC93BD5F0ECFBC833F4C8E4C9FA22602E
:101603000D08C6A2E713C618C613C6D5E0F32260B9
:101613000C08C6C313C618C613C6D5E0F42270045B
:1016230022600D18C6C333C608C633C6D5E0F41806
:1016330022251810AF08F518400C15198008F51865
:1016430040021519D2AF2200C0D0251810AF08F5FB
:1016530018500C05198008F51850020519D2AFD09F
:10166300D0222518F58210AF08F518400C15198003
:1016730008F51840021519D2AF851983222518F5EC
:1016830082E43519F583222518F8E43519F9222562
:1016930018FAE43519FB222518FCE43519FD22E478
:1016A300732518C582C0E0E51934FFC583C0E0E5A2
:1016B30018C3958224F810AF088583198582188092
:1016C30008858319858218D2AFCEF0A3E520F0A355
:1016D3007808E608F0A3DEFAEFF0A3E58124FAF830
:1016E300E608F0A3E608F0A3E608F0A30808E60876
:1016F300F0A3E608F0A315811581D0E0FED0E0F851
:10170300158115811581E8C0E0EEC0E0222518C5DA
:1017130082C0E0E51934FFC583C0E0E518C39582B4
:1017230024F910AF088583198582188008858319E9
:10173300858218D2AFCEF0A3E520F0A37808E6089F
:10174300F0A3DEFAEFF0A3E58124FBF8E608F0A3AB
:10175300E608F0A30808E608F0A3E608F0A315815D
:101763001581D0E0FED0E0F815811581E8C0E0EEE8
:10177300C0E022851983851882E0A3FEE0A3F5204B
:101783007808E0A3F608DFFAE0A3FFE0A3C0E0E0F7
:10179300A3C0E0E0A3C0E0E0A3C0E0E0A3C0E0108A
:1017A300AF08858218858319800885821885831977
:1017B300D2AFD083D08202011F851983851882E0BE
:1017C300A3FEE0A3F5207808E0A3F608DFFAE0A380
:1017D300FFE0A3C0E0E0A3C0E0E0A3C0E0E0A3C05B
:1017E300E010AF08858218858319800885821885E3
:1017F3008319D2AFD083D08222C0D02518C582C02E
:10180300E0E51934FFC583C0E0E518C3958224F3EE
:1018130010AF08858319858218800885831985820E
:1018230018D2AFC8F0A3E9F0A3EAF0A3EBF0A379D1
:1018330008E709F0A3D8FAECF0A3EDF0A3EEF0A3C8
:10184300EFF0A3D0E0F0A3D0E0F0A3D0E0F0A3E565
:1018530020F0A3E5F0F0A322851983851882E0C068
:10186300E0A3E0F9A3E0FAA3E0FBA37808E0F6081D
:10187300A3DFFAE0FCA3E0FDA3E0FEA3E0FFA3E007
:10188300C0E0A3E0C0E0A3E0F5D0A3E0F520A3E02F
:10189300A3F5F010AF088583198582188008858326
:1018A30019858218D2AFD082D083D0E0F8D0E0324D
:1018B30074048006740280027401C0E0F4041216FA
:1018C30065D0E012153A227404800474028000CCBF
:1018D300C0E0EDC0E0E518C39CCCAD1950011D106C
:1018E300AF068C188D1980068C188D19D2AF12157E
:1018F30047D0E0FDD0E0FC22D083D082E9C0E0E411
:1019030093A3C386F0C5F095F0F908E493A386F09A
:10191300C5F095F0700BE493A3C3994005E90480E7
:1019230002A3E475F002A42582F582E5F03583F580
:1019330083D0E0F9E493A3C0E0E493C0E022D08332
:10194300D082ECC0E0EDC0E0E493A3FCE493A3FDFC
:10195300ED4C600D12198DEC24FFFCED34FFFD807E
:10196300EFE493A3FCE493A3FDED4C600D1219CCBB
:10197300EC24FFFCED34FFFD80EFD0E0FDD0E0FC74
:10198300E493A3C0E0E493C0E022C0E0C3E49396F1
:10199300087401939618400FE49366700808740165
:1019A30093661870007019A3A3C3E4939608740197
:1019B300939618A3A3400DD0E0D0E0D0E002197DA8
:1019C300A3A3A3A3A3A3D0E022C0E0C0F088F0E4C4
:1019D300936670080874019366187000A8F0A3A3B7
:1019E300700BD0F0D0E0D0E0D0E002197DA3A3D0FB
:0419F300F0D0E0222E
:1019F80074F5121710EAFEEBFFEE2434F8EF34000A
:101A0800F988088909EE2435F582EF3400F583E07A
:101A1800F8EE2437F582EF3400F583E0F50AEC851B
:101A28000AF0A4FCAAF0850AF0EDA42AFDE82CF837
:101A3800E43DF97A257B001215A9EA850882850913
:101A480083F0F8740758F97401B900028004C333AD
:101A5800D9FCFAE8131313541FF8EE28F8EF3400F2
:101A6800F9E8245DF582E93400F583E05A6008EE70
:101A78002434F582EF802CEE2434F582EF3400F51F
:101A880083E0C0E0EE2436F582EF3400F583E0F51C
:101A9800F0D0E084A8F0EE28F8EF3400F9E8243814
:101AA800F582E93400F583E0F97F040217BC74F588
:101AB800121710EAFEEBFFEE2434F582EF3400F53E
:101AC80083E0C0E0EE2435F582EF3400F583D0E002
:101AD800F08E828F83A3A3A3A3A3A3A3C082C083F2
:101AE8008E828F83A3A3A3A3A3E0F8A3E0F9D083F6
:101AF800D082E0C398F508A3E099F509EE247FF5B4
:101B080082EF3400F583E064017069EE2480F58289
:101B1800EF3400F583E0F8A3E0F98E828F83A3A366
:101B2800A3A3A3A3A3E0FCA3E0FD8E828F83A3A3BA
:101B3800A3A3A3E0FAA3E0FBC3EA9CEB9D5010C368
:101B4800EC98ED99402EC3EA98EB995027800EC384
:101B5800EA98EB994007C3EC98ED9940177CE07D33
:101B680004EEFAEFFB120B72EE247FF582EF3400DD
:101B7800F583E4F0EE2434F8EF3400F9E8FCE9FDED
:101B8800EE2435F582EF3400F583E0F8EE2437F5DE
:101B980082EF3400F583E0F50AE508850AF0A4F53C
:101BA80008AAF0850AF0E509A42AF509E82508F845
:101BB800E43509F97A257B001215A9EA8C828D8310
:101BC800F0F8740758F97401B900028004C333D9D6
:101BD800FCFAE8131313541FF8EE28F8EF3400F951
:101BE800E8245DF582E93400F583E05A6008EE24C4
:101BF80034F582EF802CEE2434F582EF3400F5833F
:101C0800E0C0E0EE2436F582EF3400F583E0F5F02D
:101C1800D0E084A8F0EE28F8EF3400F9E82438F58D
:101C280082E93400F583E0F912250D021AB1C08269
:101C3800C083851882851983E0F8A3E0F9C3EA9C7C
:101C4800EB9D5010C3EC98ED99401BC3EA98EB99B3
:101C58005014800EC3EA98EB994007C3EC98ED99AD
:101C68004004790180027900D083D08222EAC39CA3
:101C7800FAEB9DFB2274EF1217109003A6E064089C
:101C88006005E06407702A9061C8E060249003D47E
:101C9800E0F4601DE0F875F003A4C8AAF02AF9740E
:101CA800D628FE740339FF8E828F83A3A3A3E07026
:101CB80003021DAD906060E0C0E0EE2468F582EF9D
:101CC8003400F583D0E0F0750C49750D05750800F2
:101CD800750900E5D914F50AE5D95403F50E60171E
:101CE8007403650E605CE50A6010EE2467F582EF08
:101CF8003400F583E07003021D92900544E064010E
:101D0800602AEE2482F582EF3400F583E0600478DF
:101D18000480027800850A08E508C398FA95E0FB74
:101D2800120A408A088B09EA45097005120D648079
:101D380074EE2482F582EF3400F583E070048A0C97
:101D48008B0DE50A6012850C82850D83F50BE5D9AC
:101D5800F0A3150BE50B70F6EE2482F582EF340044
:101D6800F583E0604474FC250AF50A780C1218B76C
:101D7800AC0AA90EEEFAEFFB120C0E740212164A08
:101D8800E97026AA08AB0912120E793D8E828F835C
:101D9800A3A3A3A3E0FA7B00120914EEFAEFFB1247
:101DA8000B8A120C20790080747403650E605685C6
:101DB8000A1075110078101218B7AC0CAD0DAA08EE
:101DC800AB09120BEA740212164AEE2468F582EF88
:101DD8003400F583E064807004747F8001E0F50CC2
:101DE800780C1218BBE50EF50C780C1218BBA90A72
:101DF800AC08AD099003D4E0FA7B001208D874024D
:101E080012164A80139003A6E06408600BAC0CAD70
:101E18000DEEFAEFFB120C7A120D7079017F0A02AF
:101E280017BC74F512171074FC121634EAFEEBFF97
:101E38008908A2AFE433F509C2AF806AEE2463F8DB
:101E4800EF3400F97A007B00A2AFE433F50AC2AFA1
:101E580088828983E0FCA3E0FDEC4D603A888289A2
:101E680083E0FAA3E0FB8A828B83E0FCA3E0FD8891
:101E7800828983ECF0A3EDF08A828B83E4F0A3F0EF
:101E880088828983E0FCA3E0FDEC4D700A88828992
:101E980083A3A3E4F0A3F0E50AA2E092AF12120E26
:101EA8009004E7E004F0EE2463F582EF3400F58354
:101EB800E0F8A3E0F9E849603DEE2463F582EF34E9
:101EC80000F583E02402FAA3E03400FBEA2402F5DB
:101ED8000AEB3400F50B780A1218B78A828B83E074
:101EE800FCA3E0F9EEFAEFFB120BAE740212164AED
:101EF800E97003021E449004E7E060639004E8E0A0
:101F0800F89004E7E0C398500C740265087050908C
:101F180004E9E0604A8E828F83A3A3A3A3E0851817
:101F280082851983F0A3E4F09004E7E0F8740212C4
:101F38001680E8F0A3E4F09004E7E0F89004E6E007
:101F480028F07402121680AC82AD83851882851938
:101F580083AA82AB8379011208E49004E7E4F0E5F0
:101F680009A2E092AF740412164A021AB1000000E6
:101F78008521878522C622C0E0C0D0E8C0E0E9C03C
:101F8800E0EAC0E0EBC0E0ECC0E0EDC0E0EEC0E0AD
:101F9800C008C009C00AC00BC082C083C0F0A2AF8D
:101FA800E433FEC2AF759B00906182E0A2E050125C
:101FB800E591A2E0500C7591FE7401652170031241
:101FC8001C7DE0A2E55051E591A2E5504B7591DFEB
:101FD8009003A6E064076005E06408702374016557
:101FE80021703579019003D4E0FA75F003A4CAA8EA
:101FF800F028FB74D62AFA74033BFB121E2A8018B9
:10200800E0640D70139003C8E004F064287002E4E3
:10201800F07A00E0F9120D76906182E0A2E64003C2
:102028000220C6E591A2E640030220C67591BF9042
:1020380003A6E064057008120CA4120CB080031209
:102048000CAA752100120D04E99003A7F07900127B
:102058000CF8120AE87A017B009003A5E0F9120F48
:10206800C8907803E064427055900548E014F07019
:102078004DC2AF12207E00782AD0E0F618D0E0F6E4
:10208800E59F540770057509FF800375097FC4C073
:10209800E07829E6F50808E65509F509740B78088B
:1020A800121612D0E02508F8906270E0A2E740F816
:1020B800E8C333906272F0906270E0D2E0F0906111
:1020C80081E0A2E35009E5E9A2E3500375E9F7A32B
:1020D800E0A2E75009E591A2E7500375917FEEA2CF
:1020E800E092AFD0F0D083D082D00BD00AD009D004
:1020F80008D0E0FED0E0FDD0E0FCD0E0FBD0E0FA74
:10210800D0E0F9D0E0F8D0D0D0E032C0E0C0D0C004
:1021180082C083906183E0A2E05009E5BFA2E0504D
:102128000375BFFEE0A2E15009E5BFA2E1500375C7
:10213800BFFDE0A2E25009E5BFA2E2500375BFFB74
:10214800E0A2E35009E5BFA2E3500375BFF7E0A2A0
:10215800E45009E5BFA2E4500375BFEFE0A2E550E3
:1021680009E5BFA2E5500375BFDFE0A2E65009E527
:10217800BFA2E6500375BFBFD083D0828088C0E07D
:10218800C0D0E8C0E0E9C0E0EAC0E0EBC0E0ECC0E5
:10219800E0EDC0E0C0F0E5A7A2E6500FE5A1A2E699
:1021A800500953A7BF75A1BF1221EBE5A7A2E550BF
:1021B8000CE5A1A2E5500653A7DF75A1DFE5A7A2AC
:1021C800E15009E5A1A2E1500375A1FDE5A7A2E24E
:1021D800500CE5A1A2E2500653A7FB75A1FBD0F075
:1021E8000220FC74F81217107521019003A6E06410
:1021F800067015120C3E8A828B83A3A3A3A3A3A304
:10220800E0FAA3E0FB120C92A2AFE433FED2AF9047
:1022180003ACE0640170187A207B009003A5E0F914
:102228001210527A207B009003A5E0F9120FCE908D
:102238006182E0D2E6F0900545E0602185C6228003
:10224800169003ABE064017008E5C654F84405F540
:10225800C653BEFC121F787401652160E4EEA2E04B
:1022680092AF7F010217BC008E238F2485822885B8
:102278008327851882851983E0CEA3E0CF8528823D
:10228800852783EBC9EAC8EDCBECCA75F010C3E823
:1022980033C8E933C9EA33CAEB33CBC3EA9EF52620
:1022A800EB9FF525B35004AB25AA26EC33CCED33D0
:1022B800CDD5F0DAAE23AF242274ED1217108A08B8
:1022C8008B098C0A8D0B7413121680780C1214EC7F
:1022D8007808790C12135B7510017511C875120016
:1022E80075130050127808790C12148B781079083D
:1022F80012135B50168010780C790812148B781022
:10230800790C12135B40047901800279007F0C027A
:1023180017BC74ED1217108A088B098C0A8D0B7480
:1023280013121680780C1214EC780C790812135BCF
:1023380040117808790C12148BAA08AB09AC0AADC5
:102348000B80227510007511007512007513017845
:1023580010790C12148B78107908121452AA10AB49
:1023680011AC12AD1380A68A828B837508FF75099C
:10237800FF750AFF750B0078081214D97F0402173D
:10238800BC74F51217108C828D8378081214EC8AAD
:10239800828B83780812149FEA2404F8EB3400F93E
:1023A8008C828D83A3A3A3A3E0FCA3E0FD8882898C
:1023B80083C3E09CF0A3E09DF088828983C3E09406
:1023C80020A3E0944E40268A828B837508FF750906
:1023D800FF750AFF750BFF78081214788A828B83C1
:1023E800A3A3A3A3E02420F0A3E0344EF002236FBC
:1023F80074F5121710E9FE9004FBE0FAA3E0FBEE77
:10240800C333F8E433F974DB28F582748039F58333
:10241800E02AF508A3E03BF50978081218B77A40D6
:102428007B427C0F7D00122270740212164A8A08C1
:102438008B098C0A8D0B7410780812141AAA08AB31
:10244800097F040217BC74F11217108A0C8B0D8CCB
:102458000E8D0F740F121680E0FAA3E0FB741112B0
:102468001680E0F508A3E0F50978081218B7EA2401
:1024780001F508EB3400F509E4F50AF50B780C7959
:102488000812139A750871750902780C79081213E5
:102498009AAA0CAB0DAC0EAD0F1222707402121674
:1024A8004A8B09EA450960047A0180027A00EC2A1D
:1024B800FCED3400FD7413121680E0F8A3E0F9E88F
:1024C800FEE9FFECF8EDF97A717B021215A988088C
:1024D80089098E828F8378081214FBECF8EDF97A5B
:1024E800717B021215A98A088B09740578081216DF
:1024F800218E828F83A3A3A3A3E508F0A3E509F0A7
:102508007F080217BCC082C083E9906000F0D083C6
:10251800D08222C2AF02000022C0E074F21217FC7F
:10252800A2AFE433FED2AFC2C0E5D1A2E450065355
:10253800D1EF1211F0EEF8EEA2E092AF7F0102188F
:102548005BC0E0C0D0E8C0E0E9C0E0A2AFE433F887
:10255800D2AFC2C7E8F9E8A2E092AFD0E0F9D0E084
:10256800F8D0D0D0E032C0E0C0D0E8C0E0E9C0E0A8
:10257800C008C009C082C083A2AFE433F9D2AF90CB
:1025880009D0E0F89009D1E068700B539AFB9009E4
:10259800D27401F08031C2E99009D0E0F5087401E5
:1025A80025089009D0F075090074502508F5827443
:1025B800093509F583E0F5C19009D0E0C39480405E
:1025C800069009D07400F0E9F8E9A2E092AFD08350
:1025D800D082D009D008D0E0F9D0E0F8D0D0D0E04F
:1025E8003202011FFFFFFFFFFFFFFFFF74F7121604
:1025F800A4E99002E5F07C1D7D037AFF7BFF1208B9
:102608002A9002E674FFF0A3F0A3E4F0A3F07905A2
:102618001207B29002E5E0F91206DA7A487B08124E
:1026280009F27F0102177674F41216A48A088B093E
:10263800EB548060309002E5E0F9120FB08A0A8B03
:102648000BAE0AAF0BEE4F60138E828F83E064B03F
:1026580070031207CAEEFAEFFB120F9EAA08E509EB
:102668006480FB80047A007B0002284674F212160C
:10267800A474FC121634EAFEEBFFEE4F60387402C5
:10268800121680EEF0A3EF122AABECF0A3ED122A9B
:10269800ABAA82AB831206D4E9F5087073741212E0
:1026A800168012365FE50A450B60658E828F8312AD
:1026B8002722EE4F700575080280557A067B0012B6
:1026C80010108A0C8B0DA80CA90DE8497005750827
:1026D80013803D88828983E412272CA3A3EEF0A3FC
:1026E800EF123AF8E50AF0A3E50BF09002EB122797
:1026F800B49002EB6017E0FCA3E08003EAFCEBFD7A
:102708008C828D831227B470F38C828D831235846A
:10271800A908740412164A023CFAA3A3A3A3E0FE74
:10272800A3E0FF22F0A3F0888289832274F21216B4
:10273800A4890AE975F017A4FEAFF09002EAE4F064
:102748009002E81227B4600A1210169002E8E4F02A
:10275800A3F0EEFAEFFB1210108A088B09EA45097C
:10276800602FEEFCEFFD7900120F8C9002E8E5086F
:10277800F0A3E509F07B00800812279EE4F0A3F09F
:102788000BEBC3950A40F2E50A9002EAF079008063
:10279800027913023CFAEB75F017A4F8A9F090023D
:1027A800E8E028FAA3E0398A82F5832212331AEA8C
:1027B8004B2274F41216A4750800750900740C12E3
:1027C8001680123ACCFEE9FF800CE5082401F508D2
:1027D800E5093400F509C3E5089CE5099D503285F3
:1027E800080A85090B7403780A121621EA250AF8E3
:1027F800EB350BF988828983A3A3A3A3A3A312367D
:102808005FEE650A7003EF650B70BFE8FAE9FB80BD
:10281800047A007B00802774F41216A47900EAA2D7
:10282800E0501B75084475098178081218B77C04B4
:102838007D007A937B0D1207AC740212164A7F044E
:10284800021776C082C0839002EB12287E601C8833
:10285800828983A3A3E06A7003A3E06B88828983DB
:1028680070E8A3A3A3A312331680047A007B00D0D8
:1028780083D08202011F123DCDE8492274EE121660
:10288800A474FC121634EAFEEBFF851882851983BE
:10289800E4F0A3F0EE2402123568EE2405122A991A
:1028A800EE2404F50EEF122E7EE024FE603924FC9F
:1028B800604624FE605224FE605E24FE70030229F6
:1028C8009E24FE7003022A1624FE7003022A252481
:1028D800FE7003022A3424FC7003022A4324FE708B
:1028E80003022A52022A8F9003047417F0A3E412F9
:1028F8002AB3120452022A8F851882851983AC8262
:10290800AD831207D0022A5F851882851983AC82AD
:10291800AD831207D6022A5F850C08850D0974025B
:10292800121680AC82AD838508828509831233161E
:102938001206F88A0C8B0DAC0CAD0DEC4D6042E420
:10294800F50CF50D780C1218B7750C04750D037895
:102958000C1218B7750C05750D03780C1218B7749E
:10296800081216801218CE79161233101208127433
:102978000812164AE9F50C700B12330C12046A801F
:102988000F750C01850882850983122AA1123584E6
:10299800850C08022A627402121680AC82AD838507
:1029A8000C82850D831233161206F88A108B11AC2F
:1029B80010AD11EC4D6043850C82850D83A3A312E5
:1029C80018CE75100475110378101218B775100514
:1029D80075110378101218B774081216801218CEE1
:1029E8007916123310120812740812164AE9F509FA
:1029F800700B12330C120470800F750901850C825C
:102A0800850D83122AA1123584850908804C851802
:102A180082851983AC82AD831207DC803A851882DF
:102A2800851983AC82AD831207E2802B85188285D5
:102A38001983AC82AD831207E8801C85188285193A
:102A480083AC82AD831207EE800D851882851983C9
:102A5800AC82AD831207F4E9F508E50860298E8297
:102A68008F83A3E06414601F850E82850F83E09036
:102A78000304122AAB123DC9900305123584E508F8
:102A8800A3122AB312044CEEFAEFFB1207760234B3
:102A980070F50CEF3400F50D22123DCD85188285B6
:102AA800198322F085188285198322F07C047D031E
:102AB800850A82850B8312331A2274EE1216A474C7
:102AC800FC1216348A0A8B0B8C0E8D0FEA2405F53E
:102AD80008EB3400F5097C157D0079007A047B0346
:102AE800120F8CE5082402F50CE509122A9C8518BA
:102AF8008285198385821085831178101218B7850D
:102B08000882850983A3A3A3A3122FC61218B7E5C9
:102B1800082405F510E5093400F51178101218B7E6
:102B2800850C82850D831233201206F27406121664
:102B38004A8A108B11AE10AF11E50A2402F50AE596
:102B48000B12356BEE4F7003022C8880177402123B
:102B5800168012331688828983EAF0A3EBF090037B
:102B680004E004F0900304E0C394054003022C88B9
:102B7800E4F510F51178101218B77510ED751102FB
:102B880078101218B77510EE75110278101218B770
:102B980074061216801218CE7910EEFCEFFD12336F
:102BA80010120812740812164AE9705E85088285A8
:102BB8000983A3A3A3A3A3A3A3E0F89002EDE0686D
:102BC8007048122FC61218B77CEE7D02E50824085B
:102BD800FAE5093400FB120F86740212164AE960FE
:102BE800298E828F83A3A3A3A3123316900304E034
:102BF800F5107402781012162174052510F58274E8
:102C0800033511F583EAF0A3EBF074021216808500
:102C1800821085831178101218B774021216801268
:102C280018CE850C82850D83123DDE1206FE7404D3
:102C380012164A8A108B11AE10AF11900304E0F5FA
:102C4800107511007402781012162174042510F8FA
:102C580074033511F988828983A31227B47003029B
:102C68002B4CE82403F8E93400F9EE4F6003022BFB
:102C7800558882898374FFF0A3F0900304E004F080
:102C8800900304E0600A12330C12045E7900800B92
:102C980085088285098312357B790A02347074EAC3
:102CA8001216A474FE1216348C128D13EA2405F53C
:102CB8000CEB123F48122726750800750900EA2414
:102CC80002F510EB3400F511851882851983858289
:102CD8000A85830B780A1218B7850C82850D83A3A1
:102CE800A3A3A3122E881218B7E50C2405F50AE54C
:102CF8000D12356B780A1218B7850C82850D831270
:102D08003DDC1206F2740612164A8A0A8B0BEA4553
:102D18000B7003022E39EA2404F50EEB122E7E12F4
:102D280027268A828B83A3A3A3E0F98510828511C5
:102D3800831233161206E0E9F5096003022E39E41E
:102D4800F514F51578141218B77514ED7515027881
:102D5800141218B77514EE75150278141218B77492
:102D6800061216801218CE7913AC0AAD0B851082A4
:102D7800851183123316120812740812164AE9F5DF
:102D8800096003022E399002EDE0F8E5087009E0C9
:102D98002402900305F08017900305E0FCE8240264
:102DA800FAE43400FBEA6C7001EB6003022E3D8507
:102DB8000882AA82122FBD9414122FB55073850E63
:102DC80082850F83E0C0E074062A122E75D0E0F0E9
:102DD8000508850E82850F83A3E0C0E085080A7484
:102DE80006250A122E75D0E0F005089002ED122E85
:102DF800881218B77CEE7D0285080A7406250AFA3F
:102E080074033400FB120F74740212164A9002ED18
:102E1800E02508F50874FF6E700374FF6F6012EE0A
:102E280024010EEF3400FFE508C394145003022C6C
:102E3800D0E50860131232018510828511831233A0
:102E48001612046479008014E509700375090A856F
:102E58001282851383EEF0A3EFF0A909740212160B
:102E68004A7F0E02177685080C7406250CF58274C5
:102E7800033400F583223400F50F850E82F5832292
:102E8800123B0B2274EE1216A474FE1216348C0E2A
:102E98008D0FEA2405F50CEB122A9C750B009003A4
:102EA80004E4F0F50AEA2402F508EB3400F5098099
:102EB80049900304E0FA9002EDE0F8122FBD941750
:102EC800122FB5400D900304E0F87416C3989002D1
:102ED800EDF0122FC61218B77CEE7D0274052AFA9F
:102EE80074033400FB120F74740212164A9002ED38
:102EF800E0F8900304E028F0050AE50C2416F582B2
:102F0800E50D122E79E0F8E50AC3984003022F9EDA
:102F1800900304E0C39416507DE50AC333F8E43304
:102F2800F9E50C28FEE50D39FF851882851983AC73
:102F380082AD838E828F831233161206F88A108B25
:102F480011AC10AD11EC4D7005750B018043E4F523
:102F580010F51178101218B77510ED751102781068
:102F68001218B77510EE75110278101218B774069A
:102F78001216801218CE79168508828509831233B5
:102F880016120812740812164AE9F50B7003022E7D
:102F9800B912357780107C047D0385088285098302
:102FA800123316120476A90B7402023472E99400E3
:102FB800C365D03322EA28F8E43400F9E822E0F5C2
:102FC8001075110078102274EA1216A474FC1216F7
:102FD800348A0C8B0D8C128D13EA2405F50AEB123A
:102FE800356B750800750900E50A2402F510E50B34
:102FF8003400F511740212168085820E85830F78CD
:103008000E1218B7850A82850B83A3A3A3A3123ACD
:10301800B71218B7E50A2405F50EE50B3400F50FCD
:10302800780E1218B7851082851183123571123304
:10303800101206F2740612164A8A0E8B0FAE0EAFE5
:103048000FE50C2402F50EE50D3400F50F804088DD
:1030580082898374FFF00508122E6E74FFF005084C
:103068009002EDE0F50C750D00780C1218B77CEEA7
:103078007D0285080C7406250CFA74033400FB12D3
:103088000F74740212164A9002EDE02508F508EE56
:103098004F60718E828F83A3A3A3E0F9850E82858A
:1030A8000F831233161206E0E9F509EE2404122AFA
:1030B80099E97044E4F514F51578141218B77514E5
:1030C800ED75150278141218B77514EE7515027897
:1030D800141218B774081216801218CE7911EEFC63
:1030E800EFFD850E82850F831233161208127408BD
:1030F80012164AE9F5096027850C82850D8312317D
:10310800F7123584E50870030231DD123201850EAD
:1031180082850F8312331612047C79000231F285FE
:103128000882AA82EA9002ED7009E024049003055F
:10313800F08022E0F8900305E0F514E82404FCE4AC
:103148003400FDEC65147001ED70C0122FBD9412AF
:10315800122FB550B6850C82850D83E0C0E0740649
:103168002A122E75D0E0F00508850C82850D83A300
:10317800E0C0E0122E6ED0E012321385820C8583F7
:103188000D780C1218B774041216801218CE851018
:1031980082851183123DDE1206FE740412164A8AD5
:1031A8000C8B0DAE0CAF0D85080C7406250CF8744D
:1031B800033400F9EE4F70030230578518828519E1
:1031C80083E088828983123213A3E0C0E0122E6E56
:1031D800D0E0023065E509700375090A850A828521
:1031E8000B831231F7123584A9097404022E661272
:1031F8003DCD85128285138322900305E0F5F0E525
:103208000884900304F07C047D0322F005088518E7
:10321800828519832274EC1216A474FE1216348A5D
:10322800088B098C0E8D0FEA2405FEEB3400FF8510
:103238001882851983AC82AD838E828F83123316F0
:103248001206F88A0A8B0BEE2418122A99EA450B03
:1032580070030232E7123459503285188285198377
:103268001233161208068A108B11EA4511606B7921
:1032780012AC0AAD0B8508828509831233168510B6
:10328800828511831216A2E9F50A7058E4F50AF549
:103298000B780A1218B78E828F83A3A3E0F50A78F9
:1032A8000A1218B7EE2403123568780A1218B78E76
:1032B800828F83123320120818740612164AE9F511
:1032C8000A7021850C82850D83E0701F8508828530
:1032D80009831233161204828011750A0E8009754B
:1032E8000A018004E50A6003123577850C82850D92
:1032F80083E0600479008002A90A740212164A7FEA
:103308000C0217767C047D03850A82850B831233B1
:103318001A22E0FAA3E0FB22E0FCA3E0FD85088284
:1033280085098312331A2274EE1216A474FE12163B
:10333800348A088B098C0C8D0DEA2405FEEB3400C9
:10334800FF750E00851882851983AC82AD838E8245
:103358008F831233161206F88A0A8B0BEA450B7014
:103368000302344512345950358518828519831261
:1033780033161208068A0E8B0FEA450F605E791223
:10338800AC0AAD0B850882850983123316850E8237
:10339800850F831216A2E9F50E60030234488508EA
:1033A8008285098312365FAA0AFB1207FA8A108BF4
:1033B80011A810A911E849701E7AFF7BFF1207FABD
:1033C8008A108B11A810A911E849606C888289833A
:1033D800E50AF0A3E50BF0750A008007750E0E806C
:1033E8005F050A9002EAE0FAE50AC39A504AE50A3C
:1033F80075F017A4FAABF088828983A3A3E02AFAB0
:10340800A3E03BFB8A828B83123571EC4D70D27539
:103418000A17750B00780A1218B7EEFCEFFD120FA9
:1034280074740212164AEEFCEFFD85088285098342
:103438001233161204888014750E098003750E0164
:10344800123DC5850C82850D83123584A90E022F85
:10345800B0E5082402F508E5093400F5098A828BED
:1034680083A3A3A3E0A2E522740412164A7F0A02EA
:10347800177674EC1216A48C108D11EA2405F50C3D
:10348800EB122A9C750F00EA2402F50AEB12356B41
:10349800850A82F5831233161207FA8A088B09EA1D
:1034A8004509700302355D750E008071850C8285B3
:1034B8000D83E06401704F8E828F83A3A31218CE10
:1034C8008E828F83A3A3A3A3E0F51275130078124D
:1034D8001218B7EE2405F512EF3400F5137812121E
:1034E80018B7123310120818740612164AE9F50FA5
:1034F8006014850C82850D83E4F0123DC585108229
:103508008511831235847C177D007900EEFAEFFB74
:10351800120F8C8E828F83E4F0A3F0050E9002EADE
:10352800E0F8E50EC398501EE50E75F017A4F8A94B
:10353800F0850882850983A3A3123F52123571ECE6
:103548004D60030234B485088285098374FFF0A3B3
:10355800F0E50F700612331012048EA90F0233071C
:10356800F50AEF3400F50B22A3E0FCA3E0FD228E60
:10357800828F83123DCD850E82850F83E8F0A3E903
:10358800F022C082C0839002E6E06A7003A3E06B79
:1035980070067AE67B0280047A007B00022877C0F6
:1035A80082C08378008C828D83E06A7003A3E06B0D
:1035B8007010E875F003A4F8A9F0EC28FAED39FBCF
:1035C8008015088C828D83A3A3A3E06A7003A3E00F
:1035D8006B60DF7A007B0002287774F61216A4125B
:1035E80007C48A828B83E582458370067A007B0054
:1035F8008007A3A3A3A3123316023C7674F2121613
:10360800A4E9FE740E12168012365F74101216802A
:10361800123AD78C828D83E064027036A3123DD3B0
:10362800F50CA3E0F9A80C7402687003742969709A
:1036380021750C02750D00780C1218B7780812184D
:10364800B7780A1218B7EEF912083C740612164A2F
:1036580080027901023CFAE0F50AA3E0F50B227436
:10366800E81216A474FB121634E9851882851983AA
:10367800F08A168B17ECFEEDFF751000741D1216FC
:1036880080123DC9741D1216801235848E828F8374
:10369800A3A3A3E0A2E4502D741D121680123316C2
:1036A8001208068A828B83E58245837003023AA852
:1036B800790AEEFCEFFDAA16AB171216A2E9F5106F
:1036C8006003023AAB741F121680123AD7742112A3
:1036D800168012365F7423121680E0F50EA3E0F50B
:1036E8000F8E828F83E064026003023A56A3123D74
:1036F800C9850882850983A3858212858313EE24F0
:1037080006122A9988828983E0FAA3E0F9EA24005C
:10371800F514E439F515781412194101000028014F
:10372800284B3707000228103803287D370029471F
:10373800390129723902291339032947390429F132
:1037480039563AE50E450F6003023A51850C8285D9
:103758000D83123ACCFAE9FB8A828B83E0850A82D0
:10376800850B83123B021218B78A828B83A3E0FC75
:10377800A3E00239DBE50E450F6003023A51850AE2
:1037880082850B837401F0123ADF850882850983EC
:10379800F07C007D008E828F83A3A3A3A3E0240185
:1037A800FAA3E03400FB1206F8EA4B60418A828BE8
:1037B80083E02402F8850A82850B83E028F0EA2456
:1037C80004F8EB3400F988828983E0851282851336
:1037D80083123B14123B021218B78A828B8312356C
:1037E80070E5082403FAE5093400FB0239E0850A8C
:1037F80082850B83E02404F07C047D007900AA1202
:10380800AB13120F8C023AABE50E450F6003023A78
:1038180051123ADFFEA3E0FF850A82850B83740408
:10382800F0EE850882850983F0EF8512828513837F
:10383800F07403121680AC82AD83EEFAEFFB120629
:10384800F88A0C8B0DEA450D70030238F48A828BD6
:1038580083A3A3122722740112168085820E858302
:103868000F780E1218B774051216801218CE7CFF46
:103878007DFF1206FE740412164A8B0FEA450F707C
:1038880033850C82850D83123AB71218B7850C82DE
:10389800850D83A31218CE7C027D007AB67B811237
:1038A800052A740412164AE9700A74011216807403
:1038B800FFF0A3F08E828F83E064027039750C02EA
:1038C800750D00780C1218B78E828F83123570E54B
:1038D800082404FAE5093400FB120F747402121666
:1038E8004A850A82850B83E0240280097401121636
:1038F80080EEF0A3EFF07401121680123AC8F0744B
:1039080001121680A3123AC0023A4BE50E450F6029
:1039180003023A51850C82850D83123571AA16ABC4
:1039280017120830850A82850B837402F0EA85082D
:1039380082850983F0851282851383EB023A4EE56E
:103948000E450F6003023A51123ADFF8A3E0F985F9
:103958000A82850B837402F0E8850882850983F062
:10396800E9851282851383023A4E850C82850D8380
:10397800123316120F6EEAFC8C82A882C3950EE4ED
:10398800950F405FE8650E7002E50F70047C0080BB
:1039980022851882851983E0FAE50E2AFAE50F34A4
:1039A80000FBC3EA98EB94005003E08005E50ECCD9
:1039B800C39CFCEC850A82850B83F08C0A750B008E
:1039C800780A1218B7850C82850D83E0250EFCA3B2
:1039D800E0350FFDAA08AB09120F74740212164ADB
:1039E800023AAB751007023AABE50E450F705A85DF
:1039F8000C82850D83123DC9850A82850B83740765
:103A080012272E123AC012272EA3E08512828513A0
:103A180083F0E82402FAE93400FB8A828B83123AA5
:103A2800C0123AEF123AC8A3123AF8123AD1F0E8A3
:103A38002405F8E93400F988828983123AD1A3125F
:103A48003B14A3A3A3A3F0805A75100B8055741DD3
:103A58001216801233161207C48A828B83E58245B8
:103A680083603D123DC9880C890DE8450D603178A9
:103A78000E1218B7780A1218B778081218B7740611
:103A8800121680E0F9EEFCEFFDAA16AB17850C8242
:103A9800850D831216A2740612164AE9F5108003E2
:103AA80075100EA910740512164A7F10021776E0D9
:103AB800F50E750F00780E22E085088285098322AD
:103AC800123B1E22123DCDE822123B1EA3A322E088
:103AD800F508A3E0F50922850C82850D83E0F8A39B
:103AE800E0F5838882E022A3A3F08A828B83A32255
:103AF800F088828983A3A3A3A322F08A828B8312EE
:103B08003B0B22E0F50A750B00780A22F0888289BF
:103B180083A3123B1E22E0850882850983A3A32282
:103B280074EE1216A474FE1216348A0A8B0BECFA81
:103B3800EDFB7414121680E0F510A3E0F51174166D
:103B4800121680E0FE7418121680E0F50EA3E0F558
:103B58000F851882851983AC82AD831206F88A0C0A
:103B68008B0DEA450D604985188285198312331635
:103B78001207C48A828B83E5824583602FA3A31230
:103B88003AD7E50845096024780E1218B77810125C
:103B980018B7EEF9AC0CAD0DAA0AAB0B85088285F7
:103BA80009831216A2740412164A8006790E80023E
:103BB8007901022FB074F61216A474FE121634742A
:103BC8000C121680123ACC851882851983F074017C
:103BD800121680E9F0E4F508F50978081218B775A7
:103BE800080278081218B7740412168085820885AE
:103BF800830978081218B7120818740612164A743E
:103C08000212164A806874F71216A4EAFEEBFF89BE
:103C1800087C1D7D03120830EA5402600BA908EEE7
:103C2800FAEFFB1206EC8002790102262A74F612DA
:103C380016A474FF6A700374FF6B70168C828D83F0
:103C4800123C7BE4F08C828D83A3A3A3123C7BA35C
:103C580080181208008A088B09A808A909E8496091
:103C68000D8882898374FF12272CA3A3E4F07F02B6
:103C780002177674FFF0A3F08C828D83A3A32274BD
:103C8800F61216A41208008A828B83E582458360A7
:103C980006A3A3E0FA80027A007B0080D174F212B6
:103CA80016A48A088B09ECFEEDFF740E121680E04C
:103CB800F50A1208008A0C8B0DA80CA90DE84970AA
:103CC80026EEFCEFFD7AFF7BFF1208008A0C8B0DB5
:103CD800A80CA90DE8497004791180168882898397
:103CE800E508F0A3E509F088828983A3A3E50AF033
:103CF80079007F0602177674EE1216A4EAFEEBFF2F
:103D08008C088D09890C7414121680123DC974161A
:103D1800121680123316750D00E8496003023DBD86
:103D28007402650C6003023DB87412121680123DCD
:103D3800D3FCA3E0F9EC2400F50EE439F50FEAF41E
:103D4800F8EBF4F9EC58F8E50F59F9E849705CE537
:103D5800082406F8ED3400F9880A890B8882F5836F
:103D6800123DDE1208308A108B11E50E65107004C2
:103D7800E50F65116042780E1218B7850A82850B27
:103D880083123DDE120836740212164AE9F50D70E8
:103D980027780E1218B7850882850983A3A3123DD8
:103DA800DC12084E740212164A800D750D808008C8
:103DB800750D0D8003750D0BA90D0234758E828F5C
:103DC80083123DCD22E0F8A3E0F922123DCD88828E
:103DD8008983E022A3A3E0FCA3E0FDEEFAEFFB2237
:103DE80074E81216A474E7121634851882851983AC
:103DF800EAF0A3EBF08C168D17890E75080075098B
:103E0800007431121680E0F512A3E0F51374331232
:103E18001680E0F514A3E0F5157435121680E0F568
:103E28000FE50975F003A4F8A9F0851882851983B0
:103E3800123F52E0F47003A3E0F47003023F35EE42
:103E48002402F50CEF123F48E07003023F35851657
:103E58000A85170B780A1218B7AC14AD15AA12AB5D
:103E6800131207B8740212164A8A0A8B0BEA450B1A
:103E78007003023F35E4F510F51178101218B77485
:103E88000612168085821085831178101218B7746F
:103E98000912168085821085831178101218B7854B
:103EA8001282851383A3A3A3A31218CE7914AC0A94
:103EB800AD0B8E828F8312331612081274081216F5
:103EC8004AE97069850A82850B83A3A3A3A3123DDF
:103ED800C97402121680123584850C82850D83E020
:103EE800A2E05018A90E7402121680AC82AD838E1F
:103EF800828F83123316120710E94208850C8285D7
:103F08000D83E0A2E15026E50FF50A780A1218BBE6
:103F1800A90E7403121680AC82AD838E828F831231
:103F2800331612070A740112164AE942080509E510
:103F380009C394025003023E29A9087419023AAF32
:103F48003400F50D850C82F58322E028FEA3E039C4
:103F5800FF8E828F832274F21216A4EAFEEBFF8989
:103F68000B7401650B600E7402650B706A7901129F
:103F78000A10E97062EEFAEFFB1207FA8A088B0959
:103F8800EA45096047750A00800B7C177D007900B7
:103F9800120F8C050A9002EAE0F8E50AC39850214E
:103FA800E50A75F017A4F8A9F0850882850983A3A6
:103FB800A3E028FAA3E039FB8A828B8312287E705B
:103FC800C985088285098374FFF0A3F07C1D7D03F1
:103FD800EEFAEFFB12082A023CFA74F21216A48ACF
:103FE800088B09ECFEEDFF740E12168012365F90F6
:103FF8000D91E0F4603D7A097B00120F98EA4B605E
:10400800328A828B8374B1F0A3E4123AF1A3123A94
:10401800EFA3E508F0A3E50912403EEEF0A3EF1286
:10402800403EA3A3E50AF0A3E50BF0900D91E0F95B
:10403800120FA4023CFAF08A828B83A3A3A3A3A342
:104048002274EC1216A474DA121634890D8A128BB3
:10405800138C0A8D0B743A121680E0F50C90813E91
:10406800AC18AD197406121547AC18AD19AA12ABE5
:1040780013A90D121094E9FEEEC3940A40030241FD
:10408800BBEEF91210CAE9FF900E7DE064027004DD
:10409800740180027400F50878081218BBAD0CEFA3
:1040A800FCEEF9AA0AAB0B12113C740112164A7CF9
:1040B800147D0079007412121692120F8C8A0E8BDE
:1040C8000F850E08850F09741212169A7A1075F06A
:1040D80006EEA42424F9121292E9703B7C1079FFB1
:1040E8007412121692120FECE9702C7422121680B8
:1040F800AC82AD837A0475F006EEA42425F9121279
:1041080092E9F508741212169AEFA2E0E433F9AABC
:104118000AAB0B1205C0E9740612169A7A0C747071
:104128002EF9121292E9707974061216921210BEC4
:10413800750E00E50EC394045067E50EF87900E8A3
:1041480075F003A4C8AAF075F000A42AFA75F00364
:10415800E9A42AF97406121680E58228F508E58391
:1041680039F509850882850983E0F8A3E0F9E8496B
:10417800602B850882850983A3A3E0F510751100DB
:1041880078101218B7850882850983E0FCA3E0FD42
:10419800AA0AAB0B12081E740212164AE9050E8011
:1041A80092EFA2E1500D900769E0F9AA0AAB0B1251
:1041B8000824E97404650C700F900E7DE0640270A9
:1041C80007AA0AAB0B1211367900742612164A7F19
:1041D8000C02177674F21216A4890BEAFEEBFF8C18
:1041E800088D09750A0AE50B600C1460091460440F
:1041F800146064024280EEFAEFFB1210DCE9F50A63
:10420800E50AC3940A5071E5084509606B750C0608
:10421800750D00780C1218B7EEFCEFFDAA08AB0973
:10422800120F74740212164A8A0C8B0D850C828543
:104238000D838044EEFAEFFB1210D6E9F50AE50A81
:10424800C3940A5033E5084509602DAA08AB09A9AB
:104258000A1210D0E98021EEFAEFFB1210E2E9F51C
:104268000AE50AC3940A5010E5084509600AAA0835
:10427800AB09A90A1210D0E9A90A7F0602177674B9
:10428800F21216A48A0C8B0DE9FE7F1574FF650CDB
:10429800700474FF650D702A750800E508C3940A58
:1042A8005014EEFC7A027B00A9081210ACE96002F7
:1042B8007F00050880E5EE60627A247B11120A22ED
:1042C8008059AA0CAB0D120A048A0A8B0B850A08BE
:1042D800850B09E508450960407C007D00E5082458
:1042E80005FAE43509FB850882850983A3A3A3A3FE
:1042F800E0F9121094E9F50AE50AC3940A500EEEA3
:10430800FC7A027B00A90A1210ACE97F00EE600B70
:10431800AA08AB0912112480027F14EFF97F060264
:10432800177674EE1216A48A0E8B0F8C0A8D0B74F6
:1043380012121680E0F50CA3E0F50D75081574FF50
:10434800650E700474FF650F701E7E00EEC3940A3C
:104358005061AC0CAD0DAA0AAB0BEEF91210B2E924
:1043680060037508000E80E4AA0EAB0F120A048AD7
:10437800108B11AE10AF11EE4F60357C007D00EE52
:104388002405FAE43FFB8E828F83A3A3A3A3E0F95D
:10439800121094E9F509E509C3940A5016AC0CAD5E
:1043A8000DAA0AAB0BA9091210B2E975080080031F
:1043B800750814A9087F0A02177674F21216A474F5
:1043C800EC1216348A0A8B0B850A82850B83A3A309
:1043D800E024FA700302480124FD700302467E14AB
:1043E80070030244B214601024FD700302462614C0
:1043F80070030246BC02486FAE0AAF0B900783E019
:10440800F8A3E0F9E8496066900783E0F8A3E0F5CF
:10441800838882E0F8A3E0F9E8496052EE240CF5BD
:1044280082E43FF583E0F50878081218BBEE240B08
:10443800F582E43FF583E0F98E828F83A3A3A3A3DB
:10444800A3A3A3A3A3E0FCA3E0FDEE2403FAE43FA7
:10445800FB900783E0F8A3E0F5838882E0F8A3E007
:10446800F58388821216A2740112164A80398E8248
:104478008F83A3A3A3A3A3A3A3A3A31218CE9007D8
:104488007F12150A1205D2740212164AE9601879C9
:10449800018E828F83A3A3A3A3A3A3A3A3A3E0FA5C
:1044A800A3E0FB1205CCE902486FAE0AAF0B8E827F
:1044B8008F83A3E060030245D48E828F83A3A3A3D6
:1044C800A3A3E0A2E040030245D490081DE0F8A3AE
:1044D800E0F9E84960030245D47C0E7D007900AA22
:1044E80018AB19120F8C8A088B09AA08AB09EE249D
:1044F8000CF582E43FF583E0F8A3E0F9E84960367B
:1045080075080675090078081218B7EE240CF582AC
:10451800E43FF583E02410FCA3E03400FD740212AC
:104528001692120F74740212164A8A088B098508AB
:1045380082850983804F8E828F83A3A3A3E0FAA389
:10454800E0FB120A048A0C8B0D850C08850D09E521
:10455800084509602D750C06750D00780C1218B702
:10456800E5082405FCE43509FD7402121692120FC1
:1045780074740212164A8A0C8B0D850C82850D8381
:10458800800302486F8E828F83A3A3A3A3A3E0A214
:10459800E25004D2F08002C2F0A2F0E433F87900CD
:1045A800740C121680E048F0A3E049F0EEFCEFFD31
:1045B800AA18AB191210C4E970127A027B0090078E
:1045C80069E0F9120FC8E97900024871900783E0A1
:1045D800F8A3E0F9E8496043900783E0F8A3E0F521
:1045E800838882A3A3E0F8A3E0F9E849602D8E82CE
:1045F8008F83A3E0FC79018E828F83A3A3A3E0FAC3
:10460800A3E0FB900783E0F8A3E0F5838882A3A3E7
:10461800E0F8A3E0F58388821216A202486FAE0A7A
:10462800AF0B900783E0F8A3E0F9E84960459007ED
:1046380083E0F8A3E0F5838882A3A3E0F8A3E0F978
:10464800E849602F850A82850B83A3E0FC79028EF6
:10465800828F83A3A3A3E0FAA3E0FB900783E0F88B
:10466800A3E0F5838882A3A3E0F8A3E0F58388821A
:104678001216A202486FAE0AAF0B7C007D00EE2432
:1046880004FAE43FFB8E828F83A3A3A3E0F9121000
:1046980094E9F508E508C3940A5016EE240AFCE4E8
:1046A8003FFD7A0475F006E508A42425F912128C5A
:1046B800E902486FAE0AAF0B90077EE06018900ED3
:1046C8007EE0F98E828F83A3A3A3E0FAA3E0FB1216
:1046D80005CCE902486F900E7DE0701579058E8251
:1046E8008F83A3A3A3E0FAA3E0FB1205CCE9024859
:1046F8006F8E828F83A3A3A3E0FAA3E0FB120A04C0
:104708008A0C8B0D850C08850D098E828F83A3A3D7
:10471800A3A3A3A3A3E0A2E05071E508450960683C
:10472800850882850983A3A3A3A3E0605E8E828F98
:1047380083A3A3A3A3A3A3A3A3A3E0F8A3E0F9E8F7
:10474800C4540FF87900E85401F8E95400F9E8A2D4
:10475800E04038740E12169AE5082405FAE4350983
:10476800FB850882850983A3A3A3A3E0F91210940B
:10477800E9701879038E828F83A3A3A3E0FAA3E0DC
:10478800FB1205CCE902486F02486FEE2405FCE4F1
:104798003FFD850882850983A3A3A3A3E0F98E8240
:1047A8008F83A3A3A3E0FAA3E0FB12113090078341
:1047B800E0F8A3E0F9E849603E900783E0F8A3E059
:1047C800F5838882A3A3E0F8A3E0F9E84960287C90
:1047D8000079008E828F83A3A3A3E0FAA3E0FB9065
:1047E8000783E0F8A3E0F5838882A3A3E0F8A3E0B9
:1047F800F58388821216A2806E120698E970689076
:104808000812E06401701A1210FAE9FE9008127496
:1048180000F07C0A7D0079007A137B08120F8C80E7
:104828003C7E00EEC3940A50348E08750900741358
:104838002508F58274083509F583E06401701BEEDC
:10484800F9121100E9F88E0875090074132508F5A6
:104858008274083509F5837400F00E80C679501209
:104868001298E9FE1210E87901741412164A7F06AC
:1048780002177674F31216A474F21216348909EA30
:10488800FEEBFF8C0CAC18AD197A0E75F006E50935
:10489800A42420F9121292E970647C0679FFAA1800
:1048A800AB19120FECE97056740C121680E0F8A3DD
:1048B800E0F9E8F508E50C6005EE42088004EEF43E
:1048C800520885080A750B00740C121680E0650AF8
:1048D8007004A3E0650B6022E508F87900740C12F7
:1048E8001680E8F0A3E9F0AC18AD197A0E75F00659
:1048F800E509A42420F912128CE9790180027900D3
:10490800740E12164A7F0502177674F01216A474F4
:10491800E6121634890B8A0C8B0DECFEEDFF740C35
:1049280012169A7A0E75F006E50BA42420F91212D5
:1049380092E96003024A427C0679FF740C121692CF
:10494800120FECE96003024A42AC18AD197A0C74F4
:1049580070250BF9121292E96003024A3E750A00AB
:10496800AA18AB191210BEE50C450D702E7C0C79F7
:1049780000AA18AB19120FECE96003024A247C0C58
:104988007D007900AA18AB19120F8C8A088B09854B
:104998000882850983750A01024A24AC18AD19AA50
:1049A8000CAB0D1210B88A0E8B0F850E08850F09F7
:1049B800E50845097030EE4F601BAC18AD197A0058
:1049C8007B001210B88A0E8B0FA80EA90F880889D1
:1049D80009E849700479008063850882850983E5C0
:1049E8000CF0A3E50DF0850882850983A3A3E0F800
:1049F8007900EE687002EF696022EEC0E0850882F7
:104A0800850983A3A3D0E0F0EE4F700D8508828559
:104A180009837400F0A37400F0750A01E50A6016B2
:104A2800AA18AB191210BEAC18AD197A0C747025FF
:104A38000BF912128CE9790180027900741A1216A6
:104A48004A7F0802177674F71216A4EAFEEBFF7B7A
:104A580000EBC39404504EEBF87900E875F003A41A
:104A6800C8AAF075F000A42AFA75F003E9A42AF997
:104A7800EC28F582ED39F583E06E7003A3E06F70E2
:104A880021EBF87900E875F003A4C8AAF075F000E6
:104A9800A42AFA75F003E9A42AF9EC28FAED39FBFF
:104AA80080070B80AC7A007B007F0102177674F7D1
:104AB8001216A47F00EFC394044003024B65EFF87D
:104AC8007900E875F003A4C8ACF075F000A42CFCDC
:104AD80075F003E9A42CF9EA28F582EB39F583E0AF
:104AE800F4FCA3E0F4FDEFF87900E875F003A4C83E
:104AF800AEF075F000A42EFE75F003E9A42EF9EAD5
:104B080028F582EB39F583ECF0A3EDF0EFF87900A6
:104B1800E875F003A4C8ACF075F000A42CFC75F09F
:104B280003E9A42CF9EA28F582EB39F583A3A3E07D
:104B3800F4C0E0EFF87900E875F003A4C8ACF075AC
:104B4800F000A42CFC75F003E9A42CF9EA28F582FE
:104B5800EB39F583A3A3D0E0F00F024ABD7F010231
:104B6800177674F01216A474F4121634EAFEEBFFEA
:104B78008C088D0990081DE0F8A3E0F9E849702C2D
:104B8800EE4F6006E508450970057901024E16EEFC
:104B9800FAEFFB1210DCE9900E81F0900E81E0C371
:104BA800940A40081210EEE9900E81F0900E81E010
:104BB800C3940A4003024E1490081DE0F8A3E0F9DC
:104BC800E8496003024C60EEFCEFFD7A0E75F006D2
:104BD800900E81E0A42420F912128CE9F50C7C0CCB
:104BE8007D0079FFAA18AB19120F8C8A0E8B0F85DE
:104BF8000E0A850F0BAC18AD197A0C900E81E024C3
:104C080070F912128CE9F50D750E0E750F00780EFD
:104C18001218B7EEFCEFFD900E81E0F87900E87508
:104C2800F00EA4C8AAF075F000A42AFA75F00EE9EF
:104C3800A42AF9748528FA740739FB120F747402D0
:104C480012164A8A0E8B0FA80EA90F90081DE508A8
:104C5800F0A3E509F0024E1090081DE0F8A3E0C8A3
:104C68002406F582C83400F583E0F8A3E0F9E849A2
:104C7800604390081DE0F8A3E0C82406F582C83414
:104C880000F583E0FCA3E0FD7A1B75F006900E8129
:104C9800E0A42421F912128CE9F890081DE0F9A388
:104CA800E0C92406F582C93400F5837400F0A374C2
:104CB80000F0024E1090081DE0F8A3E0C8240AF5A1
:104CC80082C83400F583E0F8A3E0F9E8496043902E
:104CD800081DE0F8A3E0C8240AF582C83400F5836B
:104CE800E0FCA3E0FD7A1B75F006900E81E0A42499
:104CF80022F912128CE9F890081DE0F9A3E0C92402
:104D08000AF582C93400F5837400F0A37400F00238
:104D18004E1090081DE0F8A3E0C8240CF582C834B2
:104D280000F583E0F8A3E0F9E849604390081DE046
:104D3800F8A3E0C8240CF582C83400F583E0FCA38E
:104D4800E0FD7A1075F006900E81E0A42423F91294
:104D5800128CE9F890081DE0F9A3E0C9240CF5824B
:104D6800C93400F5837400F0A37400F0024E10906B
:104D7800081DE0F8A3E0C82408F582C83400F583CC
:104D8800E0F8A3E0F9E849606F90081DE0F8A3E0B7
:104D9800C82408F582C83400F583E0FCA3E0FD7A56
:104DA8001075F006900E81E0A42424F912128CE903
:104DB800F50A90081DE0F8A3E0C82408F582C83475
:104DC80000F583E02410FCA3E03400FD7A0475F0BC
:104DD80006900E81E0A42425F912128CE9F89008B7
:104DE8001DE0F9A3E0C92408F582C93400F58374ED
:104DF80000F0A37400F08010900811E06003121115
:104E08004212112A79018006790080027901740C16
:104E180012164A7F0802177674F71216A474F21253
:104E28001634E9FEAC18AD197A0E75F006EEA42416
:104E380020F9121292E9700E740C121680E0F8A391
:104E4800E0F9E8F980027900740E12164A7F01022F
:104E5800177674F41216A474F21216348909EAFE4D
:104E6800EBFFE509C3940A5004EE4F700479028001
:104E780041AC18AD197A0E75F006E509A42420F99D
:104E8800121292E9F508E5087026750A06750B00F6
:104E9800780A1218B7740212169AEEFAEFFB120F7C
:104EA80074740212164A8A0A8B0B850A82850B8350
:104EB800A908740E12164A7F0402177674F41216A3
:104EC800A4EAFEEBFF750800E508C3940A50447590
:104ED8000A06750B00780A1218B7EEFCEFFDE50814
:104EE800F87900E875F00EA4C8AAF075F000A42AB5
:104EF800FA75F00EE9A42AF9748B28FA740739FBBD
:104F0800120F86740212164AE96004A90880060581
:104F18000880B5790A7F0402177674F41216A4EA99
:104F2800FEEBFF750800E508C3940A5044750A06AD
:104F3800750B00780A1218B7EEFCEFFDE508F87952
:104F480000E875F00EA4C8AAF075F000A42AFA7556
:104F5800F00EE9A42AF9748528FA740739FB120FB0
:104F680086740212164AE96004A9088006050880BA
:104F7800B5790A7F0402177674F71216A474F01232
:104F88001634EAFEEBFF750800E508C3940A5039A9
:104F9800AC18AD197A1075F006E508A42423F912A7
:104FA8001292E970207C1079FFAA18AB19120FEC45
:104FB800E97012EEFCEFFDAA18AB191205A2E97010
:104FC80004A9088006050880C0790A741012164AD8
:104FD8007F0102177674F41216A4750800E508C359
:104FE800940A40030250BBE508F87900E875F00E12
:104FF800A4C8AAF075F000A42AFA75F00EE9A42A4C
:10500800F9748528FC740739FD7A0E75F006E508F1
:10501800A42420F9121292E970030250B67C067D8E
:105028000079FFE508FA7B00EA75F00EA4CAA8F03B
:1050380075F000A428F875F00EEBA428FB74852AF7
:10504800FA74073BFB120F8C8A0A8B0BAE0AAF0B64
:105058007C067D0079FFE508FA7B00EA75F00EA46E
:10506800CAA8F075F000A428F875F00EEBA428FB88
:10507800748B2AFA74073BFB120F8C8A0A8B0BACD1
:105088000AAD0BE508F87900E875F00EA4C8AAF097
:1050980075F000A42AFA75F00EE9A42AF97491288B
:1050A800F582740739F5837400F0A37400F00508DD
:1050B800024FE5900811E0600312114212112A7F95
:1050C8000402177674F71216A47E00EEC3940A50F1
:1050D800327C0679FFEEFA7B00EA75F00EA4CAA8C6
:1050E800F075F000A428F875F00EEBA428FB748581
:1050F8002AFA74073BFB120FECE96004EEF980050D
:105108000E80C8790A7F0102177674F71216A47EFA
:10511800007F00EFC3940A502F7C0679FFEFFA7BDB
:1051280000EA75F00EA4CAA8F075F000A428F87576
:10513800F00EEBA428FB74852AFA74073BFB120FC8
:10514800ECE970010E0F80CBEEF97F01021776743F
:10515800F71216A47E007F00EFC3940A500DEE707C
:105168000AEFF9121100E9FE0F80EDEEF97F010256
:10517800177674F01216A474CB1216348909900E9F
:1051880081E06509701D7A017B00900769E0F912DA
:105198000FCEE97A027B00900769E0F9120FCEE999
:1051A80012114E742712169A7A0E75F006E509A4A4
:1051B8002420F9121292E960030252B27C0679FFA8
:1051C8007427121692120FECE960030252B27C0E99
:1051D8007D0079FF7427121692120F8C8A0A8B0BA6
:1051E800850A0C850B0D7C1B7D0079FF740C12164B
:1051F80092120F8C8A0E8B0F850E0A850F0B7C0C72
:105208007D0079FFAA18AB19120F8C8A0E8B0FAE8E
:105218000EAF0F742712169A7A0E75F006E509A4D8
:105228002420F912128CE9F508740C12169A7A1BCC
:1052380075F006E509A42421F912128CE9420874D4
:105248000C12169A7A1B75F006E509A42422F912A5
:10525800128CE94208740C12169A7A1075F006E559
:1052680009A42423F912128CE94208740C12169A24
:105278007A1075F006E509A42424F912128CE94283
:1052880008740C12169A7A0475F006E509A4242508
:10529800F912128CE94208AC18AD197A0C74702511
:1052A80009F912128CE942088003750800A90874EC
:1052B8003512164A7F0802177674F71216A4E9FE0B
:1052C800EE900769F01210E87F0102177674F21267
:1052D80016A4890AEAFEEBFFEE5400F8EF5480F9B1
:1052E800E8496035900769E0F9120FB08A0C8B0D18
:1052F800A80CA90D88088909E8496012AA08AB0911
:10530800121112E96008AA08AB09120F9EE9EE64AF
:1053180000FAEF6480FB0253D9EE5402602D7C0042
:105328007D007A007B001210C4E960187A017B00C6
:10533800900769E0F9120FC8E9EE6402FAEF640019
:10534800FB0253D97A027B000253D9EEA2E0507DCA
:1053580090081DE0F8A3E0F5838882A3A3A3E0FAF0
:10536800A3E0FB121148E9605E900783E0F8A3E030
:10537800F9E8496045900783E0F8A3E0F58388825F
:10538800A3A3E0F8A3E0F9E849602F7C0079019035
:10539800081DE0F8A3E0F5838882A3A3A3E0FAA39D
:1053A800E0FB900783E0F8A3E0F5838882A3A3E0FD
:1053B800F8A3E0F58388821216A212114EEE64015A
:1053C800FAEF6400FB800A7A017B0080047A007B94
:1053D800007F0602177674F71216A4EAFEEBFF7533
:1053E80008018E828F83E02450601314601924E131
:1053F800701CEEFAEFFB1210A6E9F5088010EEFA21
:10540800EFFB1211188007EEFAEFFB12111EA90824
:105418007F0102177674F71216A4EAFEEBFF8E825C
:105428008F83A3A3A3A3E0641E701179008E828FDB
:1054380083A3A3E0FAA3E0FB12109AE97F01021705
:105448007674F61216A4EAFEEBFF8E828F83A3A36E
:10545800A3A3E0703A8E088F09850882850983A383
:10546800A3A3A3A3A3A31218CE850882850983A3A7
:10547800A3A3A3A3E0FCA3E0FD850882850983A379
:10548800A3E0FAA3E0FB1210A0740212164AE97F07
:105498000202177674F71216A4EAFEEBFF9007696A
:1054A800E0F98E828F83A3E0FAA3E0FB120824E9D7
:1054B8007F01021776C082C08374FF12163412105F
:1054C800F4E9C39402400B8518828519837402F0AD
:1054D8008009851882851983740AF0AC18AD197A89
:1054E8000179051206B0E9740112164AD083D082F8
:1054F80002011F74F21216A474E8121634EAFEEBC5
:10550800FF890A8C088D097C187D007900AA18ABE0
:1055180019120F8C8A0C8B0DAC0CAD0D8518828579
:105528001983EEF0A3EFF090076BE0C0E07402126D
:105538001680D0E0F090076CE0C0E074031216808B
:10554800D0E0F0900E80E0C0E07417121680D0E032
:10555800F07415121680E054FEF8A3E054FFF99099
:105568000E7FE0A2E0E433FA7B00E84AF8E94BF961
:105578007415121680E8F0A3E9F0900E7FE0A2E11E
:105588005004D2F08002C2F07415121680E054FD67
:10559800FAA3E054FFFBA2F0E433F87900E828F816
:1055A800E933F9EA48F8EB49F97415121680E8F07E
:1055B800A3E9F0900E7FE0A2E35004D2F08002C28B
:1055C800F07415121680E054F7FAA3E054FFFBA21A
:1055D800F0E433F50C750D007403780C121621EA0B
:1055E800450CF8EB450DF97415121680E8F0A3E99F
:1055F800F0900E7FE0A2E45004D2F08002C2F07472
:1056080015121680E054EFFAA3E054FFFBA2F0E471
:1056180033F50C750D007404780C121621EA450C4C
:10562800F8EB450DF97415121680E8F0A3E9F0902F
:105638000E7FE0A2E55004D2F08002C2F074151289
:105648001680E054DFFAA3E054FFFBA2F0E433F540
:105658000C750D007405780C121621EA450CF8EB50
:10566800450DF97415121680E8F0A3E9F0900E7F45
:10567800E0A2E25004D2F08002C2F0741512168043
:10568800E054FBFAA3E054FFFBA2F0E433F50C75F9
:105698000D007402780C121621EA450CF8EB450D42
:1056A800F97415121680E8F0A3E9F090076CE06031
:1056B8002A750C10750D00780C1218B77C6D7D07D3
:1056C8007406121680AA82AB83120F747402121623
:1056D8004A8A0C8B0D850C82850D8390077DE060CE
:1056E80012E50A600E7415121680E04402F0A3E079
:1056F8004400F090077DE060067801790080047826
:105708000079007414121680E048F090076AE0608F
:1057180006780479008004780079007414121680E1
:10572800E048F0AC08AD09AA18AB191205C6E9742F
:105738001812164A7F0602177674F71216A4EAFEA4
:10574800EBFF75080090077DE0600678017900801E
:105758000478007900E8420890076AE06006780457
:105768007900800478007900E84208A908EEFAEF89
:10577800FB120680E97F0102177674EE1216A474F4
:10578800E51216348A0C8B0DE9FF8C088D09742DEF
:10579800121680E0F50A74086509700A75F006EFBC
:1057A800A42422FE800875F006EFA42421FE7C1BA9
:1057B8007D007900AA18AB19120F8C8A108B1185FD
:1057C800100E85110FAC18AD197A1BEEF912129252
:1057D800E97038741A121680E0C39407402D741AC1
:1057E800121680E0C394115022E50AF50B780B12CB
:1057F80018BB740112169AE508A2E0E433F9AA0C62
:10580800AB0D1205D8740112164AE9741B12164A18
:105818007F0A02177674F71216A412089CE97E0014
:10582800EEC3940A50557C0679FFEEFA7B00EA75C0
:10583800F00EA4CAA8F075F000A428F875F00EEBD5
:10584800A428FB74852AFA74073BFB120FECE97055
:1058580027EEF87900E875F00EA4C8AAF075F000F4
:10586800A42AFA75F00EE9A42AF9748528FA7407AF
:1058780039FB79001208A2E90E80A57F010217768C
:1058880074F61216A474FD121634EAFEEBFF9008A3
:105898001FE0F8A3E0F9E84970397508217509088F
:1058A80078081218B775080275090078081218B731
:1058B8007508A275098178081218B77CFF7DFF7AF0
:1058C800017B001206F2740612164A90081FEAF0CD
:1058D800A3EBF090081FE0F8A3E0F9E84970030291
:1058E80059A5E4F508F50978081218B774041216D2
:1058F8008A8808890978081218B7740412168A88E1
:1059080008890978081218B79008211218CE790268
:1059180090081FE0FCA3E0FDEEFAEFFB12081274FA
:105928000812164AE9704A851882851983E0FA7BBD
:10593800007401121680E0F87900E4C8F9EA28F545
:1059480008EB39F509E5084509602678081218B703
:1059580090081FE0F8A3E0F5838882A3A3A3A3E03F
:10596800FCA3E0FDEEFAEFFB1210A0740212164A37
:10597800E9E4F508F50978081218B7900821121813
:10598800CE7CFF7DFF90081FE0FAA3E0FB1206FE25
:10599800740412164A90081FEAF0A3EBF090081F4F
:1059A800E0F8A3E0F9E8497004790180027900740D
:1059B8000312164A7F02021776C082C08390081D20
:1059C800E0F8A3E0F9E849601790081DE0FAA3E0C1
:1059D800FB120F9EE9F890081D7400F0A37400F004
:1059E800900E81740AF0D083D08202011FC082C059
:1059F800839061907404F0A37448F0A37402F0904B
:105A080061807440F09061BC7403F09061877419F0
:105A1800F0906265741BF0906249E0C39413906142
:105A28009C400A7409F090606674018007740DF058
:105A3800906066E4F090619A7433F0A37455F09026
:105A480061A0743AF0900543E064017009C2919036
:105A580003AA746780059003AA7461F09025F2E4A4
:105A680093906186F09025ECE493F46027E49354D6
:105A78000FF8906185E0686012E5C654804449F5E6
:105A8800C6E59E547F644970F8E8F053C680E59EE9
:105A9800547F70FA7905120D58025C23C082C083C6
:105AA800E5A8F853A87E906181E4F0A3F0A3F0C2C2
:105AB800BA539AFEC289759B00C2C275E9007591F6
:105AC8000075BF0075A91175B905906181F0A374BF
:105AD800C0F0A3E4F0D2BA439A0174805842A802F5
:105AE8005C23C082C08374F81216349003A8E0F8CF
:105AF800A3E0F9E8497003025C189003A8E0544059
:105B080060237908851882851983AA82AB83120BD2
:105B1800CC851882851983AA82AB831208C09003AA
:105B2800A8E054BFF0E054806010790C7A697B05D6
