:020000040000FA
:0600000002010702229B31
:03002B0002271396
:030033000226F5AD
:03003B0002273465
:030043000226A9E9
:0300530002230E77
:03006B000226CF9B
:10008300022107E5C754F84401F5C77901220000AE
:100093000080FB120086B900030200F1E4792178A5
:1000A30008B800028004F709D8FCE479297802B87B
:1000B30000028004F709D8FCE490028178B7790C38
:1000C3008002F0A3D8FCD9FA7A377B0E90013778F7
:1000D3000879048015E493A3AD82AE838A828B836F
:1000E300F0A3AA82AB838D828E83D8E9D9E7758288
:1000F300937583CA74031201197582917583007411
:100103000012011975D00075813F751881751902A8
:10011300759F00020096C09FF59FE473D09F22D085
:1001230083D082C09FE493C0E0740193C0E0740263
:1001330093F59F2234054005FF0000B4000028001A
:100143002800283075A000A000A000A0000008002F
:1001530008E001F000100010001000100010001063
:100163000050005000500010001000D007000000A5
:100173000000000F000100050030750700100001AA
:100183000081FF00000000FF780696067E06FF024E
:10019300020208025000A0000000E80302CB820123
:1001A30000009B8202C782010000920E02B5820109
:1001B3000000B80202C782010000930E02AF820161
:1001C3000000CE0202C782010000940E02AD82013C
:1001D3000000D00202C782010000950E02AB820824
:1001E3000000D10202C782010000960E02A982011B
:1001F3000000970EFF0100FF2002CB8201000041A7
:100203008202C782010000FB0E02A78200000000E9
:100213000002C3820300001E037E0C7E0C7E0C7E54
:100223000C7E0C7E0C7E0C7E0C7E0C7E0C7E0C7E7B
:100233000C7E0C480F600F420FFFFF020202020206
:1002430002020202010D000000100102CB82010034
:1002530000A48202C7820100003E0F02BD8201009A
:1002630000B60702C7820100003F0F02BB820100F4
:1002730000238202C782010000400F02B9820100FD
:1002830000078202C782010000410F02B78201000A
:10029300003B8102C782010000420F02B3820100CA
:1002A300004D8102C782010000430F02B1820100A9
:1002B30000718102C782010000440F02CD82010058
:1002C30000298102C782010000450F02D18201008B
:1002D30000158202C782010000460F02C18201009D
:1002E30000470F01E803053F100AFF0001307503C3
:1002F30002010600000000000000000000000000F2
:10030300000000000000000000000000000000FFEB
:10031300FF0600800CE803140953696D706C654295
:100323004C455065726970686572616C05125000C6
:100333002003020A000201060302F0FF53696D70F5
:100343006C6520424C452050657269706865726126
:100353006CFE130000221404140A43686172616383
:100363007465726973746963203100024368617252
:10037300616374657269737469632032000843684A
:100383006172616374657269737469632033001009
:10039300436861726163746572697374696320345D
:1003A300000243686172616374657269737469639F
:1003B30020350002CB820100009E8202C782010029
:1003C300005C1002D582030000280E02C5820100E2
:1003D300005D1002C7820100006E1002D782010087
:1003E30000290E02C5820100006F1002C7820100BE
:1003F30000801002D9820200002A0E02C582010089
:1004030000811002C782010000921002DB8200000B
:10041300002B0E02C3820300002C0E02C5820100D2
:1004230000931002C782010000A41002DD820400C1
:1004330000320E02C582010000A51012012230B95C
:100443000312012247B90312012278B903120122D0
:10045300B3B903120122DDB90312012207BA031251
:1004630001221EBA0312012235BA031201224CBA29
:100473000312012275BA0312012288BA0312012260
:100483009EBA03120122B1BA03120122D8BA03128F
:1004930001220BC2021201220FC30212012247C31F
:1004A300021201226AC30212012275C3021201223F
:1004B30098C302120122A7C4021201227CC50212B0
:1004C3000122F7C5021201227FC602120122BAC617
:1004D30002120122F1C6021201227FC70212012277
:1004E30058C802120122B8C802120122C3C802125C
:1004F300012242C90212012245C90212012248C93E
:1005030002120122D7C902120122DAC90212012200
:100513000ACA0212012234CA0212012222CB021297
:100523000122D4CB0212012245CC0212012242CD78
:1005330002120122C4CD021201220CCE02120122A8
:1005430070CE02120122FDCE02120122B7CF021297
:100553000122C6D20212012251D40212012274D402
:100563000212012213FB011201223BFB01120122A1
:1005730069FB01120122A0FB01120122FEFB011201
:10058300012249FC0112012294FC01120122D4FC34
:10059300011201221AFD0112012248FD011201225A
:1005A30005FE011201220FFE011201221CFE01129F
:1005B30001224FFE011201221BFF0112012227FF1C
:1005C300011201223FFF0112012249FF0112012200
:1005D30033C60312012241C60312012259C6031274
:1005E300012271C603120122B6DD0112012262DE6D
:1005F30001120122DDDE01120122FEDF01120122BE
:100603003AE001120122E3E001120122CAE10112E0
:1006130001222EE30112012285E30112012206E4E5
:1006230001120122F6E40112012243E50112012223
:10063300C9E501120122FBE5011201220FE80112B3
:10064300012251E8011201226FE801120122F2E8AE
:1006530001120122C6E9011201228EEA01120122CE
:1006630082E50212012255E602120122FEE602127F
:10067300012251E70212012201E8021201228DE850
:100683000212012279E902120122A8E902120122CF
:10069300BBEA0212012203EB02120122D8EB02127F
:1006A300012214EC0212012230EC02120122D9C8F9
:1006B30003120122C79703120122DD9703120122BD
:1006C3000398031201221F9903120122299903128D
:1006D30001225E9A03120122569B03120122609BA0
:1006E300031201220080031201223081031201222E
:1006F300638103120122AD81031201227483031269
:100703000122CCBE0112012236BF0112012295C083
:1007130001120122A5C001120122D2C0011201223D
:1007230029C101120122D2C101120122D9C201122F
:100733000122A3C30112012203C50112012246C5EE
:1007430001120122EBC50112012238C60112012256
:100753005EC6011201226CC80112012271C8011286
:10076300012276CA01120122C3CA0112012236CB29
:100773000112012269CB011201220BCC01120122C9
:10078300B4CC01120122ECCC01120122EFCC0112F4
:10079300012237CD0112012277CD01120122CECDE4
:1007A3000112012265AF031201227DAF0312012260
:1007B300C5AF03120122DBAF0312012222B00312E1
:1007C300012236B103120122C3B1031201220EB278
:1007D30003120122864300120122924300120122D6
:1007E300CD4300120122124400120122D24400120E
:1007F3000122584500120122BD4500120122E9459C
:100803000012012222460012012260480012012236
:10081300444A001201222A4C001201226D4D00129B
:100823000122BB4F00120122CD50001201221852A7
:100833000012012228530012012245530012012203
:10084300805300120122A253001201220554001208
:100853000122C658001201225B5900120122AC5931
:1008630000120122D35900120122255A001201223B
:10087300435A001201229D5A00120122865B001284
:100883000122FC5C00120122805D00120122418AD8
:10089300031201224B8A031201228E8A03120122C0
:1008A300A98A03120122398B03120122618B0312DD
:1008B30001229E8B03120122D58B03120122FE8B90
:1008C30003120122738C03120122888C031201226A
:1008D3009D8C03120122BF8C03120122088D031287
:1008E30001221D8D03120122318D03120122568D27
:1008F30003120122908D03120122BC8D03120122E7
:10090300058E03120122738E03120122BC8E031281
:100913000122E68E03120122118F031201222EC23D
:1009230003120122BBCE01120122E9CE01120122E0
:1009330037D00112012217D10112012236D101123F
:100943000122B3D101120122F6D1011201224CD3AB
:1009530001120122FCD30112012235D60112012218
:10096300BCD8011201225DD90112012253DA01120E
:10097300012250DB01120122AADC0112012235DD22
:1009830001120122A4BF031201220DC0031201228E
:1009930061C00312012288C003120122B9C00312ED
:1009A3000122398F03120122A68F03120122ED8F38
:1009B3000312012205910312012201920312012263
:1009C300E492031201229FD502120122E1D5021201
:1009D3000122B3D6021201228CD70212012286D839
:1009E3000212012268D902120122D1D90212012274
:1009F30087DA02120122FBDA0212012267DB0212FA
:100A0300012290DB021201220ADC02120122A3DC82
:100A13000212012208DD021201221DDD021201224F
:100A230063DD021201227CDD02120122E1DD0212EA
:100A33000122E4DD021201226CAC0312012294AC08
:100A430003120122D2AC0312012290AD0312012240
:100A5300F7AD0312012213AE031201223BAE0312C0
:100A630001226BAE031201227AAE03120122F7AE0A
:100A7300031201221DAF031201221BAC011201223A
:100A83003CAE011201226EB001120122AAB0011282
:100A93000122D7B001120122C5B10112012210B205
:100AA300011201225BB2011201226DB20112012275
:100AB300ADB201120122E2B20112012230B30112DE
:100AC30001225FB30112012282B301120122CFB3CB
:100AD3000112012254B4011201226EB60112012245
:100AE300ADB801120122EEB80112012292BA01122D
:100AF3000122D3BA01120122CCBB01120122D9BDBA
:100B0300011201224CBE0112012298BE01120122E0
:100B1300C8A902120122C6AA021201225FB102125F
:100B2300012280B3021201224BB502120122B3B695
:100B330002120122E75D00120122965E00120122D9
:100B4300DC5E00120122126000120122A861001271
:100B530001222262001201225F6200120122D96285
:100B63000012012233640012012293650012012254
:100B7300996600120122FA67001201224C680012E2
:100B83000122BD6900120122D66900120122346AD2
:100B930000120122586A00120122466B0012012240
:100BA300796B00120122E96B00120122636C0012BF
:100BB3000122AD6C00120122776D001201224C6EEE
:100BC300001201222B6F00120122B66F00120122C4
:100BD300247000120122987000120122C3700012C7
:100BE3000122827100120122E772001201220473B2
:100BF3000012012223730012012214740012012235
:100C0300397400120122637400120122DE7400128F
:100C13000122387500120122A176001201224F77BA
:100C2300001201229077001201222F8E021201225C
:100C33007D8E02120122898E02120122678F021217
:100C43000122988F02120122C98F021201224990B8
:100C530002120122819002120122D3900212012278
:100C63001091021201222D930212012253950212B6
:100C730001223E97021201222899021201229D2786
:100C830000120122278503120122CB8503120122C0
:100C93009D8603120122C7860312012215890312BE
:100CA3000122A82700120122F22700120122E435B3
:100CB30000120122693700120122DA3D00120122DB
:100CC300D53E00120122123F00120122353F0012CD
:100CD3000122773F00120122803F001201228A3F46
:100CE300001201227840001201226E4100120122FB
:100CF300E28201120122E18601120122E78601123A
:100D03000122228E011201223B93011201220BA622
:100D13000312012205A70312012279A7031201225C
:100D2300B7A7031201222BA803120122A4A80312BE
:100D33000122ADA803120122B9A803120122CEA8F1
:100D4300031201220CA90312012222A90312012278
:100D53008AF30212012297F302120122B1F3021263
:100D63000122F0F3021201222EF40212012293F463
:100D730002120122A8F402120122B3F40212012288
:100D8300C0F402120122D7F402120122E5F4021286
:100D93000122F4F40212012209F5021201221EF5C6
:100DA3000212012229F50212012235F50212012253
:100DB30044F5021201224FF50212012272F50212CA
:100DC300012219F60212012229F6021201223EF62D
:100DD3000212012258F60212012273F602120122B4
:100DE30090F6021201229BF60212012257F7021219
:100DF300012243F80212012268F80212012273F859
:100E03000212012288F8021201229CF80212012226
:100E1300FDF80212012203F90212012209F902125A
:100E230001220FF90212012227F9021201225AF9B3
:100E3300021201220580021201228980021201227C
:100E4300388102120122978202120122B88402120F
:100E53000122A48502120122D98502120122FB85F7
:100E630002120122AA8602120122A2880212012280
:100E7300CB88021201225D89021201228F8902129C
:100E830001229C8902120122F38902120122198A8A
:100E930002120122868C02120122898D0212012282
:100EA300E18D02120122A7EC01120122B1ED011220
:100EB300012298EE01120122A2EE01120122C4EED8
:100EC30001120122D0EE0112012269F00112012266
:100ED30098F001120122B4F1011201220DF2011264
:100EE300012273F30112012252F401120122AEF422
:100EF300011201221BF50112012256F501120122F2
:100F030095F5011201224EF80112012268F801122F
:100F13000122F4F80112012202F9011201225BF904
:100F23000112012269F901120122DCF901120122E5
:100F330040FA011201228AFA01120122DDB60212DD
:100F43000122FFB60212012225B9021201223ABC84
:100F53000212012252BD0212012205BE0212012217
:100F6300E7BE02120122EABA031201220FBB0312E7
:100F7300012281BB0312012208DE0212012211DECB
:100F8300021201221ADE02120122F1DE02120122F2
:100F9300A2E002120122D8E00212012212E102129F
:100FA300012248E10212012282E102120122B6E18A
:100FB30002120122E2E1021201222BE202120122B9
:100FC30065E202120122AEE20212012206E30212DC
:100FD30001223BE30212012296E302120122D0E333
:100FE3000212012221E40212012257E40212012219
:100FF30091E402120122BFE402120122E2E402128E
:1010030001220AC70312012236C70312012291C724
:10101300031201229BC703120122ABC70312012251
:10102300D7F902120122E1F9021201221FFA021278
:10103300012268FA02120122A2FA02120122F8FA2C
:101043000212012219FB0212012222FB02120122C7
:101053006DFB0212012296FB02120122A0FB021277
:1010630001220CFC02120122A2FC02120122ECFC5E
:10107300021201221CFD02120122A5FD021201220D
:10108300E5FD021201221DFE021201222FFE0212B1
:1010930001224EFE0212012257FE021201221DFFFF
:1010A300021201224BC40312012241B7031201228F
:1010B30077B703120122ADB703120122F6B8031268
:1010C30001225DC90312012273C9031201227DC9E2
:1010D300031201222FCA03120122A6930312012233
:1010E300BB93031201226E9403120122AE940312E6
:1010F3000122C79403120122FB9403120122489593
:10110300031201227C9503120122BE9503120122D0
:10111300BA970312012242C5031201226BC50312BF
:10112300012294C503120122ACC503120122EEC5AC
:101133000312012238B2031201225DB2031201220B
:1011430087B203120122C7C903120122F1970112C8
:101153000122559A01120122069C01120122089DC7
:1011630001120122919D01120122159E01120122F9
:101173003A9E0112012273A101120122E7A1011279
:101183000122D8A20112012212A30112012252A3A9
:101193000112012205A50112012258A50112012203
:1011A300A1A5011201220FA60112012241A60112DB
:1011B300012259A6011201226EA7011201227EA764
:1011C3000112012299A801120122BBA801120122D6
:1011D300F1A80112012295AA01120122D4AA011237
:1011E3000122F6AB0112012247FF0212012258FF2E
:1011F30002120122B67F00120122F57F00120122A2
:1012030004CB03120122B5C703120122C5C703127F
:101213000122E0C70312012248C80312012247C377
:1012230003120122CCC30312012232C4031201228E
:101233002CBE0312012255BE03120122C0BE0312AB
:10124300012211BF031201226ABF03120122FFC050
:101253000312012214C10312012288C103120122C5
:10126300A2C103120122B9C103120122CCC103128C
:101273000122E4C103120122F9C1031201226A9B74
:1012830003120122819B03120122FA9B0312012202
:10129300CF9C03120122A19E031201229CA20312DE
:1012A30001222CA303120122AAA30312012233A4B5
:1012B30003120122C8A40312012252A50312012220
:1012C3005CA5031201226BA50312012281A503125F
:1012D300012294A503120122F4A50312012208A6F8
:1012E3000312012252C803120122BCC803120122B5
:1012F300CEC8031201228FBC03120122DFBC0312EA
:10130300012268BD03120122CEBD0312012204B5DE
:10131300031201222EB503120122F4B50312012296
:10132300CFB603120122C077001201227D7800128A
:101333000122B87800120122E078001201224279DA
:10134300001201228E7900120122EE79001201228D
:10135300817A00120122807B001201220F7D00128C
:101363000122927D00120122F97D00120122107EDA
:10137300001201221A7F00120122587F001201225B
:10138300039C02120122729F02120122EEA002129A
:10139300012248A10212012267A102120122E5A142
:1013A3000212012252A3021201223DA402120122BF
:1013B3000AA802120122E8A8021201228BA9021232
:1013C300012252A90312012281A90312012297A922
:1013D30003120122DFA90312012221AA031201220F
:1013E3008CAA0312012263AB03120122E7AB03129F
:1013F3000122A5EC0212012202EF02120122A1EF47
:10140300021201227EF002120122A7F0021201222F
:1014130018F1021201225EF10212012276F1021288
:10142300012235F202120122069F031201224B9F71
:1014330003120122689F031201221EA0031201223C
:1014430071A0031201224FA10312012263A203120E
:101453000122D0FF01120122E6CA03E066701008E0
:10146300A3E066700A08A3E066700408A3E066229E
:10147300C3E7960809E7960809E7960809E796225D
:10148300C3E09608A3E09608A3E09608A3E096229B
:10149300C008C3E096F50808A3E096420808A3E055
:1014A30096420808A3E09645087001D3D0082208A5
:1014B3000808EAC0E0EBC0E086F0E7A4FA18098662
:1014C300F0E7A42AFA180986F0E7A42AFA1809868D
:1014D300F0E7A42AFA1986F0E7A4FBE5F02AFA1943
:1014E3000886F0E7A42BFBE5F03AFA190886F0E743
:1014F300A42BFBE5F03AFA18180986F0E7A4C5F027
:101503002BFBE43AFA1908E7C5F0C6A426F6E5F082
:101513003BFBE43AFA1886F0E7A4F6E5F00826F672
:10152300E43B08F6E43A08F6D0E0FBD0E0FA22E424
:10153300CFC0E0E4CEC0E0E4CDC0E0E4CCC0E075D1
:10154300F020E626F608E633F608E633F608E63337
:10155300F6181818EC33FCED33FDEE33FEEF33FFD2
:10156300C3EC9709ED9709EE9709EF9719191940FD
:101573000FFFEC97FC09ED97FD09EE97FE1919068D
:10158300D5F0BFECF709EDF709EEF709EFF71919F5
:1015930019D0E0FCD0E0FDD0E0FED0E0FF226016E1
:1015A300080808C6C313C618C613C618C613C61838
:1015B300C613C6D5E0EA2270090808082260161887
:1015C3001818C6C333C608C633C608C633C608C60A
:1015D30033C6D5E0EA22E627F60809E637F6080916
:1015E300E637F60809E637F622E026F608A3E036E2
:1015F300F608A3E036F608A3E036F622E026F00864
:10160300A3E036F008A3E036F008A3E036F022C3E7
:10161300E697F60809E697F60809E697F60809E655
:1016230097F622C3E096F008A3E096F008A3E096AD
:10163300F008A3E096F022E657F60809E657F60805
:1016430009E657F60809E657F622E056F608A3E03E
:1016530056F608A3E056F608A3E056F622E056F045
:1016630008A3E056F008A3E056F008A3E056F022E2
:10167300E0F608A3E0F608A3E0F608A3E0F622E606
:10168300F008A3E6F008A3E6F008A3E6F022E0FAE8
:10169300A3E0FBA3E0FCA3E0FD22EAF0A3EBF0A3AD
:1016A300ECF0A3EDF022E0F8A3E0F9A3E0FAA3E065
:1016B300FB22E8F0A3E9F0A3EAF0A3EBF022CAC00F
:1016C300E0E6F0A308DAFAD0E0FA22CAC0E0E0A329
:1016D300C582CCC582C583CDC583F0A3C582CCC5E5
:1016E30082C583CDC583DAE6D0E0CA22C3E498F885
:1016F300E499F91217308026C3E49AFAE49BFBE9D4
:1017030020E7E9121730E498F8E499F922C3E49842
:10171300F8E499F9121730E498F8E499F9C3E49AD4
:10172300FAE49BFB22EB20E7CFE920E7E0B90010C6
:10173300BB0008E88AF084F8AAF022E4FBC8FA2286
:10174300EB70227B10C833C8C933C9335007C39A1F
:10175300C3DBF280069A50012ADBEAC833F4C8C916
:1017630033F4C9FA2275F008E4C833C8C933C9335E
:10177300C99AC99B5004C92AC93BD5F0ECFBC833AD
:10178300F4C8E4C9FA22600D08C6A2E713C618C656
:1017930013C6D5E0F322600C08C6C313C618C613DC
:1017A300C6D5E0F422700422600D18C6C333C60800
:1017B300C633C6D5E0F41822251810AF08F5184033
:1017C3000C15198008F51840021519D2AF2200C074
:1017D300D0251810AF08F518500C05198008F51816
:1017E30050020519D2AFD0D0222518F58210AF08C8
:1017F300F518400C15198008F51840021519D2AFD9
:10180300851983222518F582E43519F583222518D5
:10181300F8E43519F9222518FAE43519FB222518BD
:10182300FCE43519FD22E4732518C582C0E0E519EF
:1018330034FFC583C0E0E518C3958224F810AF08D0
:101843008583198582188008858319858218D2AF0C
:10185300CEF0A3E520F0A37808E608F0A3DEFAEFC4
:10186300F0A3E58124FAF8E608F0A3E608F0A3E67E
:1018730008F0A30808E608F0A3E608F0A31581150D
:1018830081D0E0FED0E0F8158115811581E8C0E034
:10189300EEC0E0222518C582C0E0E51934FFC583F8
:1018A300C0E0E518C3958224F910AF088583198534
:1018B30082188008858319858218D2AFCEF0A3E5FC
:1018C30020F0A37808E608F0A3DEFAEFF0A3E581A1
:1018D30024FBF8E608F0A3E608F0A30808E608F0FE
:1018E300A3E608F0A315811581D0E0FED0E0F8153A
:1018F300811581E8C0E0EEC0E02285198385188256
:10190300E0A3FEE0A3F5207808E0A3F608DFFAE001
:10191300A3FFE0A3C0E0E0A3C0E0E0A3C0E0E0A336
:10192300C0E0E0A3C0E010AF08858218858319806A
:1019330008858218858319D2AFD083D08202011F14
:10194300851983851882E0A3FEE0A3F5207808E0DB
:10195300A3F608DFFAE0A3FFE0A3C0E0E0A3C0E042
:10196300E0A3C0E0E0A3C0E010AF08858218858340
:10197300198008858218858319D2AFD083D082223B
:10198300C0D02518C582C0E0E51934FFC583C0E087
:10199300E518C3958224F310AF088583198582184F
:1019A3008008858319858218D2AFC8F0A3E9F0A314
:1019B300EAF0A3EBF0A37908E709F0A3D8FAECF077
:1019C300A3EDF0A3EEF0A3EFF0A3D0E0F0A3D0E0FB
:1019D300F0A3D0E0F0A3E520F0A3E5F0F0A3228587
:1019E3001983851882E0C0E0A3E0F9A3E0FAA3E03D
:1019F300FBA37808E0F608A3DFFAE0FCA3E0FDA36D
:101A0300E0FEA3E0FFA3E0C0E0A3E0C0E0A3E0F5B5
:101A1300D0A3E0F520A3E0A3F5F010AF0885831968
:101A23008582188008858319858218D2AFD082D029
:101A330083D0E0F8D0E0327404800674028002742C
:101A430001C0E0F4041217ECD0E01216C1227404B2
:101A5300800474028000CCC0E0EDC0E0E518C39CB4
:101A6300CCAD1950011D10AF068C188D1980068C52
:101A7300188D19D2AF1216CED0E0FDD0E0FC22D0E3
:101A830083D082E9C0E0E493A3C386F0C5F095F068
:101A9300F908E493A386F0C5F095F0700BE493A3E3
:101AA300C3994005E9048002A3E475F002A42582EA
:101AB300F582E5F03583F583D0E0F9E493A3C0E044
:101AC300E493C0E022D083D082ECC0E0EDC0E0E438
:101AD30093A3FCE493A3FDED4C600D121B14EC24C3
:101AE300FFFCED34FFFD80EFE493A3FCE493A3FD3F
:101AF300ED4C600D121B53EC24FFFCED34FFFD8015
:101B0300EFD0E0FDD0E0FCE493A3C0E0E493C0E0B9
:101B130022C0E0C3E49396087401939618400FE43F
:101B23009366700808740193661870007019A3A374
:101B3300C3E49396087401939618A3A3400DD0E0D1
:101B4300D0E0D0E0021B04A3A3A3A3A3A3D0E0226D
:101B5300C0E0C0F088F0E4936670080874019366EF
:101B6300187000A8F0A3A3700BD0F0D0E0D0E0D0A1
:0B1B7300E0021B04A3A3D0F0D0E0228E
:101B800074F5121897EAFEEBFFEE2434F8EF3400F8
:101B9000F988088909EE2435F582EF3400F583E0F1
:101BA000F8EE2437F582EF3400F583E0F50AEC8592
:101BB0000AF0A4FCAAF0850AF0EDA42AFDE82CF8AE
:101BC000E43DF97A257B00121730EA850882850901
:101BD00083F0F8740758F97401B900028004C33324
:101BE000D9FCFAE8131313541FF8EE28F8EF340069
:101BF000F9E8245DF582E93400F583E05A6008EEE7
:101C00002434F582EF802CEE2434F582EF3400F595
:101C100083E0C0E0EE2436F582EF3400F583E0F592
:101C2000F0D0E084A8F0EE28F8EF3400F9E824388A
:101C3000F582E93400F583E0F97F0402194374F575
:101C4000121897EAFEEBFFEE2434F582EF3400F52C
:101C500083E0C0E0EE2435F582EF3400F583D0E078
:101C6000F08E828F83A3A3A3A3A3A3A3C082C08368
:101C70008E828F83A3A3A3A3A3E0F8A3E0F9D0836C
:101C8000D082E0C398F508A3E099F509EE247FF52A
:101C900082EF3400F583E064017069EE2480F58200
:101CA000EF3400F583E0F8A3E0F98E828F83A3A3DD
:101CB000A3A3A3A3A3E0FCA3E0FD8E828F83A3A331
:101CC000A3A3A3E0FAA3E0FBC3EA9CEB9D5010C3DF
:101CD000EC98ED99402EC3EA98EB995027800EC3FB
:101CE000EA98EB994007C3EC98ED9940177CE17DA9
:101CF00004EEFAEFFB120BDCEE247FF582EF3400EA
:101D0000F583E4F0EE2434F8EF3400F9E8FCE9FD63
:101D1000EE2435F582EF3400F583E0F8EE2437F554
:101D200082EF3400F583E0F50AE508850AF0A4F5B2
:101D300008AAF0850AF0E509A42AF509E82508F8BB
:101D4000E43509F97A257B00121730EA8C828D83FD
:101D5000F0F8740758F97401B900028004C333D94C
:101D6000FCFAE8131313541FF8EE28F8EF3400F9C7
:101D7000E8245DF582E93400F583E05A6008EE243A
:101D800034F582EF802CEE2434F582EF3400F583B5
:101D9000E0C0E0EE2436F582EF3400F583E0F5F0A4
:101DA000D0E084A8F0EE28F8EF3400F9E82438F504
:101DB00082E93400F583E0F9122695021C39C082CD
:101DC000C083851882851983E0F8A3E0F9C3EA9CF3
:101DD000EB9D5010C3EC98ED99401BC3EA98EB992A
:101DE0005014800EC3EA98EB994007C3EC98ED9924
:101DF0004004790180027900D083D08222EAC39C1A
:101E0000FAEB9DFB2274EF1218979003A7E0640889
:101E10006005E06407702A9061C8E060249003D5F3
:101E2000E0F4601DE0F875F003A4C8AAF02AF97484
:101E3000D728FE740339FF8E828F83A3A3A3E0709B
:101E400003021F35906060E0C0E0EE2468F582EF89
:101E50003400F583D0E0F0750C61750D0575080050
:101E6000750900E5D914F50AE5D95403F50E601794
:101E70007403650E605CE50A6010EE2467F582EF7E
:101E80003400F583E07003021F1A90055CE06401E2
:101E9000602AEE2482F582EF3400F583E060047856
:101EA0000480027800850A08E508C398FA95E0FBEB
:101EB000120A8C8A088B09EA45097005120E1680F1
:101EC00074EE2482F582EF3400F583E070048A0C0E
:101ED0008B0DE50A6012850C82850D83F50BE5D923
:101EE000F0A3150BE50B70F6EE2482F582EF3400BB
:101EF000F583E0604474FC250AF50A780C121A3E5A
:101F0000AC0AA90EEEFAEFFB120C7874021217D18C
:101F1000E97026AA08AB091212FC793D8E828F83E4
:101F2000A3A3A3A3E0FA7B00120960EEFAEFFB1271
:101F30000BF4120CA8790080747403650E6056854A
:101F40000A107511007810121A3EAC0CAD0DAA08DB
:101F5000AB09120C5474021217D1EE2468F582EF0B
:101F60003400F583E064807004747F8001E0F50C38
:101F7000780C121A42E50EF50C780C121A42A90AD6
:101F8000AC08AD099003D5E0FA7B0012091E74027B
:101F90001217D180139003A7E06408600BAC0CAD5E
:101FA0000DEEFAEFFB120D02120E2279017F0A02EA
:101FB000194374F512189774FC1217BBEAFEEBFF75
:101FC0008908A2AFE433F509C2AF806AEE2463F852
:101FD000EF3400F97A007B00A2AFE433F50AC2AF18
:101FE00088828983E0FCA3E0FDEC4D603A88828919
:101FF00083E0FAA3E0FB8A828B83E0FCA3E0FD8808
:10200000828983ECF0A3EDF08A828B83E4F0A3F065
:1020100088828983E0FCA3E0FDEC4D700A88828908
:1020200083A3A3E4F0A3F0E50AA2E092AF1212FCAE
:102030009004E8E004F0EE2463F582EF3400F583C9
:10204000E0F8A3E0F9E849603DEE2463F582EF345F
:1020500000F583E02402FAA3E03400FBEA2402F551
:102060000AEB3400F50B780A121A3E8A828B83E061
:10207000FCA3E0F9EEFAEFFB120C1874021217D170
:10208000E97003021FCC9004E8E060639004E9E08B
:10209000F89004E8E0C398500C7402650870509002
:1020A00004EAE0604A8E828F83A3A3A3A3E085188D
:1020B00082851983F0A3E4F09004E8E0F87402123A
:1020C0001807E8F0A3E4F09004E8E0F89004E7E0F3
:1020D00028F07402121807AC82AD83851882851926
:1020E00083AA82AB83790112092A9004E8E4F0E51F
:1020F00009A2E092AF74041217D1021C390000004B
:102100008521878522C622C0E0C0D0E8C0E0E9C0B2
:10211000E0EAC0E0EBC0E0ECC0E0EDC0E0EEC0E023
:10212000C008C009C00AC00BC082C083C0F0A2AF03
:10213000E433FEC2AF759B00906182E0A2E05012D2
:10214000E591A2E0500C7591FE74016521700312B7
:102150001E05E0A2E55051E591A2E5504B7591DFD7
:102160009003A7E064076005E064087023740165CC
:1021700021703579019003D5E0FA75F003A4CAA85F
:10218000F028FB74D72AFA74033BFB121FB28018A5
:10219000E0640D70139003C9E004F064287002E459
:1021A000F07A00E0F9120E28906182E0A2E6400386
:1021B00002224EE591A2E6400302224E7591BF90A5
:1021C00003A7E064057008120D2C120D388003126D
:1021D0000D32752100120D9EE99003A8F0790012CE
:1021E0000D80120B407A017B009003A6E0F91210DB
:1021F0007A907803E064427055900560E014F070C6
:102200004DC2AF12220600782AD0E0F618D0E0F6D0
:10221000E59F540770057509FF800375097FC4C0E9
:10222000E07829E6F50808E65509F509740B780801
:10223000121799D0E02508F8906270E0A2E740F804
:10224000E8C333906272F0906270E0D2E0F0906187
:1022500081E0A2E35009E5E9A2E3500375E9F7A3A1
:10226000E0A2E75009E591A2E7500375917FEEA245
:10227000E092AFD0F0D083D082D00BD00AD009D07A
:1022800008D0E0FED0E0FDD0E0FCD0E0FBD0E0FAEA
:10229000D0E0F9D0E0F8D0D0D0E032C0E0C0D0C07B
:1022A00082C083906183E0A2E05009E5BFA2E050C4
:1022B0000375BFFEE0A2E15009E5BFA2E15003753E
:1022C000BFFDE0A2E25009E5BFA2E2500375BFFBEB
:1022D000E0A2E35009E5BFA2E3500375BFF7E0A217
:1022E000E45009E5BFA2E4500375BFEFE0A2E5505A
:1022F00009E5BFA2E5500375BFDFE0A2E65009E59E
:10230000BFA2E6500375BFBFD083D0828088C0E0F3
:10231000C0D0E8C0E0E9C0E0EAC0E0EBC0E0ECC05B
:10232000E0EDC0E0C0F0E5A7A2E6500FE5A1A2E60F
:10233000500953A7BF75A1BF122373E5A7A2E550AB
:102340000CE5A1A2E5500653A7DF75A1DFE5A7A222
:10235000E15009E5A1A2E1500375A1FDE5A7A2E2C4
:10236000500CE5A1A2E2500653A7FB75A1FBD0F0EB
:1023700002228474F81218977521019003A7E06473
:10238000067015120CC68A828B83A3A3A3A3A3A3F2
:10239000E0FAA3E0FB120D1AA2AFE433FED2AF9035
:1023A00003ADE0640170187A207B009003A6E0F989
:1023B0001210FE7A207B009003A6E0F912108090A4
:1023C0006182E0D2E6F090055DE0602185C6228062
:1023D000169003ACE064017008E5C654F84405F5B6
:1023E000C653BEFC1221007401652160E4EEA2E038
:1023F00092AF7F01021943008E238F2485822885A6
:102400008327851882851983E0CEA3E0CF852882B3
:10241000852783EBC9EAC8EDCBECCA75F010C3E899
:1024200033C8E933C9EA33CAEB33CBC3EA9EF52696
:10243000EB9FF525B35004AB25AA26EC33CCED3346
:10244000CDD5F0DAAE23AF242274ED1218978A08A6
:102450008B098C0A8D0B7413121807780C121673E3
:102460007808790C1214737510017511C875120073
:1024700075130050127808790C121612781079082A
:1024800012147350168010780C79081216127810F6
:10249000790C12147340047901800279007F0C02D8
:1024A000194374ED1218978A088B098C0A8D0B74E6
:1024B00013121807780C121673780C79081214731B
:1024C00040117808790C121612AA08AB09AC0AADB3
:1024D0000B802275100075110075120075130178BC
:1024E00010790C121612781079081215D9AA10ABAF
:1024F00011AC12AD1380A68A828B837508FF750913
:10250000FF750AFF750B0078081216607F04021928
:102510004374F51218978C828D8378081216738A8B
:10252000828B837808121626EA2404F8EB3400F92B
:102530008C828D83A3A3A3A3E0FCA3E0FD88828902
:1025400083C3E09CF0A3E09DF088828983C3E0947C
:1025500020A3E0944E40268A828B837508FF75097C
:10256000FF750AFF750BFF78081215FF8A828B83AF
:10257000A3A3A3A3E02420F0A3E0344EF00224F7A9
:1025800074F5121897E9FE9004FCE0FAA3E0FBEE64
:10259000C333F8E433F974E928F582748139F5839B
:1025A000E02AF508A3E03BF5097808121A3E7A40C4
:1025B0007B427C0F7D001223F874021217D18A0827
:1025C0008B098C0A8D0B741078081215A1AA08AB20
:1025D000097F0402194374F11218978A0C8B0D8C31
:1025E0000E8D0F740F121807E0FAA3E0FB7411129E
:1025F0001807E0F508A3E0F5097808121A3EEA2466
:1026000001F508EB3400F509E4F50AF50B780C79CF
:10261000081214B2750871750902780C7908121441
:10262000B2AA0CAB0DAC0EAD0F1223F87402121748
:10263000D18B09EA450960047A0180027A00EC2A0C
:10264000FCED3400FD7413121807E0F8A3E0F9E87C
:10265000FEE9FFECF8EDF97A717B02121730880879
:1026600089098E828F837808121682ECF8EDF97A48
:10267000717B021217308A088B09740578081217CB
:10268000A88E828F83A3A3A3A3E508F0A3E509F096
:102690007F08021943C082C083E9906000F0D083B4
:1026A000D08222C2AF02000022C0E074F21219836D
:1026B000A2AFE433FED2AFC2C0E5D1A2E4500653CC
:1026C000D1EF1212DEEEA2E092AF7F010219E2C05A
:1026D000E074F2121983A2AFE433FED2AFE589A20F
:1026E000E15003121248758900C2C5EEA2E092AF14
:1026F0007F010219E2C0E074F2121983A2AFE43341
:10270000FED2AFE58BA2E05003121248758B00C2D7
:10271000E880D8C0E0C0D0E8C0E0E9C0E0E5A8D2D9
:10272000AFC2C7A2E7A2E792AFD0E0F9D0E0F8D0FD
:10273000D0D0E032C0E0C0D0E8C0E0E9C0E0C008DE
:10274000C009C082C083A2AFE433F9D2AF900A526D
:10275000E0F8A3E0687008539AFBA374018025C2D7
:10276000E9900A52E0F50874012508F074D22508B2
:10277000F582E43409F583E0F5C1900A52E0C39490
:10278000804002E4F0E9A2E092AFD083D082D00989
:10279000D008D0E0F9D0E0F8D0D0D0E03202011F6C
:1027A000FFFFFFFFFFFFFFFFC082C08378B2790504
:1027B00088828983A3A3A3A3A3A3E4F08882898347
:1027C000A3A3A3A3A374FFF0E82418F8E93400F945
:1027D000E864FA7003E9640570D69005B474FFF0FC
:1027E0009005B3E4F09005B2F09005B5F0A3F002C7
:1027F0003F2E74E812182B74FE1217BB9005B5E03B
:10280000F514A3E0F515E51445157006120B40020A
:1028100035DA851482851583E01460181460152458
:10282000FE601124C47003022F9A24C07003022F8B
:102830009A0235DAE0F9120CB48A088B09AE08AFB7
:10284000099003D4E07003022C7E120BEEE9F875B8
:10285000F003A4C8AAF02AF974D728F8740339F948
:10286000851882851983E8F0A3E9F0851882851917
:1028700083E0F8A3E0F5838882E0F516A3E0F5177E
:10288000EE4F7003022A04120D448A088B098C0A49
:102890008D0B750C01750D00750E00750F00780815
:1028A000790C1215D9750CFF750DFF750EFF7808A0
:1028B000790C12163A8E828F83E06402701D9005A7
:1028C0004EE0F8A3E0F9A3E0687003A3E069700BA1
:1028D0008E828F83A3A3780812168275101A751141
:1028E000007512007513007808121A3A8516828551
:1028F0001783A3A31216911224A274041217D18A6B
:102900000C8B0D8C0E8D0F7810790C1214735003F4
:10291000022A04851682851783A3A3750CE7750D1B
:10292000FF750EFF750FFF780C1215EC780C121A5C
:102930003A8E828F83A3A312169112244974041233
:1029400017D1E96003022A04750C07750D00750E96
:1029500000750F007808790C1215D97808121A3A08
:102960008E828F83A3A31216911224497404121726
:10297000D1E960030229FE7508008E828F83E0147E
:102980006009147003022A610235DAEE65147003DF
:10299000EF6515602C120B58851482851583E06451
:1029A00002701E900553E064017016900552E070AD
:1029B000107900120DE6120DB6120DE07901120D1C
:1029C000ECE5087030120D448A088B098C0A8D0BD7
:1029D000750C037808790C1215D9750CFF750DFF6D
:1029E000750EFF7808790C12163A8E828F83A3A396
:1029F00078081216828516828517830231EB7508D6
:102A00000102297A851482851583E064027013908F
:102A10000553E06401700B900552E07005790012D7
:102A20000DE6851882851983E02404FEA3E03400B6
:102A3000FF8E828F83E0F9120CEA8E828F83E09002
:102A400003D5F07902FA75F003A4CAA8F028FB7444
:102A5000D72AFA74033BFB121FB2AA16AB17023532
:102A6000D7EE65147003EF65156021120B7C90059D
:102A700053E064017016900552E070107901120D58
:102A8000E6120DB6120DE07900120DECE50860219A
:102A9000E5142415F582E5153400F583E060129005
:102AA000054EE0F8A3E0F9A3E0687003A3E06970C5
:102AB00039120D448A088B098C0A8D0B750C03782A
:102AC00008790C1215D9750CFF750DFF750EFF787E
:102AD00008790C12163A8E828F83A3A3E508F0A31F
:102AE000E509F0A3E50AF0A3E4F0E5142415F58266
:102AF000E5153400F583E064016003022B9C851624
:102B000082851783A3A37508F17509FF750AFF7500
:102B10000BFF78081215EC7808121A3A8E828F8310
:102B2000A3A3C082C083900550E0F508A3E0F50997
:102B3000E4F50AF50BD083D08278081215ECAA08C8
:102B4000AB09AC0AAD0B12244974041217D1E97019
:102B50001F8E828F83A3A3C082C083900550E0F5AF
:102B600008A3E0F509E4F50AF50BD083D0828014C0
:102B7000851682851783A3A37508F17509FF750A69
:102B8000FF750BFF78081215EC750CFF750DFF75BE
:102B90000EFF7808790C12163A022F88EE240EF5F3
:102BA00082EF3400F583121A518E828F83A3A31211
:102BB000169112244974041217D1E96401600302CA
:102BC00035CD851682851783A3A37508F17509FF96
:102BD000750AFF750BFF78081215EC7808121A3A7F
:102BE0008E828F83A3A3C082C083900550E0F50836
:102BF000A3E0F509E4F50AF50BD083D0827808123A
:102C000015ECAA08AB09AC0AAD0B122449740412E6
:102C100017D1E9701F8E828F83A3A3C082C08390D7
:102C20000550E0F508A3E0F509E4F50AF50BD083BB
:102C3000D0828014851682851783A3A37508F17549
:102C400009FF750AFF750BFF78081215EC750CFF6C
:102C5000750DFF750EFF7808790C12163AEE240EEA
:102C6000F582EF3400F5837808121682900556E05D
:102C70006427700474258002E004F00235CDEE650F
:102C8000147003EF65158E828F836003022DCDE0F3
:102C9000640260030235D3EE2415F582EF3400F5AB
:102CA00083E0604C90054EE0F8A3E0F9A3E0687083
:102CB00003A3E069603A120D448A088B098C0A8DDF
:102CC0000B750C0A750D00750E00750F00780879EC
:102CD0000C1215D97808121A3A8E828F83A3A31288
:102CE000169112244974041217D1E960030235D3F6
:102CF000120D448A088B098C0A8D0B750C03750D17
:102D000000750E00750F007808790C1215D9750C36
:102D1000FF750DFF750EFF7808790C12163A8E823A
:102D20008F83A3A37808121682EE2415F582EF3460
:102D300000F583E0640170318E828F83A3A3C0828B
:102D4000C083900550E0F508A3E0F509E4F50AD04A
:102D500083D08278081215ECEE240EF582EF340051
:102D6000F58378081216828061EE240EF582EF3426
:102D700000F583121A518E828F83A3A3121691122B
:102D8000244974041217D1E96401703E8E828F8346
:102D9000A3A3C082C083900550E0F508A3E0F50925
:102DA000E4F50AD083D08278081215ECEE240EF5F3
:102DB00082EF3400F5837808121682900556E0649D
:102DC00027700474258002E004F00235D3E014601B
:102DD00009147003022EB70235DA120B58851482DB
:102DE000851583E06402701E900553E0640170163F
:102DF000900552E070107900120DE6120DB6120D1A
:102E0000E07901120DEC120D448A088B098C0A8DB1
:102E10000B750C0A750D00750E00750F007808799A
:102E20000C1215D97808121A3A8E828F83A3A31236
:102E3000169112244974041217D1E97077120D44C7
:102E40008A088B098C0A8D0B750C037808790C1293
:102E500015D9750CFF750DFF750EFF7808790C12EA
:102E6000163A8E828F83A3A378081216829003A746
:102E7000E06402702C8E828F83A3A375080075090D
:102E800008750A0078081215EC7808790C12163AC1
:102E9000EE240EF582EF3400F58378081216828056
:102EA00013EE240EF582EF3400F58374FFF0A3F0E7
:102EB000A3F0A3F00234E5120B7C900553E064010B
:102EC0007016900552E070107901120DE6120DB6E1
:102ED000120DE07900120DEC90054EE0F8A3E0F938
:102EE000A3E0687003A3E0696037120D448A088B81
:102EF000098C0A8D0B750C0A750D00750E00750F87
:102F0000007808790C1215D97808121A3A8E828F37
:102F100083A3A312169112244974041217D1E970E5
:102F200076EE2402F8EF3400F988088909120D447E
:102F30008A0C8B0D8C0E8D0F751003751100751298
:102F400000751300780C79101215D97510FF7511E2
:102F5000FF7512FF780C791012163A8508828509E0
:102F600083780C121682850882850983C082C0830B
:102F7000900550E0F508A3E0F509E4F50AF50BD05B
:102F800083D08278081215ECEE240EF582EF34001F
:102F9000F58378081216820235CD9003D4E07003D1
:102FA00002340A120BEEE9F875F003A4C8AAF02A5D
:102FB000F974D728F8740339F9851882851983E8DC
:102FC000F0A3E9F0851882851983E0F8A3E0F58382
:102FD0008882E0F514A3E0F5159003D5E0F875F0CC
:102FE00003A4C8AAF02AF974D728F516740339F592
:102FF000179005B3E05407700302330AA3E0F912F7
:103000000CB48A088B09AE08AF09EE4F7003023387
:103010000A120D448A088B098C0A8D0B750C0175F8
:103020000D00750E00750F007808790C1215D97512
:103030000CFF750DFF750EFF7808790C12163A8E8D
:10304000828F83E06402701D90054EE0F8A3E0F9E2
:10305000A3E0687003A3E069700B8E828F83A3A343
:10306000780812168275101A751100751200751302
:10307000007808121A3A851482851583A3A31216C4
:10308000911224A274041217D18A0C8B0D8C0E8D10
:103090000F7810790C121473500302330A851482CE
:1030A000851583A3A3750CE7750DFF750EFF750FCE
:1030B000FF780C1215EC780C121A3A8E828F83A3CB
:1030C000A312169112244974041217D1E960030265
:1030D000330A750C07750D00750E00750F00780822
:1030E000790C1215D97808121A3A8E828F83A3A30D
:1030F00012169112244974041217D1E97005750A49
:10310000008003750A01851682851783A3A3A3A3F4
:10311000E0F875F08AA4C8AAF02AF974FF28F50827
:10312000740539F509AA08FB120CE4AA08AB0912C8
:103130000CDE750C80780C121A3E7C007D60E50870
:103140002406FAE5093401FB120C5474021217D15B
:10315000A808A909906195E0C0E0E82486F582E915
:103160003401F583D0E0F0906196E0C0E0E8248778
:10317000F582E93401F583D0E0F0906197E0C0E09A
:10318000E82488F582E93401F583D0E0F090619875
:10319000E0C0E0E82489F582E93401F583D0E0F06D
:1031A0008E828F83E014600614605F02330A120B74
:1031B00058E50A7030120D448A088B098C0A8D0B71
:1031C000750C037808790C1215D9750CFF750DFF75
:1031D000750EFF7808790C12163A8E828F83A3A39E
:1031E0007808121682851482851583A3A37508F1C9
:1031F0007509FF750AFF750BFF78081215EC750C41
:10320000FF750DFF750EFF0234BA120B7C9005534B
:10321000E064017011900552E0700B120DB6120DB2
:10322000E07900120DECE50A601290054EE0F8A37B
:10323000E0F9A3E0687003A3E0697030120D448ADE
:10324000088B098C0A8D0B750C037808790C121504
:10325000D9750CFF750DFF750EFF7808790C1216E5
:103260003A8E828F83A3A3780812168285148285F2
:103270001583A3A37508F17509FF750AFF750BFF88
:1032800078081215EC7808121A3A8E828F83A3A35D
:10329000C082C083900550E0F508A3E0F509E4F58D
:1032A0000AF50BD083D08278081215ECAA08AB0976
:1032B000AC0AAD0B12244974041217D1E9701F8EA9
:1032C000828F83A3A3C082C083900550E0F508A33A
:1032D000E0F509E4F50AF50BD083D082801485145B
:1032E00082851583A3A37508F17509FF750AFF751B
:1032F0000BFF78081215EC750CFF750DFF750EFFAE
:103300007808790C12163A0235BE85188285198321
:10331000E0F8A3E0F9E516687003E51769700302A9
:1033200033E8851682851783A3A3A3E070030233D5
:10333000C7851682851783A3A3A3A3E0F875F08A37
:10334000A4C8AAF02AF974FF28FE740539FFEEFA22
:10335000EFFB120CE4EEFAEFFB120CDE7508807541
:1033600009007808121A3E7C007D60EE2406FAEF10
:103370003401FB120C5474021217D1906195E0C015
:10338000E0EE2486F582EF3401F583D0E0F0906121
:1033900096E0C0E0EE2487F582EF3401F583D0E0BB
:1033A000F0906197E0C0E0EE2488F582EF3401F5FB
:1033B00083D0E0F0906198E0C0E0EE2489F582EFE0
:1033C0003401F583D0E0F0851882851983E0240468
:1033D000FEA3E03400FF8E828F83E0F9120CEA8EA8
:1033E000828F83E09003D5F079029003D5E0FA75DF
:1033F000F003A4CAA8F028FB74D72AFA74033BFB95
:10340000121FB2AA14AB150235D79005B3E05407CA
:1034100070030235DAA3E0F9120CB48A088B09AE06
:1034200008AF098E828F83E01460091470030234A0
:10343000ED0235DA120B58120D448A088B098C0AFA
:103440008D0B750C0A750D00750E00750F00780850
:10345000790C1215D97808121A3A8E828F83A3A399
:1034600012169112244974041217D1E97077120DC3
:10347000448A088B098C0A8D0B750C037808790C2B
:103480001215D9750CFF750DFF750EFF7808790CB4
:1034900012163A8E828F83A3A378081216829003A5
:1034A000A7E06402702C8E828F83A3A37508007539
:1034B0000908750A0078081215EC7808790C1216BC
:1034C0003AEE240EF582EF3400F583780812168266
:1034D0008013EE240EF582EF3400F58374FFF0A321
:1034E000F0A3F0A3F09005B474010235D2120B7C66
:1034F000900553E064017016900552E07010790158
:10350000120DE6120DB6120DE07900120DEC9005C9
:103510004EE0F8A3E0F9A3E0687003A3E069603728
:10352000120D448A088B098C0A8D0B750C0A750DD7
:1035300000750E00750F007808790C1215D97808FF
:10354000121A3A8E828F83A3A31216911224497401
:10355000041217D1E97076EE2402F8EF3400F988EE
:10356000088909120D448A0C8B0D8C0E8D0F751075
:1035700003751100751200751300780C791012157F
:10358000D97510FF7511FF7512FF780C791012169E
:103590003A850882850983780C121682850882850F
:1035A0000983C082C083900550E0F508A3E0F509C7
:1035B000E4F50AF50BD083D08278081215ECEE24DE
:1035C0000EF582EF3400F58378081216829005B468
:1035D0007402F0EEFAEFFB120CAE74021217D17FF8
:1035E000100218FD74F012182BEAFEEBFFEE240215
:1035F000F8EF3400F988088909EE2406F8EF340062
:10360000F9880A890B8882F583121A558508828504
:103610000983121691120D2074021217D1850A82A5
:10362000850B83121A55850882850983121691121B
:103630000D1474021217D1EE240EF582EF3400F54A
:1036400083121691120D268E828F83E06440701CC7
:10365000EE2412F8EF3400F988828983E0906064E8
:10366000F088828983A3E09060658006906064E4BE
:10367000F0A3F09005B5EEF0A3EFF0EE2416F5827E
:10368000EF3400F583E0F8A3E0F58388821218296F
:10369000906054E4F0A3F0A3F0A3F0A3F0A3F0A390
:1036A000F0A3F0A3F0A3F0A3F0A3F0906182E0C236
:1036B000E6F07591BFEE2415F582EF3400F583E056
:1036C00064017003120D56E5E170FCEE2414F582DE
:1036D000EF3400F583E0F46003E0F5E1EE2415F546
:1036E00082EF3400F5837401F09003ADE064017063
:1036F00073120D448A088B098C0A8D0B7808121AF4
:103700003A8E828F83A3A31216911224A2740412FC
:1037100017D18A088B098C0A8D0B750C05750D0065
:10372000750E00750F007808790C1214B2740378C6
:10373000081215A1E50824F4F508E5093401F50996
:1037400090055DE060031210A4E4F50AF50B78081B
:10375000121A3A7A207B009003A6E0F91210F27454
:10376000041217D17F080218FD74F012182B890873
:1037700074FF650860030238F79005B3E0540770E2
:1037800003023DD37A0078B2790588828983A3A3A6
:10379000A3A3A3E06404703FEA75F018A4F8A9F0AD
:1037A00074B828F582740539F583E0640170377ABE
:1037B0000078B2790588828983A3A3A3A3A3E064D8
:1037C00004600302384C88828983A3A3A3A3A3A324
:1037D000E06401707780630AE82418F8E93400F99E
:1037E000EAC3940340A47A0078B279058882898379
:1037F000A3A3A3A3A3E064017067EA75F018A4F87B
:10380000A9F074B828F582740539F583E064017075
:10381000627A0078B2790588828983A3A3A3A3A3DF
:10382000E0640160030238D388828983A3A3A3A341
:10383000A3A3E0640160030238D3EA75F018A4F88A
:10384000A9F074B728FA740539023DD00AE82418A3
:10385000F8E93400F9EAC3940350030237B5023D96
:10386000D30AE82418F8E93400F9EAC394035003B2
:103870000237EC7A0078B2790588828983A3A3A302
:10388000A3A3E064027061EA75F018A4F8A9F074CB
:10389000B828F582740539F583E0640170597A001F
:1038A00078B2790588828983A3A3A3A3A3E06402E5
:1038B000707A88828983A3A3A3A3A3A3E064017081
:1038C0006BEA75F018A4F8A9F074B728FA740539F2
:1038D000FB806F0AE82418F8E93400F9EAC394037E
:1038E0005003023817023DD30AE82418F8E93400DF
:1038F000F9EAC3940340827A0078B2790588828914
:1039000083A3A3A3A3A3E06508703A88828983A355
:10391000A3A3A3A3A3E06401702BEA75F018A4F895
:10392000A9F074B728FE740539FF802C0AE8241822
:10393000F8E93400F9EAC3940350030238A47A008A
:103940007B00023DD70AE82418F8E93400F9EAC3FD
:10395000940340A97E007F007A0078B279058882BE
:103960008983A3A3A3A3A3E06508701BEA75F018DD
:10397000A4F8A9F074B828F582740539F583E064D9
:103980000170137A0180110AE82418F8E93400F96B
:10399000EAC3940340C87A00E50814601014700369
:1039A000023B0E24FE7003023C21023DD37B0078D3
:1039B000B2790588828983A3A3A3A3A3E0640270DC
:1039C00052EB75F018A4F8A9F074B828F5827405C4
:1039D00039F583E06401704A7B0078B2790588820A
:1039E0008983A3A3A3A3A3E064026003023A7C88B3
:1039F000828983A3A3A3A3A3A3E06401707EEB75D4
:103A0000F018A4F8A9F074B728F50A740539F50B75
:103A1000023A940BE82418F8E93400F9EBC3940354
:103A200040917B0078B2790588828983A3A3A3A300
:103A3000A3E064046003023AD5EB75F018A4F8A97A
:103A4000F074B828F582740539F583E064016003E9
:103A5000023AE77B0078B2790588828983A3A3A321
:103A6000A3A3E064046003023AF288828983A3A3DB
:103A7000A3A3A3A3E064017079023C750BE82418AA
:103A8000F8E93400F9EBC3940350030239DE750AF8
:103A900000750B00EAA2E05035850A82850B83A3EE
:103AA000A3750CF6750DFF750EFF750FFF780C12E0
:103AB00015EC780C121A3A8E828F83A3A3121691FA
:103AC00012244974041217D1E97003023DCDAA0AE9
:103AD000AB0B023DD70BE82418F8E93400F9EBC32F
:103AE00094035003023A28EAA2E0501BEEFAEFFBDF
:103AF00080190BE82418F8E93400F9EBC39403505B
:103B000003023A59023D1A7A007B00023DD77B003E
:103B100078B2790588828983A3A3A3A3A3E0640470
:103B20007040EB75F018A4F8A9F074B828F5827409
:103B30000539F583E0640170387B0078B279058837
:103B4000828983A3A3A3A3A3E064046003023BD3FD
:103B500088828983A3A3A3A3A3A3E0640170740252
:103B60003C750BE82418F8E93400F9EBC3940340E2
:103B7000A37B0078B2790588828983A3A3A3A3A33A
:103B8000E064017063EB75F018A4F8A9F074B8282C
:103B9000F582740539F583E06401705B7B0078B2CF
:103BA000790588828983A3A3A3A3A3E0640170524B
:103BB00088828983A3A3A3A3A3A3E064017043EB3A
:103BC00075F018A4F8A9F074B728F50A740539F54A
:103BD0000B80440BE82418F8E93400F9EBC3940394
:103BE0005003023B3F023D1A0BE82418F8E9340069
:103BF000F9EBC394034080EAA2E0501EEEFAEFFB1B
:103C0000801C0BE82418F8E93400F9EBC394034056
:103C100091750A00750B00023D207A007B00023D81
:103C2000D77B0078B2790588828983A3A3A3A3A355
:103C3000E064017055EB75F018A4F8A9F074B82889
:103C4000F582740539F583E06401704D7B0078B22C
:103C5000790588828983A3A3A3A3A3E064016003F9
:103C6000023D0888828983A3A3A3A3A3A3E06401E0
:103C70006003023D08EB75F018A4F8A9F074B728AA
:103C8000F50A740539F50B023D200BE82418F8E914
:103C90003400F9EBC39403408E7B0078B279058839
:103CA000828983A3A3A3A3A3E064026003023D5F10
:103CB000EB75F018A4F8A9F074B828F582740539EA
:103CC000F583E064016003023D717B0078B2790501
:103CD00088828983A3A3A3A3A3E064026003023DB7
:103CE0007888828983A3A3A3A3A3A3E064016003CC
:103CF000023D78EB75F018A4F8A9F074B728F50A1E
:103D0000740539F50B023D900BE82418F8E93400EE
:103D1000F9EBC394035003023C52750A00750B0083
:103D2000EAA2E04003023ACE850A82850B83A3A370
:103D3000750CF6750DFF750EFF750FFF780C1215DB
:103D4000EC780C121A3A8E828F83A3A3121691126A
:103D5000244974041217D1E96003023ACE806E0B35
:103D6000E82418F8E93400F9EBC394035003023C4B
:103D70009FEAA2E0505D80550BE82418F8E9340072
:103D8000F9EBC394035003023CD0750A00750B0095
:103D9000EAA2E04003023ACE850A82850B83A3A300
:103DA000750CF6750DFF750EFF750FFF780C12156B
:103DB000EC780C121A3A8E828F83A3A312169112FA
:103DC000244974041217D1E96003023ACEEEFAEFE7
:103DD000FB80047A007B0002376474F612182B898A
:103DE0000975080078B2790588828983A3A3A3A303
:103DF000A3A3E06003023EB6E50875F018A4F8A995
:103E0000F074B728FE740539FF8E828F83A3740186
:103E1000F08E828F83E509F0120D448E828F83A38A
:103E2000A312169D8E828F83A3A3A3A3A3A3E4F062
:103E3000A3F0EE240EF582EF3400F58374FFF0A3B7
:103E4000F0A3F0A3F0EE2414F582EF3400F58374B0
:103E500001F0EE2415F582EF3400F5837401F0EEE5
:103E60002416F582EF3400F583E4F0A3F09005B357
:103E7000E04509F09005B2E004F06401600C748044
:103E800065096006744065097019E50875F018A4A5
:103E9000F8A9F074B728F8740539F99005B5E8F079
:103EA000A3E9F0E50875F018A4F8A9F074B728FAAA
:103EB000740539FB80180508E82418F8E93400F97E
:103EC000E508C394035003023DE87A007B008000BC
:103ED0007F020218FDC082C0838A828B83E0F8A330
:103EE000E0F98A828B83E4F0A3F088828983A3F0CF
:103EF00088828983E0F4F89005B3E058F09005B229
:103F0000E014F0700B9005B5E4F0A3F09003A7F077
:103F1000801CC082C0839005B2E0600A9005B5E0C5
:103F2000FAA3E0FB80047A007B008002E0F9D083F2
:103F3000D08202011FC082C083E9FB7A0078B27987
:103F40000588828983A3A3A3A3A3E06B7016EA75F7
:103F5000F018A4F8A9F074B828F582740539F5832F
:103F6000E0F980110AE82418F8E93400F9EAC3946A
:103F70000340CE790080B7C082C0839005B380AC87
:103F8000C082C0839005B2023F2C74F612182BEA4F
:103F9000FEEBFF9061D0E0C0E0EE2400F582EF344C
:103FA00001F583D0E0F09061D7E0F89061D5E0C3EF
:103FB00098547FC0E0EE2401F582EF3401F583D000
:103FC000E0F09061D6E0C398547FC0E0EE2402F5A3
:103FD00082EF3401F583D0E0F0701A9061C5E0A261
:103FE000E45012E0A2E7500DEE2402F582EF340116
:103FF000F5837480F0120E10EE2401F582EF340187
:10400000F583E07034EE2402F582EF3401F583E0AD
:1040100070279061C5E0A2E4501FE0A2E7501AEEBD
:104020002402F582EF3401F5837480F0EE2401F56B
:1040300082EF3401F5837480F075E1957800EE2409
:1040400000F582EF3401F583E060279061D3E0C092
:10405000E08808EE2508F582EF3400F583D0E0F023
:1040600008EE2400F582EF3401F583E0F9E8C39906
:1040700040D975E191023ED074F612182BEAFEEB9E
:10408000FF9061C8E0C0E0EE2403F582EF3401F553
:1040900083D0E0F09061CFE0F89061CDE0C3985418
:1040A0007FC0E0EE2404F582EF3401F583D0E0F028
:1040B0009061CEE0C398547FC0E0EE2405F582EF16
:1040C0003401F583D0E0F0701A9061C5E0A2E050B1
:1040D00012E0A2E3500DEE2405F582EF3401F583E2
:1040E0007480F0120E16EE2404F582EF3401F5838D
:1040F000E07034EE2405F582EF3401F583E070279B
:104100009061C5E0A2E0501FE0A2E3501AEE240542
:10411000F582EF3401F5837480F0EE2404F582EF2C
:104120003401F5837480F0120E1C7A00EE2403F53E
:1041300082EF3401F583E0602F9061CBE0C0E08A2C
:1041400008EE2508F8EF3400F9E82480F582E93418
:1041500000F583D0E0F00AEE2403F582EF3401F598
:1041600083E0F8EAC39840D175E181023ED074F251
:1041700012182B8908A808E875F08AA4C8AAF02AA2
:10418000F974FF28F8740539F99061C6E0FDE05430
:10419000F0F075E1817C00E82403F582E93401F553
:1041A00083E0602B8C0AE8250AFAE93400FBEA2454
:1041B00080F582EB3400F583E09061CAF00CE824CE
:1041C00003F582E93401F583E0FAECC39A40D5E8BF
:1041D0002405F582E93401F583E060049061CEF0B6
:1041E000E82404F582E93401F583E060049061CDB0
:1041F000F0ED9061C6F0A808E875F08AA4C8AAF0AE
:104200002AF974FF28F8740539F9E0FCE0540FF03E
:1042100075E1917A00E82400F582E93401F583E044
:1042200060238A0AE8250AF582E93400F583E090E4
:1042300061D2F00AE82400F582E93401F583E0FB5D
:10424000EAC39B40DDE82402F582E93401F583E00E
:1042500060049061D6F0E82401F582E93401F58329
:10426000E060049061D5F0EC9061C6F0850882AE04
:1042700082EEF875F08AA4C8AAF02AF974FF28F52E
:104280000A740539F50B750C80750D00780C121A3F
:104290003EE50A2406FCE50B3401FD7A007B601242
:1042A0000C5474021217D1A80AA90BE82486F582CF
:1042B000E93401F583E0906195F0E82487F582E91F
:1042C0003401F583E0906196F0E82488F582E934C2
:1042D00001F583E0906197F0E82489F582E93401E3
:1042E000F583E0906198F0EE75F003A4CEA8F02875
:1042F000FF74D72EF58274033FF583E0F8A3E0F551
:10430000838882E0648070079003A77408803F90E0
:104310000F1C74F0F0A3740CF0A374F0F0A3740CF1
:10432000F0A374F0F0A3740CF0A374F0F0A3740C79
:10433000F0A3747EF0A3740CF0A374F0F0A3740CDB
:10434000F0A374F6F0A3740CF09003A77407F09038
:104350000F2A747EF0A3740CF0A3747EF0A3740C87
:10436000F0A3747EF0A3740CF0A3747EF0A3740C1D
:10437000F0A3747EF0A3740CF0A3747EF0A3740C0D
:10438000F07F060218FDC082C083E9900EFAF002A9
:10439000461574F712182BE99002E6F07C1E7D0397
:1043A0007AFF7BFF1208649002E774FFF0A3F0A38A
:1043B000E4F0A3F079051207EC9002E6E0F91207A9
:1043C0000E7A827B08120A3E7F010218FD74F412F5
:1043D000182B8A088B09EB548060309002E6E0F9D4
:1043E0001210628A0A8B0BAE0AAF0BEE4F60138E6F
:1043F000828F83E064B07003120804EEFAEFFB12C0
:104400001050AA08E5096480FB80047A007B000252
:1044100045E474F212182B74FC1217BBEAFEEBFF92
:10442000EE4F60387402121807EEF0A3EF124849FD
:10443000ECF0A3ED124849AA82AB83120708E9F514
:1044400008707374121218071253FDE50A450B60C9
:10445000658E828F831244C0EE4F7005750802800E
:10446000557A067B001210B68A0C8B0DA80CA90D8C
:10447000E8497005750813803D88828983E41244F9
:10448000CAA3A3EEF0A3EF125896E50AF0A3E50B3A
:10449000F09002EC1245529002EC6017E0FCA3E0B1
:1044A0008003EAFCEBFD8C828D8312455270F38C05
:1044B000828D83125322A90874041217D1025A98CC
:1044C000A3A3A3A3E0FEA3E0FF22F0A3F0888289C8
:1044D000832274F212182B890AE975F017A4FEAF33
:1044E000F09002EBE4F09002E9124552600A1210DB
:1044F000BC9002E9E4F0A3F0EEFAEFFB1210B68AEA
:10450000088B09EA4509602FEEFCEFFD79001210D7
:104510003E9002E9E508F0A3E509F07B008008126F
:10452000453CE4F0A3F00BEBC3950A40F2E50A909A
:1045300002EBF0790080027913025A98EB75F017BC
:10454000A4F8A9F09002E9E028FAA3E0398A82F5FC
:1045500083221250B8EA4B2274F412182B7508000B
:10456000750900740C12180712586AFEE9FF800CD6
:10457000E5082401F508E5093400F509C3E5089CC0
:10458000E5099D503285080A85090B7403780A12E3
:1045900017A8EA250AF8EB350BF988828983A3A3CB
:1045A000A3A3A3A31253FDEE650A7003EF650B707E
:1045B000BFE8FAE9FB80047A007B00802774F412DC
:1045C000182B7900EAA2E0501B7508507509827813
:1045D00008121A3E7C047D007AFC7B0E1207E674FA
:1045E000021217D17F040218FDC082C0839002EC32
:1045F00012461C601C88828983A3A3E06A7003A30F
:10460000E06B8882898370E8A3A3A3A31250B480CF
:10461000047A007B00D083D08202011F125B6BE81A
:10462000492274EE12182B74FC1217BBEAFEEBFF42
:10463000851882851983E4F0A3F0EE240212530654
:10464000EE2405124837EE2404F50EEF124C1CE060
:1046500024FE603924FC604624FE605224FE605E25
:1046600024FE700302473C24FE70030247B424FE7C
:1046700070030247C324FE70030247D224FC700378
:104680000247E124FE70030247F002482D90030523
:104690007417F0A3E412485112044402482D8518FF
:1046A00082851983AC82AD8312080A0247FD851802
:1046B00082851983AC82AD831208100247FD850CF8
:1046C00008850D097402121807AC82AD8385088233
:1046D0008509831250B412072C8A0C8B0DAC0CADDB
:1046E0000DEC4D6042E4F50CF50D780C121A3E7598
:1046F0000C05750D03780C121A3E750C06750D032A
:10470000780C121A3E7408121807121A55791612EC
:1047100050AE12084C74081217D1E9F50C700B1248
:1047200050AA12045C800F750C01850882850983EC
:1047300012483F125322850C0802480074021218D6
:1047400007AC82AD83850C82850D831250B41207AD
:104750002C8A108B11AC10AD11EC4D6043850C828E
:10476000850D83A3A3121A557510057511037810D2
:10477000121A3E7510067511037810121A3E74084D
:10478000121807121A5579161250AE12084C7408F6
:104790001217D1E9F509700B1250AA120462800FAA
:1047A000750901850C82850D8312483F12532285BD
:1047B0000908804C851882851983AC82AD83120864
:1047C00016803A851882851983AC82AD8312081C45
:1047D000802B851882851983AC82AD8312082280D4
:1047E0001C851882851983AC82AD83120828800D40
:1047F000851882851983AC82AD8312082EE9F508ED
:10480000E50860298E828F83A3E06414601F850E03
:1048100082850F83E0900305124849125B6790037D
:1048200006125322E508A312485112043EEEFAEF95
:10483000FB1207AA02520EF50CEF3400F50D2212FE
:104840005B6B85188285198322F085188285198310
:1048500022F07C057D03850A82850B831250B822E5
:1048600074EE12182B74FC1217BB8A0A8B0B8C0E79
:104870008D0FEA2405F508EB3400F5097C157D0061
:1048800079007A057B0312103EE5082402F50CE559
:104890000912483A8518828519838582108583110B
:1048A0007810121A3E850882850983A3A3A3A31258
:1048B0004D64121A3EE5082405F510E5093400F5AB
:1048C000117810121A3E850C82850D831250BE128B
:1048D000072674061217D18A108B11AE10AF11E59E
:1048E0000A2402F50AE50B125309EE4F7003024A3F
:1048F00026801774021218071250B488828983EA3E
:10490000F0A3EBF0900305E004F0900305E0C394FE
:10491000054003024A26E4F510F5117810121A3EFC
:104920007510EE7511027810121A3E7510EF7511A0
:10493000027810121A3E7406121807121A557910CE
:10494000EEFCEFFD1250AE12084C74081217D1E9BC
:10495000705E850882850983A3A3A3A3A3A3A3E014
:10496000F89002EEE0687048124D64121A3E7CEF37
:104970007D02E5082408FAE5093400FB12103874BA
:10498000021217D1E960298E828F83A3A3A3A312F9
:1049900050B4900305E0F510740278101217A87453
:1049A000062510F58274033511F583EAF0A3EBF0C8
:1049B00074021218078582108583117810121A3E2E
:1049C0007402121807121A55850C82850D83125B2A
:1049D0007C12073274041217D18A108B11AE10AFFB
:1049E00011900305E0F5107511007402781012178C
:1049F000A874052510F874033511F988828983A3FA
:104A000012455270030248EAE82403F8E93400F939
:104A1000EE4F60030248F38882898374FFF0A3F0AD
:104A2000900305E004F0900305E0600A1250AA121A
:104A300004507900800B8508828509831253197907
:104A40000A02520E74EA12182B74FE1217BB8C1253
:104A50008D13EA2405F50CEB125CE61244C47508CC
:104A600000750900EA2402F510EB3400F5118518F1
:104A70008285198385820A85830B780A121A3E85FE
:104A80000C82850D83A3A3A3A3124C26121A3EE524
:104A90000C2405F50AE50D125309780A121A3E8511
:104AA0000C82850D83125B7A12072674061217D1C9
:104AB0008A0A8B0BEA450B7003024BD7EA2404F5F4
:104AC0000EEB124C1C1244C48A828B83A3A3A3E076
:104AD000F98510828511831250B4120714E9F50983
:104AE0006003024BD7E4F514F5157814121A3E75DD
:104AF00014EE7515027814121A3E7514EF7515022E
:104B00007814121A3E7406121807121A557913AC4B
:104B10000AAD0B8510828511831250B412084C74B3
:104B2000081217D1E9F5096003024BD79002EEE0B5
:104B3000F8E5087009E02402900306F0801790035E
:104B400006E0FCE82402FAE43400FBEA6C7001EBB6
:104B50006003024BDB850882AA82124D5B9414121B
:104B60004D535073850E82850F83E0C0E074072A91
:104B7000124C13D0E0F00508850E82850F83A3E068
:104B8000C0E085080A7407250A124C13D0E0F0052E
:104B9000089002EE124C26121A3E7CEF7D02850828
:104BA0000A7407250AFA74033400FB1210267402F3
:104BB0001217D19002EEE02508F50874FF6E70031D
:104BC00074FF6F6012EE24010EEF3400FFE508C39E
:104BD00094145003024A6EE5086013124F9F85102B
:104BE000828511831250B412045679008014E509AD
:104BF000700375090A851282851383EEF0A3EFF026
:104C0000A90974021217D17F0E0218FD85080C74D1
:104C100007250CF58274033400F583223400F50F68
:104C2000850E82F583221258A92274EE12182B7475
:104C3000FE1217BB8C0E8D0FEA2405F50CEB124803
:104C40003A750B00900305E4F0F50AEA2402F50832
:104C5000EB3400F5098049900305E0FA9002EEE09C
:104C6000F8124D5B9417124D53400D900305E0F878
:104C70007416C3989002EEF0124D64121A3E7CEF47
:104C80007D0274062AFA74033400FB1210267402A3
:104C90001217D19002EEE0F8900305E028F0050A23
:104CA000E50C2416F582E50D124C17E0F8E50AC371
:104CB000984003024D3C900305E0C39416507DE5F7
:104CC0000AC333F8E433F9E50C28FEE50D39FF8516
:104CD0001882851983AC82AD838E828F831250B483
:104CE00012072C8A108B11AC10AD11EC4D700575AC
:104CF0000B018043E4F510F5117810121A3E75107F
:104D0000EE7511027810121A3E7510EF75110278C7
:104D100010121A3E7406121807121A5579168508D1
:104D2000828509831250B412084C74081217D1E915
:104D3000F50B7003024C5712531580107C057D0350
:104D40008508828509831250B4120468A90B740285
:104D5000025210E99400C365D03322EA28F8E43403
:104D600000F9E822E0F51075110078102274EA12BB
:104D7000182B74FC1217BB8A0C8B0D8C128D13EA46
:104D80002405F50AEB125309750800750900E50AB8
:104D90002402F510E50B3400F51174021218078592
:104DA000820E85830F780E121A3E850A82850B8348
:104DB000A3A3A3A3125855121A3EE50A2405F50E23
:104DC000E50B3400F50F780E121A3E85108285111E
:104DD0008312530F1250AE12072674061217D18A8F
:104DE0000E8B0FAE0EAF0FE50C2402F50EE50D3461
:104DF00000F50F80408882898374FFF00508124C0B
:104E00000C74FFF005089002EEE0F50C750D0078CB
:104E10000C121A3E7CEF7D0285080C7407250CFAF3
:104E200074033400FB12102674021217D19002EEA4
:104E3000E02508F508EE4F60718E828F83A3A3A34F
:104E4000E0F9850E82850F831250B4120714E9F53C
:104E500009EE2404124837E97044E4F514F5157896
:104E600014121A3E7514EE7515027814121A3E7556
:104E700014EF7515027814121A3E740812180712EE
:104E80001A557911EEFCEFFD850E82850F831250C5
:104E9000B412084C74081217D1E9F5096027850C83
:104EA00082850D83124F95125322E5087003024F3D
:104EB0007B124F9F850E82850F831250B412046EB1
:104EC0007900024F90850882AA82EA9002EE70096A
:104ED000E02404900306F08022E0F8900306E0F559
:104EE00014E82404FCE43400FDEC65147001ED705A
:104EF000C0124D5B9412124D5350B6850C82850D35
:104F000083E0C0E074072A124C13D0E0F005088556
:104F10000C82850D83A3E0C0E0124C0CD0E0124F50
:104F2000B185820C85830D780C121A3E7404121818
:104F300007121A55851082851183125B7C12073285
:104F400074041217D18A0C8B0DAE0CAF0D85080CB2
:104F50007407250CF874033400F9EE4F7003024D0A
:104F6000F5851882851983E088828983124FB1A361
:104F7000E0C0E0124C0CD0E0024E03E5097003756E
:104F8000090A850A82850B83124F95125322A909BB
:104F90007404024C04125B6B851282851383229089
:104FA0000306E0F5F0E50884900305F07C057D0339
:104FB00022F005088518828519832274EC12182BBB
:104FC00074FE1217BB8A088B098C0E8D0FEA24051C
:104FD000FEEB3400FF851882851983AC82AD838E89
:104FE000828F831250B412072C8A0A8B0BEE24187E
:104FF000124837EA450B70030250851251F75032C0
:105000008518828519831250B41208408A108B11BA
:10501000EA4511606B7912AC0AAD0B8508828509EF
:10502000831250B4851082851183121829E9F50A7C
:105030007058E4F50AF50B780A121A3E8E828F83B7
:10504000A3A3E0F50A780A121A3EEE2403125306CF
:10505000780A121A3E8E828F831250BE1208527442
:10506000061217D1E9F50A7021850C82850D83E0BF
:10507000701F8508828509831250B4120474801150
:10508000750A0E8009750A018004E50A600312534F
:1050900015850C82850D83E0600479008002A90AE1
:1050A00074021217D17F0C0218FD7C057D03850A5E
:1050B00082850B831250B822E0FAA3E0FB22E0FCC9
:1050C000A3E0FD8508828509831250B82274EE1290
:1050D000182B74FE1217BB8A088B098C0C8D0DEAF5
:1050E0002405FEEB3400FF750E00851882851983B8
:1050F000AC82AD838E828F831250B412072C8A0A41
:105100008B0BEA450B70030251E31251F7503585C2
:1051100018828519831250B41208408A0E8B0FEA48
:10512000450F605E7912AC0AAD0B85088285098354
:105130001250B4850E82850F83121829E9F50E608E
:10514000030251E68508828509831253FDAA0AFBF2
:105150001208348A108B11A810A911E849701E7A20
:10516000FF7BFF1208348A108B11A810A911E8499F
:10517000606C88828983E50AF0A3E50BF0750A006C
:105180008007750E0E805F050A9002EBE0FAE50AD3
:10519000C39A504AE50A75F017A4FAABF0888289E1
:1051A00083A3A3E02AFAA3E03BFB8A828B831253FA
:1051B0000FEC4D70D2750A17750B00780A121A3E63
:1051C000EEFCEFFD12102674021217D1EEFCEFFD7B
:1051D0008508828509831250B412047A8014750EF2
:1051E000098003750E01125B63850C82850D8312A5
:1051F0005322A90E024D4EE5082402F508E50934B4
:1052000000F5098A828B83A3A3A3E0A2E52274049C
:105210001217D17F0A0218FD74EC12182B8C108D16
:1052200011EA2405F50CEB12483A750F00EA240246
:10523000F50AEB125309850A82F5831250B412085D
:10524000348A088B09EA450970030252FB750E0087
:105250008071850C82850D83E06401704F8E828F92
:1052600083A3A3121A558E828F83A3A3A3A3E0F571
:10527000127513007812121A3EEE2405F512EF345F
:1052800000F5137812121A3E1250AE12085274062C
:105290001217D1E9F50F6014850C82850D83E4F0B7
:1052A000125B638510828511831253227C177D0067
:1052B0007900EEFAEFFB12103E8E828F83E4F0A3AA
:1052C000F0050E9002EBE0F8E50EC398501EE50ED7
:1052D00075F017A4F8A9F0850882850983A3A312A5
:1052E0005CF012530FEC4D60030252528508828528
:1052F000098374FFF0A3F0E50F70061250AE12049C
:1053000080A90F0250A5F50AEF3400F50B22A3E0A7
:10531000FCA3E0FD228E828F83125B6B850E82855B
:105320000F83E8F0A3E9F022C082C0839002E7E097
:105330006A7003A3E06B70067AE77B0280047A0050
:105340007B00024615C082C08378008C828D83E08A
:105350006A7003A3E06B7010E875F003A4F8A9F07D
:10536000EC28FAED39FB8015088C828D83A3A3A36A
:10537000E06A7003A3E06B60DF7A007B00024615F1
:1053800074F612182B1207FE8A828B83E5824583FE
:1053900070067A007B008007A3A3A3A31250B40277
:1053A0005A1474F212182BE9FE740E1218071253D5
:1053B000FD74101218071258758C828D83E06402F8
:1053C0007036A3125B71F50CA3E0F9A80C740268A7
:1053D00070037429697021750C02750D00780C1228
:1053E0001A3E7808121A3E780A121A3EEEF912088E
:1053F0007674061217D180027901025A98E0F50AF4
:10540000A3E0F50B2274E812182B74FB1217BBE90A
:10541000851882851983F08A168B17ECFEEDFF75CF
:105420001000741D121807125B67741D1218071202
:1054300053228E828F83A3A3A3E0A2E4502D741D78
:105440001218071250B41208408A828B83E58245F5
:10545000837003025846790AEEFCEFFDAA16AB17DB
:10546000121829E9F5106003025849741F12180731
:1054700012587574211218071253FD74231218075D
:10548000E0F50EA3E0F50F8E828F83E064026003E7
:105490000257F4A3125B67850882850983A385827E
:1054A00012858313EE240612483788828983E0FA36
:1054B000A3E0F9EA2400F514E439F5157814121A7A
:1054C000C8010000280128E95407000228AE55034E
:1054D000281B550029E556012910570229B156030A
:1054E00029E55604298F57F457E50E450F6003024E
:1054F00057EF850C82850D8312586AFAE9FB8A8280
:105500008B83E0850A82850B831258A0121A3E8A8B
:10551000828B83A3E0FCA3E0025779E50E450F6080
:10552000030257EF850A82850B837401F012587DC0
:10553000850882850983F07C007D008E828F83A39D
:10554000A3A3A3E02401FAA3E03400FB12072CEA92
:105550004B60418A828B83E02402F8850A82850BA6
:1055600083E028F0EA2404F8EB3400F98882898388
:10557000E08512828513831258B21258A0121A3E87
:105580008A828B8312530EE5082403FAE50934005E
:10559000FB02577E850A82850B83E02404F07C049D
:1055A0007D007900AA12AB1312103E025849E50E95
:1055B000450F60030257EF12587DFEA3E0FF850AF6
:1055C00082850B837404F0EE850882850983F0EFF1
:1055D000851282851383F07403121807AC82AD83A1
:1055E000EEFAEFFB12072C8A0C8B0DEA450D7003C7
:1055F0000256928A828B83A3A31244C074011218AC
:105600000785820E85830F780E121A3E74051218D4
:1056100007121A557CFF7DFF12073274041217D14E
:105620008B0FEA450F7033850C82850D8312585518
:10563000121A3E850C82850D83A3121A557C027DB9
:10564000007AC97B8212051C74041217D1E9700A12
:10565000740112180774FFF0A3F08E828F83E06448
:10566000027039750C02750D00780C121A3E8E828C
:105670008F8312530EE5082404FAE5093400FB1267
:10568000102674021217D1850A82850B83E024024A
:1056900080097401121807EEF0A3EFF074011218DC
:1056A00007125866F07401121807A312585E0257C9
:1056B000E9E50E450F60030257EF850C82850D83E7
:1056C00012530FAA16AB1712086A850A82850B833C
:1056D0007402F0EA850882850983F08512828513B9
:1056E00083EB0257ECE50E450F60030257EF1258AB
:1056F0007DF8A3E0F9850A82850B837402F0E885C2
:105700000882850983F0E98512828513830257ECAC
:10571000850C82850D831250B4121020EAFC8C8215
:10572000A882C3950EE4950F405FE8650E7002E510
:105730000F70047C008022851882851983E0FAE5C9
:105740000E2AFAE50F3400FBC3EA98EB94005003ED
:10575000E08005E50ECCC39CFCEC850A82850B83BA
:10576000F08C0A750B00780A121A3E850C82850DA2
:1057700083E0250EFCA3E0350FFDAA08AB0912104B
:105780002674021217D1025849751007025849E5CC
:105790000E450F705A850C82850D83125B67850A52
:1057A00082850B8374071244CC12585E1244CCA33A
:1057B000E0851282851383F0E82402FAE93400FBC5
:1057C0008A828B8312585E12588D125866A3125823
:1057D0009612586FF0E82405F8E93400F9888289B8
:1057E0008312586FA31258B2A3A3A3A3F0805A75D3
:1057F000100B8055741D1218071250B41207FE8A40
:10580000828B83E5824583603D125B67880C890D3E
:10581000E8450D6031780E121A3E780A121A3E7869
:1058200008121A3E7406121807E0F9EEFCEFFDAA02
:1058300016AB17850C82850D831218297406121772
:10584000D1E9F510800375100EA91074051217D157
:105850007F100218FDE0F50E750F00780E22E0852E
:105860000882850983221258BC22125B6BE822123F
:1058700058BCA3A322E0F508A3E0F50922850C8219
:10588000850D83E0F8A3E0F5838882E022A3A3F0EE
:105890008A828B83A322F088828983A3A3A3A32275
:1058A000F08A828B831258A922E0F50A750B0078E2
:1058B0000A22F088828983A31258BC22E0850882DC
:1058C000850983A3A32274EE12182B74FE1217BB52
:1058D0008A0A8B0BECFAEDFB7414121807E0F51032
:1058E000A3E0F5117416121807E0FE7418121807D9
:1058F000E0F50EA3E0F50F851882851983AC82AD23
:105900008312072C8A0C8B0DEA450D60498518829D
:105910008519831250B41207FE8A828B83E5824573
:1059200083602FA3A3125875E50845096024780EFB
:10593000121A3E7810121A3EEEF9AC0CAD0DAA0AFE
:10594000AB0B85088285098312182974041217D1BC
:105950008006790E80027901024D4E74F612182BE2
:1059600074FE1217BB740C12180712586A8518823D
:10597000851983F07401121807E9F0E4F508F509B8
:105980007808121A3E7508027808121A3E7404123A
:1059900018078582088583097808121A3E12085272
:1059A00074061217D174021217D1806874F7121896
:1059B0002BEAFEEBFF89087C1E7D0312086AEA547D
:1059C00002600BA908EEFAEFFB12072080027901B2
:1059D0000243C874F612182B74FF6A700374FF6BCD
:1059E00070168C828D83125A19E4F08C828D83A3F9
:1059F000A3A3125A19A3801812083A8A088B09A87F
:105A000008A909E849600D8882898374FF1244CA95
:105A1000A3A3E4F07F020218FD74FFF0A3F08C82D0
:105A20008D83A3A32274F612182B12083A8A828B54
:105A300083E58245836006A3A3E0FA80027A007BB7
:105A40000080D174F212182B8A088B09ECFEEDFF4E
:105A5000740E121807E0F50A12083A8A0C8B0DA88A
:105A60000CA90DE8497026EEFCEFFD7AFF7BFF12D2
:105A7000083A8A0C8B0DA80CA90DE849700479111D
:105A8000801688828983E508F0A3E509F088828979
:105A900083A3A3E50AF079007F060218FD74EE12D5
:105AA000182BEAFEEBFF8C088D09890C7414121870
:105AB00007125B6774161218071250B4750D00E8D0
:105AC000496003025B5B7402650C6003025B567401
:105AD00012121807125B71FCA3E0F9EC2400F50E1A
:105AE000E439F50FEAF4F8EBF4F9EC58F8E50F595E
:105AF000F9E849705CE5082406F8ED3400F9880AF5
:105B0000890B8882F583125B7C12086A8A108B11DC
:105B1000E50E65107004E50F65116042780E121AEB
:105B20003E850A82850B83125B7C12087074021218
