:020000040000FA
:060000000201070221C706
:03002B0002263F6B
:0300330002262181
:03003B000226603A
:030043000225D5BE
:0300530002223A4C
:03006B000225FB70
:10008300022033E5C754F84401F5C7790122000083
:100093000080FB120086B900030200F1E4792178A5
:1000A30008B800028004F709D8FCE479297802B87B
:1000B30000028004F709D8FCE490028178B2790A3F
:1000C3008002F0A3D8FCD9FA7A327B0C90013778FE
:1000D3000279048015E493A3AD82AE838A828B8375
:1000E300F0A3AA82AB838D828E83D8E9D9E7758288
:1000F300797583A67403120119758291758300744F
:100103000012011975D00075813F751881751902A8
:10011300759F00020096C09FF59FE473D09F22D085
:1001230083D082C09FE493C0E0740193C0E0740263
:1001330093F59F22FF0000B4000028002800283018
:1001430075A000A000A000A00000080008E001F0D6
:10015300001000100010001000100010005000509C
:1001630000500010001000D0070000000000000F36
:100173000001000500307507001000010081FF0039
:10018300000000FF360654063C06FF020202080286
:100193005000A0000000E8030259820100004A82D7
:1001A300026D82010000890C024D82010000B3023E
:1001B300026D820100008A0C024F82010000C90215
:1001C300026D820100008B0C025182010000CB0200
:1001D300026D820100008C0C025382080000CC02E5
:1001E300026D820100008D0C0255820100008E0C0D
:1001F300FF0100FF200259820100004482026D8248
:10020300010000F20C0257820000000000025B8232
:100213000300001903120C120C120C120C120C1214
:100223000C120C120C120C120C120C120C120C9459
:100233000EAC0E8E0EFFFF02020202020202020247
:10024300010D0000001001025982010000418202E9
:100253006D82010000350D0263820100005D07021B
:100263006D82010000360D026182010000DB810214
:100273006D82010000370D025F82010000BF810221
:100283006D82010000380D026582010000F58002D5
:100293006D82010000390D026B82010000E38002D0
:1002A3006D820100003A0D02718201000007810294
:1002B3006D820100003B0D0273820100003D81024B
:1002C3006D820100003C0D027582010000CD8102A8
:1002D3006D820100003D0D0277820100003E0D0199
:1002E300E803053F100AFF00013075030201060011
:1002F30000000000000000000000000000000000FB
:100303000000000000000000000000FFFF06008066
:100313000CE803140953696D706C65424C455065D4
:10032300726970686572616C051250002003020ADD
:10033300000201060302F0FF53696D706C652042F1
:100343004C45205065726970686572616C3E13009C
:100353000044130A4368617261637465726973745C
:100363006963203100024368617261637465726975
:100373007374696320320008436861726163746552
:100383007269737469632033001043686172616337
:10039300746572697374696320340002436861721F
:1003A30061637465726973746963203500025982ED
:1003B3000100004782026D82010000510E027B8220
:1003C300030000230C026982010000520E026D82B9
:1003D300010000630E027D82010000240C02698289
:1003E300010000640E026D82010000750E027F821F
:1003F300020000250C026982010000760E026D8264
:10040300010000870E028182000000260C025B823D
:10041300030000270C026982010000880E026D822E
:10042300010000990E0283820400002D0C026982F0
:100433000100009A0E120122D3FD02120122EAFDED
:10044300021201221BFE0212012256FE0212012297
:1004530080FE02120122AAFE02120122C1FE021232
:100463000122D8FE02120122EFFE0212012218FF1E
:10047300021201222BFF0212012241FF021201226A
:1004830054FF021201227BFF02120122B7A70212BC
:100493000122BBA802120122F3A80212012216A90B
:1004A3000212012221A90212012244A902120122ED
:1004B30053AA0212012228AB02120122A3AB021299
:1004C30001222BAC0212012266AC021201229DAC66
:1004D300021201222BAD0212012204AE02120122EA
:1004E30064AE021201226FAE02120122EEAE0212BC
:1004F3000122F1AE02120122F4AE0212012283AFF5
:100503000212012286AF02120122B6AF02120122A9
:10051300E0AF02120122CEB00212012280B1021218
:10052300012258E00212012280E002120122AEE011
:1005330002120122E5E00212012243E1021201222A
:100543008EE102120122D9E10212012219E2021202
:1005530001225FE2021201228DE2021201224AE32A
:100563000212012254E30212012261E30212012268
:1005730094E30212012260E4021201226CE40212EB
:10058300012284E4021201228EE40212012235A226
:100593000312012243A2031201225BA203120122CE
:1005A30073A20312012252BA01120122FEBA0112EE
:1005B300012279BB011201229ABC01120122D6BC8D
:1005C300011201227FBD0112012266BE0112012226
:1005D300CABF0112012221C001120122A2C00112CD
:1005E300012292C101120122DFC10112012265C25F
:1005F3000112012297C201120122ABC4011201228E
:10060300EDC4011201220BC5011201228EC5011294
:10061300012262C6011201222AC701120122CAC99C
:10062300021201229DCA0212012246CB02120122AA
:1006330099CB0212012249CC02120122D5CC02121B
:100643000122C1CD02120122F0CD0212012203CFF9
:10065300021201224BCF0212012220D002120122E8
:100663005CD00212012278D00212012291A503125A
:1006730001223AFA0212012250FA0212012276FAF8
:100683000212012292FB021201229CFB021201229E
:10069300D1FC02120122C9FD021201225DD602120F
:1006A30001228DD702120122C0D7021201220AD8D9
:1006B30002120122D1D9021201221F6E001201225D
:1006C300896E00120122E86F00120122F86F0012F6
:1006D30001222570001201227C7000120122257173
:1006E300001201222C7200120122F6720012012262
:1006F3005674001201229974001201223E750012F1
:1007030001228B7500120122B17500120122BF77FD
:1007130000120122C47700120122C97900120122BA
:10072300167A00120122897A00120122BC7A001281
:1007330001225E7B00120122077C001201223F7C12
:1007430000120122427C001201228A7C0012012243
:10075300CA7C00120122217D001201224190031262
:100763000122599003120122A19003120122B79092
:1007730003120122FE90031201221292031201229C
:100783009F9203120122EA9203120122D42600123D
:100793000122E026001201221B27001201226027FA
:1007A30000120122202800120122A6280012012291
:1007B3000B2900120122372900120122702900128D
:1007C3000122AE2B00120122922D00120122782F5A
:1007D30000120122BB300012012209330012012250
:1007E3001B340012012266350012012276360012F4
:1007F3000122933600120122CE3600120122F03676
:1008030000120122533700120122143C001201226C
:10081300A93C00120122FA3C00120122213D0012E0
:100823000122733D00120122913D00120122EB3D92
:1008330000120122D43E001201224A40001201227A
:10084300CE400012012284DB021201228EDB02124F
:100853000122D1DB02120122ECDB021201227CDC39
:1008630002120122A4DC02120122E1DC02120122A3
:1008730018DD0212012241DD02120122B6DD02124D
:100883000122CBDD02120122E0DD0212012211DE80
:100893000212012225DE021201224ADE0212012285
:1008A30084DE02120122B0DE02120122E8DE02120D
:1008B300012267DF0212012292DF02120122DBDF33
:1008C3000212012205E00212012230E0021201228B
:1008D300E0FE01120122E49A02120122129B02128B
:1008E3000122609C02120122409D021201225F9D9F
:1008F30002120122DC9D021201221F9E021201221A
:10090300759F0212012236A002120122BDA2021219
:1009130001225EA30212012254A40212012251A554
:1009230002120122ABA60212012236A702120122F1
:10093300D79C03120122409D03120122949D0312AE
:100943000122BB9D03120122EC9D03120122C3E984
:100953000212012230EA0212012277EA0212012274
:100963008FEB021201228BEC021201226EED0212B6
:100973000122F1B10212012233B20212012205B3A4
:1009830002120122DEB302120122D8B402120122A2
:10099300BAB50212012223B602120122D9B60212FB
:1009A30001224DB702120122B9B702120122E2B7A6
:1009B300021201225CB802120122F5B802120122CE
:1009C3005AB9021201226FB902120122B5B90212F9
:1009D3000122CEB90212012233BA0212012236BA1F
:1009E30002120122488D03120122708D031201228B
:1009F300AE8D031201226C8E03120122D38E0312D9
:100A03000122EF8E03120122178F03120122478F57
:100A130003120122568F03120122D38F03120122E4
:100A2300F98F03120122C5AA01120122A3AC0112FC
:100A33000122D5AE0112012211AF011201223EAFF4
:100A43000112012228B00112012273B00112012206
:100A5300BEB001120122D0B00112012210B1011265
:100A6300012245B10112012293B101120122C2B147
:100A730001120122E5B10112012232B20112012257
:100A8300B7B201120122D1B40112012210B701122F
:100A9300012251B701120122F3B80112012234B924
:100AA30001120122A7B901120122FDB9011201228B
:100AB30027BA01120122CF8D02120122CD8E02121A
:100AC300012266950212012287970212012252998E
:100AD30002120122BA9A02120122354100120122A6
:100AE300E441001201222A42001201226A43001249
:100AF30001220045001201227A4500120122954588
:100B0300001201221046001201226A47001201223C
:100B1300CA4800120122D04900120122314B0012AF
:100B230001224A4B00120122A84B00120122964CCB
:100B330000120122C94C00120122394D0012012278
:100B4300B34D00120122FD4D00120122C74E0012C7
:100B530001229C4F001201227B50001201220651F8
:100B630000120122745100120122E85100120122E5
:100B7300135200120122D2520012012237540012E2
:100B830001225454001201227354001201226455AD
:100B930000120122895500120122B35500120122CD
:100BA3002E5600120122885600120122F15700121C
:100BB30001229F5800120122E05800120122DEE5B3
:100BC300011201222CE60112012238E60112012250
:100BD30016E70112012247E70112012278E7011209
:100BE3000122F8E70112012230E80112012282E812
:100BF30001120122BFE801120122DCEA01120122E3
:100C030002ED01120122EDEE01120122D7F00112D1
:100C13000122C92600120122B29601120122E29694
:100C230001120122BB9D01120122409F01120122E8
:100C33003DA50112012225A60112012262A601127D
:100C4300012285A601120122B6A601120122BFA626
:100C530001120122C9A601120122B7A70112012222
:100C6300ADA8011201221059001201220F5D0012DA
:100C73000122155D001201225064001201226969EC
:100C830000120122058703120122FF8703120122AA
:100C9300738803120122B1880312012225890312EA
:100CA30001229E8903120122A78903120122B3891B
:100CB30003120122C88903120122068A03120122A8
:100CC3001C8A0312012230EE021201223DEE0212AF
:100CD300012257EE0212012296EE02120122D4EEF5
:100CE3000212012239EF021201224EEF02120122F7
:100CF30059EF0212012266EF021201227DEF021266
:100D030001228BEF0212012296EF02120122A2EFBF
:100D130002120122B1EF02120122BCEF02120122E0
:100D2300DFEF0212012286F00212012296F0021274
:100D33000122B0F002120122CDF002120122E9F0E9
:100D4300021201220EF10212012219F102120122F2
:100D53002EF10212012242F102120122A3F1021228
:100D63000122A9F102120122AFF102120122B5F10F
:100D730002120122CDF10212012200F2021201221B
:100D8300B4D70112012238D801120122E7D8011287
:100D9300012246DA0112012267DC0112012253DD2E
:100DA3000112012288DD01120122AADD01120122B2
:100DB30059DE0112012251E0011201227AE00112EF
:100DC30001220CE1011201223EE1011201224BE159
:100DD30001120122A2E101120122C8E10112012242
:100DE30035E40112012238E50112012290E50112D6
:100DF300012243C9011201224DCA0112012234CB3F
:100E0300011201223ECB0112012260CB0112012209
:100E13006CCB0112012205CD0112012234CD011246
:100E2300012250CE01120122A9CE011201220FD0BC
:100E330001120122EED0011201224AD10112012234
:100E4300B7D101120122F2D10112012231D20112D2
:100E53000122EAD40112012204D50112012290D504
:100E6300011201229ED501120122F7D5011201229E
:100E730005D60112012278D601120122DCD6011215
:100E8300012226D701120122B2F301120122D4F367
:100E930001120122FAF5011201220FF901120122B6
:100EA30027FA01120122DAFA01120122BCFB011214
:100EB30001221D9803120122429803120122B498C1
:100EC3000312012250C20212012259C2021201224C
:100ED30062C20212012239C302120122EAC40212BF
:100EE300012220C5021201225AC50212012290C515
:100EF30002120122CAC502120122FEC502120122F8
:100F03002AC60212012273C602120122ADC60212C0
:100F13000122F6C6021201224EC70212012283C722
:100F230002120122DEC70212012218C80212012294
:100F330069C8021201229FC802120122D9C80212F3
:100F4300012207C9021201222AC902120122C2A3E5
:100F530003120122EEA30312012249A40312012268
:100F630053A40312012263A403120122EDD002123F
:100F73000122F7D00212012235D1021201227ED1C1
:100F830002120122B8D1021201220ED20212012250
:100F93002FD20212012238D20212012283D202126C
:100FA3000122ACD202120122B6D20212012222D3B2
:100FB30002120122B8D30212012202D40212012228
:100FC30032D402120122BBD402120122FBD4021238
:100FD300012233D50212012245D50212012264D522
:100FE300021201226DD50212012233D6021201220E
:100FF30065A0031201220E7E00120122447E00121C
:1010030001227A7E00120122C37F001201228DFF8A
:1010130002120122A3FF02120122ADFF02120122DA
:1010230015A6031201227DF20212012292F202128C
:10103300012245F30212012285F3021201229EF3DB
:1010430002120122D2F3021201221FF40212012220
:1010530053F40212012295F40212012291F60212B4
:1010630001225CA10312012285A103120122AEA178
:1010730003120122F0A1031201221493031201228D
:1010830039930312012263930312012215A703125A
:101093000122888201120122EC84011201229D8621
:1010A300011201229F8701120122288801120122C5
:1010B300AC8801120122D188011201220A8C01128B
:1010C30001227E8C011201226F8D01120122A98D52
:1010D30001120122E98D011201229C8F01120122CA
:1010E300EF8F01120122389001120122A690011202
:1010F3000122D89001120122F090011201220592DF
:1011030001120122159201120122309301120122D0
:101113005293011201228893011201222C9501128C
:1011230001226B95011201228D96011201220CA35B
:10113300031201221DA303120122CCA603120122D2
:101143000BA703120122A6A7031201226DA4031207
:1011530001227DA40312012298A40312012200A5F7
:1011630003120122619F03120122E69F031201224F
:101173004CA0031201225F9B03120122889B0312DE
:101183000122F39B03120122449C031201229D9C22
:1011930003120122329E03120122479E03120122EF
:1011A300BB9E03120122D59E03120122EC9E031261
:1011B3000122FF9E03120122179F031201222C9F7B
:1011C300031201229EF602120122B5F60212012237
:1011D3002EF70212012203F802120122D5F902129C
:1011E3000122968303120122268403120122A4847E
:1011F300031201222D8503120122C285031201224B
:101203004C860312012256860312012265860312BD
:1012130001227B86031201228E8603120122EE86AF
:10122300031201220287031201220AA503120122DB
:1012330074A50312012286A503120122C299031287
:101243000122129A031201229B9A03120122019B8B
:1012530003120122E095031201220A9603120122CE
:10126300D09603120122AB97031201225ABA02123B
:10127300012217BB0212012252BB021201227ABBC6
:1012830002120122DCBB0212012228BC021201223B
:1012930088BC021201221BBD021201221ABE0212D5
:1012A3000122A9BF021201222CC00212012293C003
:1012B30002120122AAC002120122B4C102120122A7
:1012C300F2C1021201220080021201226083021283
:1012D3000122E884021201223F85021201225E8567
:1012E30002120122DC85021201226C870212012202
:1012F3005088021201225C8C021201222C8D0212F0
:1013030001224C8A031201227B8A03120122918A51
:1013130003120122D98A031201221B8B0312012219
:10132300868B03120122578C03120122C38C0312F2
:10133300012215E5021201224BE702120122EAE71C
:1013430002120122E5E8021201220EE90212012231
:101353007BE902120122008003120122458003125D
:1013630001226280031201221881031201226B8180
:10137300031201224982031201225D830312012217
:101383005CA70312012288A703E066701008A3E09C
:1013930066700A08A3E066700408A3E06622C3E748
:1013A300960809E7960809E7960809E79622C3E035
:1013B3009608A3E09608A3E09608A3E09622C00847
:1013C300C3E096F50808A3E096420808A3E0964216
:1013D3000808A3E09645087001D3D008220808083E
:1013E300EAC0E0EBC0E086F0E7A4FA180986F0E76C
:1013F300A42AFA180986F0E7A42AFA180986F0E75E
:10140300A42AFA1986F0E7A4FBE5F02AFA1908865C
:10141300F0E7A42BFBE5F03AFA190886F0E7A42BD2
:10142300FBE5F03AFA18180986F0E7A4C5F02BFBA0
:10143300E43AFA1908E7C5F0C6A426F6E5F03BFB43
:10144300E43AFA1886F0E7A4F6E5F00826F6E43B5A
:1014530008F6E43A08F6D0E0FBD0E0FA22E4CFC085
:10146300E0E4CEC0E0E4CDC0E0E4CCC0E075F02021
:10147300E626F608E633F608E633F608E633F6180A
:101483001818EC33FCED33FDEE33FEEF33FFC3EC02
:101493009709ED9709EE9709EF97191919400FFF6F
:1014A300EC97FC09ED97FD09EE97FE191906D5F0A7
:1014B300BFECF709EDF709EEF709EFF7191919D0A2
:1014C300E0FCD0E0FDD0E0FED0E0FF22601608088B
:1014D30008C6C313C618C613C618C613C618C61340
:1014E300C6D5E0EA22700908080822601618181801
:1014F300C6C333C608C633C608C633C608C633C612
:10150300D5E0EA22E627F60809E637F60809E637C2
:10151300F60809E637F622E026F608A3E036F608D1
:10152300A3E036F608A3E036F622E026F008A3E0AF
:1015330036F008A3E036F008A3E036F022C3E697BE
:10154300F60809E697F60809E697F60809E697F616
:1015530022C3E096F008A3E096F008A3E096F00813
:10156300A3E096F022E657F60809E657F60809E6DF
:1015730057F60809E657F622E056F608A3E056F6B2
:1015830008A3E056F608A3E056F622E056F008A3B7
:10159300E056F008A3E056F008A3E056F022E0F688
:1015A30008A3E0F608A3E0F608A3E0F622E6F008B5
:1015B300A3E6F008A3E6F008A3E6F022E0FAA3E02E
:1015C300FBA3E0FCA3E0FD22EAF0A3EBF0A3ECF025
:1015D300A3EDF022E0F8A3E0F9A3E0FAA3E0FB22F5
:1015E300E8F0A3E9F0A3EAF0A3EBF022CAC0E0E637
:1015F300F0A308DAFAD0E0FA22CAC0E0E0A3C58279
:10160300CCC582C583CDC583F0A3C582CCC582C5B5
:1016130083CDC583DAE6D0E0CA22C3E498F8E4991F
:10162300F912165E8026C3E49AFAE49BFBE920E7ED
:10163300E912165EE498F8E499F922C3E498F8E411
:1016430099F912165EE498F8E499F9C3E49AFAE476
:101653009BFB22EB20E7CFE920E7E0B90010BB00BA
:1016630008E88AF084F8AAF022E4FBC8FA22EB70B7
:10167300227B10C833C8C933C9335007C39AC3DBAD
:10168300F280069A50012ADBEAC833F4C8C933F45E
:10169300C9FA2275F008E4C833C8C933C933C99AF3
:1016A300C99B5004C92AC93BD5F0ECFBC833F4C825
:1016B300E4C9FA22600D08C6A2E713C618C613C60A
:1016C300D5E0F322600C08C6C313C618C613C6D5EB
:1016D300E0F422700422600D18C6C333C608C63373
:1016E300C6D5E0F41822251810AF08F518400C15DC
:1016F300198008F51840021519D2AF2200C0D02571
:101703001810AF08F518500C05198008F518500289
:101713000519D2AFD0D0222518F58210AF08F518DD
:10172300400C15198008F51840021519D2AF851918
:1017330083222518F582E43519F583222518F8E468
:101743003519F9222518FAE43519FB222518FCE48A
:101753003519FD22E4732518C582C0E0E51934FF6D
:10176300C583C0E0E518C3958224F810AF088583CC
:10177300198582188008858319858218D2AFCEF027
:10178300A3E520F0A37808E608F0A3DEFAEFF0A3C0
:10179300E58124FAF8E608F0A3E608F0A3E608F0EA
:1017A300A30808E608F0A3E608F0A315811581D085
:1017B300E0FED0E0F8158115811581E8C0E0EEC0A8
:1017C300E0222518C582C0E0E51934FFC583C0E0D7
:1017D300E518C3958224F910AF088583198582180B
:1017E3008008858319858218D2AFCEF0A3E520F057
:1017F300A37808E608F0A3DEFAEFF0A3E58124FB63
:10180300F8E608F0A3E608F0A30808E608F0A3E664
:1018130008F0A315811581D0E0FED0E0F8158115FD
:1018230081E8C0E0EEC0E022851983851882E0A339
:10183300FEE0A3F5207808E0A3F608DFFAE0A3FFB3
:10184300E0A3C0E0E0A3C0E0E0A3C0E0E0A3C0E009
:10185300E0A3C0E010AF088582188583198008854E
:101863008218858319D2AFD083D08202011F8519D4
:1018730083851882E0A3FEE0A3F5207808E0A3F6B1
:1018830008DFFAE0A3FFE0A3C0E0E0A3C0E0E0A329
:10189300C0E0E0A3C0E010AF0885821885831980FB
:1018A30008858218858319D2AFD083D08222C0D015
:1018B3002518C582C0E0E51934FFC583C0E0E518EB
:1018C300C3958224F310AF08858319858218800895
:1018D300858319858218D2AFC8F0A3E9F0A3EAF093
:1018E300A3EBF0A37908E709F0A3D8FAECF0A3ED92
:1018F300F0A3EEF0A3EFF0A3D0E0F0A3D0E0F0A3C9
:10190300D0E0F0A3E520F0A3E5F0F0A3228519834E
:10191300851882E0C0E0A3E0F9A3E0FAA3E0FBA30B
:101923007808E0F608A3DFFAE0FCA3E0FDA3E0FEFD
:10193300A3E0FFA3E0C0E0A3E0C0E0A3E0F5D0A3F1
:10194300E0F520A3E0A3F5F010AF088583198582A5
:10195300188008858319858218D2AFD082D083D0AE
:10196300E0F8D0E03274048006740280027401C08F
:10197300E0F40412171AD0E01215EF227404800465
:1019830074028000CCC0E0EDC0E0E518C39CCCAD90
:101993001950011D10AF068C188D1980068C188DF7
:1019A30019D2AF1215FCD0E0FDD0E0FC22D083D0D9
:1019B30082E9C0E0E493A3C386F0C5F095F0F9088B
:1019C300E493A386F0C5F095F0700BE493A3C39959
:1019D3004005E9048002A3E475F002A42582F582A0
:1019E300E5F03583F583D0E0F9E493A3C0E0E49315
:1019F300C0E022D083D082ECC0E0EDC0E0E493A34A
:101A0300FCE493A3FDED4C600D121A42EC24FFFCA1
:101A1300ED34FFFD80EFE493A3FCE493A3FDED4CD1
:101A2300600D121A81EC24FFFCED34FFFD80EFD032
:101A3300E0FDD0E0FCE493A3C0E0E493C0E022C067
:101A4300E0C3E49396087401939618400FE49366F9
:101A5300700808740193661870007019A3A3C3E497
:101A63009396087401939618A3A3400DD0E0D0E099
:101A7300D0E0021A32A3A3A3A3A3A3D0E022C0E021
:101A8300C0F088F0E49366700808740193661870D8
:101A930000A8F0A3A3700BD0F0D0E0D0E0D0E00218
:101AA3001A32A3A3D0F0D0E02274F51217C5EAFED0
:101AB300EBFFEE2434F8EF3400F988088909EE24AB
:101AC30035F582EF3400F583E0F8EE2437F582EF45
:101AD3003400F583E0F50AEC850AF0A4FCAAF0854E
:101AE3000AF0EDA42AFDE82CF8E43DF97A257B0001
:101AF30012165EEA850882850983F0F8740758F99F
:101B03007401B900028004C333D9FCFAE813131338
:101B1300541FF8EE28F8EF3400F9E8245DF582E964
:101B23003400F583E05A6008EE2434F582EF802C0C
:101B3300EE2434F582EF3400F583E0C0E0EE243682
:101B4300F582EF3400F583E0F5F0D0E084A8F0EE01
:101B530028F8EF3400F9E82438F582E93400F583F6
:101B6300E0F97F0402187174F51217C5EAFEEBFF62
:101B7300EE2434F582EF3400F583E0C0E0EE243543
:101B8300F582EF3400F583D0E0F08E828F83A3A338
:101B9300A3A3A3A3A3C082C0838E828F83A3A3A383
:101BA300A3A3E0F8A3E0F9D083D082E0C398F508BB
:101BB300A3E099F509EE247FF582EF3400F583E085
:101BC30064017069EE2480F582EF3400F583E0F858
:101BD300A3E0F98E828F83A3A3A3A3A3A3A3E0FC13
:101BE300A3E0FD8E828F83A3A3A3A3A3E0FAA3E0C4
:101BF300FBC3EA9CEB9D5010C3EC98ED99402EC3B8
:101C0300EA98EB995027800EC3EA98EB994007C3F3
:101C1300EC98ED9940177CDC7D04EEFAEFFB120B98
:101C230070EE247FF582EF3400F583E4F0EE243484
:101C3300F8EF3400F9E8FCE9FDEE2435F582EF34E2
:101C430000F583E0F8EE2437F582EF3400F583E006
:101C5300F50AE508850AF0A4F508AAF0850AF0E577
:101C630009A42AF509E82508F8E43509F97A257B5A
:101C73000012165EEA8C828D83F0F8740758F974AB
:101C830001B900028004C333D9FCFAE813131354D7
:101C93001FF8EE28F8EF3400F9E8245DF582E93403
:101CA30000F583E05A6008EE2434F582EF802CEED1
:101CB3002434F582EF3400F583E0C0E0EE2436F5FA
:101CC30082EF3400F583E0F5F0D0E084A8F0EE284D
:101CD300F8EF3400F9E82438F582E93400F583E0BD
:101CE300F91225C1021B65C082C08385188285193C
:101CF30083E0F8A3E0F9C3EA9CEB9D5010C3EC9892
:101D0300ED99401BC3EA98EB995014800EC3EA98EF
:101D1300EB994007C3EC98ED99400479018002796F
:101D230000D083D08222EAC39CFAEB9DFB2274EF9E
:101D33001217C59003A2E064086005E06407702AE7
:101D43009061C8E060249003D0E0F4601DE0F87572
:101D5300F003A4C8AAF02AF974D228FE740339FF49
:101D63008E828F83A3A3A3E07003021E6190606041
:101D7300E0C0E0EE2468F582EF3400F583D0E0F0B4
:101D8300750C45750D05750800750900E5D914F541
:101D93000AE5D95403F50E60177403650E605CE51C
:101DA3000A6010EE2467F582EF3400F583E07003D8
:101DB300021E46900540E06401602AEE2482F5820B
:101DC300EF3400F583E06004780480027800850A2C
:101DD30008E508C398FA95E0FB120A388A088B09CC
:101DE300EA45097005120D628074EE2482F582EFD4
:101DF3003400F583E070048A0C8B0DE50A601285CC
:101E03000C82850D83F50BE5D9F0A3150BE50B705B
:101E1300F6EE2482F582EF3400F583E0604474FC2F
:101E2300250AF50A780C12196CAC0AA90EEEFAEF22
:101E3300FB120C0C74021216FFE97026AA08AB09F8
:101E4300121242793D8E828F83A3A3A3A3E0FA7B70
:101E53000012090CEEFAEFFB120B88120C1E79002C
:101E630080747403650E6056850A1075110078102E
:101E730012196CAC0CAD0DAA08AB09120BE8740275
:101E83001216FFEE2468F582EF3400F583E06480D8
:101E93007004747F8001E0F50C780C121970E50E64
:101EA300F50C780C121970A90AAC08AD099003D08F
:101EB300E0FA7B001208D074021216FF801390031D
:101EC300A2E06408600BAC0CAD0DEEFAEFFB120C54
:101ED30078120D6E79017F0A02187174F51217C515
:101EE30074FC1216E9EAFEEBFF8908A2AFE433F5AE
:101EF30009C2AF806AEE2463F8EF3400F97A007BFD
:101F030000A2AFE433F50AC2AF88828983E0FCA361
:101F1300E0FDEC4D603A88828983E0FAA3E0FB8A16
:101F2300828B83E0FCA3E0FD88828983ECF0A3ED40
:101F3300F08A828B83E4F0A3F088828983E0FCA398
:101F4300E0FDEC4D700A88828983A3A3E4F0A3F03B
:101F5300E50AA2E092AF1212429004E3E004F0EE2D
:101F63002463F582EF3400F583E0F8A3E0F9E84950
:101F7300603DEE2463F582EF3400F583E02402FA3A
:101F8300A3E03400FBEA2402F50AEB3400F50B78F6
:101F93000A12196C8A828B83E0FCA3E0F9EEFAEF54
:101FA300FB120BAC74021216FFE97003021EF890C9
:101FB30004E3E060639004E4E0F89004E3E0C39892
:101FC300500C7402650870509004E5E0604A8E82FC
:101FD3008F83A3A3A3A3E0851882851983F0A3E4C9
:101FE300F09004E3E0F87402121735E8F0A3E4F08C
:101FF3009004E3E0F89004E2E028F074021217354D
:10200300AC82AD83851882851983AA82AB8379015B
:102013001208DC9004E3E4F0E509A2E092AF740453
:102023001216FF021B650000008521878522C62248
:10203300C0E0C0D0E8C0E0E9C0E0EAC0E0EBC0E047
:10204300ECC0E0EDC0E0EEC0E0C008C009C00AC0CB
:102053000BC082C083C0F0A2AFE433FEC2AF759B56
:1020630000906182E0A2E05012E591A2E0500C756D
:1020730091FE740165217003121D31E0A2E55051F8
:10208300E591A2E5504B7591DF9003A2E0640760F0
:1020930005E06408702374016521703579019003AC
:1020A300D0E0FA75F003A4CAA8F028FB74D22AFA88
:1020B30074033BFB121EDE8018E0640D7013900363
:1020C300C4E004F064287002E4F07A00E0F9120D31
:1020D30074906182E0A2E6400302217AE591A2E6D0
:1020E300400302217A7591BF9003A2E06405700852
:1020F300120CA2120CAE8003120CA8752100120D53
:1021030002E99003A3F07900120CF6120AE67A01B1
:102113007B009003A1E0F9120FC6907803E06442BC
:102123007055900544E014F0704DC2AF1221320097
:10213300782AD0E0F618D0E0F6E59F5407700575CD
:1021430009FF800375097FC4C0E07829E6F5080814
:10215300E65509F509740B78081216C7D0E025086F
:10216300F8906270E0A2E740F8E8C333906272F03F
:10217300906270E0D2E0F0906181E0A2E35009E563
:10218300E9A2E3500375E9F7A3E0A2E75009E5915B
:10219300A2E7500375917FEEA2E092AFD0F0D08317
:1021A300D082D00BD00AD009D008D0E0FED0E0FD19
:1021B300D0E0FCD0E0FBD0E0FAD0E0F9D0E0F8D0FA
:1021C300D0D0E032C0E0C0D0C082C083906183E051
:1021D300A2E05009E5BFA2E0500375BFFEE0A2E113
:1021E3005009E5BFA2E1500375BFFDE0A2E250092B
:1021F300E5BFA2E2500375BFFBE0A2E35009E5BFD0
:10220300A2E3500375BFF7E0A2E45009E5BFA2E4DF
:10221300500375BFEFE0A2E55009E5BFA2E5500307
:1022230075BFDFE0A2E65009E5BFA2E6500375BF24
:10223300BFD083D0828088C0E0C0D0E8C0E0E9C0CE
:10224300E0EAC0E0EBC0E0ECC0E0EDC0E0C0F0E5E8
:10225300A7A2E6500FE5A1A2E6500953A7BF75A1B7
:10226300BF12229FE5A7A2E5500CE5A1A2E5500607
:1022730053A7DF75A1DFE5A7A2E15009E5A1A2E11C
:10228300500375A1FDE5A7A2E2500CE5A1A2E2501F
:102293000653A7FB75A1FBD0F00221B074F8121707
:1022A300C57521019003A2E064067015120C3C8AE7
:1022B300828B83A3A3A3A3A3A3E0FAA3E0FB120C43
:1022C30090A2AFE433FED2AF9003A8E0640170188C
:1022D3007A207B009003A1E0F912104A7A207B0058
:1022E3009003A1E0F9120FCC906182E0D2E6F09066
:1022F3000541E0602185C62280169003A7E06401B2
:102303007008E5C654F84405F5C653BEFC12202CEC
:102313007401652160E4EEA2E092AF7F01021871BF
:10232300008E238F2485822885832785188285192B
:1023330083E0CEA3E0CF852882852783EBC9EAC853
:10234300EDCBECCA75F010C3E833C8E933C9EA33FF
:10235300CAEB33CBC3EA9EF526EB9FF525B35004B6
:10236300AB25AA26EC33CCED33CDD5F0DAAE23AFD3
:10237300242274ED1217C58A088B098C0A8D0B74FD
:1023830013121735780C1215A17808790C1213A1C2
:102393007510017511C87512007513005012780875
:1023A300790C121540781079081213A15016801079
:1023B300780C79081215407810790C1213A1400497
:1023C3007901800279007F0C02187174ED1217C530
:1023D3008A088B098C0A8D0B7413121735780C122B
:1023E30015A1780C79081213A140117808790C1201
:1023F3001540AA08AB09AC0AAD0B80227510007515
:1024030011007512007513017810790C12154078BC
:10241300107908121507AA10AB11AC12AD1380A6E0
:102423008A828B837508FF7509FF750AFF750B0098
:10243300780812158E7F0402187174F51217C58C73
:10244300828D8378081215A18A828B8378081215EE
:1024530054EA2404F8EB3400F98C828D83A3A3A3FC
:10246300A3E0FCA3E0FD88828983C3E09CF0A3E0A2
:102473009DF088828983C3E09420A3E0944E402694
:102483008A828B837508FF7509FF750AFF750BFF39
:10249300780812152D8A828B83A3A3A3A3E024209B
:1024A300F0A3E0344EF002242374F51217C5E9FEBD
:1024B3009004F7E0FAA3E0FBEEC333F8E433F974D6
:1024C3008128F582748139F583E02AF508A3E03B7E
:1024D300F509780812196C7A407B427C0F7D001253
:1024E300232474021216FF8A088B098C0A8D0B743D
:1024F3001078081214CFAA08AB097F04021871746C
:10250300F11217C58A0C8B0D8C0E8D0F740F1217D9
:1025130035E0FAA3E0FB7411121735E0F508A3E0E8
:10252300F509780812196CEA2401F508EB3400F573
:1025330009E4F50AF50B780C79081213E0750871B4
:10254300750902780C79081213E0AA0CAB0DAC0ED6
:10255300AD0F12232474021216FF8B09EA4509609A
:10256300047A0180027A00EC2AFCED3400FD741336
:10257300121735E0F8A3E0F9E8FEE9FFECF8EDF90E
:102583007A717B0212165E880889098E828F83789E
:10259300081215B0ECF8EDF97A717B0212165E8A17
:1025A300088B09740578081216D68E828F83A3A32D
:1025B300A3A3E508F0A3E509F07F08021871C08220
:1025C300C083E9906000F0D083D08222C2AF0200C2
:1025D3000022C0E074F21218B1A2AFE433FED2AF0E
:1025E300C2C0E5D1A2E4500653D1EF121224EEA2E9
:1025F300E092AF7F01021910C0E074F21218B1A289
:10260300AFE433FED2AFE589A2E1500312118E7518
:102613008900C2C5EEA2E092AF7F01021910C0E0AB
:1026230074F21218B1A2AFE433FED2AFE58BA2E08D
:10263300500312118E758B00C2E880D8C0E0C0D061
:10264300E8C0E0E9C0E0E5A8D2AFC2C7A2E7A2E7CD
:1026530092AFD0E0F9D0E0F8D0D0D0E032C0E0C003
:10266300D0E8C0E0E9C0E0C008C009C082C083A2CE
:10267300AFE433F9D2AF9009F9E0F8A3E06870084A
:10268300539AFBA374018025C2E99009F9E0F50888
:1026930074012508F074792508F582E43409F5837B
:1026A300E0F5C19009F9E0C394804002E4F0E9A2A7
:1026B300E092AFD083D082D009D008D0E0F9D0E047
:1026C300F8D0D0D0E03202011FFFFFFFFFFFFFFF72
:1026D300FFC082C083E9900CF1F002296374F71202
:1026E3001759E99002E1F07C197D037AFF7BFF1211
:1026F300081C9002E274FFF0A3F0A3E4F0A3F079C6
:10270300051207A49002E1E0F91206C67A3A7B08A3
:102713001209EA7F0102182B74F41217598A088BE5
:1027230009EB548060309002E1E0F9120FAE8A0A9F
:102733008B0BAE0AAF0BEE4F60138E828F83E06478
:10274300B070031207BCEEFAEFFB120F9CAA08E568
:10275300096480FB80047A007B0002293274F21240
:10276300175974FC1216E9EAFEEBFFEE4F6038745A
:1027730002121735EEF0A3EF122B97ECF0A3ED1234
:102783002B97AA82AB831206C0E9F5087073741203
:1027930012173512374BE50A450B60658E828F831E
:1027A30012280EEE4F700575080280557A067B00DD
:1027B3001210028A0C8B0DA80CA90DE8497005753F
:1027C3000813803D88828983E4122818A3A3EEF0BE
:1027D300A3EF123BE4E50AF0A3E50BF09002E71246
:1027E30028A09002E76017E0FCA3E08003EAFCEB7B
:1027F300FD8C828D831228A070F38C828D83123618
:1028030070A90874041216FF023DE6A3A3A3A3E074
:10281300FEA3E0FF22F0A3F0888289832274F212E0
:102823001759890AE975F017A4FEAFF09002E6E4A0
:10283300F09002E41228A0600A1210089002E4E467
:10284300F0A3F0EEFAEFFB1210028A088B09EA45B7
:1028530009602FEEFCEFFD7900120F8A9002E4E588
:1028630008F0A3E509F07B00800812288AE4F0A3AE
:10287300F00BEBC3950A40F2E50A9002E6F079000B
:1028830080027913023DE6EB75F017A4F8A9F090E6
:1028930002E4E028FAA3E0398A82F583221234069F
:1028A300EA4B2274F4121759750800750900740C69
:1028B300121735123BB8FEE9FF800CE5082401F539
:1028C30008E5093400F509C3E5089CE5099D503284
:1028D30085080A85090B7403780A1216D6EA250AB5
:1028E300F8EB350BF988828983A3A3A3A3A3A312CF
:1028F300374BEE650A7003EF650B70BFE8FAE9FB2F
:1029030080047A007B00802774F41217597900EA57
:10291300A2E0501B7508F6750981780812196C7CC2
:10292300047D007AF37B0C12079E74021216FF7F5C
:102933000402182BC082C0839002E712296A601C2C
:1029430088828983A3A3E06A7003A3E06B888289EA
:102953008370E8A3A3A3A312340280047A007B004C
:10296300D083D08202011F123EB9E8492274EE12CD
:10297300175974FC1216E9EAFEEBFF8518828519D4
:1029830083E4F0A3F0EE2402123654EE2405122B56
:1029930085EE2404F50EEF122F6AE024FE6039243D
:1029A300FC604624FE605224FE605E24FE70030237
:1029B3002A8A24FE7003022B0224FE7003022B11C9
:1029C30024FE7003022B2024FC7003022B2F24FE11
:1029D3007003022B3E022B7B9003007417F0A3E4D9
:1029E300122B9F12043E022B7B851882851983AC20
:1029F30082AD831207C2022B4B851882851983ACE3
:102A030082AD831207C8022B4B850C08850D097410
:102A130002121735AC82AD8385088285098312348F
:102A2300021206E48A0C8B0DAC0CAD0DEC4D60422A
:102A3300E4F50CF50D780C12196C750C00750D038B
:102A4300780C12196C750C01750D03780C12196C46
:102A5300740812173512198379161233FC120804FD
:102A630074081216FFE9F50C700B1233F8120456B2
:102A7300800F750C01850882850983122B8D123610
:102A830070850C08022B4E7402121735AC82AD838D
:102A9300850C82850D831234021206E48A108B1191
:102AA300AC10AD11EC4D6043850C82850D83A3A35F
:102AB300121983751000751103781012196C7510B3
:102AC30001751103781012196C7408121735121955
:102AD3008379161233FC12080474081216FFE9F501
:102AE30009700B1233F812045C800F750901850C11
:102AF30082850D83122B8D123670850908804C85D3
:102B03001882851983AC82AD831207CE803A85186B
:102B130082851983AC82AD831207D4802B851882FA
:102B2300851983AC82AD831207DA801C85188285F0
:102B33001983AC82AD831207E0800D851882851955
:102B430083AC82AD831207E6E9F508E50860298EB8
:102B5300828F83A3E06414601F850E82850F83E058
:102B6300900300122B97123EB5900301123670E5C5
:102B730008A3122B9F120438EEFAEFFB120762022E
:102B8300355CF50CEF3400F50D22123EB985188241
:102B930085198322F085188285198322F07C007DB4
:102BA30003850A82850B831234062274EE121759A9
:102BB30074FC1216E98A0A8B0B8C0E8D0FEA24051E
:102BC300F508EB3400F5097C157D0079007A007B6C
:102BD30003120F8AE5082402F50CE509122B8885F8
:102BE3001882851983858210858311781012196CD8
:102BF300850882850983A3A3A3A31230B212196C9B
:102C0300E5082405F510E5093400F51178101219CB
:102C13006C850C82850D8312340C1206DE74061249
:102C230016FF8A108B11AE10AF11E50A2402F50AC4
:102C3300E50B123657EE4F7003022D7480177402A2
:102C430012173512340288828983EAF0A3EBF090DD
:102C53000300E004F0900300E0C394054003022D59
:102C630074E4F510F511781012196C7510E97511EB
:102C730002781012196C7510EA7511027810121986
:102C83006C74061217351219837910EEFCEFFD12DE
:102C930033FC12080474081216FFE9705E8508827B
:102CA300850983A3A3A3A3A3A3A3E0F89002E9E068
:102CB3006870481230B212196C7CEA7D02E5082470
:102CC30008FAE5093400FB120F8474021216FFE9B7
:102CD30060298E828F83A3A3A3A3123402900300DF
:102CE300E0F510740278101216D674012510F582DF
:102CF30074033511F583EAF0A3EBF0740212173570
:102D0300858210858311781012196C74021217359D
:102D1300121983850C82850D83123ECA1206EA744A
:102D2300041216FF8A108B11AE10AF11900300E04E
:102D3300F510751100740278101216D67400251060
:102D4300F874033511F988828983A31228A07003CC
:102D5300022C38E82403F8E93400F9EE4F6003024B
:102D63002C418882898374FFF0A3F0900300E00470
:102D7300F0900300E0600A1233F812044A790080ED
:102D83000B850882850983123667790A02355C74DC
:102D9300EA12175974FE1216E98C128D13EA2405F0
:102DA300F50CEB124034122812750800750900EA7D
:102DB3002402F510EB3400F51185188285198385FB
:102DC300820A85830B780A12196C850C82850D8320
:102DD300A3A3A3A3122F7412196CE50C2405F50AFF
:102DE300E50D123657780A12196C850C82850D830E
:102DF300123EC81206DE74061216FF8A0A8B0BEA0D
:102E0300450B7003022F25EA2404F50EEB122F6AFB
:102E13001228128A828B83A3A3A3E0F985108285EB
:102E230011831234021206CCE9F5096003022F253F
:102E3300E4F514F515781412196C7514E975150277
:102E4300781412196C7514EA751502781412196C3A
:102E530074061217351219837913AC0AAD0B85105A
:102E63008285118312340212080474081216FFE9D2
:102E7300F5096003022F259002E9E0F8E5087009DF
:102E8300E02402900301F08017900301E0FCE824A2
:102E930002FAE43400FBEA6C7001EB6003022F29B1
:102EA300850882AA821230A994141230A150738526
:102EB3000E82850F83E0C0E074022A122F61D0E0F6
:102EC300F00508850E82850F83A3E0C0E085080A1C
:102ED3007402250A122F61D0E0F005089002E9126E
:102EE3002F7412196C7CEA7D0285080A7402250A84
:102EF300FA74033400FB120F7274021216FF90026D
:102F0300E9E02508F50874FF6E700374FF6F601223
:102F1300EE24010EEF3400FFE508C39414500302BE
:102F23002DBCE50860131232ED85108285118312E2
:102F3300340212045079008014E509700375090AFC
:102F4300851282851383EEF0A3EFF0A909740212B0
:102F530016FF7F0E02182B85080C7402250CF582D0
:102F630074033400F583223400F50F850E82F58354
:102F730022123BF72274EE12175974FE1216E98CD3
:102F83000E8D0FEA2405F50CEB122B88750B0090C0
:102F93000300E4F0F50AEA2402F508EB3400F5092E
:102FA3008049900300E0FA9002E9E0F81230A99416
:102FB300171230A1400D900300E0F87416C39890E7
:102FC30002E9F01230B212196C7CEA7D0274012A14
:102FD300FA74033400FB120F7274021216FF90028C
:102FE300E9E0F8900300E028F0050AE50C2416F563
:102FF30082E50D122F65E0F8E50AC398400302301D
:103003008A900300E0C39416507DE50AC333F8E4C5
:1030130033F9E50C28FEE50D39FF85188285198300
:10302300AC82AD838E828F831234021206E48A103F
:103033008B11AC10AD11EC4D7005750B018043E4A1
:10304300F510F511781012196C7510E975110278E5
:103053001012196C7510EA751102781012196C743C
:10306300061217351219837916850882850983128A
:10307300340212080474081216FFE9F50B700302F8
:103083002FA512366380107C007D03850882850995
:1030930083123402120462A90B740202355EE994AE
:1030A30000C365D03322EA28F8E43400F9E822E0CB
:1030B300F51075110078102274EA12175974FC1276
:1030C30016E98A0C8B0D8C128D13EA2405F50AEB95
:1030D300123657750800750900E50A2402F510E554
:1030E3000B3400F511740212173585820E85830F98
:1030F300780E12196C850A82850B83A3A3A3A312EE
:103103003BA312196CE50A2405F50EE50B3400F513
:103113000F780E12196C85108285118312365D1299
:1031230033FC1206DE74061216FF8A0E8B0FAE0EE8
:10313300AF0FE50C2402F50EE50D3400F50F8040CA
:103143008882898374FFF00508122F5A74FFF005F3
:10315300089002E9E0F50C750D00780C12196C7CEF
:10316300EA7D0285080C7402250CFA74033400FB13
:10317300120F7274021216FF9002E9E02508F50897
:10318300EE4F60718E828F83A3A3A3E0F9850E8235
:10319300850F831234021206CCE9F509EE240412DA
:1031A3002B85E97044E4F514F515781412196C7540
:1031B30014E9751502781412196C7514EA75150261
:1031C300781412196C74081217351219837911EED9
:1031D300FCEFFD850E82850F8312340212080474FE
:1031E300081216FFE9F5096027850C82850D831205
:1031F30032E3123670E50870030232C91232ED85EC
:103203000E82850F8312340212046879000232DEC3
:10321300850882AA82EA9002E97009E024049003F7
:1032230001F08022E0F8900301E0F514E82404FCA7
:10323300E43400FDEC65147001ED70C01230A99404
:10324300121230A150B6850C82850D83E0C0E07464
:10325300022A122F61D0E0F00508850C82850D83C8
:10326300A3E0C0E0122F5AD0E01232FF85820C8512
:10327300830D780C12196C74041217351219838597
:103283001082851183123ECA1206EA74041216FFD5
:103293008A0C8B0DAE0CAF0D85080C7402250CF84F
:1032A30074033400F9EE4F700302314385188285AD
:1032B3001983E0888289831232FFA3E0C0E0122FD2
:1032C3005AD0E0023151E509700375090A850A8273
:1032D300850B831232E3123670A9097404022F524C
:1032E300123EB985128285138322900301E0F5F023
:1032F300E50884900300F07C007D0322F005088537
:1033030018828519832274EC12175974FE1216E978
:103313008A088B098C0E8D0FEA2405FEEB3400FF1F
:10332300851882851983AC82AD838E828F83123494
:10333300021206E48A0A8B0BEE2418122B85EA4547
:103343000B70030233D31235455032851882851929
:10335300831234021207F88A108B11EA4511606B4D
:103363007912AC0AAD0B8508828509831234028574
:103373001082851183121757E9F50A7058E4F50A8C
:10338300F50B780A12196C8E828F83A3A3E0F50ADA
:10339300780A12196CEE2403123654780A12196C47
:1033A3008E828F8312340C12080A74061216FFE9F8
:1033B300F50A7021850C82850D83E0701F850882D4
:1033C30085098312340212046E8011750A0E800976
:1033D300750A018004E50A6003123663850C828551
:1033E3000D83E0600479008002A90A74021216FFBB
:1033F3007F0C02182B7C007D03850A82850B8312C8
:10340300340622E0FAA3E0FB22E0FCA3E0FD8508FA
:10341300828509831234062274EE12175974FE1240
:1034230016E98A088B098C0C8D0DEA2405FEEB3412
:1034330000FF750E00851882851983AC82AD838EDB
:10344300828F831234021206E48A0A8B0BEA450B3D
:10345300700302353112354550358518828519833D
:103463001234021207F88A0E8B0FEA450F605E7959
:1034730012AC0AAD0B850882850983123402850ECE
:1034830082850F83121757E9F50E600302353485E1
:10349300088285098312374BAA0AFB1207EC8A10AC
:1034A3008B11A810A911E849701E7AFF7BFF120740
:1034B300EC8A108B11A810A911E849606C888289E5
:1034C30083E50AF0A3E50BF0750A008007750E0E7D
:1034D300805F050A9002E6E0FAE50AC39A504AE5DE
:1034E3000A75F017A4FAABF088828983A3A3E02AB4
:1034F300FAA3E03BFB8A828B8312365DEC4D70D2DC
:10350300750A17750B00780A12196CEEFCEFFD12A1
:103513000F7274021216FFEEFCEFFD850882850917
:10352300831234021204748014750E098003750E1D
:1035330001123EB1850C82850D83123670A90E02ED
:10354300309CE5082402F508E5093400F5098A8270
:103553008B83A3A3A3E0A2E52274041216FF7F0AC0
:1035630002182B74EC1217598C108D11EA2405F5EF
:103573000CEB122B88750F00EA2402F50AEB1236C6
:1035830057850A82F5831234021207EC8A088B09E5
:10359300EA45097003023649750E008071850C8275
:1035A300850D83E06401704F8E828F83A3A312196C
:1035B300838E828F83A3A3A3A3E0F51275130078F0
:1035C3001212196CEE2405F512EF3400F51378127C
:1035D30012196C1233FC12080A74061216FFE9F56D
:1035E3000F6014850C82850D83E4F0123EB18510C3
:1035F300828511831236707C177D007900EEFAEF15
:10360300FB120F8A8E828F83E4F0A3F0050E9002E3
:10361300E6E0F8E50EC398501EE50E75F017A4F822
:10362300A9F0850882850983A3A312403E12365D63
:10363300EC4D60030235A085088285098374FFF091
:10364300A3F0E50F70061233FC12047AA90F0233BC
:10365300F3F50AEF3400F50B22A3E0FCA3E0FD220F
:103663008E828F83123EB9850E82850F83E8F0A385
:10367300E9F022C082C0839002E2E06A7003A3E013
:103683006B70067AE27B0280047A007B0002296376
:10369300C082C08378008C828D83E06A7003A3E0CC
:1036A3006B7010E875F003A4F8A9F0EC28FAED3973
:1036B300FB8015088C828D83A3A3A3E06A7003A308
:1036C300E06B60DF7A007B0002296374F6121759FE
:1036D3001207B68A828B83E582458370067A007B64
:1036E300008007A3A3A3A3123402023D6274F21263
:1036F3001759E9FE740E12173512374B741012174F
:1037030035123BC38C828D83E064027036A3123E74
:10371300BFF50CA3E0F9A80C74026870037429695F
:103723007021750C02750D00780C12196C78081253
:10373300196C780A12196CEEF912082E7406121617
:10374300FF80027901023DE6E0F50AA3E0F50B22D2
:1037530074E812175974FB1216E9E9851882851962
:1037630083F08A168B17ECFEEDFF751000741D12A3
:103773001735123EB5741D1217351236708E828FAF
:1037830083A3A3A3E0A2E4502D741D1217351234B2
:10379300021207F88A828B83E58245837003023B1A
:1037A30094790AEEFCEFFDAA16AB17121757E9F549
:1037B300106003023B97741F121735123BC3742129
:1037C30012173512374B7423121735E0F50EA3E0A9
:1037D300F50F8E828F83E064026003023B42A312E3
:1037E3003EB5850882850983A3858212858313EEFE
:1037F3002406122B8588828983E0FAA3E0F9EA2460
:1038030000F514E439F51578141219F601000028AF
:103813000128373807000228FC38032869380029B3
:10382300333A01295E3A0229FF390329333A04293D
:10383300DD3A423BE50E450F6003023B3D850C82BA
:10384300850D83123BB8FAE9FB8A828B83E0850AF4
:1038530082850B83123BEE12196C8A828B83A3E061
:10386300FCA3E0023AC7E50E450F6003023B3D852A
:103873000A82850B837401F0123BCB85088285098C
:1038830083F07C007D008E828F83A3A3A3A3E02417
:1038930001FAA3E03400FB1206E4EA4B60418A829A
:1038A3008B83E02402F8850A82850B83E028F0EA03
:1038B3002404F8EB3400F988828983E08512828539
:1038C3001383123C00123BEE12196C8A828B831213
:1038D300365CE5082403FAE5093400FB023ACC859B
:1038E3000A82850B83E02404F07C047D007900AA1E
:1038F30012AB13120F8A023B97E50E450F600302CA
:103903003B3D123BCBFEA3E0FF850A82850B83740C
:1039130004F0EE850882850983F0EF851282851312
:1039230083F07403121735AC82AD83EEFAEFFB120A
:1039330006E48A0C8B0DEA450D70030239E08A8296
:103943008B83A3A312280E740112173585820E856B
:10395300830F780E12196C74051217351219837CB4
:10396300FF7DFF1206EA74041216FF8B0FEA450F60
:103973007033850C82850D83123BA312196C850C61
:1039830082850D83A31219837C027D007A857B8255
:1039930012051674041216FFE9700A740112173522
:1039A30074FFF0A3F08E828F83E064027039750C8C
:1039B30002750D00780C12196C8E828F8312365C9F
:1039C300E5082404FAE5093400FB120F72740212AD
:1039D30016FF850A82850B83E02402800974011295
:1039E3001735EEF0A3EFF07401121735123BB4F064
:1039F3007401121735A3123BAC023B37E50E450F9A
:103A03006003023B3D850C82850D8312365DAA1649
:103A1300AB17120822850A82850B837402F0EA85AC
:103A23000882850983F0851282851383EB023B3A72
:103A3300E50E450F6003023B3D123BCBF8A3E0F9D3
:103A4300850A82850B837402F0E8850882850983E1
:103A5300F0E9851282851383023B3A850C82850D3A
:103A630083123402120F6CEAFC8C82A882C3950E77
:103A7300E4950F405FE8650E7002E50F70047C006B
:103A83008022851882851983E0FAE50E2AFAE50F6C
:103A93003400FBC3EA98EB94005003E08005E50E85
:103AA300CCC39CFCEC850A82850B83F08C0A750BD6
:103AB30000780A12196C850C82850D83E0250EFCB3
:103AC300A3E0350FFDAA08AB09120F727402121698
:103AD300FF023B97751007023B97E50E450F705A9F
:103AE300850C82850D83123EB5850A82850B83740E
:103AF3000712281A123BAC12281AA3E085128285FA
:103B03001383F0E82402FAE93400FB8A828B8312E0
:103B13003BAC123BDB123BB4A3123BE4123BBDF0C4
:103B2300E82405F8E93400F988828983123BBDA3B0
:103B3300123C00A3A3A3A3F0805A75100B80557405
:103B43001D1217351234021207B68A828B83E5825F
:103B53004583603D123EB5880C890DE8450D603103
:103B6300780E12196C780A12196C780812196C7491
:103B730006121735E0F9EEFCEFFDAA16AB17850C1C
:103B830082850D8312175774061216FFE9F510800C
:103B93000375100EA91074051216FF7F1002182B5F
:103BA300E0F50E750F00780E22E085088285098303
:103BB30022123C0A22123EB9E822123C0AA3A32293
:103BC300E0F508A3E0F50922850C82850D83E0F872
:103BD300A3E0F5838882E022A3A3F08A828B83A3E8
:103BE30022F088828983A3A3A3A322F08A828B83F2
:103BF300123BF722E0F50A750B00780A22F088825F
:103C03008983A3123C0A22E0850882850983A3A342
:103C13002274EE12175974FE1216E98A0A8B0BEC02
:103C2300FAEDFB7414121735E0F510A3E0F51174E7
:103C330016121735E0FE7418121735E0F50EA3E0DF
:103C4300F50F851882851983AC82AD831206E48A49
:103C53000C8B0DEA450D6049851882851983123452
:103C6300021207B68A828B83E5824583602FA3A362
:103C7300123BC3E50845096024780E12196C7810CD
:103C830012196CEEF9AC0CAD0DAA0AAB0B850882C8
:103C930085098312175774041216FF8006790E8064
:103CA30002790102309C74F612175974FE1216E958
:103CB300740C121735123BB8851882851983F0747A
:103CC30001121735E9F0E4F508F509780812196CC3
:103CD300750802780812196C740412173585820866
:103CE300858309780812196C12080A74061216FFE4
:103CF30074021216FF806874F7121759EAFEEBFF7D
:103D030089087C197D03120822EA5402600BA90872
:103D1300EEFAEFFB1206D88002790102271674F639
:103D230012175974FF6A700374FF6B70168C828DBF
:103D330083123D67E4F08C828D83A3A3A3123D67B6
:103D4300A380181207F28A088B09A808A909E84971
:103D5300600D8882898374FF122818A3A3E4F07F7F
:103D63000202182B74FFF0A3F08C828D83A3A3228D
:103D730074F61217591207F28A828B83E582458300
:103D83006006A3A3E0FA80027A007B0080D174F27C
:103D93001217598A088B09ECFEEDFF740E121735C2
:103DA300E0F50A1207F28A0C8B0DA80CA90DE8495D
:103DB3007026EEFCEFFD7AFF7BFF1207F28A0C8B75
:103DC3000DA80CA90DE84970047911801688828921
:103DD30083E508F0A3E509F088828983A3A3E50AB4
:103DE300F079007F0602182B74EE121759EAFEEBE6
:103DF300FF8C088D09890C7414121735123EB574A3
:103E030016121735123402750D00E8496003023E9D
:103E1300A97402650C6003023EA4741212173512D2
:103E23003EBFFCA3E0F9EC2400F50EE439F50FEAFC
:103E3300F4F8EBF4F9EC58F8E50F59F9E849705C3C
:103E4300E5082406F8ED3400F9880A890B8882F521
:103E530083123ECA1208228A108B11E50E65107078
:103E630004E50F65116042780E12196C850A82858C
:103E73000B83123ECA12082874021216FFE9F50DCD
:103E83007027780E12196C850882850983A3A31203
:103E93003EC812084074021216FF800D750D808013
:103EA30008750D0D8003750D0BA90D0235618E820A
:103EB3008F83123EB922E0F8A3E0F922123EB988BB
:103EC300828983E022A3A3E0FCA3E0FDEEFAEFFBEB
:103ED3002274E812175974E71216E98518828519B6
:103EE30083EAF0A3EBF08C168D17890E7508007525
:103EF30009007431121735E0F512A3E0F51374339A
:103F0300121735E0F514A3E0F5157435121735E0F3
:103F1300F50FE50975F003A4F8A9F0851882851952
:103F23008312403EE0F47003A3E0F47003024021E7
:103F3300EE2402F50CEF124034E0700302402185B9
:103F4300160A85170B780A12196CAC14AD15AA1250
:103F5300AB131207AA74021216FF8A0A8B0BEA45E7
:103F63000B7003024021E4F510F511781012196C5F
:103F73007406121735858210858311781012196C17
:103F83007409121735858210858311781012196C04
:103F9300851282851383A3A3A3A31219837914AC77
:103FA3000AAD0B8E828F8312340212080474081236
:103FB30016FFE97069850A82850B83A3A3A3A31265
:103FC3003EB57402121735123670850C82850D8347
:103FD300E0A2E05018A90E7402121735AC82AD832B
:103FE3008E828F831234021206FCE94208850C820A
:103FF300850D83E0A2E15026E50FF50A780A121930
:1040030070A90E7403121735AC82AD838E828F8331
:104013001234021206F674011216FFE9420805096A
:10402300E509C394025003023F15A9087419023B22
:104033009B3400F50D850C82F58322E028FEA3E076
:1040430039FF8E828F832274F2121759EAFEEBFF37
:10405300890B7401650B600E7402650B706A79013C
:10406300120A08E97062EEFAEFFB1207EC8A088B7A
:1040730009EA45096047750A00800B7C177D0079C2
:1040830000120F8A050A9002E6E0F8E50AC3985089
:1040930021E50A75F017A4F8A9F08508828509833C
:1040A300A3A3E028FAA3E039FB8A828B8312296A4F
:1040B30070C985088285098374FFF0A3F07C197D9C
:1040C30003EEFAEFFB12081C023DE674F2121759D5
:1040D3008A088B09ECFEEDFF740E12173512374B6D
:1040E300900CF1E0F4603D7A097B00120F96EA4BE5
:1040F30060328A828B8374B1F0A3E4123BDDA31296
:104103003BDBA3E508F0A3E50912412AEEF0A3EF98
:1041130012412AA3A3E50AF0A3E50BF0900CF1E00A
:10412300F9120FA2023DE6F08A828B83A3A3A3A315
:10413300A322C082C0839061907404F0A37448F0FA
:10414300A37402F09061807440F09061BC7403F03A
:104153009061877419F0906265741BF0906249E076
:10416300C3941390619C400A7409F09060667401D3
:104173008007740DF0906066E4F090619A7433F0F8
:10418300A37455F09061A0743AF090053FE0640188
:104193007009C2919003A6746780059003A67461A9
:1041A300F09026D2E493906186F09026CCE493F4C9
:1041B3006027E493540FF8906185E0686012E5C6C8
:1041C30054804449F5C6E59E547F644970F8E8F08D
:1041D30053C680E59E547F70FA7905120D5602434B
:1041E30063C082C083E5A8F853A87E906181E4F0A0
:1041F300A3F0A3F0C2BA539AFEC289759B00C2C250
:1042030075E90075910075BF0075A91175B9059021
:104213006181F0A374C0F0A3E4F0D2BA439A0174AD
:10422300805842A8024363C082C08374F81216E91F
:104233009003A4E0F8A3E0F9E8497003024358901F
:1042430003A4E0544060237908851882851983AA62
:1042530082AB83120BCA851882851983AA82AB832A
:104263001208B89003A4E054BFF0E05480601079C2
:104273000C7A657B05120BCA9003A4E0547FF0E02F
:10428300A2E0503190619A7433F0A37455F09061B9
:10429300A0743AF090053FE064017009C291900365
:1042A300A6746780059003A67461F01208BE90039C
:1042B300A4E054FEF0E05402603190619A743FF040
:1042C300A3745AF09061A0747FF090053FE06401FD
:1042D3007009D2919003A6747180059003A6746A45
:1042E300F01208BE9003A4E054FDF0E05404601300
:1042F3009026D0E493906186F01208C49003A4E062
:1043030054FBF0E0540860139026D1E49390618647
:10431300F01208C49003A4E054F7F0E054106013C3
:104323009026D2E493906186F01208C49003A4E02F
:1043330054EFF0E05420600A1208C49003A4E05440
:10434300DFF0A3E05401600D120AF21208CA9003D1
:10435300A5E054FEF074081216FF024363F0A3F0C5
:10436300D083D08202011F74EC12175974F4121611
:10437300E9851882851983AC82AD83758382758242
:104383002574041215FC9026D093F460030244F6BE
:10439300907808E0C3940250030244D674041217C1
:1043A30035AC82AD837583817582E874081215FC80
:1043B30085188285198385821285831374041217E5
:1043C30035AC82AD83750EFF750FFF7FFF7E0075E1
:1043D3000C48750D78801574086E700302446A7476
:1043E300096E700302446A740A6E607B850C8285D1
:1043F3000D8378081215A18C828D83A909E50AC95A
:10440300F88810741878081214CFE5104508F8C31B
:10441300E098A3E099850C82850D8378081215A195
:1044230040188C828D83741878081214CFE51045D8
:1044330008F8E0C398F8A3E0801C741878081214F5
:10444300CFE5104508FAE9FB8C828D83E0F8A3E001
:10445300F9EAC398F8EB99F9C3E8950EE9950F507B
:1044630006880E890FEEFF0EE50C2404F50CE50D0E
:104473003400F50DEEC3941350030243DA74FF6561
:104483000E700474FF650F60238F0874027808129E
:1044930016D674482508F58274783509F5837808AB
:1044A3001215A1851282851383E508F0EC2402FC22
:1044B300ED3400FD851282851383A38582128583E3
:1044C30013740C121735E5826C7003E5836D60037A
:1044D3000243C8750801750900780812196C740243
:1044E300121735AC82AD837AB47B0912116A740258
:1044F3001216FF740C1216FF7F0C02182BC082C019
:10450300839061AE7468F0A3746AF090624574FBA3
:10451300F0A304F053F4FD43FE0290053F7401F051
:104523009061A0E0643A90619A70237433F0A374AD
:1045330055F09061A0743AF0740164017009C2915E
:104543009003A6746780289003A674618021743F4A
:10455300F0A3745AF09061A0747FF0740164017049
:1045630009D2919003A6747180059003A6746A0220
:1045730043627F0802182BC082C0839004F1E06479
:1045830001700A9004F6E06004790C80027900025D
:104593004363C082C08375E1F19004F4E0605B146F
:1045A300600914605F14605714705E120B0490046A
:1045B300EAE0F97AEB7B04120CD87AD67BBE7C89CD
:1045C3007D8E120D0E7A557B557C557D00120CE4C1
:1045D3009004F5E0F9120CF07901120D4A9004E809
:1045E300E0F8A3E0C82416F582E83400F583741CD0
:1045F300F0A3740BF07900024363120B0A80AF122D
:104603000B1080AA120B1680A5791280EA74F0129F
:10461300175975D90D9004D5E0A2E0E4331313F8CC
:104623009004EAE0C4333354C0484401F5D978E830
:10463300790488828983A3A3A3E0F5D98882898337
:10464300A3A882A983E864EE7003E9640470E378A5
:10465300D5790488828983A3E0F5D988828983A3E5
:10466300A882A983E864DB7003E9640470E575E15B
:10467300959004D5E0F97AD67B04120CDE900D13E5
:1046830074B6F0A3740AF0A37412F0A3740CF0A32D
:104693007412F0A3740CF0A37412F0A3740CF0A3BF
:1046A30074BCF0A3740AF0A37412F0A3740CF0A307
:1046B30074D4F0A3740AF0900D217412F0A3740C57
:1046C300F0A37412F0A3740CF0A37412F0A3740C8F
:1046D300F0A37412F0A3740CF0A37412F0A3740C7F
:1046E300F0A37412F0A3740CF09004F4E06401904E
:1046F30004E87012E0F8A3E0F5838882A3A37508A9
:10470300007509088010E0F8A3E0F5838882A3A36D
:10471300750804750900750A00750B0078081215F1
:104723001A750CFF750DFF750EFF750F007808796C
:104733000C1215689004E8E0F8A3E0C8240EF58293
:10474300E83400F58378081215B09004E8E0F8A384
:10475300E0C82414F582E83400F5837413F0900361
:10476300A27402F002457574F71217599004FAE027
:104773002407F5D99004EAE0C4333354C0F5D9785B
:10478300E8790488828983A3A3A3E0F5D988828981
:1047930083A3A882A983E864EE7003E9640470E349
:1047A3009004FAE0601F78E87904FAE82413F582AC
:1047B300E93400F583E0F5D988828983A3A882A927
:1047C300831AEA70E690051AE02407F5D99004EA03
:1047D300E0C4333354C04404F5D978E879048882BB
:1047E3008983A3A3A3E0F5D988828983A3A882A997
:1047F30083E864EE7003E9640470E390051AE060F3
:104803001F78E87904FAE82433F582E93400F58364
:10481300E0F5D988828983A3A882A9831AEA70E67E
:1048230075E195900D1374C2F0A3740AF0A374128A
:10483300F0A3740CF0A37412F0A3740CF0A374121D
:10484300F0A3740CF0A374BCF0A3740AF0A3741265
:10485300F0A3740CF0A374D4F0A3740AF0900D21A8
:104863007412F0A3740CF0A37412F0A3740CF0A3ED
:104873007412F0A3740CF0A37412F0A3740CF0A3DD
:104883007412F0A3740CF0A37412F0A3740CF090E0
:1048930004E8E0F8A3E0C8240EF582E83400F583C9
:1048A30074FFF0A3F0A3F0A3F09004E8E0F8A3E012
:1048B300C82414F582E83400F5837412F09003A23F
:1048C3007401F0FF02182B74F71217599004FAE0E1
:1048D3002407F5D99004EAE0C4333354C04402F505
:1048E300D978E8790488828983A3A3A3E0F5D988DA
:1048F300828983A3A882A983E864EE7003E9640430
:1049030070E39004FAE0601F78E87904FAE824136E
:10491300F582E93400F583E0F5D988828983A3A879
:1049230082A9831AEA70E675E195900D1374CEF0AF
:10493300A3740AF0A374CEF0A3740AF0A374CEF0A8
:10494300A3740AF0A374CEF0A3740AF0A374CEF098
:10495300A3740AF0A374CEF0A3740AF0A374D4F082
:10496300A3740AF0900D217412F0A3740CF0A374D5
:1049730012F0A3740CF0A37412F0A3740CF0A374DC
:1049830012F0A3740CF0A37412F0A3740CF0A374CC
:1049930012F0A3740CF09004E8E0F8A3E0C8240E2E
:1049A300F582E83400F58374FFF0A3F0A3F0A3F0DD
:1049B3009004E8E0F8A3E0C82414F582E83400F595
:1049C300837414F09003A27404F0024C9174F712F0
:1049D30017599004FAE02407F5D99004EAE0C433A8
:1049E3003354C04406F5D978E8790488828983A3CF
:1049F300A3A3E0F5D988828983A3A882A983E86465
:104A0300EE7003E9640470E39004FAE0601F78E851
:104A13007904FAE82413F582E93400F583E0F5D943
:104A230088828983A3A882A9831AEA70E690051A6B
:104A3300E02407F5D99004EAE0C4333354C04404B6
:104A4300F5D978E8790488828983A3A3A3E0F5D90B
:104A530088828983A3A882A983E864EE7003E9644A
:104A63000470E390051AE0601F78E87904FAE824FB
:104A730033F582E93400F583E0F5D988828983A38D
:104A8300A882A9831AEA70E675E195900D1374C89C
:104A9300F0A3740AF0A37412F0A3740CF0A37412BD
:104AA300F0A3740CF0A37412F0A3740CF0A37412AB
:104AB300F0A3740CF0A37412F0A3740CF0A374D4D9
:104AC300F0A3740AF0900D217412F0A3740CF0A3F8
:104AD3007412F0A3740CF0A37412F0A3740CF0A37B
:104AE3007412F0A3740CF0A37412F0A3740CF0A36B
:104AF3007412F0A3740CF09004E8E0F8A3E0C82467
:104B03000EF582E83400F58374FFF0A3F0A3F0A35D
:104B1300F09004E8E0F8A3E0C82414F582E8340038
:104B2300F5837415F09003A27403F0024C91C082D4
:104B3300C0839004E8E0F8A3E0C82406F582E834D3
:104B430000F583E402436074F71217599003D0E031
:104B5300F875F003A4C8AAF02AF974D228F87403EC
:104B630039F9E82405FAE93400FB8A828B83E0FCF7
:104B7300A3E0FD88828983A3A3A3A3A3A3A3A3A3E1
:104B8300ECF0A3EDF088828983A3A3A3A3A3A3A33B
:104B9300E024FFF8A3E034FFF98A828B83E8F0A3D3
:104BA300E9F0024C9174F7121759EAFEEBFF90619A
:104BB300D0E06003024C8575D90E75D90375D9040D
:104BC300EE248BF582EF3400F583E5822408F8E5C3
:104BD300833400F9E0F5D9A3E865827003E96583BE
:104BE30070F2EE2483F582EF3400F583E58224042A
:104BF300F8E5833400F9E0F5D9A3E865827003E9A9
:104C0300658370F275E1957908EE248BFAEF340031
:104C1300FB120BBE7904EE2483FAEF3400FB120B74
:104C2300BE7C00EEF8EFF9ECFAC3E49AFA95E0FBE8
:104C3300EE2AFAEF3BFBEA248AF582EB3400F58394
:104C4300E0C0E0E824AAF582E93400F583D0E0F07F
:104C53000C88828983A3A882A983ECC3940840C7E4
:104C6300EE246FF582EF3400F583E0F8A3E0F9EE6C
:104C73002471F582EF3400F583E8F0A3E9F07901BC
:104C8300800279008008F0EEA2E092AF79007F0104
:104C930002182BC082C08375D90275D90375D90553
:104CA30075E195EA246FF582EB3400F583E0F8A310
:104CB300E0F9EA2471F582EB3400F583E8F0A3E927
:104CC300F0790102436374F6121759EAFEEBFF9081
:104CD30005457406F0750845750905780812196CC1
:104CE3007C017903120C0674021216FF75D906753E
:104CF300D903758245758305E0F5D9A3E582644A36
:104D03007004E583640570F075E1959003A2E06497
:104D130008701EEE246FF582EF3400F583E0F8A3EC
:104D2300E0F9EE2471F582EF3400F583E8F0A3E9AE
:104D3300F07901024F9774F6121759EAFEEBFF90D0
:104D430061D0E070667801900545740BF09003A282
:104D5300E064077019750845750905780812196C20
:104D63007C017903120C0674021216FF7805740194
:104D730028F5D975D903758245758305E8FAE0F5F9
:104D8300D9A31AEA70F875E195EE246FF582EF3432
:104D930000F583E0F8A3E0F9EE2471F582EF340027
:104DA300F583E8F0A3E9F0790180027900024F97D7
:104DB30074F7121759EAFEEBFF75D90375D903751A
:104DC300D90DEE24DDF582EF3400F583E0F5D975D6
:104DD300E1957904120D14EE246FF582EF3400F59A
:104DE30083E0F8A3E0F9EE2471F582EF3400F58354
:104DF300E8F0A3E9F07901024C9174F6121759EA2D
:104E0300FEEBFF9061D0E0F87480C398FAEE248241
:104E1300F582EF3400F583E06004780480027800C3
:104E2300E8240BF8EAC3985003024EC27D099005AB
:104E330045EDF0EE24E2F8EF3400F97A467B057C89
:104E43000888828983E08A828B83F088828983A39E
:104E5300A882A9838A828B83A3AA82AB831CEC706A
:104E6300E0EE2482F582EF3400F583E0601D7508DF
:104E730045750905780812196C7C097903EEFAEF78
:104E8300FB120C0674021216FF7D0D74012DF5D969
:104E930075D9037582457583058D08E0F5D9A3158A
:104EA30008E50870F675E1957904120D14EE241DDA
:104EB300F582EF3400F583E4F0A3F0790180027901
:104EC30000024F9774F6121759EAFEEBFF9061D078
:104ED300E0F87480C398FAEE2482F582EF3400F58B
:104EE30083E06004780480027800E82408F8EAC3C9
:104EF300985003024F957806900545740CF0900383
:104F0300BFE0900546F09003C0E0900547F09003A2
:104F1300C1E0900548F09003C2E0900549F090038A
:104F2300C3E090054AF0EE2482F582EF3400F58366
:104F3300E0601B750845750905780812196C7C0635
:104F43007903EEFA120C0674021216FF780A740142
:104F530028F5D975D9037582457583058808E0F569
:104F6300D9A31508E50870F675E1957904120D14B7
:104F7300EE246FF582EF3400F583E0F8A3E0F9EE59
:104F83002471F582EF3400F583E8F0A3E9F07901A9
:104F9300800279007F0202182B74F6121759EAFE79
:104FA300EBFF9061D0E0F87480C398FAEE2482F5A9
:104FB30082EF3400F583E06004780480027800E82F
:104FC3002404F8EAC398500302507678029005450A
:104FD300E8F0EE24F4F582EF3400F583E090054623
:104FE300F0EE2482F582EF3400F583E0601B750850
:104FF30045750905780812196C7C027903EEFA12DB
:105003000C0674021216FF7806740128F5D975D9B7
:10501300037582457583058808E0F5D9A31508E56E
:105023000870F675E195EE2473F582EF3400F5838D
:10503300E4F0EE247FF582EF3400F583E4F0EE2410
:105043001DF582EF3400F583E4F0A3F07904120D2B
:1050530014EE240DF582EF3400F583E0F8A3E0F9B4
:10506300EE2471F582EF3400F583E8F0A3E9F079DB
:105073000180027900024F9774F61217599061D09C
:10508300E0F87480C398FCEA2482F582EB3400F5DF
:1050930083E06004780480027800E82404F8ECC319
:1050A30098405B79029005457407F0EA24F5F58290
:1050B300EB3400F583E0900546F0EA2482F582EBB9
:1050C3003400F583E0601875084575090578081202
:1050D300196C7C0209120C0674021216FF7906740D
:1050E3000129F5D975D903758245758305E9F8E07A
:1050F300F5D9A318E870F875E19579018002790074
:10510300024F9774F5121759E9FCA2AFE433F50A7D
:10511300C2AF7D0080010DEA246EF582EB3400F509
:1051230083E0F8EDC398501A8D08EA2508F8EB34AC
:1051330000F9E8246AF582E93400F583E06C70D65F
:105143008024EA246EF8EB3400F9E0FEEA2EFAEB51
:105153003400FBEA246AF582EB3400F583ECF08833
:10516300828983E004F0E50AA2E092AF7F0302188C
:105173002B74F6121759A2AFE433FDC2AFEA246EC3
:10518300F582EB3400F583E014F07C0060368C0884
:10519300EA2508F8EB3400F9E8246BF582E93400DA
:1051A300F583E0C0E0E8246AF582E93400F583D0B2
:1051B300E0F00CEA246EF582EB3400F583E0F8ECC2
:1051C300C39840CAEA246DF582EB3400F58374FF7B
:1051D300F0EA2469F582EB3400F583E4F0EDA2E014
:1051E30092AF024F97C082C083E5A8F8C2AFEA240A
:1051F3006AF582EB3400F583E9F0EA2469F582EB82
:105203003400F583E4F0E8A2E7A2E792AF02436338
:1052130074F3121759EAFEEBFFECFAEDFB8A828B6B
:1052230083A3A3A3A3E0541FF0EE2436F582EF3447
:1052330000F583E4F0F50AEEFCEFFD8A828B83E050
:10524300C0E0EC245DF582ED3400F583D0E0F07529
:105253000B00E50A33333354F8F50C8A828B83E071
:10526300F508750900E50B78081216B7E508A2E002
:10527300502FEE2436F8EF3400F988828983E0F565
:1052830008EE2508F508EF3400F509E5082438F59C
:1052930082E5093400F583E50CF088828983E00414
:1052A300F0050B050CE50BC3940840AF050A8A8291
:1052B3008B83A3AA82AB838C828D83A3AC82AD83C1
:1052C300E50AC39405500302523E7F0502182B746E
:1052D300F71217599003CEE0640170030254307A39
:1052E300009003D4E060030254307401F0A3E4F0AF
:1052F300A3F090043404F0900439F09003D7E4F061
:10530300A3F0A3F0A3F09003E104F0900407E4F00A
:105313009003EAF0A3F0A3F0A3F0A3F0A3F0A3F0AB
:10532300900451F0900445F090043A7480F0A3E4A3
:10533300F0900440F09004BCF0A3F0A3F0A3F0A31A
:10534300F0A3F0A3F0A3F09004C5F0900454F09000
:1053530004A4F0A3F0A3F0A3F0A3F0A3F0A3F0A39D
:10536300F0A3F0A3F09004B0F09004B2F09004AE78
:10537300F09004C8F0A3F0A3F0A3F0A3F0A3F0A36C
:10538300F0A3F078CE7903E8246EF582E93400F5D2
:105393008374FFF00A88828983A3A882A983EAC35E
:1053A300940440E37ACE7B0378DC79048882898392
:1053B300E0C0E0EA2461F582EB3400F583D0E0F04D
:1053C30088828983A3A882A9838A828B83A3AA82E2
:1053D300AB83E864E17003E9640470D07ACE7B03A5
:1053E30078B5790388828983A3E0C0E0EA24E6F5EF
:1053F30082EB3400F583D0E0F088828983A3A8820E
:10540300A9838A828B83A3AA82AB83E864BD7003DA
:10541300E9640370CF9003CEE004F0640170089058
:1054230003D6E09003D0F07AD27B0380047A007B2A
:1054330000024C91C082C0839003D5E4F09003D462
:10544300F09003CEF0A3F0A374FFF075E1F10243F3
:1054530063C082C083780079009003D5E06004784C
:10546300D2790388828983A3A3A3A3E0F9024363C8
:1054730074F6121759EAFEEBFFEE2463F582EF345C
:1054830000F583E0F8A3E0F9E8497003025518EE4C
:105493002463F8EF3400F97A007B00A2AFE433F51C
:1054A30008C2AF88828983E0FCA3E0FDEC4D603A3B
:1054B30088828983E0FAA3E0FB8A828B83E0FCA3E2
:1054C300E0FD88828983ECF0A3EDF08A828B83E48C
:1054D300F0A3F088828983E0FCA3E0FDEC4D700A21
:1054E30088828983A3A3E4F0A3F0E508A2E092AF46
:1054F3001212429004E2E004F09004E3E004F0EEC0
:105503002463F582EF3400F583E0F8A3E0F9E8497A
:1055130060030254928E828F83A3A3A3E0600F8E55
:10552300828F83A3A3A3E4F09003CFE014F090034E
:10553300CEE014F070069003D074FFF08E828F8358
:10554300A3A3E4F09004E1E0700D9003CFE06401C5
:1055530070057900120CF6EEFAEFFB120C36024FCF
:105563009774F7121759EAFEEBFF8E828F83A3A37A
:10557300A3A3E0FA7B0012090CEEFAEFFB120B88EF
:10558300120C1E024C91C082C08378B579038882C5
:105593008983A3E4F088828983A3A882A983E8642A
:1055A300BD7003E9640370E69003B67401024362BD
:1055B30074F6121759EAFEEBFFEC2403F8ED3400FE
:1055C300F988088909EC2407F8ED3400F9E8FCE9C7
:1055D300FD8C828D83E0F8A3E0F985088285098339
:1055E300E0FAA3E0FB12165EEE240DF582EF340021
:1055F300F583E8F0A3E9F08C828D83E0F8A3E0F96A
:10560300850882850983E0FAA3E0FB12165E8B0905
:10561300EA45096013EE240DF582EF3400F583E0CB
:105623002401F0A3E03400F0024F9774F6121759E7
:10563300EAFEEBFFEE242EF582EF3400F583E0FC67
:10564300A3E0FD780079FAECFAEDFB12165EEE2486
:105653006FF582EF3400F583E8F0A3E9F078007981
:10566300FAECFAEDFB12165E8B09EA45096013EEBC
:10567300246FF582EF3400F583E02401F0A3E034D6
:1056830000F0024F9774EC121759EAFEEBFF741403
:1056930012173578081215A1120CBA8A0C8B0D8CCF
:1056A3000E8D0F75100275110075120075130078B9
:1056B3000C79101215077510FF7511FF7512FF781D
:1056C3000C7910121568780C1219688E828F83E09A
:1056D300F8A3E0F5838882A3A31215BF1223757480
:1056E300041216FFE960030257EC8E828F83E024D5
:1056F30002F8A3E03400F9E8FAE9FB8A828B8378A5
:105703000812152D8A828B837508FF7509FF750AA8
:10571300FF750B00780812158EEE240BF582EF341B
:1057230000F583C082C0838E828F83A3A3A3A3A328
:10573300E02401F8A3E03400F9D083D082E068705C
:1057430003A3E069700579010257EE8E828F83A36C
:10575300A3A3A3A3A3A3E02401F0A3E03400F0EEEA
:105763002473F582EF3400F583E064017036EE2490
:1057730074F582EF3400F583E0F8A3E0F98E828FAD
:1057830083A3A3A3A3A3A3A3E0687003A3E0697007
:1057930013EE2474F582EF3400F583E02401F0A3C3
:1057A300E03400F0EE247FF582EF3400F583E0640B
:1057B300017036EE2480F582EF3400F583E0F8A320
:1057C300E0F98E828F83A3A3A3A3A3A3A3E06870AE
:1057D30003A3E0697013EE2480F582EF3400F583B0
:1057E300E02401F0A3E03400F079000244FB74F6F6
:1057F300121759E9FEECFFEA2462F582EB3400F557
:1058030083E06401600302589A9061D0E0F508EAEE
:105813002482F582EB3400F583E06004780480028F
:1058230078007480C39508FC95E0FDEF28F8E43414
:1058330000F9E82402F8E93400F9EC98ED99A2D2D2
:1058430065D033404E740A121735E0F508A3E0F52E
:1058530009EA2482F582EB3400F583E060157808C9
:1058630012196CEFFCEEF9120C0674021216FF7497
:10587300042FFF74012FF5D98ED9EF600F850882AD
:10588300850983F8E0F5D9A318E870F875E19579EF
:105893000080067907800279FF024F9774F7121789
:1058A30059A2AFE433FEC2AF8A828B83E0F8A3E050
:1058B300F9E8498A828B83600AA3A3E0F8A3E0F5A1
:1058C300838882ECF0A3EDF08A828B83A3A3ECF0B0
:1058D300A3EDF08C828D83E4F0A3024C8974F7125C
:1058E3001759E96021F88C828D83E08A828B83F0DB
:1058F3008C828D83A3AC82AD838A828B83A3AA829D
:10590300AB8318E870E0ECFAEDFB024C9174F412EF
:105913001759907803E064427055900544E014F001
:10592300704DC2AF12592A00782AD0E0F618D0E0A1
:10593300F6E59F540770057509FF800375097FC459
:10594300C0E07829E6F50808E65509F509740B78EF
:10595300081216C7D0E02508F8906270E0A2E7406D
:10596300F8E8C333906272F0906270E0D2E0F09096
:1059730003D0E0F47003025D0AE0F875F003A4C8F5
:10598300AAF02AF974D228FE740339FFEE2401F534
:1059930082EF3401F583E0F8A3E0F9E849601EEEF5
:1059A3002401F582EF3401F583E0FAA3E0FBEE2452
:1059B30000F582EF3401F583E0F9120FC68E828F72
:1059C30083A3A3A3A3A3A3A3E0F8A3E0F98E828FE9
:1059D30083A3A3A3A3A3E8F0A3E9F0906054E0900A
:1059E30003A9F0906055E09003AAF0906056E09010
:1059F30003ABF0906057E09003ACF0906058E090F8
:105A030003ADF0906059E09003AEF090605AE090DF
:105A130003AFF090605BE09003B0F090605CE0FC5B
:105A23009003B1F090605DE0FB9003B2F090605E94
:105A3300E0FD9003B3F090605FE0FA9003B4F09060
:105A430003AFE08C082508F8E43400F98D08E82555
:105A530008F8E93400F98B08E82508F8E93400F977
:105A63008A08E82508FAE93400FBEE24F6F582EF0C
:105A73003400F583E02AF0A3E03BF08C08EE24F831
:105A8300F582EF3400F583E02508F0A3E03400F05D
:105A9300EE24FAF582EF3400F583E02401F0A3E06D
:105AA3003400F0EE24FEF582EF3400F583E0F8A332
:105AB300E0F9E8496042906000E0C333FCE433FD61
:105AC300E82CF582E93DF583E02AF0A3E03BF09072
:105AD3006000E0FA9003B1E0FCEAC333FAE433FB7D
:105AE300E82AF8E93BF9E8244AF582E93400F5832A
:105AF300E02CF0A3E03400F09003AFE070119003CA
:105B0300B2E0700BA3E07007A3E07003025C078EA2
:105B1300828F83A3A3A3A3A3E0F8A3E0F9EE240D4C
:105B2300F582EF3400F583E028F8A3E039F9EE2499
