:020000040000FA
:0600000002010702218C41
:03002B00022601A9
:030033000225E3C0
:03003B0002262278
:03004300022597FC
:0300530002220284
:03006B000225BDAE
:1000830002203BE5C754F84401F5C779012200007B
:100093000080FB120086B900030200F1E4792178A5
:1000A30008B800028004F709D8FCE479297802B87B
:1000B30000028004F709D8FCE490028178B7790C38
:1000C3008002F0A3D8FCD9FA7A377B0E90013778F7
:1000D3000879048015E493A3AD82AE838A828B836F
:1000E300F0A3AA82AB838D828E83D8E9D9E7758288
:1000F300A07583FF740212011975829175830074D0
:100103000012011975D00075813F751881751902A8
:10011300759F00020096C09FF59FE473D09F22D085
:1001230083D082C09FE493C0E0740193C0E0740263
:1001330093F59F2234054005FF0000B4000028001A
:100143002800283075A000A000A000A0000008002F
:1001530008E001F000100010001000100010001063
:100163000050005000500010001000D007000000A5
:100173000000000F000100050030750700100001AA
:100183000081FF00000000FF780696067E06FF024E
:10019300020208025000A0000000E80302F69001EA
:1001A3000000E59002F290010000920E0206910118
:1001B3000000B80202F290010000930E020E9101BA
:1001C3000000CE0202F290010000940E020A910197
:1001D3000000D00202F290010000950E02FE90088A
:1001E3000000D10202F290010000960E02FC900181
:1001F3000000970EFF0100FF2002F690010000DFD0
:100203009002F290010000FB0E02EE90000000004D
:100213000002F0900300001E03DE0CDE0CDE0CDE99
:100223000CDE0CDE0CDE0CDE0CDE0CDE0CDE0CDE7B
:100233000CDE0C02101A10FC0FFFFF020202020276
:1002430002020202010D000000100102F6900100FB
:1002530000EB9002F2900100003E0F0214910100A6
:1002630000B60702F2900100003F0F021291010055
:1002730000219002F290010000400F021091010052
:1002830000139002F290010000410F020C91010053
:1002930000398F02F290010000420F020891010021
:1002A30000938F02F290010000430F0204910100BA
:1002B30000818F02F290010000440F0202910100BD
:1002C300006F8F02F290010000450F0200910100C0
:1002D30000F78F02F290010000460F02189101000F
:1002E30000470F01E803053F100AFF0001307503C3
:1002F30002010600000000000000000000000000F2
:10030300000000000000000000000000000000FFEB
:10031300FF0600800CE803140953696D706C654295
:100323004C455065726970686572616C05125000C6
:100333002003020A000201060302F0FF53696D70F5
:100343006C6520424C452050657269706865726126
:100353006CB8140000DC14BE140A43686172616354
:100363007465726973746963203100024368617252
:10037300616374657269737469632032000843684A
:100383006172616374657269737469632033001009
:10039300436861726163746572697374696320345D
:1003A300000243686172616374657269737469639F
:1003B30020350002F690010000E89002F29001005F
:1003C300005C10021C91030000280E02269101001C
:1003D300005D1002F2900100006E10021E910100F8
:1003E30000290E0226910100006F1002F290010015
:1003F3000080100220910200002A0E0226910100C3
:1004030000811002F290010000921002229100007C
:10041300002B0E02F0900300002C0E022691010027
:1004230000931002F290010000A410022491040032
:1004330000320E022691010000A51012012219AD0F
:100443000312012230AD0312012261AD0312012216
:100453009CAD03120122C6AD03120122F0AD0312BB
:10046300012207AE031201221EAE0312012235AE92
:10047300031201225EAE0312012271AE03120122A6
:1004830087AE031201229AAE03120122C1AE0312F8
:100493000122F39802120122F799021201222F9AE4
:1004A30002120122529A021201225D9A02120122C1
:1004B300809A021201228F9B02120122649C021273
:1004C3000122DF9C02120122679D02120122A29DDA
:1004D30002120122D99D02120122679E02120122F9
:1004E300409F02120122A09F02120122AB9F02121F
:1004F30001222AA0021201222DA00212012230A001
:1005030002120122BFA002120122C2A00212012282
:10051300F2A0021201221CA1021201220AA202125B
:100523000122BCA20212012270B6021201226DB78F
:1005330002120122EFB70212012237B8021201227E
:100543009BB80212012228B902120122E2B9021257
:100553000122F1BC021201227CBE021201229FBEC3
:1005630002120122C98403120122F184031201221F
:100573001F8503120122568503120122B48503123B
:100583000122FF85031201224A86031201228A8671
:1005930003120122D08603120122FE8603120122D6
:1005A300BB8703120122C58703120122D2870312DC
:1005B3000122058803120122D18803120122DD885A
:1005C30003120122F58803120122FF88031201227C
:1005D3001CBA031201222ABA0312012242BA0312DD
:1005E30001225ABA031201223BD401120122E7D499
:1005F3000112012262D50112012283D601120122C6
:10060300BFD60112012268D7011201224FD801126D
:100613000122B3D9011201220ADA011201228BDA73
:10062300011201227BDB01120122C8DB011201222C
:100633004EDC0112012280DC0112012294DE011240
:100643000122D6DE01120122F4DE0112012277DF3C
:10065300011201224BE00112012213E101120122D6
:10066300A3D70212012276D8021201221FD9021245
:10067300012272D90212012222DA02120122AEDA17
:10068300021201229ADB02120122C9DB02120122A9
:10069300DCDC0212012224DD02120122F9DD021246
:1006A300012235DE0212012251DE0212012278BD3F
:1006B30003120122FDFB0212012213FC021201228A
:1006C30039FC0212012255FD021201225FFD0212C2
:1006D300012294FE021201228CFF0212012296FFD4
:1006E30002120122DEF1021201220EF30212012292
:1006F30041F3021201228BF30212012252F502127C
:10070300012251B501120122BBB5011201221AB710
:10071300011201222AB70112012257B70112012245
:10072300AEB70112012257B8011201225EB90112BC
:10073300012228BA0112012288BB01120122CBBB7C
:100743000112012270BC01120122BDBC011201225F
:10075300E3BC01120122F1BE01120122F6BE011215
:100763000122FBC00112012248C101120122BBC1B7
:1007730001120122EEC10112012290C201120122D3
:1007830039C30112012271C30112012274C3011280
:100793000122BCC301120122FCC30112012253C472
:1007A300011201221AA60312012232A60312012208
:1007B3007AA60312012290A603120122D7A60312DE
:1007C3000122EBA70312012278A803120122C3A876
:1007D30003120122942600120122A02600120122F4
:1007E300DB2600120122202700120122E02700123B
:1007F3000122662800120122CB2800120122F728C9
:10080300001201223029001201226E2B0012012254
:10081300522D00120122382F001201227B300012C8
:100823000122C93200120122DB33001201222635D4
:100833000012012236360012012253360012012221
:100843008E3600120122B036001201221337001235
:100853000122D43B00120122693C00120122BA3C5E
:1008630000120122E13C00120122333D0012012259
:10087300513D00120122AB3D00120122943E0012B1
:1008830001220A40001201228E400012012205F7C4
:10089300021201220FF70212012252F70212012261
:1008A3006DF702120122FDF70212012225F802124E
:1008B300012262F80212012299F802120122C2F8FF
:1008C3000212012237F9021201224CF9021201220B
:1008D30061F90212012283F902120122CCF90212F8
:1008E3000122E1F902120122F5F9021201221AFA98
:1008F3000212012254FA0212012280FA0212012288
:10090300C9FA0212012237FB0212012280FB0212F2
:100913000122AAFB02120122D5FB0212012217B601
:100923000312012240C5011201226EC501120122E8
:10093300BCC6011201229CC701120122BBC70112CE
:10094300012238C8011201227BC801120122D1C938
:100953000112012281CA01120122BACC0112012221
:1009630041CF01120122E2CF01120122D8D001129C
:100973000122D5D1011201222FD301120122BAD3B0
:10098300011201228DB303120122F6B303120122D5
:100993004AB40312012271B403120122A2B4031256
:1009A3000122868903120122F389031201223A8A62
:1009B30003120122528B031201224E8C03120122D5
:1009C300318D03120122CABF021201220CC002128E
:1009D3000122DEC002120122B7C102120122B1C2FA
:1009E3000212012293C302120122FCC3021201224A
:1009F300B2C40212012226C50212012292C50212BA
:100A03000122BBC50212012235C602120122CEC643
:100A13000212012233C70212012248C70212012225
:100A23008EC702120122A7C7021201220CC80212AA
:100A330001220FC80212012221A30312012249A39A
:100A43000312012287A30312012245A403120122E8
:100A5300ACA403120122C8A403120122F0A40312BE
:100A6300012220A5031201222FA503120122ACA506
:100A730003120122D2A503120122316A00120122BC
:100A8300026C00120122136E001201224F6E00123B
:100A930001227C6E00120122656F00120122AC6FED
:100AA30000120122ED6F00120122FF6F00120122DA
:100AB3003F70001201226C7000120122B770001205
:100AC3000122FE70001201222C71001201227E719C
:100AD300001201220E7200120122AB7400120122D5
:100AE300C6760012012204770012012279780012DF
:100AF3000122BE7800120122A27900120122A97BF1
:100B030000120122207C001201226A7C00120122C1
:100B13009A7C00120122F7AC0212012276AD021276
:100B2300012238B30212012247B402120122AFB5E7
:100B33000212012246B602120122F54000120122DE
:100B43003E41001201226B41001201229E4100121C
:100B53000122AB4100120122B74100120122C94117
:100B630000120122B042001201220E4300120122A0
:100B7300434300120122864400120122D34400128F
:100B830001220945001201227545001201221E4669
:100B930000120122CC46001201222A470012012230
:100BA3009A4700120122FA470012012265490012F6
:100BB3000122724900120122BD49001201221A4A80
:100BC30000120122D94A00120122064B001201220F
:100BD3007E4B00120122DA4B00120122244C001238
:100BE3000122BA4C00120122854D001201223A4E15
:100BF30000120122AF4E001201220A4F00120122FD
:100C03007A4F00120122A54F001201224750001211
:100C13000122575100120122975100120122B451AF
:100C230000120122D351001201221A520012012292
:100C33003F5200120122755200120122EF5200129C
:100C43000122305300120122545400120122FB549A
:100C530000120122525500120122BC55001201223A
:100C6300D555001201222DA30212012280A30212E4
:100C730001228CA30212012261A40212012288A480
:100C830002120122C3A4021201222FA50212012281
:100C93006BA502120122A4A502120122BCA5021215
:100CA300012211A6021201222AA60212012273A610
:100CB3000212012286A602120122A0A6021201221A
:100CC300B6A602120122E9A70212012230A90212DA
:100CD300012232AA021201222CAB02120122FC7F52
:100CE30000120122008003120122968003120122C6
:100CF3004D81031201227781031201226A830312B9
:100D030001229284031201222891011201225C9193
:100D130001120122469A011201229A9B0112012219
:100D2300939C01120122139E01120122F59E0112CE
:100D330001222F9F01120122529F01120122949F2F
:100D4300011201229D9F01120122E79F011201223C
:100D5300F19F011201229BA00112012274A1011231
:100D63000122C8A1011201222AA2011201227DA29D
:100D730001120122ACA201120122E9A201120122F5
:100D8300C4A3011201222BA70112012231A70112D0
:100D93000122B3AC011201222CB10112012202B5CE
:100DA30001120122B59C031201222B9D0312012281
:100DB300419D03120122829D03120122BC9D031255
:100DC3000122359E03120122709E03120122E39E2B
:100DD30003120122219F031201222A9F03120122DF
:100DE300369F03120122529F031201227D9F031299
:100DF3000122939F03120122D79F03120122ABE525
:100E030002120122BEE502120122D8E502120122DA
:100E130001E60212012244E60212012283E60212D3
:100E23000122C1E60212012226E7021201223BE758
:100E33000212012246E70212012253E702120122A3
:100E43006AE70212012278E70212012287E70212FF
:100E530001229CE702120122B1E702120122BCE740
:100E630002120122C8E702120122DBE70212012269
:100E7300E6E70212012209E802120122B0E8021297
:100E83000122C0E802120122D5E802120122EFE892
:100E9300021201220AE90212012227E902120122A7
:100EA30032E902120122EEE902120122DAEA021207
:100EB3000122FFEA021201220AEB021201221FEBB6
:100EC3000212012233EB0212012294EB02120122DD
:100ED3009AEB02120122A0EB02120122A6EB0212EC
:100EE3000122BEEB02120122F1EB021201229DF15B
:100EF3000112012221F201120122D0F20112012278
:100F03002FF40112012250F6011201223CF70112C3
:100F1300012271F70112012293F70112012242F813
:100F2300011201223AFA0112012263FA011201228B
:100F3300F5FA0112012227FB0112012234FB0112EF
:100F430001228BFB01120122B1FB011201221EFEC1
:100F53000112012221FF0112012279FF0112012254
:100F63002CE30112012236E4011201221DE50112D4
:100F7300012227E50112012249E50112012255E56B
:100F830001120122EEE6011201221DE701120122E4
:100F930039E80112012292E801120122F8E9011253
:100FA3000122D7EA0112012233EB01120122A0EB45
:100FB30001120122DBEB011201221AEC01120122C0
:100FC300D3EE01120122EDEE0112012279EF01129B
:100FD300012287EF01120122E0EF01120122EEEF5D
:100FE3000112012261F001120122C5F00112012256
:100FF3000FF101120122C58D02120122E78D0212A7
:1010030001220D90021201222293021201223A942C
:1010130002120122ED9402120122CF950212012243
:10102300D3AE03120122F8AE031201226AAF0312F8
:10103300012229D00212012232D0021201223BD016
:101043000212012212D102120122C3D20212012280
:10105300F9D20212012233D30212012269D30212FE
:101063000122A3D302120122D7D30212012203D4F5
:10107300021201224CD40212012286D4021201224E
:10108300CFD40212012227D5021201225CD502120B
:101093000122B7D502120122F1D50212012242D652
:1010A3000212012278D602120122B2D602120122C2
:1010B300E0D60212012203D702120122A9BB0312B6
:1010C3000122D5BB0312012230BC031201223ABC18
:1010D300031201224ABC031201226EEC0212012206
:1010E30078EC02120122B6EC02120122FFEC02128A
:1010F300012239ED021201228FED02120122B0ED1D
:1011030002120122B9ED0212012204EE021201229F
:101113002DEE0212012237EE02120122A3EE021279
:10112300012239EF0212012283EF02120122B3EFEF
:10113300021201223CF0021201227CF0021201226F
:10114300B4F002120122C6F002120122E5F00212EB
:101153000122EEF002120122B4F10212012234B88C
:10116300031201222AAB0312012260AB03120122F4
:1011730096AB03120122DFAC03120122FCBD031262
:10118300012212BE031201221CBE03120122CEBE93
:1011930003120122F38D03120122088E031201228E
:1011A300BB8E03120122FB8E03120122148F031242
:1011B3000122488F03120122958F03120122C98F46
:1011C300031201220B900312012207920312012240
:1011D3002BB90312012254B9031201227DB9031260
:1011E300012295B903120122D7B903120122307DDE
:1011F30000120122557D001201227F7D001201227F
:1012030066BE031201220756001201226B58001218
:1012130001221C5A001201221E5B00120122A75B4D
:10122300001201222B5C00120122505C00120122E9
:10123300895F00120122FD5F00120122EE6000129D
:1012430001222861001201226861001201221B633E
:10125300001201226E6300120122B7630012012201
:101263002564001201225764001201226F640012E8
:101273000122846500120122946500120122AF66E7
:1012830000120122D1660012012207670012012217
:10129300AB6800120122EA68001201220C6A0012F4
:1012A3000122F3BA0312012204BB0312012232BF4B
:1012B3000312012271BF0312012299BF03120122FB
:1012C30054BC0312012264BC031201227FBC03122B
:1012D3000122E7BC0312012230B703120122B5B782
:1012E300031201221BB80312012215B203120122B9
:1012F3003EB203120122A9B203120122FAB203126F
:10130300012253B303120122E8B403120122FDB4F4
:101313000312012271B5031201228BB503120122BC
:10132300A2B503120122B5B503120122CDB50312F2
:101333000122E2B5031201221492031201222B921D
:1013430003120122A49203120122799303120122B0
:101353004B9503120122469903120122D6990312D7
:101363000122549A03120122DD9A03120122729B75
:1013730003120122FC9B03120122069C0312012289
:10138300159C031201222B9C031201223E9C031283
:1013930001229E9C03120122B29C03120122F1BC82
:1013A300031201225BBD031201226DBD0312012250
:1013B30078B003120122C8B00312012251B1031203
:1013C3000122B7B103120122EDA80312012217A9CA
:1013D30003120122DDA903120122B8AA031201227A
:1013E30033C802120122F0C8021201222BC90212D1
:1013F300012253C902120122B5C90212012201CAF4
:101403000212012261CA02120122F4CA021201224B
:10141300F3CB0212012282CD0212012205CE021267
:1014230001226CCE0212012283CE021201228DCF41
:1014330002120122CBCF02120122008002120122EA
:101443006F8302120122EB840212012245850212EC
:101453000122648502120122E285021201224F87D2
:10146300021201223A8802120122078C021201227F
:10147300E58C02120122888D0212012207A00312B9
:10148300012236A0031201224CA00312012294A0D0
:1014930003120122D6A00312012241A10312012249
:1014A30018A2031201229CA203120122C6DE021219
:1014B300012223E102120122C2E1021201229FE270
:1014C30002120122C8E20212012239E302120122AE
:1014D3007FE30212012297E30212012256E4021271
:1014E3000122B09503120122F595031201221296EF
:1014F30003120122C896031201221B970312012231
:10150300F997031201220D9903120122C7FF011259
:1015130001227BBF03E066701008A3E066700A082F
:10152300A3E066700408A3E06622C3E7960809E710
:10153300960809E7960809E79622C3E09608A3E010
:101543009608A3E09608A3E09622C008C3E096F5A8
:101553000808A3E096420808A3E096420808A3E01F
:101563009645087001D3D00822080808EAC0E0EBCA
:10157300C0E086F0E7A4FA180986F0E7A42AFA186F
:101583000986F0E7A42AFA180986F0E7A42AFA19CB
:1015930086F0E7A4FBE5F02AFA190886F0E7A42B06
:1015A300FBE5F03AFA190886F0E7A42BFBE5F03ADD
:1015B300FA18180986F0E7A4C5F02BFBE43AFA19E8
:1015C30008E7C5F0C6A426F6E5F03BFBE43AFA18B3
:1015D30086F0E7A4F6E5F00826F6E43B08F6E43ADD
:1015E30008F6D0E0FBD0E0FA22E4CFC0E0E4CEC0BE
:1015F300E0E4CDC0E0E4CCC0E075F020E626F608D8
:10160300E633F608E633F608E633F6181818EC3333
:10161300FCED33FDEE33FEEF33FFC3EC9709ED979B
:1016230009EE9709EF97191919400FFFEC97FC0979
:10163300ED97FD09EE97FE191906D5F0BFECF709F2
:10164300EDF709EEF709EFF7191919D0E0FCD0E02F
:10165300FDD0E0FED0E0FF226016080808C6C313E1
:10166300C618C613C618C613C618C613C6D5E0EAED
:10167300227009080808226016181818C6C333C652
:1016830008C633C608C633C608C633C6D5E0EA2241
:10169300E627F60809E637F60809E637F60809E605
:1016A30037F622E026F608A3E036F608A3E036F67E
:1016B30008A3E036F622E026F008A3E036F008A3FC
:1016C300E036F008A3E036F022C3E697F60809E611
:1016D30097F60809E697F60809E697F622C3E09617
:1016E300F008A3E096F008A3E096F008A3E096F0D4
:1016F30022E056F608A3E056F608A3E056F608A340
:10170300E056F622E056F008A3E056F008A3E056B0
:10171300F008A3E056F022E0F608A3E0F608A3E001
:10172300F608A3E0F622E6F008A3E6F008A3E6F045
:1017330008A3E6F022E0FAA3E0FBA3E0FCA3E0FDAC
:1017430022EAF0A3EBF0A3ECF0A3EDF022E0F8A380
:10175300E0F9A3E0FAA3E0FB22E8F0A3E9F0A3EAAF
:10176300F0A3EBF022CAC0E0E6F0A308DAFAD0E077
:10177300FA22CAC0E0E0A3C582CCC582C583CDC529
:1017830083F0A3C582CCC582C583CDC583DAE6D0F9
:10179300E0CA22C3E498F8E499F91217D78026C364
:1017A300E49AFAE49BFBE920E7E91217D7E498F8F7
:1017B300E499F922C3E498F8E499F91217D7E49865
:1017C300F8E499F9C3E49AFAE49BFB22EB20E7CF10
:1017D300E920E7E0B90010BB0008E88AF084F8AA22
:1017E300F022E4FBC8FA22EB70227B10C833C8C98D
:1017F30033C9335007C39AC3DBF280069A50012AD8
:10180300DBEAC833F4C8C933F4C9FA2275F008E433
:10181300C833C8C933C933C99AC99B5004C92AC933
:101823003BD5F0ECFBC833F4C8E4C9FA22600D08D9
:10183300C6A2E713C618C613C6D5E0F322600C0888
:10184300C6C313C618C613C6D5E0F42270042260BB
:101853000D18C6C333C608C633C6D5E0F41822250F
:101863001810AF08F518400C15198008F518400238
:101873001519D2AF2200C0D0251810AF08F51850A3
:101883000C05198008F51850020519D2AFD0D022E3
:101893002518F58210AF08F518400C15198008F5C6
:1018A3001840021519D2AF851983222518F582E451
:1018B3003519F583222518F8E43519F9222518FA84
:1018C300E43519FB222518FCE43519FD22E47325C0
:1018D30018C582C0E0E51934FFC583C0E0E518C32D
:1018E300958224F810AF08858319858218800885AE
:1018F3008319858218D2AFCEF0A3E520F0A3780830
:10190300E608F0A3DEFAEFF0A3E58124FAF8E6088F
:10191300F0A3E608F0A3E608F0A30808E608F0A39E
:10192300E608F0A315811581D0E0FED0E0F815811B
:1019330015811581E8C0E0EEC0E0222518C582C0FC
:10194300E0E51934FFC583C0E0E518C3958224F9A7
:1019530010AF0885831985821880088583198582CD
:1019630018D2AFCEF0A3E520F0A37808E608F0A3E1
:10197300DEFAEFF0A3E58124FBF8E608F0A3E6081E
:10198300F0A30808E608F0A3E608F0A31581158183
:10199300D0E0FED0E0F815811581E8C0E0EEC0E0AC
:1019A30022851983851882E0A3FEE0A3F520780839
:1019B300E0A3F608DFFAE0A3FFE0A3C0E0E0A3C0E2
:1019C300E0E0A3C0E0E0A3C0E0E0A3C0E010AF0804
:1019D3008582188583198008858218858319D2AF7B
:1019E300D083D08202011F851983851882E0A3FE6C
:1019F300E0A3F5207808E0A3F608DFFAE0A3FFE010
:101A0300A3C0E0E0A3C0E0E0A3C0E0E0A3C0E01017
:101A1300AF08858218858319800885821885831904
:101A2300D2AFD083D08222C0D02518C582C0E0E5D2
:101A33001934FFC583C0E0E518C3958224F310AFC2
:101A4300088583198582188008858319858218D2B1
:101A5300AFC8F0A3E9F0A3EAF0A3EBF0A37908E79A
:101A630009F0A3D8FAECF0A3EDF0A3EEF0A3EFF0A6
:101A7300A3D0E0F0A3D0E0F0A3D0E0F0A3E520F002
:101A8300A3E5F0F0A322851983851882E0C0E0A3C3
:101A9300E0F9A3E0FAA3E0FBA37808E0F608A3DFEC
:101AA300FAE0FCA3E0FDA3E0FEA3E0FFA3E0C0E0B7
:101AB300A3E0C0E0A3E0F5D0A3E0F520A3E0A3F505
:101AC300F010AF08858319858218800885831985EE
:101AD3008218D2AFD082D083D0E0F8D0E032740441
:101AE3008006740280027401C0E0F404121893D0DB
:101AF300E0121768227404800474028000CCC0E0F2
:101B0300EDC0E0E518C39CCCAD1950011D10AF0624
:101B13008C188D1980068C188D19D2AF121775D0B9
:101B2300E0FDD0E0FC22D083D082E9C0E0E493A3BF
:101B3300C386F0C5F095F0F908E493A386F0C5F0E9
:101B430095F0700BE493A3C3994005E9048002A3C5
:101B5300E475F002A42582F582E5F03583F583D0A0
:101B6300E0F9E493A3C0E0E493C0E022D083D08201
:101B7300ECC0E0EDC0E0E493A3FCE493A3FDED4CE3
:101B8300600D121BBBEC24FFFCED34FFFD80EFE482
:101B930093A3FCE493A3FDED4C600D121BFAEC241C
:101BA300FFFCED34FFFD80EFD0E0FDD0E0FCE493DB
:101BB300A3C0E0E493C0E022C0E0C3E493960874BA
:101BC30001939618400FE4936670080874019366B6
:101BD3001870007019A3A3C3E49396087401939635
:101BE30018A3A3400DD0E0D0E0D0E0021BABA3A329
:101BF300A3A3A3A3D0E022C0E0C0F088F0E49366DF
:101C030070080874019366187000A8F0A3A3700B02
:101C1300D0F0D0E0D0E0D0E0021BABA3A3D0F0D053
:021C2300E022BD
:101C280074F512193EEAFEEBFFEE2434F8EF3400A7
:101C3800F988088909EE2435121D54F8EE24371264
:101C48001D54F50AEC850AF0A4FCAAF0850AF0ED0B
:101C5800A42AFDE82CF8E43DF97A257B001217D771
:101C6800EA850882850983F074075AF87401B80078
:101C7800028004C333D8FCFBEA131313541FF8EE95
:101C880028F8EF3400F9E8245DF582E9121D575B66
:101C98006003EA801CEE2436121D54F5F0EA84A88D
:101CA800F0EE28F8EF3400F9E82438F582E9121D3F
:101CB80057F97F040219EA74F512193EEAFEEBFFA0
:101CC800EE2434121D54C0E0EE2435F582EF3400C2
:101CD800F583D0E0F08E828F83A3A3A3A3A3E0FAB9
:101CE800A3E0FB8E828F83A3A3A3A3A3A3A3E0FCFB
:101CF800A3E0FDECC39AF50AED9BF50BEE247FF506
:101D080008EF3400F509850882F583E06401702B3B
:101D1800EE2480F582EF3400F583121AFC121D5D63
:101D28007402121878E960137CE17D04EEFAEFFB87
:101D3800120C06850882850983E4F0AC0AAD0BEE27
:101D4800FAEFFB121C28122583021CBAF582EF3425
:101D580000F583E022C082C083851882851983E05C
:101D6800F8A3E0F9C3EA9CEB9D5010C3EC98ED99F9
:101D7800401BC3EA98EB995014800EC3EA98EB997C
:101D88004007C3EC98ED994004790180027900D0AE
:101D980083D08222EAC39CFAEB9DFB2274ED1219D0
:101DA8003E9003A7E064086005E06407702C90612A
:101DB800C8E060269003D5E0F874FF68601CE875F9
:101DC800F003A4C8AAF02AF974D728FE740339FFCF
:101DD8008E828F83A3A3A3E070057900021F44EECF
:101DE8002468F510EF3400F511906060E0851082EA
:101DF800851183F0750A61750B0575080075090072
:101E0800E5D914F50EE5D95403F50F601CEE2482CC
:101E1800F50CEF3400F50D7403650F6058E50E609E
:101E280013EE2467121D54700B793DEEFAEFFB1286
:101E38000C2A80A690055CE064016026850C8285EA
:101E48000D83E06004780480027800850E08E508B8
:101E5800C398FA95E0FB120A8C8A088B09EA4509AF
:101E68007006120ED0021DE2850C82850D83E0708B
:101E7800048A0A8B0B78008016E5D9C0E08812E541
:101E88000A2512F582E50B3400F583D0E0F008E866
:101E9800C3950E40E4850C82850D83E0602874FCB0
:101EA800250EF50E780A121AE5AC0EA90FEEFAEF18
:101EB800FB120CD87402121878E9700AAA08AB0948
:101EC8001213B6021E317403650F6058850E0C7527
:101ED8000D00780C121AE5AC0AAD0BAA08AB091272
:101EE8000C9C7402121878851082851183E0F874AE
:101EF80080687005750C7F8002880CE50CF50A78FF
:101F08000A121AE9E50FF50A780A121AE9A90EACBD
:101F180008AD099003D5E0FA7B0012091E7402127D
:101F2800187880139003A7E06408600BAC0AAD0B27
:101F3800EEFAEFFB120D92120EDC79017F0C0219FA
:101F4800EA74F312193E74FC121862EAFEEBFF8978
:101F580008A2AFE433F509C2AFEE2463F50AEF3403
:101F680000F50B8010AA0AAB0B120C541213B69092
:101F780004E8E004F0850A82850B83E0F8A3E0F921
:101F8800E849602FE82402FAE93400FBEA2402F564
:101F98000CEB3400F50D780C121AE58A828B83E07D
:101FA800FCA3E0F9EEFAEFFB120C48740212187861
:101FB800E960B29004E8E060579004E9E0F8900422
:101FC800E8E0C398500C7402650870449004EAE095
:101FD800603E8E828F83A3A3A3A3E0851882851910
:101FE8008312202874021218AEE81220289004E701
:101FF800E028F074021218AEAC82AD838518828591
:102008001983AA82AB83790112092A9004E8E4F0C3
:10201800E509A2E092AF74041218787F060219EA63
:10202800F0A3E4F09004E8E0F82200008521878519
:1020380022C622C0E074EF121A2AA2AFE433FEC20D
:10204800AF759B00906182E0A2E05012E591A2E09A
:10205800500C7591FE740165217003121DA4E0A255
:10206800E55051E591A2E5504B7591DF9003A7E04B
:1020780064076005E0640870237401652170357990
:10208800019003D5E0FA75F003A4CAA8F028FB7400
:10209800D72AFA74033BFB121F498018E0640D70BD
:1020A800139003C9E004F064287002E4F07A00E0B9
:1020B800F9120EE2906182E0A2E64003022162E595
:1020C80091A2E640030221627591BF9003A7E064E4
:1020D800057008120DD4120DE08003120DDA752177
:1020E80000120E58E99003A8F07900120E3A120B6C
:1020F8005E7A017B009003A6E0F912113490780310
:10210800E064427055900560E014F0704DC2AF1263
:10211800211A00782AD0E0F618D0E0F6E59F540797
:1021280070057509FF800375097FC4C0E07829E64A
:10213800F50808E65509F509740B7808121840D017
:10214800E02508F8906270E0A2E740F8E8C3339011
:102158006272F0906270E0D2E0F0906181E0A2E3F8
:102168005009E5E9A2E3500375E9F7A3E0A2E750B7
:1021780009E591A2E7500375917FEEA2E092AF7F47
:1021880004021A89C0E0C0D0C082C083906183E095
:10219800A2E05009E5BFA2E0500375BFFEE0A2E14E
:1021A8005009E5BFA2E1500375BFFDE0A2E2500966
:1021B800E5BFA2E2500375BFFBE0A2E35009E5BF0B
:1021C800A2E3500375BFF7E0A2E45009E5BFA2E41B
:1021D800500375BFEFE0A2E55009E5BFA2E5500343
:1021E80075BFDFE0A2E65009E5BFA2E6500375BF60
:1021F800BFD083D082D0D0D0E032C0E074F2121ABF
:102208002AE5A7A2E4500FE5A1A2E4500953A7EFDD
:1022180075A1EF122256E5A7A2E5500CE5A1A2E5AB
:10222800500653A7DF75A1DFE5A7A2E15009E5A194
:10223800A2E1500375A1FDE5A7A2E2500CE5A1A219
:10224800E2500653A7FB75A1FB7F01021A8974F8B7
:1022580012193E7521019003A7E0640670077A0001
:102268007B00120DBCA2AFE433FED2AF9003ADE009
:10227800640170187A207B009003A6E0F91211B867
:102288007A207B009003A6E0F912113A906182E06F
:10229800D2E6F090055DE0602185C62280169003A5
:1022A800ACE064017008E5C654F84405F5C653BEB1
:1022B800FC1220347401652160E4EEA2E092AF7F45
:1022C800010219EA8E238F248582288583278518A1
:1022D80082851983E0CEA3E0CF852882852783EB0A
:1022E800C9EAC8EDCBECCA75F010C3E833C8E933C6
:1022F800C9EA33CAEB33CBC3EA9EF526EB9FF52533
:10230800B35004AB25AA26EC33CCED33CDD5F0DAA7
:10231800AE23AF242274F112193E8A088B098C0A65
:102328008D0B90908F78081216F4740F1218AE78EF
:102338000C12171A90908F780C1216F47808790CF2
:1023480012152D9090B350107808790C1216CC788D
:102358000812154D4014800E780C79081216CC78A6
:102368000C12154D50047901800279007F0802197A
:10237800EA74ED12193E8A088B098C0A8D0B90902D
:102388008F78081216F474131218AE780C12171AF4
:1023980090908F780C1216F4780C790812152D404D
:1023A800117808790C1216CCAA08AB09AC0AAD0B47
:1023B80080227510007511007512007513017810D0
:1023C800790C1216CC78107908121693AA10AB1152
:1023D800AC12AD137F0C0219EA90908F780812178F
:1023E8001A8A828B8378081217077F040219EA7405
:1023F800F512193E8C828D83780812171A8A828BFF
:102408008378081216E012244BC3E098F0A3E099F1
:1024180012243D401E9090CB780812171A8A828B9E
:102428008378081216B98E828F83E02420F0A3E007
:10243800344EF080A4F08E828F83C3E09420A3E012
:10244800944E22EA2404F8EB3400F9E8FEE9FF8C04
:10245800828D83A3A3A3A3E0F8A3E0F98E828F83E0
:102468002274F512193EE9FE9004FCE0FAA3E0FBA1
:10247800EEC333F8E433F974C728F582748F39F55D
:1024880083E02AF508A3E03BF5097808121AE590DD
:1024980090BF1217381222CC74021218788A088B4F
:1024A800098C0A8D0B7410780812165BAA08AB0900
:1024B8007F040219EA74F112193E8A0C8B0D8C0EF6
:1024C8008D0F740F1218AEE0FAA3E0FB7411121806
:1024D800AEE0F508A3E0F5097808121AE5EA240148
:1024E800F508EB3400F509E4F50AF50B780C7908E2
:1024F80012156C90909B780812171A780C790812AC
:10250800156CAA0CAB0DAC0EAD0F1222CC740212D6
:1025180018788B09EA450960047A0180027A00EC90
:102528002AFCED3400FD74131218AEE0F8A3E0F9AC
:10253800E8FEE9FFECF8EDF97A717B021217D7880B
:10254800088909E4F50AF50B8E828F83780812173B
:1025580029ECF8EDF97A717B021217D78A088B09F2
:102568007405780812184F8E828F83A3A3A3A3E55E
:1025780008F0A3E509F07F080219EAC082C083E9E0
:10258800906000F0D083D08222C2AF02000022C047
:10259800E074F2121A2AA2AFE433FED2AFC2C0E549
:1025A800D1A2E4500653D1EF121398EEA2E092AFF5
:1025B8007F01021A89C0E074F2121A2AA2AFE4332A
:1025C800FED2AFE589A2E15003121302758900C259
:1025D800C5EEA2E092AF7F01021A89C0E074F21240
:1025E8001A2AA2AFE433FED2AFE58BA2E050031261
:1025F8001302758B00C2E880D8C0E0C0D0E8C0E004
:10260800E9C0E0E5A8D2AFC2C7A2E7A2E792AFD07F
:10261800E0F9D0E0F8D0D0D0E032C0E0C0D0E8C0D7
:10262800E0E9C0E0C008C009C082C083A2AFE433BB
:10263800F9D2AF900A52E0F8A3E0687008539AFB09
:10264800A374018025C2E9900A52E0F508740125B7
:1026580008F074D22508F582E43409F583E0F5C161
:10266800900A52E0C394804002E4F0E9A2E092AFFD
:10267800D083D082D009D008D0E0F9D0E0F8D0D00B
:03268800D0E0326D
:10268C00FFFFFFFFFFFFFFFFC082C083E9900EFA40
:10269C00F002292374F71218D2E99002E6F07C1E9E
:1026AC007D037AFF7BFF1208649002E774FFF0A3AE
:1026BC00F0A3E4F0A3F079051207EC9002E6E0F940
:1026CC0012070E7A827B08120A3E7F010219A4744B
:1026DC00F41218D28A088B09EB548060309002E611
:1026EC00E0F912111C8A0A8B0BAE0AAF0BEE4F608D
:1026FC00138E828F83E064B07003120804EEFAEF3D
:10270C00FB12110AAA08E5096480FB80047A007B9D
:10271C00000228F274F21218D274FC121862EAFE4B
:10272C00EBFFEE4F603874021218AEEEF0A3EF120E
:10273C002B57ECF0A3ED122B57AA82AB8312070890
:10274C00E9F508707374121218AE12370BE50A45CE
:10275C000B60658E828F831227CEEE4F7005750845
:10276C000280557A067B001211708A0C8B0DA80C16
:10277C00A90DE8497005750813803D88828983E4AA
:10278C001227D8A3A3EEF0A3EF123BA4E50AF0A303
:10279C00E50BF09002EC1228609002EC6017E0FC64
:1027AC00A3E08003EAFCEBFD8C828D831228607021
:1027BC00F38C828D83123630A908740412187802B7
:1027CC003DA6A3A3A3A3E0FEA3E0FF22F0A3F08801
:1027DC008289832274F21218D2890AE975F017A43F
:1027EC00FEAFF09002EBE4F09002E9122860600A70
:1027FC001211769002E9E4F0A3F0EEFAEFFB12115D
:10280C00708A088B09EA4509602FEEFCEFFD790010
:10281C001210F89002E9E508F0A3E509F07B0080BE
:10282C000812284AE4F0A3F00BEBC3950A40F2E53A
:10283C000A9002EBF0790080027913023DA6EB7549
:10284C00F017A4F8A9F09002E9E028FAA3E0398A7D
:10285C0082F583221233C6EA4B2274F41218D27515
:10286C000800750900740C1218AE123B78FEE9FFD3
:10287C00800CE5082401F508E5093400F509C3E5E9
:10288C00089CE5099D503285080A85090B7403786C
:10289C000A12184FEA250AF8EB350BF9888289835E
:1028AC00A3A3A3A3A3A312370BEE650A7003EF65D2
:1028BC000B70BFE8FAE9FB80047A007B0080277478
:1028CC00F41218D27900EAA2E0501B75085275096F
:1028DC00907808121AE57C047D007AFC7B0E1207B6
:1028EC00E674021218787F040219A4C082C0839087
:1028FC0002EC12292A601C88828983A3A3E06A70E7
:10290C0003A3E06B8882898370E8A3A3A3A312338B
:10291C00C280047A007B00D083D08202011F123E59
:10292C0079E8492274EE1218D274FC121862EAFE8D
:10293C00EBFF851882851983E4F0A3F0EE240212D4
:10294C003614EE2405122B45EE2404F50EEF122F4F
:10295C002AE024FE603924FC604624FE605224FEEA
:10296C00605E24FE7003022A4A24FE7003022AC20F
:10297C0024FE7003022AD124FE7003022AE024FCF8
:10298C007003022AEF24FE7003022AFE022B3B90F6
:10299C0003057417F0A3E4122B5F120444022B3BC3
:1029AC00851882851983AC82AD8312080A022B0B21
:1029BC00851882851983AC82AD83120810022B0B0B
:1029CC00850C08850D0974021218AEAC82AD838596
:1029DC0008828509831233C212072C8A0C8B0DAC2A
:1029EC000CAD0DEC4D6042E4F50CF50D780C121AA3
:1029FC00E5750C05750D03780C121AE5750C06754A
:102A0C000D03780C121AE574081218AE121AFC7920
:102A1C00161233BC12084C7408121878E9F50C70B5
:102A2C000B1233B812045C800F750C01850882857B
:102A3C000983122B4D123630850C08022B0E7402B2
:102A4C001218AEAC82AD83850C82850D831233C215
:102A5C0012072C8A108B11AC10AD11EC4D60438514
:102A6C000C82850D83A3A3121AFC75100575110336
:102A7C007810121AE57510067511037810121AE504
:102A8C0074081218AE121AFC79161233BC12084CC8
:102A9C007408121878E9F509700B1233B812046235
:102AAC00800F750901850C82850D83122B4D123612
:102ABC0030850908804C851882851983AC82AD83DA
:102ACC00120816803A851882851983AC82AD831260
:102ADC00081C802B851882851983AC82AD83120863
:102AEC0022801C851882851983AC82AD831208283C
:102AFC00800D851882851983AC82AD8312082EE96E
:102B0C00F508E50860298E828F83A3E06414601FAA
:102B1C00850E82850F83E0900305122B57123E75AC
:102B2C00900306123630E508A3122B5F12043EEE1A
:102B3C00FAEFFB1207AA02351CF50CEF3400F50D69
:102B4C0022123E7985188285198322F08518828598
:102B5C00198322F07C057D03850A82850B83123351
:102B6C00C62274EE1218D274FC1218628A0A8B0BED
:102B7C008C0E8D0FEA2405F508EB3400F5097C1555
:102B8C007D0079007A057B031210F8E5082402F524
:102B9C000CE509122B4885188285198385821085CE
:102BAC0083117810121AE5850882850983A3A3A3E3
:102BBC00A3123072121AE5E5082405F510E5093464
:102BCC0000F5117810121AE5850C82850D831233ED
:102BDC00CC12072674061218788A108B11AE10AF1F
:102BEC0011E50A2402F50AE50B123617EE4F7003B5
:102BFC00022D34801774021218AE1233C2888289E7
:102C0C0083EAF0A3EBF0900305E004F0900305E0F9
:102C1C00C394054003022D34E4F510F5117810121D
:102C2C001AE57510EE7511027810121AE57510EF91
:102C3C007511027810121AE574061218AE121AFCED
:102C4C007910EEFCEFFD1233BC12084C740812180C
:102C5C0078E9705E850882850983A3A3A3A3A3A347
:102C6C00A3E0F89002EEE0687048123072121AE598
:102C7C007CEF7D02E5082408FAE5093400FB12100C
:102C8C00F27402121878E960298E828F83A3A3A3B1
:102C9C00A31233C2900305E0F510740278101218D9
:102CAC004F74062510F58274033511F583EAF0A3F1
:102CBC00EBF074021218AE85821085831178101215
:102CCC001AE574021218AE121AFC850C82850D835B
:102CDC00123E8A12073274041218788A108B11AEC5
:102CEC0010AF11900305E0F5107511007402781007
:102CFC0012184F74052510F874033511F988828960
:102D0C0083A31228607003022BF8E82403F8E9343B
:102D1C0000F9EE4F6003022C018882898374FFF066
:102D2C00A3F0900305E004F0900305E0600A123371
:102D3C00B81204507900800B8508828509831236FD
:102D4C0027790A02351C74EA1218D274FE12186222
:102D5C008C128D13EA2405F50CEB123FF41227D2DA
:102D6C00750800750900EA2402F510EB3400F51122
:102D7C0085188285198385820A85830B780A121A35
:102D8C00E5850C82850D83A3A3A3A3122F34121AFD
:102D9C00E5E50C2405F50AE50D123617780A121A2A
:102DAC00E5850C82850D83123E8812072674061267
:102DBC0018788A0A8B0BEA450B7003022EE5EA247D
:102DCC0004F50EEB122F2A1227D28A828B83A3A32F
:102DDC00A3E0F98510828511831233C2120714E91E
:102DEC00F5096003022EE5E4F514F5157814121AB2
:102DFC00E57514EE7515027814121AE57514EF7555
:102E0C0015027814121AE574061218AE121AFC790F
:102E1C0013AC0AAD0B8510828511831233C21208D4
:102E2C004C7408121878E9F5096003022EE590023B
:102E3C00EEE0F8E5087009E02402900306F0801734
:102E4C00900306E0FCE82402FAE43400FBEA6C7020
:102E5C0001EB6003022EE9850882AA821230699484
:102E6C00141230615073850E82850F83E0C0E074BC
:102E7C00072A122F21D0E0F00508850E82850F83DA
:102E8C00A3E0C0E085080A7407250A122F21D0E0C0
:102E9C00F005089002EE122F34121AE57CEF7D0239
:102EAC0085080A7407250AFA74033400FB1210E033
:102EBC0074021218789002EEE02508F50874FF6E83
:102ECC00700374FF6F6012EE24010EEF3400FFE507
:102EDC0008C394145003022D7CE50860131232AD24
:102EEC008510828511831233C21204567900801426
:102EFC00E509700375090A851282851383EEF0A328
:102F0C00EFF0A90974021218787F0E0219A4850833
:102F1C000C7407250CF58274033400F583223400FD
:102F2C00F50F850E82F58322123BB72274EE121830
:102F3C00D274FE1218628C0E8D0FEA2405F50CEB80
:102F4C00122B48750B00900305E4F0F50AEA2402F5
:102F5C00F508EB3400F5098049900305E0FA90027E
:102F6C00EEE0F81230699417123061400D900305B1
:102F7C00E0F87416C3989002EEF0123072121AE553
:102F8C007CEF7D0274062AFA74033400FB1210E005
:102F9C0074021218789002EEE0F8900305E028F025
:102FAC00050AE50C2416F582E50D122F25E0F8E54F
:102FBC000AC398400302304A900305E0C3941650AC
:102FCC007DE50AC333F8E433F9E50C28FEE50D3949
:102FDC00FF851882851983AC82AD838E828F831214
:102FEC0033C212072C8A108B11AC10AD11EC4D7042
:102FFC0005750B018043E4F510F5117810121AE5F4
:10300C007510EE7511027810121AE57510EF751126
:10301C00027810121AE574061218AE121AFC791600
:10302C008508828509831233C212084C7408121861
:10303C0078E9F50B7003022F6512362380107C059E
:10304C007D038508828509831233C2120468A90B9B
:10305C00740202351EE99400C365D03322EA28F8C5
:10306C00E43400F9E822E0F51075110078102274B0
:10307C00EA1218D274FC1218628A0C8B0D8C128D09
:10308C0013EA2405F50AEB123617750800750900CA
:10309C00E50A2402F510E50B3400F5117402121840
:1030AC00AE85820E85830F780E121AE5850A82850D
:1030BC000B83A3A3A3A3123B63121AE5E50A240511
:1030CC00F50EE50B3400F50F780E121AE58510821B
:1030DC0085118312361D1233BC1207267406121882
:1030EC00788A0E8B0FAE0EAF0FE50C2402F50EE5B1
:1030FC000D3400F50F80408882898374FFF0050839
:10310C00122F1A74FFF005089002EEE0F50C750D05
:10311C0000780C121AE57CEF7D0285080C740725EB
:10312C000CFA74033400FB1210E07402121878903D
:10313C0002EEE02508F508EE4F60718E828F83A3B6
:10314C00A3A3E0F9850E82850F831233C2120714F4
:10315C00E9F509EE2404122B45E97044E4F514F565
:10316C00157814121AE57514EE7515027814121AE6
:10317C00E57514EF7515027814121AE57408121817
:10318C00AE121AFC7911EEFCEFFD850E82850F83D1
:10319C001233C212084C7408121878E9F50960272A
:1031AC00850C82850D831232A3123630E50870032C
:1031BC000232891232AD850E82850F831233C21210
:1031CC00046E790002329E850882AA82EA9002EE91
:1031DC007009E02404900306F08022E0F8900306C6
:1031EC00E0F514E82404FCE43400FDEC65147001F3
:1031FC00ED70C0123069941212306150B6850C8299
:10320C00850D83E0C0E074072A122F21D0E0F00571
:10321C0008850C82850D83A3E0C0E0122F1AD0E044
:10322C001232BF85820C85830D780C121AE574045A
:10323C001218AE121AFC851082851183123E8A1266
:10324C00073274041218788A0C8B0DAE0CAF0D85F6
:10325C00080C7407250CF874033400F9EE4F700356
:10326C00023103851882851983E0888289831232A2
:10327C00BFA3E0C0E0122F1AD0E0023111E50970B3
:10328C000375090A850A82850B831232A312363024
:10329C00A9097404022F12123E79851282851383B8
:1032AC0022900306E0F5F0E50884900305F07C0518
:1032BC007D0322F005088518828519832274EC128F
:1032CC0018D274FE1218628A088B098C0E8D0FEAC4
:1032DC002405FEEB3400FF851882851983AC82AD82
:1032EC00838E828F831233C212072C8A0A8B0BEEC9
:1032FC002418122B45EA450B700302339312350543
:10330C0050328518828519831233C21208408A10F4
:10331C008B11EA4511606B7912AC0AAD0B850882F2
:10332C008509831233C28510828511831218D0E966
:10333C00F50A7058E4F50AF50B780A121AE58E8234
:10334C008F83A3A3E0F50A780A121AE5EE24031280
:10335C003614780A121AE58E828F831233CC120837
:10336C00527406121878E9F50A7021850C82850DC5
:10337C0083E0701F8508828509831233C21204749E
:10338C008011750A0E8009750A018004E50A600334
:10339C00123623850C82850D83E06004790080024F
:1033AC00A90A74021218787F0C0219A47C057D03FB
:1033BC00850A82850B831233C622E0FAA3E0FB2236
:1033CC00E0FCA3E0FD8508828509831233C62274D4
:1033DC00EE1218D274FE1218628A088B098C0C8DAE
:1033EC000DEA2405FEEB3400FF750E00851882856E
:1033FC001983AC82AD838E828F831233C212072C59
:10340C008A0A8B0BEA450B70030234F11235055016
:10341C00358518828519831233C21208408A0E8BA7
:10342C000FEA450F605E7912AC0AAD0B85088285F8
:10343C0009831233C2850E82850F831218D0E9F5E9
:10344C000E60030234F485088285098312370BAAB7
:10345C000AFB1208348A108B11A810A911E84970C4
:10346C001E7AFF7BFF1208348A108B11A810A91149
:10347C00E849606C88828983E50AF0A3E50BF07556
:10348C000A008007750E0E805F050A9002EBE0FAC9
:10349C00E50AC39A504AE50A75F017A4FAABF0880E
:1034AC00828983A3A3E02AFAA3E03BFB8A828B8365
:1034BC0012361DEC4D70D2750A17750B00780A1276
:1034CC001AE5EEFCEFFD1210E07402121878EEFC17
:1034DC00EFFD8508828509831233C212047A8014A9
:1034EC00750E098003750E01123E71850C82850DD7
:1034FC0083123630A90E02305CE5082402F508E58B
:10350C00093400F5098A828B83A3A3A3E0A2E522E8
:10351C0074041218787F0A0219A474EC1218D28C55
:10352C00108D11EA2405F50CEB122B48750F00EAEF
:10353C002402F50AEB123617850A82F5831233C280
:10354C001208348A088B09EA45097003023609759A
:10355C000E008071850C82850D83E06401704F8EA6
:10356C00828F83A3A3121AFC8E828F83A3A3A3A39F
:10357C00E0F5127513007812121AE5EE2405F51217
:10358C00EF3400F5137812121AE51233BC120852FC
:10359C007406121878E9F50F6014850C82850D837A
:1035AC00E4F0123E718510828511831236307C173F
:1035BC007D007900EEFAEFFB1210F88E828F83E417
:1035CC00F0A3F0050E9002EBE0F8E50EC398501E48
:1035DC00E50E75F017A4F8A9F0850882850983A378
:1035EC00A3123FFE12361DEC4D60030235608508B8
:1035FC008285098374FFF0A3F0E50F70061233BCCB
:10360C00120480A90F0233B3F50AEF3400F50B2234
:10361C00A3E0FCA3E0FD228E828F83123E79850EFF
:10362C0082850F83E8F0A3E9F022C082C083900268
:10363C00E7E06A7003A3E06B70067AE77B02800414
:10364C007A007B00022923C082C08378008C828D93
:10365C0083E06A7003A3E06B7010E875F003A4F8C4
:10366C00A9F0EC28FAED39FB8015088C828D83A328
:10367C00A3A3E06A7003A3E06B60DF7A007B000217
:10368C00292374F61218D21207FE8A828B83E582E4
:10369C00458370067A007B008007A3A3A3A3123393
:1036AC00C2023D2274F21218D2E9FE740E1218AE48
:1036BC0012370B74101218AE123B838C828D83E080
:1036CC0064027036A3123E7FF50CA3E0F9A80C74CB
:1036DC00026870037429697021750C02750D0078ED
:1036EC000C121AE57808121AE5780A121AE5EEF9A6
:1036FC00120876740612187880027901023DA6E051
:10370C00F50AA3E0F50B2274E81218D274FB121818
:10371C0062E9851882851983F08A168B17ECFEED09
:10372C00FF751000741D1218AE123E75741D121820
:10373C00AE1236308E828F83A3A3A3E0A2E4502D69
:10374C00741D1218AE1233C21208408A828B83E5A4
:10375C008245837003023B54790AEEFCEFFDAA16F6
:10376C00AB171218D0E9F5106003023B57741F1207
:10377C0018AE123B8374211218AE12370B7423123D
:10378C0018AEE0F50EA3E0F50F8E828F83E0640295
:10379C006003023B02A3123E75850882850983A350
:1037AC00858212858313EE2406122B458882898329
:1037BC00E0FAA3E0F9EA2400F514E439F5157814DD
:1037CC00121B6F010000280128F73707000228BCE4
:1037DC0038032829380029F33901291E3A0229BF58
:1037EC00390329F33904299D3A023BE50E450F6054
:1037FC0003023AFD850C82850D83123B78FAE9FBB6
:10380C008A828B83E0850A82850B83123BAE121A67
:10381C00E58A828B83A3E0FCA3E0023A87E50E45A0
:10382C000F6003023AFD850A82850B837401F01246
:10383C003B8B850882850983F07C007D008E828F0E
:10384C0083A3A3A3A3E02401FAA3E03400FB120793
:10385C002CEA4B60418A828B83E02402F8850A8231
:10386C00850B83E028F0EA2404F8EB3400F9888215
:10387C008983E0851282851383123BC0123BAE1202
:10388C001AE58A828B8312361CE5082403FAE509B3
:10389C003400FB023A8C850A82850B83E02404F009
:1038AC007C047D007900AA12AB131210F8023B576E
:1038BC00E50E450F6003023AFD123B8BFEA3E0FFC1
:1038CC00850A82850B837404F0EE85088285098352
:1038DC00F0EF851282851383F074031218AEAC825C
:1038EC00AD83EEFAEFFB12072C8A0C8B0DEA450D1B
:1038FC0070030239A08A828B83A3A31227CE740192
:10390C001218AE85820E85830F780E121AE5740597
:10391C001218AE121AFC7CFF7DFF120732740412CF
:10392C0018788B0FEA450F7033850C82850D831246
:10393C003B63121AE5850C82850D83A3121AFC7C5D
:10394C00027D007AF47B9012051C7404121878E93D
:10395C00700A74011218AE74FFF0A3F08E828F837C
:10396C00E064027039750C02750D00780C121AE5C2
:10397C008E828F8312361CE5082404FAE509340084
:10398C00FB1210E07402121878850A82850B83E012
:10399C002402800974011218AEEEF0A3EFF074014A
:1039AC001218AE123B74F074011218AEA3123B6CD9
:1039BC00023AF7E50E450F6003023AFD850C82854D
:1039CC000D8312361DAA16AB1712086A850A82855A
:1039DC000B837402F0EA850882850983F0851282D4
:1039EC00851383EB023AFAE50E450F6003023AFDAC
:1039FC00123B8BF8A3E0F9850A82850B837402F0E5
:103A0C00E8850882850983F0E98512828513830293
:103A1C003AFA850C82850D831233C21210DAEAFC55
:103A2C008C82A882C3950EE4950F405FE8650E70FA
:103A3C0002E50F70047C008022851882851983E0D2
:103A4C00FAE50E2AFAE50F3400FBC3EA98EB940072
:103A5C005003E08005E50ECCC39CFCEC850A828506
:103A6C000B83F08C0A750B00780A121AE5850C8210
:103A7C00850D83E0250EFCA3E0350FFDAA08AB09EC
:103A8C001210E07402121878023B57751007023BB3
:103A9C0057E50E450F705A850C82850D83123E75C5
:103AAC00850A82850B8374071227DA123B6C122766
:103ABC00DAA3E0851282851383F0E82402FAE93454
:103ACC0000FB8A828B83123B6C123B9B123B74A3D0
:103ADC00123BA4123B7DF0E82405F8E93400F98888
:103AEC00828983123B7DA3123BC0A3A3A3A3F080C6
:103AFC005A75100B8055741D1218AE1233C2120772
:103B0C00FE8A828B83E5824583603D123E75880C6C
:103B1C00890DE8450D6031780E121AE5780A121AF3
:103B2C00E57808121AE574061218AEE0F9EEFCEF0F
:103B3C00FDAA16AB17850C82850D831218D074065E
:103B4C00121878E9F510800375100EA9107405127F
:103B5C0018787F100219A4E0F50E750F00780E226C
:103B6C00E085088285098322123BCA22123E79E83D
:103B7C0022123BCAA3A322E0F508A3E0F509228593
:103B8C000C82850D83E0F8A3E0F5838882E022A304
:103B9C00A3F08A828B83A322F088828983A3A3A3B8
:103BAC00A322F08A828B83123BB722E0F50A750BB5
:103BBC0000780A22F088828983A3123BCA22E0850E
:103BCC000882850983A3A32274EE1218D274FE1204
:103BDC0018628A0A8B0BECFAEDFB74141218AEE027
:103BEC00F510A3E0F51174161218AEE0FE7418125D
:103BFC0018AEE0F50EA3E0F50F851882851983AC9D
:103C0C0082AD8312072C8A0C8B0DEA450D60498519
:103C1C0018828519831233C21207FE8A828B83E5C0
:103C2C00824583602FA3A3123B83E50845096024DA
:103C3C00780E121AE57810121AE5EEF9AC0CAD0DEF
:103C4C00AA0AAB0B8508828509831218D07404125A
:103C5C0018788006790E8002790102305C74F612B5
:103C6C0018D274FE121862740C1218AE123B7885BE
:103C7C001882851983F074011218AEE9F0E4F50886
:103C8C00F5097808121AE57508027808121AE57415
:103C9C00041218AE8582088583097808121AE51279
:103CAC00085274061218787402121878806874F727
:103CBC001218D2EAFEEBFF89087C1E7D0312086AFB
:103CCC00EA5402600BA908EEFAEFFB1207208002FF
:103CDC0079010226D674F61218D274FF6A70037436
:103CEC00FF6B70168C828D83123D27E4F08C828DD5
:103CFC0083A3A3A3123D27A3801812083A8A088B2A
:103D0C0009A808A909E849600D8882898374FF1203
:103D1C0027D8A3A3E4F07F020219A474FFF0A3F048
:103D2C008C828D83A3A32274F61218D212083A8ABD
:103D3C00828B83E58245836006A3A3E0FA80027A36
:103D4C00007B0080D174F21218D28A088B09ECFE29
:103D5C00EDFF740E1218AEE0F50A12083A8A0C8BBD
:103D6C000DA80CA90DE8497026EEFCEFFD7AFF7B3F
:103D7C00FF12083A8A0C8B0DA80CA90DE8497004A7
:103D8C007911801688828983E508F0A3E509F0880B
:103D9C00828983A3A3E50AF079007F060219A47433
:103DAC00EE1218D2EAFEEBFF8C088D09890C741404
:103DBC001218AE123E7574161218AE1233C2750D6F
:103DCC0000E8496003023E697402650C6003023E20
:103DDC006474121218AE123E7FFCA3E0F9EC2400BE
:103DEC00F50EE439F50FEAF4F8EBF4F9EC58F8E5D4
:103DFC000F59F9E849705CE5082406F8ED3400F930
:103E0C00880A890B8882F583123E8A12086A8A1006
:103E1C008B11E50E65107004E50F65116042780E8C
:103E2C00121AE5850A82850B83123E8A1208707479
:103E3C0002121878E9F50D7027780E121AE585082C
:103E4C0082850983A3A3123E881208887402121873
:103E5C0078800D750D808008750D0D8003750D0B28
:103E6C00A90D0235218E828F83123E7922E0F8A3B0
:103E7C00E0F922123E7988828983E022A3A3E0FC38
:103E8C00A3E0FDEEFAEFFB2274E81218D274E712ED
:103E9C001862851882851983EAF0A3EBF08C168DD5
:103EAC0017890E75080075090074311218AEE0F50B
:103EBC0012A3E0F51374331218AEE0F514A3E0F579
:103ECC001574351218AEE0F50FE50975F003A4F87A
:103EDC00A9F0851882851983123FFEE0F47003A3C4
:103EEC00E0F47003023FE1EE2402F50CEF123FF414
:103EFC00E07003023FE185160A85170B780A121A47
:103F0C00E5AC14AD15AA12AB131207F27402121819
:103F1C00788A0A8B0BEA450B7003023FE1E4F5103B
:103F2C00F5117810121AE574061218AE85821085F8
:103F3C0083117810121AE574091218AE8582108557
:103F4C0083117810121AE5851282851383A3A3A31B
:103F5C00A3121AFC7914AC0AAD0B8E828F83123328
:103F6C00C212084C7408121878E97069850A8285A7
:103F7C000B83A3A3A3A3123E7574021218AE1236C0
:103F8C0030850C82850D83E0A2E05018A90E7402D6
:103F9C001218AEAC82AD838E828F831233C212079D
:103FAC0044E94208850C82850D83E0A2E15026E5A8
:103FBC000FF50A780A121AE9A90E74031218AEAC9E
:103FCC0082AD838E828F831233C212073E7401122C
:103FDC001878E942080509E509C394025003023E2A
:103FEC00D5A9087419023B5B3400F50D850C82F5DC
:103FFC008322E028FEA3E039FF8E828F832274F2A5
:10400C001218D2EAFEEBFF890B7401650B600E747B
:10401C0002650B706A7901120A5CE97062EEFAEFC4
:10402C00FB1208348A088B09EA45096047750A00B7
:10403C00800B7C177D0079001210F8050A9002EBBA
:10404C00E0F8E50AC3985021E50A75F017A4F8A921
:10405C00F0850882850983A3A3E028FAA3E039FB45
:10406C008A828B8312292A70C985088285098374F8
:10407C00FFF0A3F07C1E7D03EEFAEFFB1208640246
:10408C003DA674F21218D28A088B09ECFEEDFF746F
:10409C000E1218AE12370B900EFAE0F4603D7A094E
:1040AC007B00121104EA4B60328A828B8374B1F06C
:1040BC00A3E4123B9DA3123B9BA3E508F0A3E509E7
:1040CC001240EAEEF0A3EF1240EAA3A3E50AF0A334
:1040DC00E50BF0900EFAE0F9121110023DA6F08AF1
:1040EC00828B83A3A3A3A3A322C082C083906190DD
:1040FC007404F0A37448F0A3E4F09061807440F071
:10410C009061BC7407F09061877469F09061B6742B
:10411C0016F07900120B647902120B6A90268CE46B
:10412C0093F46006E493F9120B407905120EC40265
:10413C0047F3C082C083E9540FF9906185E0696050
:10414C0012E5C654804449F5C6E59E547F64497017
:10415C00F8E9F053C680E59E547F70FA0247F37479
:10416C00F71218D2E5A8FE53A87E120B4CC2BA5314
:10417C009AFEC289759B00C2C2120B5275A91175A9
:10418C00B905120B58D2BA439A0174805E42A80248
:10419C004C0EC082C083906181E4F0A30247F0759D
:1041AC00E90075910075BF0002011FC082C08390A9
:1041BC006181E4F0A374C0F0A3E40247F2C082C0B2
:1041CC008374F81218629003A91255997003024275
:1041DC00A89003A9E05440602379088518828519BA
:1041EC0083AA82AB83120C72851882851983AA82EA
:1041FC00AB831209069003A9E054BFF0E054806031
:10420C0010790C7A817B05120C729003A9E0547F13
:10421C00F0E0A2E0500F7900120B6412090C90032D
:10422C00A9E054FEF0E05402600F7901120B641205
:10423C00090C9003A9E054FDF0E05404600F7900E0
:10424C00120B6A1209129003A9E054FBF0E0540817
:10425C00600F7901120B6A1209129003A9E054F74E
:10426C00F0E05410600F7902120B6A1209129003DD
:10427C00A9E054EFF0E05420600F7903120B6A129E
:10428C0009129003A9E054DFF0A3E05401600D1271
:10429C000B761209189003AAE054FEF07408121859
:1042AC00780247F3C082C083E9600514602A804F0E
:1042BC0090619A7433F0A37455F09061A0743AF045
:1042CC0090055BE064017009C2919003AB74678048
:1042DC002D9003AB7461802690619A743FF0A374A7
:1042EC005AF09061A0747FF090055BE06401700956
:1042FC00D2919003AB747180059003AB746AF00299
:10430C0047F3C082C083E9600B14600D146017146E
:10431C00600C80209026908015902691801090053E
:10432C005BE0640170059026928003902693E493E1
:10433C00906186F00247F374EE1218D274F41218DE
:10434C0062851882851983AC82AD837583907582E2
:10435C00C7740412177590269093F4600302446D91
:10436C00907808E0C39402500302444D7404121870
:10437C00AEAC82AD8375839075823E74081217754E
:10438C00FC7EFF7FFF8E0C7D008C8285820E800F61
:10439C0074086D606D74096D6068740A6D60638D6E
:1043AC00087509007402780812184F124477121716
:1043BC001AA909E50AC9F888107418780812165B4E
:1043CC00E5104508FAE9FBE50EC333F8E433F9745C
:1043DC00041218AEE58228F582E58339124B00C32E
:1043EC00E89AE99B4008E8C39AF8E99B8006EAC37F
:1043FC0098F8EB99F9C3E89EE99F5006E8FEE9FFAF
:10440C008D0C0DEDC39413408774FF6E700374FF15
:10441C006F6024850C087402780812184F124477C8
:10442C0012171A851882851983E582250EF582E507
:10443C0083124F6AE508F00CECC39404500302435A
:10444C008D7508017509007808121AE574021218A6
:10445C00AEAC82AD837AA47B091212DE7402121800
:10446C0078740C1218787F0A0219A474482508F580
:10447C008274783509F583780822C082C0839061F4
:10448C0086E0F8902693E493687009902692E49362
:10449C00906186F09061AE7468F0A3746AF09062DB
:1044AC004574FBF0A304F053F4FD43FE0290055B4E
:1044BC007401F09061A0E0643A7004790080027994
:1044CC0001120B640247F3C082C08390054CE06478
:1044DC00017013900552E0F87401686017E87006DB
:1044EC00A3E06401600E9004F6E06401700A90048D
:1044FC00FBE06004790C800279000247F3C082C0B3
:10450C008375E1F19004F9E0604C1460091460507B
:10451C0014604814704F120B889004EFE0F97AF095
:10452C007B04120E1C9090AB121738120E649090F4
:10453C008B121738120E289004FAE0F9120E347907
:10454C0001120EB89004ED1247E074ACF0A3740B9A
:10455C00F079000247F3120B8E80BE120B9480B9D7
:10456C00120B9A80B4791280EA74F41218D275D9AD
:10457C000D9004DAE0A2E0E4331313F812467C4801
:10458C004401F5D9780012468640FB7800880874FF
:10459C00DB125263740412469040F275E19590045C
:1045AC00DAE0F97ADB7B04120E22900F1C7416F001
:1045BC00A3740B1246961249197434F0A3740B129F
:1045CC00492C9004F9E064019004ED700B1246182C
:1045DC0012171A9090A7800912461812171A909069
:1045EC00A378081216A690908F78081216F412462B
:1045FC00C0124F6A78081217299004ED1248FB7408
:10460C00131247957402F07F040219A412543078E7
:10461C00082274F61218D2124672FA8AD97800124D
:10462C00468640FB780080061247091249EEE8C323
:10463C009940F512478312468640FB780080081299
:10464C00525F74051249EEE8C39940F375E19590F9
:10465C000F1C7422F0A3740B1246961246A074120F
:10466C00124795024BD29004FFE0F9740729F5D953
:10467C009004EFE0C4333354C022880874F025084A
:10468C00F5827404124B6A940622124949741CF088
:10469C00A3740B2212491FF0A37434F0A3740B12F1
:1046AC0049301246C01247EC74FF12526D9004ED63
:1046BC001248FF229004ED1248F5240EF582E822F0
:1046CC0074F61218D21246724402F5D978001246CA
:1046DC008640FB780080061247091249EEE8C39920
:1046EC0040F575E195900F1C124714F0A312471476
:1046FC001246A374141247957404024BD4880874A0
:10470C00002508F582740522742E124721124721C8
:10471C00F0A3740B22F0A3740BF0A3742E2274F686
:10472C001218D2124672FA74064AF5D9780012465B
:10473C008640FB780080061247091249EEE8C399BF
:10474C0040F512478312468640FB780080081252CF
:10475C005F74051249EEE8C39940F375E195900F2B
:10476C001C7428F0A3740B1249421246A074151243
:10477C0047957403024BD490051FE0F9740729F593
:10478C00D974044AF5D9780022F09003A722C0828C
:10479C00C0839005567425F09005547401F0A3E481
:1047AC00F07A01FB120E469005421247E074B8F005
:1047BC00A3740BF0900553E064017016900552E061
:1047CC0070107901120EA0120E70120E9A7900124E
:1047DC000EAC80131248F524161247E922F582E834
:1047EC0012490B22F0A3F0D083D08202011F74F681
:1047FC001218D274FA12186290054BE0640170081A
:10480C00120BA090054BE4F075E1F19005421248B3
:10481C00F52415F582E8124F6A7401F090054DE00D
:10482C0064017053909046C082851882851983ACC0
:10483C0082AD83758390D082740612177575D90D6D
:10484C0090054412467F4403F5D9780088087445D6
:10485C00125263740512469040F27800880885184D
:10486C0082851983E582125263E58312469040ECEF
:10487C0075E195790180027900120E4C900F1C7431
:10488C00E4F0A3740CF0A374EAF0A3740C124910B6
:10489C00124910124919124925F0A374F0F0A374AF
:1048AC000C12492C900544E0F97A457B05120E1C3C
:1048BC00900556E0F91225837901120E529090ABB7
:1048CC00121738120E6490908B121738120E28792A
:1048DC0000120EB89005421248FB741612479574DC
:1048EC0005F004121878024BD5E0F8A3E0C82212A8
:1048FC0048FF221248F52414F582E812490B2234A1
:10490C0000F58322F0A374E4F0A3740C2212491F67
:10491C00F0A32212492322F0A374DEF0A3740C221C
:10492C0012493022F0900F2A12492512494D124992
:10493C0025124923F0221249491249252212494DC8
:10494C002212495A74DEF0A3740C12495A22F0A3B5
:10495C0074DEF0A3740CF0A322C082C0839004ED2B
:10496C001249D50247F074F71218D29003D5E0F82B
:10497C0075F003A4C8AAF02AF974D728F87403397F
:10498C00F9E82405FAE9125443A3A3A3A3A3A3A310
:10499C00A3A312553BA3A3A3A3A3A3A3E024FFF8B3
:1049AC00A3E034FFF98A828B83E8F0A3E9F0024C90
:1049BC000EC082C0839005421249D5F0A3F0900539
:1049CC0056E0F91225830247F31248F524061247E4
:1049DC00E9E4227F060219A4880874612508F5828F
:1049EC007405124F75F5D90822EAFEEBFF9061D0E1
:1049FC00E0F87480C398FAEE248222124A0D9404D3
:104A0C0022F582E912490BE0F5D90AEAC32274F6C1
:104A1C001218D2EAFEEBFF9061D0E06003024AAEBE
:104A2C0075D90E75D90375D9047A008A08EE250854
:104A3C001254F4248B124AB340F17A008A08EE2502
:104A4C00081254F42483124A0740F175E195790851
:104A5C00EE248BFAEF3400FB120C667904EE2483FF
:104A6C00FAEF3400FB120C667C008C82AA82C3E441
:104A7C009AF895E0F9EE28F8EF39F9E8248AF582EE
:104A8C00E9124F71C0E0EE2A1254F424AAF582E91F
:104A9C00124F6AD0E0F00CECC3940840CD124ABC23
:104AAC0080027900024BD5124A0D94082275E195CB
:104ABC00EE246FF582EF1247EC1255B6EE2471F529
:104ACC0082EF1247ECE8F0A3E9F0790122C082C032
:104ADC008375D90275D90375D90575E195EA246FEB
:104AEC00F582EB124AFEEA2471F582EB124ACE02F1
:104AFC0047F33400F5831255B62274F61218D2EA35
:104B0C00FEEBFF9005617406124B74121AE57C01E2
:104B1C007903120CD2740212187875D90675D90360
:104B2C007800124B5A40FB75E1959003A7E064089E
:104B3C007017EE246FF582EF124AFEEE2471F582A7
:104B4C00EF124F6AE8F0A3E9F07901024BD588081F
:104B5C0074612508F5827405124B6A94052212497A
:104B6C000BE0F5D908E8C322F075086175090578E2
:104B7C00082274F61218D2EAFEEBFF9061D0E070B6
:104B8C00417901900561740B124795E06407701927
:104B9C007508617509057808121AE57C0109091276
:104BAC000CD274021218787905740129F5D975D9CB
:104BBC0003780080031249E4E8C39940F8124AB91B
:104BCC008002790080037401F07F020219A474F74B
:104BDC001218D2EAFEEBFF75D90375D90375D90DFE
:104BEC00EE24DD124BFF75E1957904120E6A124A20
:104BFC00BC800FF582EF124F75F5D922A2E092AF6F
:104C0C0079007F010219A47F030219A47401250AFB
:104C1C00F5D975D90378002274F51218D2124CA468
:104C2C006004780480027800E8240BF8EAC398400A
:104C3C0055750A099005617409F07908124C9712A0
:104C4C000C60850882850983E0601E750861750912
:104C5C00057808121AE57C097903EEFAEFFB120CC1
:104C6C00D27402121878750A0D124C18800312496E
:104C7C00E4E8C3950A40F775E1957904120E6A12BF
:104C8C004E17790180027900024C13EE24E2FCEFFE
:104C9C003400FD7A627B05221249F5F8EF124CAD17
:104CAC00223400F9880889098882F583E02274F39C
:104CBC001218D28A088B09124E23FAE5082482F5C1
:104CCC000AEB124D7A6004780480027800E824081C
:104CDC00F8EAC3985003024D73750C069005617485
:104CEC000CF09003C4E0900562F07402C0E0F97C13
:104CFC00C57D037A637B05120C60D0E0F97CC77D1F
:104D0C0003120C60850A82850B83E0601E750A61B4
:104D1C00750B05780A121AE57C067903AA08AB090B
:104D2C00120CD27402121878750C0A7401250CF549
:104D3C00D975D90378008009880A7461250A12494B
:104D4C00EAE8C3950C40F175E1957904120E6AE519
:104D5C0008246FF582E509124AFEE5082471F582F4
:104D6C00E509124ACE800279007F050219A43400AD
:104D7C00F50B850A82F583E02274F61218D2EAFE4E
:104D8C00EBFF124E23FCEE2482F8EF124EA66004C9
:104D9C007A0480027A00EA2404FAECC39A40607A1E
:104DAC0002900561EAF0EE24F4F582EF124E2D60CC
:104DBC001B7508617509057808121AE57C027903E0
:104DCC00EEFA120CD274021218787A0674012AF5D3
:104DDC00D975D903780080031249E4E8C39A40F8E6
:104DEC0075E195EE2473124E10EE247F124E1012C4
:104DFC004E177904120E6AEE240D124ABF80027906
:104E0C0000024BD5F582EF124F9F22EE241DF58246
:104E1C00EF124F9FA3F0229061D0E0F87480C398FA
:104E2C0022124F75900562F088828983E02274F615
:104E3C001218D2124E23FEEA2482F8EB124EA66010
:104E4C00047C0480027C00EC2404FCEEC39C4045F2
:104E5C007C029005617407F0EA24F5F582EB124EA2
:104E6C002D60177508617509057808121AE5790324
:104E7C00120CD274021218787C0674012CF5D975B8
:104E8C00D903780080031249E4E8C39C40F875E12B
:104E9C0095790180027900024BD53400F98882891A
:104EAC0083E02274F51218D2E9FEA2AFE433F50ABE
:104EBC00C2AF7F00EA246EF8EB3400F980010F8852
:104ECC00828983E0F508EFC3950850188F08EA250E
:104EDC0008FCEB3400FDEC246AF582ED124F716E88
:104EEC0070DC8011EA2508FAEB3400FB124F64EEFB
:104EFC00124E3304F0E50AA2E092AF024C1374F6A2
:104F0C001218D2A2AFE433FFC2AFEA246EF8EB1250
:104F1C0052D5E014F07E0080218E08EA2508F8EBCB
:104F2C001254F6246BF582E9124F71C0E0E8246A42
:104F3C00F582E9124F6AD0E0F00E8C828D83E0F896
:104F4C00EEC39840D4EA246D124F6774FF124F944D
:104F5C00EFA2E092AF024BD5EA246AF582EB12473E
:104F6C00EC22F582EB124F752212490BE022C08223
:104F7C00C083E5A8F8C2AF124F64E9124F94E8A2BF
:104F8C00E7A2E792AF0247F3F0EA2469F582EB124D
:104F9C004F9F2212490BE4F02274F21218D28C8229
:104FAC008D83A3A3A3A3E0541FF0EA24361252CBA3
:104FBC008E828F83E4F0F50C850C8285820AEC25B9
:104FCC000AF8ED124CADC0E0EA250AF8EB12503AA3
:104FDC00D0E0F0750D00850882850983E0F50A752F
:104FEC000B00E50D780A121830E50AA2E0502AE50C
:104FFC000C33333354F8250DC0E08E828F83E0F8E8
:10500C00EA28F8EB1254F62438F582E9124F6AD0EC
:10501C00E0F08E828F83E004F0050DE50DC394085B
:10502C0040B4050CE50CC39405408D0249DF3400F7
:10503C00F9E8245DF582E91247EC2274F61218D2D5
:10504C009003D3E0640170030251487A009003D9B5
:10505C00E060030251487401F0A3E4F0A3F0900463
:10506C003904F090043EF09003DC1252689003E691
:10507C0004F090040CE4F09003EF125269A3F0A337
:10508C00F0A3F0900456F090044AF090043F748022
:10509C00F0A3E4F0900445F09004C112514F900439
:1050AC00CAF0900459F09004A912514FA3F0A3F048
:1050BC009004B5F09004B7F09004B3F09004CD12C6
:1050CC00514F8A0874411252637404124F6A74FF70
:1050DC00F00AEAC3940440EA7A008A82A88274E156
:1050EC0028F5827404124F71C0E0743428F5827470
:1050FC0004124F6AD0E0F00AEAC3940540DC7A004F
:10510C008A82A88274BB28F5827403124F71C0E0A6
:10511C0074B928F5827404124F6AD0E0F00AEAC31D
:10512C00940840DC9003D3E004F064017008900311
:10513C00DBE09003D5F07AD77B0380047A007B0008
:10514C00024BD512526DA312526D22C082C083EA5B
:10515C002403124F6E6008E4F09003D4E014F09036
:10516C0003D3E014F070069003D574FFF08A828BA1
:10517C0083A3A3E4F09004E6E0700D9003D4E06404
:10518C000170057900120E3A0247F3C082C0839079
:10519C0003DAE4F09003D9F09003D3F0A3F0A374F6
:1051AC00FFF075E1F10247F3C082C083780079000B
:1051BC009003DAE0600478D7790388828983A3A30B
:1051CC00A3A3E0F90247F374F61218D2EAFEEBFF40
:1051DC00EE2463F508EF3400F5098016AA08AB0934
:1051EC00120C541213B69004E7E004F09004E8E0BB
:1051FC0004F085088285098312559970DFEEFAEF69
:10520C00FB120C12EEFAEFFB120D2C024BD574F7BD
:10521C001218D2EAFEEBFF8E828F83A3A3A3A3E026
:10522C00FA7B00120960EEFAEFFB120C24120D0E41
:10523C00024C0E74F61218D27800880874BB125205
:10524C00637403124E1308E8C3940840ED9003BB3B
:10525C00024BD2880874202508F58222E412526D84
:10526C0022F0A3F0A3F0A3F02274F61218D2EA24D1
:10527C000D1252CBEC2403F8ED3400F9880889099F
:10528C00EC2407F8ED1252D5124B028508828509E1
:10529C0083E0FAA3E0FB1217D78E828F83E8F0A38A
:1052AC00E91255AD850882850983E0FAA3E0FB126B
:1052BC0017D78B09EA450960031252E1024BD5F866
:1052CC00EB3400F9E8FEE9FF223400F9E8FCE9FDD3
:1052DC008C828D83228E828F83E02401F0A3E034B4
:1052EC0000F02274F61218D2EA242E124F6EFCA390
:1052FC00E0FDEA246F1252CB780079FAECFAEDFB60
:10530C001217D78E828F83E8F0A3E9F0780079FA30
:10531C00ECFAEDFB1217D78B09EA45096003125220
:10532C00E1024BD574F01218D2EAFEEBFF741012A6
:10533C0018AE780812171A120DEC8A0C8B0D8C0E05
:10534C008D0F90909F780C1216A690908F780C125F
:10535C0016F4780C121AE18E828F8312542C1217C9
:10536C003812231D7404121878E9600302541C8E41
:10537C00828F83E02402F8A3E01254F6FAE9FB8A48
:10538C00828B8378081216B990908F780812171AAE
:10539C008A828B837808121707EE240BF582EF12A2
:1053AC004F6AC082C0838E828F83A3A3A3A3A3E082
:1053BC002401F8A3E03400F9D083D082E0687003B4
:1053CC00A3E069700479018049EE2407F8EF3400FA
:1053DC00F9888289831252E5EE24731254237014D7
:1053EC00EE247412543B7003A3E06D70078A828B19
:1053FC00831252E5EE247F1254237014EE24801293
:10540C00543B7003A3E06D70078A828B831252E5C4
:10541C0079007F080219A4F582EF124F75640122FE
:10542C0012543022E0F8A3E0F5838882A3A322FA79
:10543C00EF125443E06C223400FB8A828B83E0FC35
:10544C00A3E0FD888289832274F31218D2E9FEEC62
:10545C00FFEA2462F582EB12542660030254EF90AB
:10546C0061D0E0F508EA2482124F6EF50C600478E6
:10547C0004800278007480C39508FC95E0FDEF2849
:10548C00F8E41254F62402F8E93400F9EC98ED999A
:10549C00A2D265D0334048740D1218AEE0F50AA3C1
:1054AC00E0F50BE50C6015780A121AE5EFFCEEF945
:1054BC00120CD2740212187874042FFF74012FF599
:1054CC00D98ED97800800C8808E50A125263E50B56
:1054DC001249EEE8C39F40EF75E19579008006799B
:1054EC0007800279FF024D75F8EF3400F9E8227459
:1054FC00F71218D2A2AFE433F508C2AFEA2402F8CF
:10550C00EB3400F98A828B83E0FEA3E0FFEE4F6060
:10551C000E88828983E0FAA3E0F5838A8280048A6C
:10552C00828B8312553B125545F0E508024C08EC72
:10553C00F0A3EDF08882898322ECF0A3EDF08C824D
:10554C008D83E4F0A32274F71218D2EAFCEBFD7AF7
:10555C00007B00A2AFE433FEC2AF8C828D83125568
:10556C00996022E8FAE9FB8A828B83124B0212556E
:10557C009FE4F0A31255ADE849700A8C828D83A389
:10558C00A3E4F0A3F0EEA2E092AF024C0E1255B6DB
:10559C00E849228C828D83E8F0A3E9F08A828B8320
:1055AC0022F08C828D831255B622E0F8A3E0F9220A
:1055BC00C082C08380031255EAE9F874FF281904ED
:1055CC0070F4ECFAEDFB0247F3C082C08380031247
:1055DC0055EAE9F874FF28190470F40247F38C8239
:1055EC008D83E08A828B83F08C828D83A3AC82AD19
:1055FC00838A828B83A3AA82AB832274F01218D283
:10560C0074FA121862890BECFEEDFF750A008A0819
:10561C008B097808121B290004102F584A5668561B
:10562C0082569A56B856D056F3560B571F574957B1
:10563C00C657D757EE5709582F582F585F57740134
:10564C00650B600302582A8E828F83E0F8C39403A3
:10565C00400302582AE8900FE60258067402650BC4
:10566C00600302582A8E828F83125F6C900FE7E8DA
:10567C00F0A3E90258067401650B600302582A1264
:10568C005857400302582AE89007BF025806740185
:10569C00650B600302582A8E828F83E0F8C3940551
:1056AC00400302582AE89007C00258067401650BA3
:1056BC00600302582A125857400302582AE89007F0
:1056CC00C10258067410650B600302582A75081045
:1056DC007509007808121AE57AC27B071210E0747B
:1056EC00021218780258507401650B600302582A94
:1056FC00125857400302582AE89007D202580674F1
:10570C0001650B600302582A8E828F83E0900FEAAA
:10571C000258067404650B600302582A8E828F832C
:10572C00780C12171A9090BF780C12154D5003027A
:10573C00582A9007D4780C121729025850E96003A4
:10574C0002582A1206C6E970051212668056900895
:10575C006780637407650B600302582A7508067529
:10576C0009007808121AE58E828F83A3AC82AD8370
:10577C0074021218C01210E674021218787C007DA4
:10578C0000AA18AB198E828F83E0F9121212E9F578
:10579C0008C3940A400302584D1206C6E9700CA9BE
:1057AC000812126C7950121434806E74682508F546
:1057BC0082E43408F583740180407401650B705EDB
:1057CC001258575059E89007D3802F7401650B700D
:1057DC004D8E828F83E0F8C3940A5042E8900FE913
:1057EC0080187401650B70368E828F83E0F874F923
:1057FC0028C3940A5028E8900FEBF0804774016599
:10580C000B701B900866E0F88E828F83E090086620
:10581C00F0E87030E06401702B12125A8026750A81
:10582C00188021C3EA9427EB940050157402650B81
:10583C00700F8E828F83126315120564E9F50A804E
:10584C0003750A02A90A7406025B168E828F83E026
:10585C00F8C3940222740E1218787F040219A474EF
:10586C00F01218D274B11218628C0C8D0D909064D9
:10587C0074201218C8740612177574201218C812E6
:10588C001212E9FE745F1218AEE0F50AEEC3940A28
:10589C0040030259E875F006EEA4F508744112189D
:1058AC00C87A0E74202508F912142EE97009744D6B
:1058BC001218AEE0FF80027F00900FE6E0640270E9
:1058CC0005750E018003750E007408650A7004746A
:1058DC0022800274212508F50F7C1B7D0079007451
:1058EC00261218C01210F8EFA2E0E433F509742662
:1058FC001218C87A1BA90F12142EE97025744012C5
:10590C0018AEE024F9C3940A5018780E121AE974F0
:10591C00271218C8A909AA0CAB0D1206067401129D
:10592C0018787C147D007900740C1218C01210F8D1
:10593C00740C1218C87A1074242508F912142EE964
:10594C0070307C1079FF740C1218C0121158E97069
:10595C0021741C1218AEAC82AD837A047425250810
:10596C00F912142E740C1218C8A909AA0CAB0D123A
:10597C0005EEAC18AD197A0C74702EF912142EE9D0
:10598C007049AA18AB191212427E00EE75F003A4EE
:10599C00F8A9F0851882851983E58228F8E5831229
:1059AC00612112630F601D88828983A3A3E0F5082F
:1059BC007509007808121AE5AA0CAB0D1208587478
:1059CC00021218780EEEC3940440C0EFA2E1500C02
:1059DC009007BEE0F9AA0CAB0D12085E7404650AC0
:1059EC007027900FE6E06402701F7A009007D2E0F7
:1059FC0060010A9007BFE06004780480027800E838
:105A0C004AF9AA0CAB0D1206AE7900744F025B1664
:105A1C0074F01218D274F0121862EAFEEBFF8C08C4
:105A2C008D09750A0AE9600C14600914603B146056
:105A3C007D025B12121254E9F50AC3940A40030268
:105A4C005B12E50845097003025B12750C06750DB7
:105A5C0000780C121AE5EEFCEFFDAA08AB09121047
:105A6C00E07402121878025B12750C00750E067544
:105A7C000F00780E121AE5EEFCEFFDE50C75F00E3A
:105A8C00A4F8A9F074E028FA740739FB1210F27428
:105A9C0002121878E9700B050CE50CC3940A5066D9
:105AAC0080CA850C0AE50AC3940A505A8049750CC1
:105ABC0000AC18AD197A1075F006E50CA42423F986
:105ACC0012142EE9701C7C1079FFAA18AB19121154
:105ADC0058E9700EEEFCEFFDAA18AB191205D0E9CF
:105AEC00600B050CE50CC3940A501B80C4850C0A92
:105AFC00E50AC3940A500FE50845096009AA08ABEA
:105B0C0009A90A12124EA90A74101218787F0802F9
:105B1C0019A474F41218D2890875091574FF6A70E7
