:020000040000FA
:060000000201070220943A
:03002B000224C5E7
:03003B000224E6B6
:0300430002249FF5
:0300530002210A7D
:10008300021F43E5C754F84401F5C7790122000074
:100093000080FB120086B900030200F1E4792178A5
:1000A30008B800028004F709D8FCE479297802B87B
:1000B30000028004F709D8FCE490028178AD790A44
:1000C3008002F0A3D8FCD9FA7A2D7B0C9001377803
:1000D3000279048015E493A3AD82AE838A828B8375
:1000E300F0A3AA82AB838D828E83D8E9D9E7758288
:1000F3000875839C740312011975829175830074CA
:100103000012011975D00075813F751881751902A8
:10011300759F00020096C09FF59FE473D09F22D085
:1001230083D082C09FE493C0E0740193C0E0740263
:1001330093F59F22FF0000B4000028002800283018
:1001430075A000A000A000A00000080008E001F0D6
:10015300001000100010001000100010005000509C
:1001630000500010001000D0070000000000000F36
:100173000001000500307507001000010081FF0039
:10018300000000FF360654063C06FF020202080286
:100193005000A0000000E803029D9001000084903D
:1001A300029990010000840C028D90010000B302BB
:1001B300029990010000850C028F90010000C90292
:1001C300029990010000860C029190010000CB027D
:1001D300029990010000870C029390080000CC0262
:1001E300029990010000880C029590010000890C8F
:1001F300FF0100FF20029D9001000087900299906B
:10020300010000ED0C029790000000000002E68F51
:100213000300001903720C720C720C720C720C72D4
:100223000C720C720C720C720C720C720C720C4805
:100233000F600F420FFFFF020202020202020202DC
:10024300010D0000001001029D900100008A900240
:100253009990010000300D02B3900100005D070288
:100263009990010000310D02B190010000D98F0275
:100273009990010000320D02AF90010000BD8F0282
:100283009990010000330D02AD90010000F38E023E
:100293009990010000340D02AB90010000178F020A
:1002A3009990010000350D02A9900100003B8F02D7
:1002B3009990010000360D02A790010000298F02DA
:1002C3009990010000370D02A590010000CB8F0229
:1002D3009990010000380D02A390010000390D012F
:1002E300E803053F100AFF00013075030201060011
:1002F30000000000000000000000000000000000FB
:100303000000000000000000000000FFFF06008066
:100313000CE803140953696D706C65424C455065D4
:10032300726970686572616C051250002003020ADD
:10033300000201060302F0FF53696D706C652042F1
:100343004C45205065726970686572616CD4130006
:1003530000DA130A436861726163746572697374C6
:100363006963203100024368617261637465726975
:100373007374696320320008436861726163746552
:100383007269737469632033001043686172616337
:10039300746572697374696320340002436861721F
:1003A30061637465726973746963203500029D909B
:1003B30001000081900299900100004C0E02B99057
:1003C3000300001E0C02C3900100004D0E02999021
:1003D3000100005E0E02BB900100001F0C02C390DF
:1003E3000100005F0E029990010000700E02BD90A3
:1003F300020000200C02C390010000710E029990CC
:10040300010000820E02BF90000000210C02E68F63
:10041300030000220C02C390010000830E02999096
:10042300010000940E02C190040000280C02C39046
:10043300010000950E120122C08F03120122D78FF3
:100443000312012208900312012243900312012296
:100453006D9003120122979003120122AE900312B2
:100463000122C59003120122DC900312012205919F
:10047300031201221891031201222E910312012269
:100483004191031201226891031201220198021281
:1004930001220599021201223D990212012260995B
:1004A300021201226B99021201228E990212012279
:1004B3009D9A02120122729B02120122ED9B0212EB
:1004C3000122759C02120122B09C02120122E79CB8
:1004D30002120122759D021201224E9E0212012276
:1004E300AE9E02120122B99E02120122389F02120D
:1004F30001223B9F021201223E9F02120122CD9F45
:1005030002120122D09F0212012200A00212012234
:100513002AA00212012218A102120122CAA1021268
:100523000122CFDA02120122F7DA0212012225DBBD
:10053300021201225CDB02120122BADB0212012247
:1005430005DC0212012250DC0212012290DC0212AD
:100553000122D6DC0212012204DD02120122C1DDD6
:1005630002120122CBDD02120122D8DD0212012286
:100573000BDE02120122D7DE02120122E3DE021297
:100583000122FBDE0212012205DF0212012233984F
:1005930003120122419803120122599803120122E6
:1005A300719803120122E7B00112012293B10112E3
:1005B30001220EB2011201222FB3011201226BB3E9
:1005C3000112012214B401120122FBB4011201220F
:1005D3005FB601120122B6B60112012237B701122A
:1005E300012227B80112012274B801120122FAB8BC
:1005F300011201222CB90112012240BB0112012276
:1006030082BB01120122A0BB0112012223BC0112F1
:100613000122F7BC01120122BFBD01120122EEC467
:1006230002120122C1C5021201226AC6021201226C
:10063300BDC6021201226DC702120122F9C70212BE
:100643000122E5C80212012214C90212012227CA9B
:10065300021201226FCA0212012244CB02120122AA
:1006630080CB021201229CCB021201223C9A03127C
:10067300012264F0021201227AF002120122A0F098
:1006830002120122BCF102120122C6F1021201225E
:10069300FBF202120122F3F30212012211CC021225
:1006A300012241CD0212012274CD02120122BECDDC
:1006B3000212012285CF02120122F8A001120122A7
:1006C30062A101120122C1A201120122D1A20112CF
:1006D3000122FEA20112012255A301120122FEA34F
:1006E3000112012205A501120122CFA50112012247
:1006F3002FA70112012272A70112012217A80112CA
:10070300012264A8011201228AA80112012298AAD7
:10071300011201229DAA01120122A2AC011201229F
:10072300EFAC0112012262AD0112012295AD01125B
:10073300012237AE01120122E0AE0112012218AFED
:10074300011201221BAF0112012263AF0112012228
:10075300A3AF01120122FAAF01120122F5850312A0
:1007630001220D86031201225586031201226B8694
:1007730003120122B28603120122C6870312012249
:100783005388031201229E88031201225825001266
:1007930001226425001201229F2500120122E42573
:1007A30000120122A426001201222A27001201228C
:1007B3008F2700120122BB2700120122F427001207
:1007C3000122322A00120122162C00120122FC2DD2
:1007D300001201223F2F001201228D31001201224B
:1007E3009F3200120122EA3300120122FA3400126E
:1007F30001221735001201225235001201227435ED
:1008030000120122D73500120122983A0012012268
:100813002D3B001201227E3B00120122A53B001258
:100823000122F73B00120122153C001201226F3C0A
:1008330000120122583D00120122CE3E0012012275
:10084300523F0012012238D10212012242D1021278
:10085300012285D102120122A0D10212012230D23B
:100863000212012258D20212012295D2021201224F
:10087300CCD202120122F5D2021201226AD3021251
:1008830001227FD30212012294D302120122C5D383
:1008930002120122D9D302120122FED30212012233
:1008A30038D40212012264D4021201229CD402120F
:1008B30001221BD50212012246D5021201228FD535
:1008C30002120122B9D502120122E4D50212012239
:1008D3004694031201220080021201222E8002128A
:1008E30001227C81021201225C82021201227B829C
:1008F30002120122F882021201223B830212012218
:10090300918402120122528502120122D987021216
:1009130001227A88021201227089021201226D8A51
:1009230002120122C78B02120122528C02120122EF
:10093300797E00120122E27E00120122367F00122C
:1009430001225D7F001201228E7F001201223AE410
:1009530002120122A7E402120122EEE40212012292
:1009630006E60212012202E702120122E5E7021261
:10097300012279F701120122BBF7011201228DF83E
:100983000112012266F90112012260FA0112012209
:1009930042FB01120122ABFB0112012261FC011295
:1009A3000122D5FC0112012241FD011201226AFD3F
:1009B30001120122E4FD011201227DFE0112012236
:1009C300E2FE01120122F7FE011201223DFF011294
:1009D300012256FF01120122BBFF01120122BEFFB9
:1009E30001120122FC820312012224830312012239
:1009F30062830312012220840312012287840312DB
:100A03000122A38403120122CB8403120122FB845B
:100A1300031201220A850312012287850312012290
:100A2300AD8503120122C6900112012264920112C4
:100A330001227F9401120122BB9401120122E89446
:100A430001120122CD9501120122149601120122F5
:100A53005896011201226A9601120122AA960112E6
:100A63000122D796011201222297011201226297D5
:100A730001120122909701120122E2970112012231
:100A8300729801120122109B01120122269D01126C
:100A93000122649D01120122F59E011201223A9F57
:100AA30001120122B19F01120122FB9F01120122B7
:100AB30026A001120122CDA00112012205AC0212CF
:100AC300012284AC0212012246B20212012255B362
:100AD30002120122BDB40212012254B502120122F4
:100AE300E353001201222C54001201225954001224
:100AF30001228C5400120122995400120122A554A0
:100B030000120122B754001201229E550012012245
:100B1300FC550012012231560012012274570012B3
:100B23000122C15700120122E55700120122525837
:100B330000120122105900120122C9590012012288
:100B4300365A00120122E85A00120122F85A001202
:100B530001227F5B001201223E5C001201226B5CCA
:100B630000120122E45C00120122415D0012012205
:100B73008B5D00120122215E00120122EC5E001245
:100B83000122A15F00120122166000120122776088
:100B930000120122E160001201221A6100120122F7
:100BA300BC6100120122CC62001201220C6300120C
:100BB30001222963001201224863001201228F637C
:100BC30000120122B46300120122E1630012012228
:100BD3005B64001201229C6400120122C0650012B2
:100BE3000122706600120122C766001201223167DA
:100BF300001201224A67001201223BA202120122C3
:100C03008EA2021201229AA2021201226FA30212E1
:100C1300012296A302120122D1A3021201223DA4B2
:100C23000212012279A402120122B2A402120122A9
:100C3300CAA4021201221FA50212012238A5021220
:100C4300012281A50212012294A502120122AEA55E
:100C530002120122C4A502120122F7A602120122E6
:100C63003EA80212012240A9021201223AAA02124C
:100C73000122FCFF0212012242EA0112012272EA5E
:100C8300011201223AEE0112012291EF0112012217
:100C93005AF001120122DAF101120122ABF2011220
:100CA3000122E8F2011201220BF30112012249F39E
:100CB3000112012252F3011201229CF301120122BB
:100CC300A6F30112012250F40112012229F50112A7
:100CD30001227DF501120122DFF50112012232F614
:100CE3000112012261F6011201229EF60112012274
:100CF3007C6700120122E36A00120122E96A0012F2
:100D030001226B7000120122E47400120122BA78EE
:100D13000012012202FB0212012278FB02120122BD
:100D23008EFB02120122CFFB0212012209FC0212E6
:100D3300012282FC02120122BDFC0212012230FDBB
:100D4300021201226EFD0212012277FD021201221C
:100D530083FD021201229FFD02120122CAFD02122B
:100D63000122E0FD0212012224FE021201220CD60E
:100D7300021201221FD60212012239D602120122C7
:100D830062D602120122A5D602120122E4D6021271
:100D9300012222D70212012287D7021201229CD7F5
:100DA30002120122A7D702120122B4D70212012292
:100DB300CBD702120122D9D702120122E4D70212A1
:100DC3000122F0D70212012203D8021201220ED807
:100DD3000212012231D802120122D8D802120122B2
:100DE300E8D80212012202D9021201221FD90212EB
:100DF30001223BD90212012260D9021201226BD9CE
:100E03000212012280D90212012294D90212012274
:100E1300F5D902120122FBD90212012201DA0212D0
:100E2300012207DA021201221FDA0212012252DA28
:100E33000212012249CE01120122CDCE011201225A
:100E43007CCF01120122DBD001120122FCD201125C
:100E53000122E8D3011201221DD4011201223FD441
:100E630001120122EED401120122E6D6011201225F
:100E73000FD701120122A1D701120122D3D70112E8
:100E83000122E0D70112012237D8011201225DD8D5
:100E930001120122CADA01120122CDDB0112012261
:100EA30025DC01120122D8BF01120122E2C0011286
:100EB3000122C9C101120122D3C101120122F5C1CC
:100EC3000112012201C2011201229AC3011201225D
:100ED300C9C301120122E5C4011201223EC5011258
:100EE3000122A4C60112012283C701120122DFC716
:100EF300011201224CC80112012287C801120122EA
:100F0300C6C8011201227FCB0112012299CB011223
:100F1300012225CC0112012233CC011201228CCCF7
:100F2300011201229ACC011201220DCD01120122DC
:100F330071CD01120122BBCD01120122D38C021209
:100F43000122F58C021201221B8F02120122309220
:100F530002120122489302120122FB930212012280
:100F6300DD940212012254FE0212012279FE0212C2
:100F73000122EBFE0212012274BD021201227DBD89
:100F83000212012286BD021201225DBE021201225B
:100F93000EC00212012244C0021201227EC00212BC
:100FA3000122B4C002120122EEC00212012222C1A8
:100FB300021201224EC10212012297C10212012222
:100FC300D1C1021201221AC20212012272C20212FA
:100FD3000122A7C20212012202C3021201223CC350
:100FE300021201228DC302120122C3C30212012283
:100FF300FDC3021201222BC4021201224EC40212AB
:1010030001220A99031201223699031201229199AE
:10101300031201229B9903120122AB9903120122AD
:101023000979001201221379001201225179001269
:1010330001229A7900120122D479001201222A7A1C
:10104300001201224B7A00120122547A001201226B
:101053009F7A00120122C87A00120122D27A00126A
:1010630001223E7B00120122D47B001201221E7C4E
:10107300001201224E7C00120122D77C00120122B1
:10108300177D001201224F7D00120122617D0012A3
:101093000122807D00120122897D001201224F7EF0
:1010A30000120122639603120122D18D0312012241
:1010B300078E031201223D8E03120122868F031233
:1010C30001223A9B03120122509B031201225A9BD5
:1010D30003120122A49B03120122A7E80212012298
:1010E300BCE8021201226FE902120122AFE90212E7
:1010F3000122C8E902120122FCE90212012249EA93
:10110300021201227DEA02120122BFEA0212012227
:10111300BBEC021201225A97031201228397031296
:101123000122AC9703120122EE9703120122C88811
:1011330003120122ED8803120122178903120122EF
:10114300A49C03120122B93F001201221D42001286
:101153000122CE4300120122D0440012012259453C
:1011630000120122DD450012012202460012012273
:101173003B4900120122AF4900120122A04A00128A
:101183000122DA4A001201221A4B00120122CD4C2D
:1011930000120122204D00120122694D001201228A
:1011A300D74D00120122094E00120122214E0012D6
:1011B3000122364F00120122464F001201226150D4
:1011C30000120122835000120122B95000120122A1
:1011D3005D52001201229C5200120122BE530012E2
:1011E3000122FE9C031201225B9C031201229A9CA2
:1011F30003120122EB9C03120122C09A0312012263
:10120300D09A03120122E89A03120122319B03129E
:1012130001225F9503120122E495031201224A96EB
:1012230003120122F9FF0212012217930312012272
:101233002C9303120122A09303120122BA930312E7
:101243000122D19303120122E49303120122FC939E
:1012530003120122119403120122C8EC021201228B
:10126300DFEC0212012258ED021201222DEE0212CE
:101273000122FFEF0212012293F70212012223F847
:1012830002120122A1F8021201222AF902120122FA
:10129300BFF90212012249FA0212012253FA021281
:1012A300012262FA0212012278FA021201228BFA57
:1012B30002120122EBFA02120122FFFA02120122A8
:1012C300B599031201221F9A03120122319A0312C4
:1012D30001227A9103120122CA910312012253922D
:1012E30003120122B99203120122948B03120122E9
:1012F300BE8B03120122848C031201225F8D031221
:1013030001227EB5021201223BB60212012276B6F9
:10131300021201229EB60212012200B7021201221A
:101323004CB702120122ACB7021201223FB80212DB
:1013330001223EB902120122CDBA0212012250BB90
:1013430002120122B7BB02120122CEBB02120122FA
:10135300D8BC0212012216BD0212012273DC011253
:101363000122D3DF011201225BE101120122B2E16A
:1013730001120122D1E1011201224FE201120122E5
:10138300DFE301120122C3E401120122CFE80112BB
:1013930001229FE9011201220080031201222F8002
:1013A300031201224580031201228D8003120122C0
:1013B300CF80031201223A81031201220B8203120E
:1013C30001227782031201228CDF02120122C2E181
:1013D3000212012261E2021201225CE302120122E3
:1013E30085E302120122F2E302120122FDF302124B
:1013F300012242F4021201225FF40212012215F5C6
:101403000212012268F50212012246F6021201229B
:101413005AF702120122D47F00120122E2FF01E0F7
:1014230066701008A3E066700A08A3E066700408FB
:10143300A3E06622C3E7960809E7960809E796083A
:1014430009E79622C3E09608A3E09608A3E096086E
:10145300A3E09622C008C3E096F50808A3E09642ED
:101463000808A3E096420808A3E09645087001D354
:10147300D00822080808EAC0E0EBC0E086F0E7A441
:10148300FA180986F0E7A42AFA180986F0E7A42ACD
:10149300FA180986F0E7A42AFA1986F0E7A4FBE50F
:1014A300F02AFA190886F0E7A42BFBE5F03AFA19BB
:1014B3000886F0E7A42BFBE5F03AFA18180986F042
:1014C300E7A4C5F02BFBE43AFA1908E7C5F0C6A474
:1014D30026F6E5F03BFBE43AFA1886F0E7A4F6E5D6
:1014E300F00826F6E43B08F6E43A08F6D0E0FBD031
:1014F300E0FA22E4CFC0E0E4CEC0E0E4CDC0E0E413
:10150300CCC0E075F020E626F608E633F608E633AD
:10151300F608E633F6181818EC33FCED33FDEE331A
:10152300FEEF33FFC3EC9709ED9709EE9709EF97A9
:10153300191919400FFFEC97FC09ED97FD09EE9778
:10154300FE191906D5F0BFECF709EDF709EEF70917
:10155300EFF7191919D0E0FCD0E0FDD0E0FED0E0A0
:10156300FF226016080808C6C313C618C613C61898
:10157300C613C618C613C6D5E0EA227009080808C0
:10158300226016181818C6C333C608C633C608C661
:1015930033C608C633C6D5E0EA22E627F60809E6CD
:1015A30037F60809E637F60809E637F622E026F6A5
:1015B30008A3E036F608A3E036F608A3E036F622E1
:1015C300E026F008A3E036F008A3E036F008A3E035
:1015D30036F022C3E697F60809E697F60809E69778
:1015E300F60809E697F622C3E096F008A3E096F022
:1015F30008A3E096F008A3E096F022E056F608A3CD
:10160300E056F608A3E056F608A3E056F622E056A5
:10161300F008A3E056F008A3E056F008A3E056F064
:1016230022E0F608A3E0F608A3E0F608A3E0F6221A
:10163300E6F008A3E6F008A3E6F008A3E6F022E04C
:10164300FAA3E0FBA3E0FCA3E0FD22EAF0A3EBF0A6
:10165300A3ECF0A3EDF022E0F8A3E0F9A3E0FAA3F2
:10166300E0FB22E8F0A3E9F0A3EAF0A3EBF022CA3F
:10167300C0E0E6F0A308DAFAD0E0FA22CAC0E0E05C
:10168300A3C582CCC582C583CDC583F0A3C582CC57
:10169300C582C583CDC583DAE6D0E0CA22C3E49808
:1016A300F8E499F91216E18026C3E49AFAE49BFB65
:1016B300E920E7E91216E1E498F8E499F922C3E492
:1016C30098F8E499F91216E1E498F8E499F9C3E477
:1016D3009AFAE49BFB22EB20E7CFE920E7E0B9008D
:1016E30010BB0008E88AF084F8AAF022E4FBC8FAE9
:1016F30022EB70227B10C833C8C933C9335007C3E8
:101703009AC3DBF280069A50012ADBEAC833F4C895
:10171300C933F4C9FA2275F008E4C833C8C933C918
:1017230033C99AC99B5004C92AC93BD5F0ECFBC8FD
:1017330033F4C8E4C9FA22600D08C6A2E713C61839
:10174300C613C6D5E0F322600C08C6C313C618C679
:1017530013C6D5E0F422700422600D18C6C333C645
:1017630008C633C6D5E0F41822251810AF08F518BB
:10177300400C15198008F51840021519D2AF220044
:10178300C0D0251810AF08F518500C05198008F5BE
:101793001850020519D2AFD0D0222518F58210AF08
:1017A30008F518400C15198008F51840021519D2D0
:1017B300AF851983222518F582E43519F58322258F
:1017C30018F8E43519F9222518FAE43519FB22250E
:1017D30018FCE43519FD22E4732518C582C0E0E541
:1017E3001934FFC583C0E0E518C3958224F810AF10
:1017F300088583198582188008858319858218D204
:10180300AFCEF0A3E520F0A37808E608F0A3DEFA54
:10181300EFF0A3E58124FAF8E608F0A3E608F0A3C5
:10182300E608F0A30808E608F0A3E608F0A315818C
:101833001581D0E0FED0E0F8158115811581E8C04F
:10184300E0EEC0E0222518C582C0E0E51934FFC5EB
:1018530083C0E0E518C3958224F910AF0885831986
:101863008582188008858319858218D2AFCEF0A3AC
:10187300E520F0A37808E608F0A3DEFAEFF0A3E58D
:101883008124FBF8E608F0A3E608F0A30808E608BD
:10189300F0A3E608F0A315811581D0E0FED0E0F8AF
:1018A30015811581E8C0E0EEC0E022851983851813
:1018B30082E0A3FEE0A3F5207808E0A3F608DFFAB0
:1018C300E0A3FFE0A3C0E0E0A3C0E0E0A3C0E0E04A
:1018D300A3C0E0E0A3C0E010AF0885821885831998
:1018E3008008858218858319D2AFD083D082020104
:1018F3001F851983851882E0A3FEE0A3F5207808ED
:10190300E0A3F608DFFAE0A3FFE0A3C0E0E0A3C092
:10191300E0E0A3C0E0E0A3C0E010AF088582188533
:1019230083198008858218858319D2AFD083D0822A
:1019330022C0D02518C582C0E0E51934FFC583C095
:10194300E0E518C3958224F310AF088583198582D7
:10195300188008858319858218D2AFC8F0A3E9F0EF
:10196300A3EAF0A3EBF0A37908E709F0A3D8FAEC14
:10197300F0A3EDF0A3EEF0A3EFF0A3D0E0F0A3D03B
:10198300E0F0A3D0E0F0A3E520F0A3E5F0F0A3227C
:10199300851983851882E0C0E0A3E0F9A3E0FAA3E8
:1019A300E0FBA37808E0F608A3DFFAE0FCA3E0FD80
:1019B300A3E0FEA3E0FFA3E0C0E0A3E0C0E0A3E058
:1019C300F5D0A3E0F520A3E0A3F5F010AF088583DD
:1019D300198582188008858319858218D2AFD08231
:1019E300D083D0E0F8D0E032740480067402800221
:1019F3007401C0E0F40412179DD0E0121672227431
:101A030004800474028000CCC0E0EDC0E0E518C39C
:101A13009CCCAD1950011D10AF068C188D19800692
:101A23008C188D19D2AF12167FD0E0FDD0E0FC22C6
:101A3300D083D082E9C0E0E493A3C386F0C5F095D8
:101A4300F0F908E493A386F0C5F095F0700BE493E6
:101A5300A3C3994005E9048002A3E475F002A42519
:101A630082F582E5F03583F583D0E0F9E493A3C0F2
:101A7300E0E493C0E022D083D082ECC0E0EDC0E08C
:101A8300E493A3FCE493A3FDED4C600D121AC5ECA3
:101A930024FFFCED34FFFD80EFE493A3FCE493A368
:101AA300FDED4C600D121B04EC24FFFCED34FFFD37
:101AB30080EFD0E0FDD0E0FCE493A3C0E0E493C06A
:101AC300E022C0E0C3E49396087401939618400F94
:101AD300E49366700808740193661870007019A384
:101AE300A3C3E49396087401939618A3A3400DD05F
:101AF300E0D0E0D0E0021AB5A3A3A3A3A3A3D0E050
:101B030022C0E0C0F088F0E4936670080874019383
:101B130066187000A8F0A3A3700BD0F0D0E0D0E05B
:0C1B2300D0E0021AB5A3A3D0F0D0E0225D
:101B300074F5121848EAFEEBFFEE2434F8EF340097
:101B4000F988088909EE2435121C5CF8EE24371256
:101B50001C5CF50AEC850AF0A4FCAAF0850AF0EDFD
:101B6000A42AFDE82CF8E43DF97A257B001216E161
:101B7000EA850882850983F074075AF87401B80071
:101B8000028004C333D8FCFBEA131313541FF8EE8E
:101B900028F8EF3400F9E8245DF582E9121C5F5B58
:101BA0006003EA801CEE2436121C5CF5F0EA84A87F
:101BB000F0EE28F8EF3400F9E82438F582E9121C39
:101BC0005FF97F040218F474F5121848EAFEEBFF7F
:101BD000EE2434121C5CC0E0EE2435F582EF3400B4
:101BE000F583D0E0F08E828F83A3A3A3A3A3E0FAB2
:101BF000A3E0FB8E828F83A3A3A3A3A3A3A3E0FCF4
:101C0000A3E0FDECC39AF50AED9BF50BEE247FF5FE
:101C100008EF3400F509850882F583E06401702B34
:101C2000EE2480F582EF3400F583121A06121C654B
:101C30007402121782E960137CDC7D04EEFAEFFB7C
:101C4000120B9A850882850983E4F0AC0AAD0BEE8D
:101C5000FAEFFB121B3012248B021BC2F582EF3409
:101C600000F583E022C082C083851882851983E055
:101C7000F8A3E0F9C3EA9CEB9D5010C3EC98ED99F2
:101C8000401BC3EA98EB995014800EC3EA98EB9975
:101C90004007C3EC98ED994004790180027900D0A7
:101CA00083D08222EAC39CFAEB9DFB2274ED1218CA
:101CB000489003A2E064086005E06407702C90611E
:101CC000C8E060269003D0E0F874FF68601CE875F7
:101CD000F003A4C8AAF02AF974D228FE740339FFCD
:101CE0008E828F83A3A3A3E070057900021E4CEEC1
:101CF0002468F510EF3400F511906060E0851082E3
:101D0000851183F0750A45750B0575080075090086
:101D1000E5D914F50EE5D95403F50F601CEE2482C5
:101D2000F50CEF3400F50D7403650F6058E50E6097
:101D300013EE2467121C5C700B793DEEFAEFFB1278
:101D40000BBE80A6900540E064016026850C82856C
:101D50000D83E06004780480027800850E08E508B1
:101D6000C398FA95E0FB120A388A088B09EA4509FC
:101D70007006120E16021CEA850C82850D83E07037
:101D8000048A0A8B0B78008016E5D9C0E08812E53A
:101D90000A2512F582E50B3400F583D0E0F008E85F
:101DA000C3950E40E4850C82850D83E0602874FCA9
:101DB000250EF50E780A1219EFAC0EA90FEEFAEF08
:101DC000FB120C6C7402121782E9700AAA08AB09A4
:101DD0001212D8021D397403650F6058850E0C75F8
:101DE0000D00780C1219EFAC0AAD0BAA08AB091262
:101DF0000C307402121782851082851183E0F8740A
:101E000080687005750C7F8002880CE50CF50A78F7
:101E10000A1219F3E50FF50A780A1219F3A90EACA4
:101E200008AD099003D0E0FA7B001208D0740212CA
:101E3000178280139003A2E06408600BAC0AAD0B1C
:101E4000EEFAEFFB120D02120E2279017F0C02183E
:101E5000F474F312184874FC12176CEAFEEBFF8955
:101E600008A2AFE433F509C2AFEE2463F50AEF34FC
:101E700000F50B8010AA0AAB0B120BE81212D890D7
:101E800004E3E004F0850A82850B83E0F8A3E0F91F
:101E9000E849602FE82402FAE93400FBEA2402F55D
:101EA0000CEB3400F50D780C1219EF8A828B83E06D
:101EB000FCA3E0F9EEFAEFFB120BDC7402121782BE
:101EC000E960B29004E3E060579004E4E0F8900425
:101ED000E3E0C398500C7402650870449004E5E098
:101EE000603E8E828F83A3A3A3A3E0851882851909
:101EF00083121F3074021217B8E8121F309004E2E8
:101F0000E028F074021217B8AC82AD838518828580
:101F10001983AA82AB8379011208DC9004E3E4F010
:101F2000E509A2E092AF74041217827F060218F44A
:101F3000F0A3E4F09004E3E0F82200008521878517
:101F400022C622C0E074EF121934A2AFE433FEC2FD
:101F5000AF759B00906182E0A2E05012E591A2E093
:101F6000500C7591FE740165217003121CACE0A247
:101F7000E55051E591A2E5504B7591DF9003A2E049
:101F800064076005E0640870237401652170357989
:101F9000019003D0E0FA75F003A4CAA8F028FB74FE
:101FA000D22AFA74033BFB121E518018E0640D70B4
:101FB000139003C4E004F064287002E4F07A00E0B7
:101FC000F9120E28906182E0A2E6400302206AE541
:101FD00091A2E6400302206A7591BF9003A2E064DB
:101FE000057008120D44120D508003120D4A752120
:101FF00000120DB6E99003A3F07900120DAA120B9E
:10200000047A017B009003A1E0F912107A90780322
:10201000E064427055900544E014F0704DC2AF1278
:10202000202200782AD0E0F618D0E0F6E59F540789
:1020300070057509FF800375097FC4C0E07829E643
:10204000F50808E65509F509740B780812174AD007
:10205000E02508F8906270E0A2E740F8E8C333900A
:102060006272F0906270E0D2E0F0906181E0A2E3F1
:102070005009E5E9A2E3500375E9F7A3E0A2E750B0
:1020800009E591A2E7500375917FEEA2E092AF7F40
:1020900004021993C0E0C0D0C082C083906183E085
:1020A000A2E05009E5BFA2E0500375BFFEE0A2E147
:1020B0005009E5BFA2E1500375BFFDE0A2E250095F
:1020C000E5BFA2E2500375BFFBE0A2E35009E5BF04
:1020D000A2E3500375BFF7E0A2E45009E5BFA2E414
:1020E000500375BFEFE0A2E55009E5BFA2E550033C
:1020F00075BFDFE0A2E65009E5BFA2E6500375BF59
:10210000BFD083D082D0D0D0E032C0E074F21219B8
:1021100034E5A7A2E4500FE5A1A2E4500953A7EFCC
:1021200075A1EF12215EE5A7A2E5500CE5A1A2E59D
:10213000500653A7DF75A1DFE5A7A2E15009E5A18D
:10214000A2E1500375A1FDE5A7A2E2500CE5A1A212
:10215000E2500653A7FB75A1FB7F0102199374F8A7
:102160001218487521019003A2E0640670077A00F6
:102170007B00120D2CA2AFE433FED2AF9003A8E097
:10218000640170187A207B009003A1E0F91210FE20
:102190007A207B009003A1E0F9121080906182E028
:1021A000D2E6F0900541E0602185C62280169003BA
:1021B000A7E064017008E5C654F84405F5C653BEAF
:1021C000FC121F3C7401652160E4EEA2E092AF7F37
:1021D000010218F48E238F24858228858327851891
:1021E00082851983E0CEA3E0CF852882852783EB03
:1021F000C9EAC8EDCBECCA75F010C3E833C8E933BF
:10220000C9EA33CAEB33CBC3EA9EF526EB9FF5252B
:10221000B35004AB25AA26EC33CCED33CDD5F0DAA0
:10222000AE23AF242274F11218488A088B098C0A55
:102230008D0B90904578081215FE740F1217B87820
:102240000C121624909045780C1215FE7808790C23
:1022500012143790901950107808790C1215D6780E
:10226000081214574014800E780C79081215D6788D
:102270000C12145750047901800279007F0802186B
:10228000F474ED1218488A088B098C0A8D0B909013
:102290004578081215FE74131217B8780C1216241C
:1022A000909045780C1215FE780C7908121437407E
:1022B000117808790C1215D6AA08AB09AC0AAD0B37
:1022C00080227510007511007512007513017810C9
:1022D000790C1215D67810790812159DAA10AB1139
:1022E000AC12AD137F0C0218F490904578081216CA
:1022F000248A828B8378081216117F040218F474E2
:10230000F51218488C828D8378081216248A828BE5
:102310008378081215EA122353C3E098F0A3E099DA
:10232000122345401E90903978081216248A828B19
:102330008378081215C38E828F83E02420F0A3E0F7
:10234000344EF080A4F08E828F83C3E09420A3E00B
:10235000944E22EA2404F8EB3400F9E8FEE9FF8CFD
:10236000828D83A3A3A3A3E0F8A3E0F98E828F83D9
:102370002274F5121848E9FE9004F7E0FAA3E0FB96
:10238000EEC333F8E433F9748F28F582748F39F58E
:1023900083E02AF508A3E03BF50978081219EF90CD
:1023A00090751216421221D474021217828A088B79
:1023B000098C0A8D0B74107808121565AA08AB09F0
:1023C0007F040218F474F11218488A0C8B0D8C0EDD
:1023D0008D0F740F1217B8E0FAA3E0FB74111217F7
:1023E000B8E0F508A3E0F50978081219EFEA24012E
:1023F000F508EB3400F509E4F50AF50B780C7908DB
:102400001214769090497808121624780C790812E4
:102410001476AA0CAB0DAC0EAD0F1221D4740212BF
:1024200017828B09EA450960047A0180027A00EC80
:102430002AFCED3400FD74131217B8E0F8A3E0F99C
:10244000E8FEE9FFECF8EDF97A717B021216E188FB
:10245000088909E4F50AF50B8E828F837808121635
:1024600033ECF8EDF97A717B021216E18A088B09D8
:10247000740578081217598E828F83A3A3A3A3E54E
:1024800008F0A3E509F07F080218F4C082C083E9D0
:10249000906000F0D083D08222C2AF02000022C040
:1024A000E074F2121934A2AFE433FED2AFC2C0E539
:1024B000D1A2E4500653D1EF1212BAEEA2E092AFCD
:1024C0007F01021993C0E0C0D0E8C0E0E9C0E0E5B8
:1024D000A8D2AFC2C7A2E7A2E792AFD0E0F9D0E09E
:1024E000F8D0D0D0E032C0E0C0D0E8C0E0E9C0E031
:1024F000C008C009C082C083A2AFE433F9D2AF9054
:1025000009F4E0F8A3E0687008539AFBA374018013
:1025100025C2E99009F4E0F50874012508F0747407
:102520002508F582E43409F583E0F5C19009F4E06B
:10253000C394804002E4F0E9A2E092AFD083D0825D
:0F254000D009D008D0E0F9D0E0F8D0D0D0E03208
:10255000FFFFFFFFFFFFFFFFC082C083E9900CEC8D
:10256000F00227E774F71217DCE99002E1F07C191A
:102570007D037AFF7BFF12081C9002E274FFF0A338
:10258000F0A3E4F0A3F079051207A49002E1E0F9CA
:102590001206C67A3A7B081209EA7F010218AE7465
:1025A000F41217DC8A088B09EB548060309002E14A
:1025B000E0F91210628A0A8B0BAE0AAF0BEE4F6085
:1025C000138E828F83E064B070031207BCEEFAEFC3
:1025D000FB121050AA08E5096480FB80047A007B96
:1025E000000227B674F21217DC74FC12176CEAFEB4
:1025F000EBFFEE4F603874021217B8EEF0A3EF1243
:102600002A1BECF0A3ED122A1BAA82AB831206C090
:10261000E9F508707374121217B81235CFE50A4540
:102620000B60658E828F83122692EE4F70057508BF
:102630000280557A067B001210B68A0C8B0DA80C0E
:10264000A90DE8497005750813803D88828983E4E7
:1026500012269CA3A3EEF0A3EF123A68E50AF0A3BA
:10266000E50BF09002E71227249002E76017E0FCE8
:10267000A3E08003EAFCEBFD8C828D83122724709B
:10268000F38C828D831234F4A90874041217820229
:102690003C6AA3A3A3A3E0FEA3E0FF22F0A3F0887B
:1026A0008289832274F21217DC890AE975F017A473
:1026B000FEAFF09002E6E4F09002E4122724600AF4
:1026C0001210BC9002E4E4F0A3F0EEFAEFFB12105B
:1026D000B68A088B09EA4509602FEEFCEFFD790008
:1026E00012103E9002E4E508F0A3E509F07B0080BB
:1026F0000812270EE4F0A3F00BEBC3950A40F2E5B5
:102700000A9002E6F0790080027913023C6AEB75C8
:10271000F017A4F8A9F09002E4E028FAA3E0398ABF
:1027200082F5832212328AEA4B2274F41217DC7586
:102730000800750900740C1217B8123A3CFEE9FF44
:10274000800CE5082401F508E5093400F509C3E526
:10275000089CE5099D503285080A85090B740378A9
:102760000A121759EA250AF8EB350BF98882898392
:10277000A3A3A3A3A3A31235CFEE650A7003EF654D
:102780000B70BFE8FAE9FB80047A007B00802774B5
:10279000F41217DC7900EAA2E0501B7508F67509FF
:1027A0008F78081219EF7C047D007AEE7B0C1207FB
:1027B0009E74021217827F040218AEC082C08390FA
:1027C00002E71227EE601C88828983A3A3E06A7067
:1027D00003A3E06B8882898370E8A3A3A3A31232CA
:1027E0008680047A007B00D083D08202011F123DD4
:1027F0003DE8492274EE1217DC74FC12176CEAFEF5
:10280000EBFF851882851983E4F0A3F0EE24021211
:1028100034D8EE2405122A09EE2404F50EEF122D09
:10282000EEE024FE603924FC604624FE605224FE63
:10283000605E24FE700302290E24FE7003022986C6
:1028400024FE700302299524FE70030229A424FCAF
:1028500070030229B324FE70030229C20229FF90EB
:1028600003007417F0A3E4122A2312043E0229FF86
:10287000851882851983AC82AD831207C20229CFE5
:10288000851882851983AC82AD831207C80229CFCF
:10289000850C08850D0974021217B8AC82AD8385CA
:1028A00008828509831232861206E48A0C8B0DACED
:1028B0000CAD0DEC4D6042E4F50CF50D780C1219E1
:1028C000EF750C00750D03780C1219EF750C01757E
:1028D0000D03780C1219EF74081217B8121A067942
:1028E000161232801208047408121782E9F50C706F
:1028F0000B12327C120456800F750C0185088285FC
:102900000983122A111234F4850C080229D27402A8
:102910001217B8AC82AD83850C82850D8312328686
:102920001206E48A108B11AC10AD11EC4D6043859A
:102930000C82850D83A3A3121A067510007511036E
:1029400078101219EF75100175110378101219EF34
:1029500074081217B8121A06791612328012080477
:102960007408121782E9F509700B12327C12045CAC
:10297000800F750901850C82850D83122A1112348E
:10298000F4850908804C851882851983AC82AD8353
:102990001207CE803A851882851983AC82AD8312E6
:1029A00007D4802B851882851983AC82AD831207EA
:1029B000DA801C851882851983AC82AD831207E00A
:1029C000800D851882851983AC82AD831207E6E9F4
:1029D000F508E50860298E828F83A3E06414601FE8
:1029E000850E82850F83E0900300122A1B123D3969
:1029F0009003011234F4E508A3122A23120438EEDE
:102A0000FAEFFB1207620233E0F50CEF3400F50D2C
:102A100022123D3D85188285198322F08518828512
:102A2000198322F07C007D03850A82850B83123294
:102A30008A2274EE1217DC74FC12176C8A0A8B0B54
:102A40008C0E8D0FEA2405F508EB3400F5097C1592
:102A50007D0079007A007B0312103EE5082402F520
:102A60000CE509122A0C8518828519838582108548
:102A7000831178101219EF850882850983A3A3A317
:102A8000A3122F361219EFE5082405F510E50934D5
:102A900000F51178101219EF850C82850D83123222
:102AA000901206DE74061217828A108B11AE10AFD8
:102AB00011E50A2402F50AE50B1234DBEE4F700330
:102AC000022BF8801774021217B812328688828996
:102AD00083EAF0A3EBF0900300E004F0900300E041
:102AE000C394054003022BF8E4F510F51178101299
:102AF00019EF7510E975110278101219EF7510EAC7
:102B000075110278101219EF74061217B8121A060E
:102B10007910EEFCEFFD12328012080474081217CF
:102B200082E9705E850882850983A3A3A3A3A3A37A
:102B3000A3E0F89002E9E0687048122F361219EF0E
:102B40007CEA7D02E5082408FAE5093400FB12104E
:102B5000387402121782E960298E828F83A3A3A39F
:102B6000A3123286900300E0F51074027810121759
:102B70005974012510F58274033511F583EAF0A329
:102B8000EBF074021217B885821085831178101249
:102B900019EF74021217B8121A06850C82850D837C
:102BA000123D4E1206EA74041217828A108B11AE7F
:102BB00010AF11900300E0F5107511007402781049
:102BC00012175974002510F874033511F988828999
:102BD00083A31227247003022ABCE82403F8E934F3
:102BE00000F9EE4F6003022AC58882898374FFF0E2
:102BF000A3F0900300E004F0900300E0600A1232BA
:102C00007C12044A7900800B85088285098312347E
:102C1000EB790A0233E074EA1217DC74FE12176CC7
:102C20008C128D13EA2405F50CEB123EB812269691
:102C3000750800750900EA2402F510EB3400F5115F
:102C400085188285198385820A85830B780A121973
:102C5000EF850C82850D83A3A3A3A3122DF812196F
:102C6000EFE50C2405F50AE50D1234DB780A12199C
:102C7000EF850C82850D83123D4C1206DE74061220
:102C800017828A0A8B0BEA450B7003022DA9EA24EE
:102C900004F50EEB122DEE1226968A828B83A3A3E7
:102CA000A3E0F98510828511831232861206CCE9E1
:102CB000F5096003022DA9E4F514F515781412192D
:102CC000EF7514E975150278141219EF7514EA7589
:102CD000150278141219EF74061217B8121A067931
:102CE00013AC0AAD0B85108285118312328612084F
:102CF000047408121782E9F5096003022DA99002F5
:102D0000E9E0F8E5087009E02402900301F080177B
:102D1000900301E0FCE82402FAE43400FBEA6C7062
:102D200001EB6003022DAD850882AA82122F2D943B
:102D300014122F255073850E82850F83E0C0E07436
:102D4000022A122DE5D0E0F00508850E82850F835A
:102D5000A3E0C0E085080A7402250A122DE5D0E040
:102D6000F005089002E9122DF81219EF7CEA7D02B5
:102D700085080A7402250AFA74033400FB1210262F
:102D800074021217829002E9E02508F50874FF6EBC
:102D9000700374FF6F6012EE24010EEF3400FFE544
:102DA00008C394145003022C40E5086013123171DB
:102DB00085108285118312328612045079008014A6
:102DC000E509700375090A851282851383EEF0A365
:102DD000EFF0A90974021217827F0E0218AE85085F
:102DE0000C7402250CF58274033400F58322340040
:102DF000F50F850E82F58322123A7B2274EE1217AC
:102E0000DC74FE12176C8C0E8D0FEA2405F50CEBAA
:102E1000122A0C750B00900300E4F0F50AEA240274
:102E2000F508EB3400F5098049900300E0FA9002C0
:102E3000E9E0F8122F2D9417122F25400D90030072
:102E4000E0F87416C3989002E9F0122F361219EFC9
:102E50007CEA7D0274012AFA74033400FB12102606
:102E600074021217829002E9E0F8900300E028F063
:102E7000050AE50C2416F582E50D122DE9E0F8E5CA
:102E80000AC3984003022F0E900300E0C39416502B
:102E90007DE50AC333F8E433F9E50C28FEE50D3986
:102EA000FF851882851983AC82AD838E828F831251
:102EB00032861206E48A108B11AC10AD11EC4D7005
:102EC00005750B018043E4F510F51178101219EF28
:102ED0007510E975110278101219EF7510EA751165
:102EE0000278101219EF74061217B8121A06791622
:102EF0008508828509831232861208047408121725
:102F000082E9F50B7003022E291234E780107C0051
:102F10007D03850882850983123286120462A90B1B
:102F200074020233E2E99400C365D03322EA28F840
:102F3000E43400F9E822E0F51075110078102274ED
:102F4000EA1217DC74FC12176C8A0C8B0D8C128D34
:102F500013EA2405F50AEB1234DB75080075090045
:102F6000E50A2402F510E50B3400F511740212177E
:102F7000B885820E85830F780E1219EF850A828537
:102F80000B83A3A3A3A3123A271219EFE50A240582
:102F9000F50EE50B3400F50F780E1219EF8510824F
:102FA0008511831234E11232801206DE7406121784
:102FB000828A0E8B0FAE0EAF0FE50C2402F50EE5E4
:102FC0000D3400F50F80408882898374FFF0050876
:102FD000122DDE74FFF005089002E9E0F50C750D86
:102FE00000780C1219EF7CEA7D0285080C7402252A
:102FF0000CFA74033400FB1210267402121782902C
:1030000002E9E02508F508EE4F60718E828F83A3F8
:10301000A3A3E0F9850E82850F831232861206CCB7
:10302000E9F509EE2404122A09E97044E4F514F5DF
:103030001578141219EF7514E97515027814121920
:10304000EF7514EA75150278141219EF7408121747
:10305000B8121A067911EEFCEFFD850E82850F83FA
:103060001232861208047408121782E9F5096027E3
:10307000850C82850D831231671234F4E5087003E4
:1030800002314D123171850E82850F831232861204
:1030900004687900023162850882AA82EA9002E916
:1030A0007009E02404900301F08022E0F89003010D
:1030B000E0F514E82404FCE43400FDEC6514700130
:1030C000ED70C0122F2D9412122F2550B6850C8250
:1030D000850D83E0C0E074022A122DE5D0E0F005F2
:1030E00008850C82850D83A3E0C0E0122DDED0E0C0
:1030F00012318385820C85830D780C1219EF7404CC
:103100001217B8121A06851082851183123D4E12CD
:1031100006EA74041217828A0C8B0DAE0CAF0D8573
:10312000080C7402250CF874033400F9EE4F700398
:10313000022FC7851882851983E08882898312311E
:1031400083A3E0C0E0122DDED0E0022FD5E50970A8
:103150000375090A850A82850B831231671234F4DC
:10316000A9097404022DD6123D3D85128285138370
:1031700022900301E0F5F0E50884900300F07C0064
:103180007D0322F005088518828519832274EC12CC
:1031900017DC74FE12176C8A088B098C0E8D0FEAEF
:1031A0002405FEEB3400FF851882851983AC82ADBF
:1031B000838E828F831232861206E48A0A8B0BEE8C
:1031C0002418122A09EA450B70030232571233C938
:1031D00050328518828519831232861207F88A10B8
:1031E0008B11EA4511606B7912AC0AAD0B85088230
:1031F0008509831232868510828511831217DAE9D8
:10320000F50A7058E4F50AF50B780A1219EF8E8268
:103210008F83A3A3E0F50A780A1219EFEE240312B4
:1032200034D8780A1219EF8E828F831232901208E6
:103230000A7406121782E9F50A7021850C82850D41
:1032400083E0701F85088285098312328612046E1E
:103250008011750A0E8009750A018004E50A600371
:103260001234E7850C82850D83E0600479008002CA
:10327000A90A74021217827F0C0218AE7C007D032B
:10328000850A82850B8312328A22E0FAA3E0FB22B0
:10329000E0FCA3E0FD85088285098312328A22744E
:1032A000EE1217DC74FE12176C8A088B098C0C8DD9
:1032B0000DEA2405FEEB3400FF750E0085188285AB
:1032C0001983AC82AD838E828F831232861206E41C
:1032D0008A0A8B0BEA450B70030233B51233C950CF
:1032E000358518828519831232861207F88A0E8B6B
:1032F0000FEA450F605E7912AC0AAD0B8508828536
:103300000983123286850E82850F831217DAE9F55A
:103310000E60030233B88508828509831235CFAA6F
:103320000AFB1207EC8A108B11A810A911E849704A
:103330001E7AFF7BFF1207EC8A108B11A810A911CF
:10334000E849606C88828983E50AF0A3E50BF07593
:103350000A008007750E0E805F050A9002E6E0FA0B
:10336000E50AC39A504AE50A75F017A4FAABF0884B
:10337000828983A3A3E02AFAA3E03BFB8A828B83A2
:103380001234E1EC4D70D2750A17750B00780A12F1
:1033900019EFEEFCEFFD1210267402121782EEFCFC
:1033A000EFFD850882850983123286120474801429
:1033B000750E098003750E01123D35850C82850D51
:1033C000831234F4A90E022F20E5082402F508E543
:1033D000093400F5098A828B83A3A3A3E0A2E52226
:1033E00074041217827F0A0218AE74EC1217DC8C78
:1033F000108D11EA2405F50CEB122A0C750F00EA6A
:103400002402F50AEB1234DB850A82F58312328638
:103410001207EC8A088B09EA450970030234CD755E
:103420000E008071850C82850D83E06401704F8EE3
:10343000828F83A3A3121A068E828F83A3A3A3A3D2
:10344000E0F51275130078121219EFEE2405F5124B
:10345000EF3400F51378121219EF12328012080AB5
:103460007406121782E9F50F6014850C82850D83AE
:10347000E4F0123D358510828511831234F47C17F7
:103480007D007900EEFAEFFB12103E8E828F83E40E
:10349000F0A3F0050E9002E6E0F8E50EC398501E8A
:1034A000E50E75F017A4F8A9F0850882850983A3B5
:1034B000A3123EC21234E1EC4D60030234248508AD
:1034C0008285098374FFF0A3F0E50F700612328045
:1034D00012047AA90F023277F50AEF3400F50B22B5
:1034E000A3E0FCA3E0FD228E828F83123D3D850E7A
:1034F00082850F83E8F0A3E9F022C082C0839002A6
:10350000E2E06A7003A3E06B70067AE27B0280045B
:103510007A007B000227E7C082C08378008C828D0E
:1035200083E06A7003A3E06B7010E875F003A4F801
:10353000A9F0EC28FAED39FB8015088C828D83A365
:10354000A3A3E06A7003A3E06B60DF7A007B000254
:1035500027E774F61217DC1207B68A828B83E5829E
:10356000458370067A007B008007A3A3A3A31232D1
:1035700086023BE674F21217DCE9FE740E1217B8ED
:103580001235CF74101217B8123A478C828D83E02F
:1035900064027036A3123D43F50CA3E0F9A80C7445
:1035A000026870037429697021750C02750D00782A
:1035B0000C1219EF78081219EF780A1219EFEEF9C8
:1035C00012082E740612178280027901023C6AE00A
:1035D000F50AA3E0F50B2274E81217DC74FB12174E
:1035E0006CE9851882851983F08A168B17ECFEED3D
:1035F000FF751000741D1217B8123D39741D121793
:10360000B81234F48E828F83A3A3A3E0A2E4502DDA
:10361000741D1217B81232861207F88A828B83E55E
:103620008245837003023A18790AEEFCEFFDAA1670
:10363000AB171217DAE9F5106003023A1B741F1278
:1036400017B8123A4774211217B81235CF742312E3
:1036500017B8E0F50EA3E0F50F8E828F83E06402C9
:1036600060030239C6A3123D39850882850983A308
:10367000858212858313EE2406122A0988828983A3
:10368000E0FAA3E0F9EA2400F514E439F51578141A
:10369000121A79010000280128BB36070002288091
:1036A000370328ED360029B7380129E2380229838B
:1036B000380329B73804296139C639E50E450F604A
:1036C000030239C1850C82850D83123A3CFAE9FB6D
:1036D0008A828B83E0850A82850B83123A721219E3
:1036E000EF8A828B83A3E0FCA3E002394BE50E4511
:1036F0000F60030239C1850A82850B837401F012C1
:103700003A4F850882850983F07C007D008E828F88
:1037100083A3A3A3A3E02401FAA3E03400FB1206D1
:10372000E4EA4B60418A828B83E02402F8850A82B6
:10373000850B83E028F0EA2404F8EB3400F9888252
:103740008983E0851282851383123A84123A7212B9
:1037500019EF8A828B831234E0E5082403FAE50925
:103760003400FB023950850A82850B83E02404F083
:103770007C047D007900AA12AB1312103E023A1BA2
:10378000E50E450F60030239C1123A4FFEA3E0FF78
:10379000850A82850B837404F0EE8508828509838F
:1037A000F0EF851282851383F074031217B8AC8290
:1037B000AD83EEFAEFFB1206E48A0C8B0DEA450DA1
:1037C00070030238648A828B83A3A3122692740149
:1037D0001217B885820E85830F780E1219EF7405C3
:1037E0001217B8121A067CFF7DFF1206EA74041243
:1037F00017828B0FEA450F7033850C82850D83127B
:103800003A271219EF850C82850D83A3121A067CC4
:10381000027D007A9B7B901205167404121782E9D0
:10382000700A74011217B874FFF0A3F08E828F83B0
:10383000E064027039750C02750D00780C1219EFF6
:103840008E828F831234E0E5082404FAE5093400FF
:10385000FB1210267402121782850A82850B83E000
:103860002402800974011217B8EEF0A3EFF074017E
:103870001217B8123A38F074011217B8A3123A307E
:103880000239BBE50E450F60030239C1850C828504
:103890000D831234E1AA16AB17120822850A82851D
:1038A0000B837402F0EA850882850983F085128211
:1038B000851383EB0239BEE50E450F60030239C163
:1038C000123A4FF8A3E0F9850A82850B837402F05F
:1038D000E8850882850983F0E985128285138302D1
:1038E00039BE850C82850D83123286121020EAFCC7
:1038F0008C82A882C3950EE4950F405FE8650E7038
:1039000002E50F70047C008022851882851983E00F
:10391000FAE50E2AFAE50F3400FBC3EA98EB9400AF
:103920005003E08005E50ECCC39CFCEC850A828543
:103930000B83F08C0A750B00780A1219EF850C8244
:10394000850D83E0250EFCA3E0350FFDAA08AB0929
:103950001210267402121782023A1B751007023ADF
:103960001BE50E450F705A850C82850D83123D397B
:10397000850A82850B83740712269E123A3012261E
:103980009EA3E0851282851383F0E82402FAE934CD
:1039900000FB8A828B83123A30123A5F123A38A3C4
:1039A000123A68123A41F0E82405F8E93400F9883F
:1039B000828983123A41A3123A84A3A3A3A3F0807D
:1039C0005A75100B8055741D1217B81232861207E3
:1039D000B68A828B83E5824583603D123D39880C2F
:1039E000890DE8450D6031780E1219EF780A121929
:1039F000EF78081219EF74061217B8E0F9EEFCEF31
:103A0000FDAA16AB17850C82850D831217DA740692
:103A1000121782E9F510800375100EA910740512B3
:103A200017827F100218AEE0F50E750F00780E2297
:103A3000E085088285098322123A8E22123D3DE8F4
:103A400022123A8EA3A322E0F508A3E0F50922850D
:103A50000C82850D83E0F8A3E0F5838882E022A341
:103A6000A3F08A828B83A322F088828983A3A3A3F5
:103A7000A322F08A828B83123A7B22E0F50A750B2F
:103A800000780A22F088828983A3123A8E22E08588
:103A90000882850983A3A32274EE1217DC74FE1238
:103AA000176C8A0A8B0BECFAEDFB74141217B8E052
:103AB000F510A3E0F51174161217B8E0FE74181291
:103AC00017B8E0F50EA3E0F50F851882851983ACD1
:103AD00082AD831206E48A0C8B0DEA450D604985A0
:103AE00018828519831232861207B68A828B83E583
:103AF000824583602FA3A3123A47E5084509602455
:103B0000780E1219EF78101219EFEEF9AC0CAD0D1A
:103B1000AA0AAB0B8508828509831217DA7404128E
:103B200017828006790E80027901022F2074F61226
:103B300017DC74FE12176C740C1217B8123A3C851D
:103B40001882851983F074011217B8E9F0E4F508BA
:103B5000F50978081219EF75080278081219EF7440
:103B6000041217B885820885830978081219EF12A4
:103B7000080A74061217827402121782806874F79A
:103B80001217DCEAFEEBFF89087C197D031208227C
:103B9000EA5402600BA908EEFAEFFB1206D8800285
:103BA000790102259A74F61217DC74FF6A700374A7
:103BB000FF6B70168C828D83123BEBE4F08C828D50
:103BC00083A3A3A3123BEBA380181207F28A088BEE
:103BD00009A808A909E849600D8882898374FF1241
:103BE000269CA3A3E4F07F020218AE74FFF0A3F0BA
:103BF0008C828D83A3A32274F61217DC1207F28A3B
:103C0000828B83E58245836006A3A3E0FA80027A73
:103C1000007B0080D174F21217DC8A088B09ECFE5D
:103C2000EDFF740E1217B8E0F50A1207F28A0C8B3A
:103C30000DA80CA90DE8497026EEFCEFFD7AFF7B7C
:103C4000FF1207F28A0C8B0DA80CA90DE84970042D
:103C50007911801688828983E508F0A3E509F08848
:103C6000828983A3A3E50AF079007F060218AE7467
:103C7000EE1217DCEAFEEBFF8C088D09890C741438
:103C80001217B8123D3974161217B8123286750D14
:103C900000E8496003023D2D7402650C6003023D9B
:103CA0002874121217B8123D43FCA3E0F9EC24006B
:103CB000F50EE439F50FEAF4F8EBF4F9EC58F8E511
:103CC0000F59F9E849705CE5082406F8ED3400F96D
:103CD000880A890B8882F583123D4E1208228A10C9
:103CE0008B11E50E65107004E50F65116042780ECA
:103CF0001219EF850A82850B83123D4E1208287433
:103D000002121782E9F50D7027780E1219EF850857
:103D100082850983A3A3123D4C1208407402121736
:103D200082800D750D808008750D0D8003750D0B5B
:103D3000A90D0233E58E828F83123D3D22E0F8A368
:103D4000E0F922123D3D88828983E022A3A3E0FCB2
:103D5000A3E0FDEEFAEFFB2274E81217DC74E71221
:103D6000176C851882851983EAF0A3EBF08C168D09
:103D700017890E75080075090074311217B8E0F53F
:103D800012A3E0F51374331217B8E0F514A3E0F5AD
:103D90001574351217B8E0F50FE50975F003A4F8AE
:103DA000A9F0851882851983123EC2E0F47003A33E
:103DB000E0F47003023EA5EE2402F50CEF123EB8CB
:103DC000E07003023EA585160A85170B780A1219C2
:103DD000EFAC14AD15AA12AB131207AA7402121796
:103DE000828A0A8B0BEA450B7003023EA5E4F510AC
:103DF000F51178101219EF74061217B88582108524
:103E0000831178101219EF74091217B88582108582
:103E1000831178101219EF851282851383A3A3A34F
:103E2000A3121A067914AC0AAD0B8E828F8312325C
:103E3000861208047408121782E97069850A82855F
:103E40000B83A3A3A3A3123D3974021217B8123433
:103E5000F4850C82850D83E0A2E05018A90E74024F
:103E60001217B8AC82AD838E828F8312328612060F
:103E7000FCE94208850C82850D83E0A2E15026E52D
:103E80000FF50A780A1219F3A90E74031217B8ACC9
:103E900082AD838E828F831232861206F6740112EF
:103EA0001782E942080509E509C394025003023D5F
:103EB00099A9087419023A1F3400F50D850C82F592
:103EC0008322E028FEA3E039FF8E828F832274F2E2
:103ED0001217DCEAFEEBFF890B7401650B600E74B0
:103EE00002650B706A7901120A08E97062EEFAEF56
:103EF000FB1207EC8A088B09EA45096047750A003E
:103F0000800B7C177D00790012103E050A9002E6B6
:103F1000E0F8E50AC3985021E50A75F017A4F8A95E
:103F2000F0850882850983A3A3E028FAA3E039FB82
:103F30008A828B831227EE70C98508828509837473
:103F4000FFF0A3F07C197D03EEFAEFFB12081C02D0
:103F50003C6A74F21217DC8A088B09ECFEEDFF74E0
:103F60000E1217B81235CF900CECE0F4603D7A09D0
:103F70007B0012104AEA4B60328A828B8374B1F064
:103F8000A3E4123A61A3123A5FA3E508F0A3E5099E
:103F9000123FAEEEF0A3EF123FAEA3A3E50AF0A3EB
:103FA000E50BF0900CECE0F9121056023C6AF08A36
:103FB000828B83A3A3A3A3A32274F01217DC74FA49
:103FC00012176C890BECFEEDFF750A008A088B094D
:103FD0007808121A33000410E141FC3F1A403440C3
:103FE0004C406A408240A540BD40D140FB407841F2
:103FF0008941A041BB41E141E14111417401650B9F
:1040000060030241DC8E828F83E0F8C39403400397
:104010000241DCE8900DD80241B87402650B6003E0
:104020000241DC8E828F8312491E900DD9E8F0A3E5
:10403000E90241B87401650B60030241DC124209D8
:1040400040030241DCE89007660241B87401650B49
:1040500060030241DC8E828F83E0F8C39405400345
:104060000241DCE89007670241B87401650B600308
:104070000241DC12420940030241DCE89007680279
:1040800041B87410650B60030241DC7508107509B6
:104090000078081219EF7A697B0712102674021251
:1040A00017820242027401650B60030241DC124276
:1040B0000940030241DCE89007790241B8740165C8
:1040C0000B60030241DC8E828F83E0900DDC0241A5
:1040D000B87404650B60030241DC8E828F83780C18
:1040E000121624909075780C12145750030241DC7C
:1040F00090077B780C121633024202E960030241FA
:10410000DC120684E970051211A6805690080E8014
:10411000637407650B60030241DC750806750900CE
:1041200078081219EF8E828F83A3AC82AD8374025C
:104130001217CA12102C74021217827C007D00AA7A
:1041400018AB198E828F83E0F9121152E9F508C37A
:10415000940A40030241FF120684E9700CA9081278
:1041600011AC7950121356806E740F2508F582E455
:104170003408F583740180407401650B705E12424F
:10418000095059E890077A802F7401650B704D8EA5
:10419000828F83E0F8C3940A5042E8900DDB8018C8
:1041A0007401650B70368E828F83E0F874F928C332
:1041B000940A5028E8900DDDF080477401650B707B
:1041C0001B90080DE0F88E828F83E090080DF0E8D8
:1041D0007030E06401702B12119A8026750A1880E5
:1041E00021C3EA9427EB940050157402650B700FFD
:1041F0008E828F83124CC7120522E9F50A8003755F
:104200000A02A90A74060244C88E828F83E0F8C3AA
:10421000940222740E1217827F040218AE74F012F8
:1042200017DC74B112176C8C0C8D0D908FFC742000
:104230001217D2740612167F74201217D21211525E
:10424000E9FE745F1217B8E0F50AEEC3940A400362
:1042500002439A75F006EEA4F50874411217D27A5B
:104260000E74202508F9121350E97009744D1217C5
:10427000B8E0FF80027F00900DD8E0640270057501
:104280000E018003750E007408650A7004742280A4
:104290000274212508F50F7C1B7D0079007426121D
:1042A00017CA12103EEFA2E0E433F5097426121784
:1042B000D27A1BA90F121350E9702574401217B857
:1042C000E024F9C3940A5018780E1219F3742712D7
:1042D00017D2A909AA0CAB0D1205C47401121782DA
:1042E0007C147D007900740C1217CA12103E740CF5
:1042F0001217D27A1074242508F9121350E970307D
:104300007C1079FF740C1217CA12109EE970217488
:104310001C1217B8AC82AD837A0474252508F912F3
:104320001350740C1217D2A909AA0CAB0D1205ACCC
:10433000AC18AD197A0C74702EF9121350E970494B
:10434000AA18AB191211827E00EE75F003A4F8A929
:10435000F0851882851983E58228F8E583124AD30F
:10436000124CC1601D88828983A3A3E0F5087509FA
:104370000078081219EFAA0CAB0D12081074021283
:1043800017820EEEC3940440C0EFA2E1500C9007D8
:1043900065E0F9AA0CAB0D1208167404650A7027C3
:1043A000900DD8E06402701F7A00900779E06001F8
:1043B0000A900766E06004780480027800E84AF911
:1043C000AA0CAB0D12066C7900744F0244C874F04D
:1043D0001217DC74F012176CEAFEEBFF8C088D09E3
:1043E000750A0AE9600C14600914603B14607D02D0
:1043F00044C4121194E9F50AC3940A40030244C468
:10440000E508450970030244C4750C06750D007873
:104410000C1219EFEEFCEFFDAA08AB09121026747E
:10442000021217820244C4750C00750E06750F0047
:10443000780E1219EFEEFCEFFDE50C75F00EA4F806
:10444000A9F0748728FA740739FB12103874021225
:104450001782E9700B050CE50CC3940A506680CAFC
:10446000850C0AE50AC3940A505A8049750C00ACC1
:1044700018AD197A1075F006E50CA42423F912136F
:1044800050E9701C7C1079FFAA18AB1912109EE934
:10449000700EEEFCEFFDAA18AB1912058EE9600B49
:1044A000050CE50CC3940A501B80C4850C0AE50A70
:1044B000C3940A500FE50845096009AA08AB09A989
:1044C0000A12118EA90A74101217827F080218AE00
:1044D00074F41217DC890875091574FF6A70037487
:1044E000FF6B70277E00AC087A027B00EEF9121198
:1044F00070E960037509000EEEC3940A40E8E50810
:1045000060527ABE7B11120A1A80491209FC8A0A8B
:104510008B0BAE0AAF0BEE4F60377C007D00EE24B4
:1045200005FAE43FFB8E828F83A3A3A3A3E0F912D5
:104530001152E9C3940A500CAC087A027B001211A4
:1045400070750900E508600CEEFAEFFB1211BE80F1
:1045500003750914A90902421874F21217DCECFE63
:10456000EDFF750815740E1217B8E0F50AA3E0F513
:104570000B74FF6A700374FF6B7021750900AC0A3D
:10458000AD0BEEFAEFFBA909121176E9600375088D
:10459000000509E509C3940A503E80E21209FC8A2D
:1045A000828B83E5824583602C7C007D00E582243C
:1045B00005FAE43583FBA3A3A3A3E0F9121152E9A2
:1045C000C3940A5013AC0AAD0BEEFAEFFB1211764E
:1045D0007508008003750814A908024A9BC082C0B0
:1045E0008390077FEAF0A3EBF0900765E0FC7D0085
:1045F0007A267B00120522900765E0F912078C02EB
:1046000050B274F01217DC74EC12176CEAFEEBFF78
:10461000EE240CF50CE43FF50DEE2405F50EE43F19
:10462000F50FEE2409F50AE43FF50BEE2403F50837
:10463000E43FF5098E828F83A3A3E024FA7003027E
:1046400048BD24FD70030247DB1470030246D814F2
:10465000601024FD70030247B21470030248120276
:1046600049141253B36049E0F583888212491E88C9
:104670000E890FE8450F6038850C82850D83E0F5C3
:104680000C780C1219F3EE240BF582E43FF583E06D
:10469000F9850A82850B83124CC70A0A0AAB098581
:1046A0000E82850F831217DA7401121782024914E1
:1046B000850A82850B83121A0690077B1216421216
:1046C00005BE7402121782E970030249147901854C
:1046D0000A82850B830248888E828F83A385820A93
:1046E00085830BE06003024795850E82850F83E08A
:1046F000A2E040030247959008191253B6600302E6
:1047000047957C0E7D007900AA18AB1912103E85E2
:104710000C82850D8312507DEA4B6010750C067576
:104720000D00780C1219EFEA2410801B125077123A
:1047300009FCEA4B7003024914750C06750D0078EC
:104740000C1219EFEA2405FCE43BFD74021217CAAF
:104750001210267402121782850E82850F83E0A242
:10476000E25004D2F08002C2F0A2F0E433F8740CFC
:104770001217B8E048F0EEFCEFFDAA18AB191211C1
:1047800088E970117A027B00900765E0F912107ACF
:1047900079000249161253B37003024914124924D6
:1047A0007003024914850A82850B83E0FC790102BB
:1047B00048B11253B3700302491412491B890BE824
:1047C000450B70030249148E828F83A3E0FC7902AB
:1047D0001250778882850B830248B87C007D00EEFA
:1047E0002404FAE43FFB850882850983E0F912116D
:1047F00052E9F8C3940A4003024914EE240AFCE487
:104800003FFD7A0475F006E8A42425F912134A0244
:10481000491412507790077AE06007900DDBE0F9B9
:104820008069900DD8E070047905805F1209FC8AD8
:104830000C8B0DA80CA90DE82404F50CE439F50D3A
:104840008E828F83A3A3A3A3A3A3A3E0A2E05041DE
:10485000E8497003024914850C82850D83E0FE60EF
:1048600030850A82850B83E054107025740E121770
:10487000D2E82405FAE439FBEEF9121152E970117D
:10488000790385088285098312507D1205B8024993
:1048900014AC0EAD0F850C82850D83E0F9125077B4
:1048A0001211CA1253B3606C12492460677C0079FC
:1048B000001250778E828F831217DA805712068487
:1048C000E9705190080EE0640170151211A690086D
:1048D0000EE4F07C0AFDF97A0F7B0812103E802C62
:1048E000750A00850A08740F2508FEE43408FF8E57
:1048F000828F83E06401700BA90A1211AC8E828F43
:1049000083E4F0050AE50AC3940A40D779501213EC
:104910005612119A790174140244C8124933E0F80E
:10492000A3E0F922124933E0F8A3E0F9E8FEE9FF39
:10493000EE4F22E0F5838882A3A32274F41217DCE1
:1049400074F212176CEAFE8C0B75F006E9A42420B1
:10495000F508AC18AD197A0EF9121350E9704B7CBA
:104960000679FFAA18AB1912109EE9703D740C125B
:1049700017B812491EE8F509E50B6005EE420980FB
:1049800004EEF45209850982AA82E86A7001E9609E
:1049900015740C1217B8EAF0A3E4F0AC18AD197A4C
:1049A0000EA90812134A7901800279000242137499
:1049B000F21217DC74E612176C890A8A088B09EC6C
:1049C000FEEDFF740C1217D27A0E75F006E9A424DE
:1049D00020F9121350E96003024A947C0679FF74AF
:1049E0000C1217CA12109EE96003024A94747025D3
:1049F0000AF50BAC18AD197A0CF9121350E96003E3
:104A0000024A90AA18AB19121182E5084509701DD7
:104A10007C0C7900AA18AB1912109EE970727C0CFC
:104A20007D007900AA18AB1912103E8051AC18AD68
:104A300019AA08AB0912117C8A0C8B0DA80CA90DC0
:104A4000E8497022EE4F604CAC18AD197A007B003B
:104A500012117CEAF8EBF9EA4B603988828983E528
:104A600008F0A3E509F0124B0FFAEE6A7001EF604F
:104A70001FEEF04F700888828983E4F0A3F0AA1833
:104A8000AB19121182AC18AD197A0CA90B12134A8A
:104A9000790180027900741A1217827F060218AE1B
:104AA00074F71217DC7F00EF75F003A4F8A9F0EC9F
:104AB00028F8ED124AD3E06A7003A3E06B7006E8B1
:104AC000FAE9FB800B0FEFC3940440DB7A007B0014
:104AD000024E0439F9888289832274F71217DC7E2A
:104AE00000EE75F003A4F8A9F0EA28F8EB124AD317
:104AF000E0F4FCA3E0F4FD88828983ECF0A3EDF000
:104B0000124B0FF4F00EEEC3940440D5024E04E8AD
:104B10002402F582E439F583E02274F41217DC7480
:104B2000F412176CEAFEEBFF8C088D09900819123D
:104B300053B6704FEE4F7003024CA0EC4509700362
:104B4000024CA0121194E9900DDEF0C3940A403398
:104B5000750B007C0679FFE50B75F00EA4FAABF03F
:104B600074812AFA74073BFB12109EE96003024C21
:104B700000050BE50BC3940A40D9750A0AE50A90B3
:104B80000DDEF0900DDEE0C3940A4003024CA075E8
:104B9000F006E0A4FB9008191253B67069EEFCEF22
:104BA000FD7A0E74202BF912134A7C0C7D0079FFDC
:104BB000AA18AB1912103EAC18AD197A0C900DDE84
:104BC000E02470F912134A750A0E750B00780A1268
:104BD00019EFEEFCEFFD900DDEE075F00EA4F8A9E4
:104BE000F0748128FA740739FB1210267402121728
:104BF00082900819E508F0A3E509F07900024CA2BB
:104C0000850B0A024B7DE0C82406124CBB60197A62
:104C10001B74212BF912134A124CA72406F582E4C7
:104C200038F583E4F0A380D2124CA7240A124CBBBF
:104C300060107A1B74222BF912134A124CA7240A13
:104C400080DB124CA7240C124CBB60107A1074232A
:104C50002BF912134A124CA7240C80C1124CB0122B
:104C60004CBB60307A1074242BF912134A124CB0EA
:104C7000F582E438F583E02410FCA3E03400FD7AEB
:104C80000475F006900DDEE0A42425F912134A12F3
:104C90004CB0808990080DE060031211D01211C44D
:104CA0007901740C024215900819E0F8A3E0C822BB
:104CB000900819E0F8A3E0C8240822F582E438F54A
:104CC00083124CC7EC4D22E0FCA3E0FD2274F412E9
:104CD00017DC74F212176CEAFEEBFFE9C3940A507A
:104CE00004EE4F700479028034AC18AD197A0E7559
:104CF000F006E9A42420F9121350E9F508701C7598
:104D00000A06750B00780A1219EF74021217D2EE18
:104D1000FAEFFB1210267402121782A9080242133E
:104D200074F41217DCEAFEEBFF750800750A0675CD
:104D30000B00780A1219EFEEFCEFFDE50875F00E96
:104D4000A4F8A9F0748128FA740739FB121038749A
:104D500002121782E96004A908800B0508E508C360
:104D6000940A40C8790A02421874F71217DC7508D1
:104D700000E50875F00EA4F8A9F0748128FE740708
:104D800039FFEEFCEFFD7A0E75F006E508A424204D
:104D9000F9121350E960297C067D0079FFEEFAEFE5
:104DA000FB12103E7C067D0079FFEE2CFAE43FFBFF
:104DB00012103EEE240CF582E43FF583E4F0A3F0FC
:104DC0000508E508C3940A40A890080DE0600312A6
:104DD00011D01211C4802D74F71217DC7E007F00F1
:104DE0007C0679FFEF75F00EA4FAABF074812AFA15
:104DF00074073BFB12109EE970010E0FEFC3940A7B
:104E000040DEEEF97F010218AE74F71217DC7E0067
:104E1000EEF91211AC0EEEC3940A5003E960F18072
:104E2000E374F31217DC74CB12176CE9FE900DDEFD
:104E3000E06E701B7A017B00900765E0F91210802C
:104E40007A027B00900765E0F91210801211DC7580
:104E5000F006EEA4FF74202FF50874271217D27AFB
:104E60000EA908121350E96003024F277C0679FF50
:104E700074271217CA12109EE96003024F277C0E96
:104E80007D0079FF74271217CA12103E7C1B7D002B
:104E900079FF740C1217CA12103E7C0C7D0079FF4A
:104EA000AA18AB1912103E74271217D27A0EA9084D
:104EB00012134AE9F508740C1217D27A1B74212FC9
:104EC000F912134AE9F509740C1217D27A1B7422ED
:104ED0002FF912134AE9F50A740C1217D27A1074DA
:104EE000232FF912134AE9F50B740C1217D27A101A
:104EF00074242FF912134AE9F50C740C1217D27AA4
:104F00000474252FF912134AE9FFAC18AD197A0C75
:104F100074702EF912134AE9F8E509450A450B4564
:104F20000C4F4842088003750800A9087435121711
:104F3000827F050218AE74F71217DCE9900765F05E
:104F400012119A024E0474F41217DCEAFEEBFF54BD
:104F5000807003024FDE900765E0F91210628A0844
:104F60008B09EA4509607078018A828B83E02450BE
:104F7000603D14600624E1604F8052A3A3A3A3E028
:104F8000704E8A828B83A3A3A3A3A3A3A3121A06A2
:104F90008A828B83A3A3A3A3A3124CC78A828B8389
:104FA000A3A312507D12115E74021217828021A3F6
:104FB000A3A3A3E0641E701879008A828B83A3A345
:104FC00012507D121158800812116AE9F8E8600742
:104FD000AA08AB09121050EEFAEF64808065EE5417
:104FE0000260237C007D007A007B00121188E9605A
:104FF000117A017B00900765E0F912107AEE6402E5
:10500000803F7A028046EEA2E0503F12505112508B
:105010007D1211D6E9602F1253B3601F12491B880D
:10502000088909E8450960137C0079011250511282
:10503000507D8508828509831217DA1211DCEE642F
:1050400001FAEFFB80087A0180027A007B000242BD
:1050500018900819E0F8A3124933A3227F0202181E
:10506000AEC082C083900765E0F98A828B83A31269
:10507000507D120816803B850882850983E0FAA3DB
:10508000E0FB22C082C08374FF12176C1211A0E9EA
:10509000C3940285188285198340047402800274C7
:1050A0000AF0AC18AD197A01790512069C74011248
:1050B0001782D083D08202011F74F21217DC74E8C9
:1050C00012176CEAFEEBFF890A8C088D097C187DAB
:1050D000007900AA18AB1912103E85188285198331
:1050E000EEF0A3EFF0900767E0C0E074021217B88B
:1050F000D0E0F0900768E0C0E074031217B8D0E089
:10510000F0900DDDE0C0E074171217B8D0E0F07435
:10511000151217B8E054FEF8A3E0F9900DDCE0A2F8
:10512000E0E433FAE84AF874151217B8125253A2A1
:10513000E15004D2F08002C2F0E854FDFAA2F0E49B
:105140003325E0F8EA48F874151217B8125253A242
:10515000E35004D2F08002C2F0E854F7FAA2F0E47F
:1051600033F50C750D007403780C12175912524C5C
:105170001217B8125253A2E45004D2F08002C2F0C7
:10518000E854EFFAA2F0E433F50C7404780C12172B
:105190005912524C1217B8125253A2E55004D2F0D1
:1051A0008002C2F0E854DFFAA2F0E433F50C740593
:1051B000780C12175912524C1217B8125253A2E21D
:1051C0005004D2F08002C2F0E854FBFAA2F0E433BB
:1051D000F50C7402780C12175912524C1217B8E8D9
:1051E000F0A3E9F0900768E0601D750C10780C12D0
:1051F00019EF7C697D0774061217B8AA82AB831277
:1052000010267402121782900779E06011E50A6097
:105210000974151217B8E04402F078018002780092
:1052200074141217B8E048F0900766E06004780440
:105230008002780074141217B8E048F0AC08AD0989
:10524000AA18AB191205B27418024A98EA450CF86C
:10525000741522E8F0A3E9F0900DDCE02274F71257
:1052600017DC12088E750800E50875F00EA4F8A981
:10527000F0748128FE740739FF7C0679FFEEFAEF9F
:10528000FB12109EE97009EEFAEFFB790012089408
:105290000508E508C3940A40CF024E0474F61217BD
:1052A000DC74FD12176CEAFEEBFF90081B1253B67C
:1052B000703975081D75090878081219EF7508020C
:1052C00075090078081219EF7508E675098F7808D6
:1052D0001219EF7CFF7DFF7A017B001206DE740657
:1052E00012178290081BEAF0A3EBF090081B1253F0
:1052F000B6700302539DE4F508F50978081219EF1A
:1053000074041217C28808890978081219EF740406
:105310001217C28808890978081219EF90081D121F
:105320001A06790290081B1253AB12080474081273
:105330001782E97036851882851983E0FA740112A4
:1053400017B8E0F8E4C8F9EA28F508E439F509EAFD
:105350004509601778081219EF90081B125054A3E2
:105360001253AB12115E7402121782E4F508F509AC
:1053700078081219EF90081D121A067CFF7DFF9025
:10538000081B12507D1206EA740412178290081B43
:10539000EAF0A3EBF090081B1253B6700479018079
:1053A000027900740312178202505C124CC7EEFAA5
:1053B000EFFB2290077FE0F8A3E0F9E84922C082E2
:1053C000C0839008191253B6601090081912507DCE
:1053D000121050900819E4F0A3F0900DDE740AF05A
:1053E0000250B2C082C0839061907404F0A37448EC
:1053F000F0A3E4F09061807440F09061BC7407F019
:105400009061877469F09061B67416F07900120BA0
:105410000A7902120B10902550E493F46006E4938D
:10542000F9120AE67905120E0A0257DEC082C0831D
:10543000E9540FF9906185E0696012E5C654804433
:1054400049F5C6E59E547F644970F8E9F053C6807B
:10545000E59E547F70FA0257DE74F71217DCE5A858
:10546000FE53A87E120AF2C2BA539AFEC289759BF5
:1054700000C2C2120AF875A91175B905120AFED246
:10548000BA439A0174805E42A8025D75C082C083EF
:10549000906181E4F0A30257DB75E9007591007516
:1054A000BF0002011FC082C083906181E4F0A37439
:1054B000C0F0A3E40257DDC082C08374F812176CF9
:1054C0009003A412670E70030255969003A4E05453
:1054D0004060237908851882851983AA82AB8312DC
:1054E0000C06851882851983AA82AB831208B890AE
:1054F00003A4E054BFF0E054806010790C7A657B1F
:1055000005120C069003A4E0547FF0E0A2E0500FD7
:105510007900120B0A1208BE9003A4E054FEF0E0DA
:105520005402600F7901120B0A1208BE9003A4E026
:1055300054FDF0E05404600F7900120B101208C4FF
:105540009003A4E054FBF0E05408600F7901120BC3
:10555000101208C49003A4E054F7F0E05410600F58
:105560007902120B101208C49003A4E054EFF0E08B
:105570005420600F7903120B101208C49003A4E0AA
:1055800054DFF0A3E05401600D120B1C1208CA9006
:1055900003A5E054FEF074081217820257DEC082A1
:1055A000C083E9600514602A804F90619A7433F0DB
:1055B000A37455F09061A0743AF090053FE0640147
:1055C0007009C2919003A67467802D9003A6746140
:1055D000802690619A743FF0A3745AF09061A07491
:1055E0007FF090053FE064017009D2919003A674AA
:1055F0007180059003A6746AF00257DEC082C083F2
:10560000E9600B14600D14601714600C8020902565
:10561000548015902555801090053FE06401700579
:105620009025568003902557E493906186F00257A9
:10563000DE74EE1217DC74F412176C85188285196B
:1056400083AC82AD8375839075823D740412167F9E
:1056500090255493F4600302575B907808E0C3945C
:1056600002500302573B74041217B8AC82AD837525
:10567000838F7582EE740812167FFC7EFF7FFF8E8B
:105680000C7D008C8285820E800F74086D606D74B5
:10569000096D6068740A6D60638D08750900740295
:1056A0007808121759125765121624A909E50AC974
:1056B000F8881074187808121565E5104508FAE99D
:1056C000FBE50EC333F8E433F974041217B8E5822E
:1056D00028F582E58339125C65C3E89AE99B4008A6
:1056E000E8C39AF8E99B8006EAC398F8EB99F9C3F6
:1056F000E89EE99F5006E8FEE9FF8D0C0DEDC3948E
:1057000013408774FF6E700374FF6F6024850C086C
:1057100074027808121759125765121624851882D8
:10572000851983E582250EF582E583126104E5087B
:10573000F00CECC39404500302567B750801750904
:105740000078081219EF74021217B8AC82AD837A90
:10575000557B091212187402121782740C121782E8
:105760007F0A0218AE74482508F58274783509F569
:1057700083780822C082C083906186E0F890255724
:10578000E493687009902556E493906186F09061E7
:10579000AE7468F0A3746AF090624574FBF0A304E1
:1057A000F053F4FD43FE0290053F7401F09061A0B8
:1057B000E0643A7004790080027901120B0A025702
:1057C000DEC082C0839004F1E06401700A9004F6A8
:1057D000E06004790C800279008003F0A3F0D083AC
:1057E000D08202011FC082C08375E1F19004F4E011
:1057F000604D146009146051146049147050120B0C
:105800002E9004EAE0F97AEB7B04120D8C909071F3
:10581000121642120DC2909041121642120D98902B
:1058200004F5E0F9120DA47901120DFE12590124BC
:10583000161261017446F0A3740BF07900809F1278
:105840000B3480BD120B3A80B8120B4080B3791232
:1058500080EB74F41217DC75D90D9004D5E0A2E04A
:10586000E4331313F81258F7484401F5D9780012BD
:10587000596440FB7800880874D612666474041278
:10588000596E40F275E1959004D5E0F97AD67B0423
:10589000120D92900D0E74BCF0A3740A125974127A
:1058A00059B81259AF125ACC9004F4E06401900434
:1058B000E8700B12590A12162490906D8009125943
:1058C0000A12162490906978081215B090904578C5
:1058D000081215FE125901240E12610178081216E1
:1058E0003312590124141261017413F09003A2744D
:1058F00002F07F040218AE9004EAE0C4333354C0CF
:10590000229004E8E0F8A3E0C82212659C780822FF
:1059100074F61217DC125A9D8AD978001259644025
:10592000FB78008006125A15125B52E8C39940F5C5
:10593000125A8F12596440FB780080081266607416
:1059400005125B52E8C39940F375E195900D0E7412
:10595000C8F0A3740A12597412597E7412F090039D
:10596000A2025D39880874EB2508F5827404125C84
:10597000CF940622125AB574C2F0A3740A221259A7
:10598000B81259AF125AD09004E8E0F8A3E0C82446
:105990000E1259A774FF1263D99004E8E0F8A3E04F
:1059A000C824141259A722F582E83400F58322F0A6
:1059B000A374DAF0A3740A221259BC221259C0222D
:1059C000F0A37472F0A3740C2274F61217DC125A4E
:1059D0000A1258F74402F5D9780012596440FB784E
:1059E000008006125A15125B52E8C39940F575E122
:1059F00095900D0E125A20F0A3125A20125981745C
:105A000014F09003A27404025D3B9004FAE0F97470
:105A10000729F5D922880874FB2508F58274042229
:105A200074D4125A2D125A2DF0A3740A22F0A374C2
:105A30000AF0A374D42274F61217DC125A9D74066D
:105A40004AF5D9780012596440FB78008006125A52
:105A500015125B52E8C39940F5125A8F12596440EF
:105A6000FB780080081266607405125B52E8C399E7
:105A700040F375E195900D0E74CEF0A3740A125A9E
:105A8000AB12597E7415F09003A27403025D3B9033
:105A9000051A125A0D74044AF5D9780022125A0ACE
:105AA0009004EAE0C4333354C0FA22125AB5747237
:105AB000F0A3740C22125AB922125AC67472F0A3BF
:105AC000740C125AC6221259C0F0A322125AD022C4
:105AD000F0900D1C7472F0A3740C125AB97472F029
:105AE000A3740C1259BCF022C082C0831259012445
:105AF00006126101E40257DB74F71217DC9003D041
:105B0000E0F875F003A4C8AAF02AF974D228F87452
:105B10000339F9E82405FAE91265AFA3A3A3A3A307
:105B2000A3A3A3A31266B0A3A3A3A3A3A3A3E02448
:105B3000FFF8A3E034FFF98A828B83E8F0A3E9F051
