:020000040000FA
:0600000002010702213796
:03002B0002258922
:0300330002256B38
:030053000221AADD
:03006B0002254526
:10008300021FA3E5C754F84401F5C7790122000014
:100093000080FB120086B900030200F1E4792178A5
:1000A30008B800028004F709D8FCE479297802B87B
:1000B30000028004F709D8FCE490028178BE790736
:1000C3008002F0A3D8FCD9FA7A3E7B0990013778F5
:1000D3001179048015E493A3AD82AE838A828B8366
:1000E300F0A3AA82AB838D828E83D8E9D9E7758288
:1000F300E675839C740312011975829175830074EC
:100103000012011975D00075813F751881751902A8
:10011300759F00020096C09FF59FE473D09F22D085
:1001230083D082C09FE493C0E0740193C0E0740263
:1001330093F59F22FF0000B4000028002800283018
:1001430075A000A000A000A00000080008E001F0D6
:10015300001000100010001000100010005000509C
:1001630000500010001000D0070000000000000F36
:100173000001000500307507001000010081FF0039
:10018300000000FF450663064B06FF020202080259
:100193005000A0000000E803029181010000868165
:1001A3000295810100009509029B81010000B302C1
:1001B3000295810100009609029D81010000C90298
:1001C3000295810100009709029F81010000CB0283
:1001D300029581010000980902A181080000CC0268
:1001E300029581010000990902A3810100009A0987
:1001F300FF0100FF200291810100008081029581AF
:10020300010000FE0902A58100000000000299819F
:100213000300001903150C150C150C150C150C1502
:100223000C150C150C150C150C150C150C150C9741
:100233000EAF0E910EFFFF02020202020202020241
:10024300010D00000010010291810100007D810277
:100253009581010000410A028B810100005D0702C4
:100263009581010000420A02898101000015810283
:100273009581010000430A02BF81010000F9800259
:100283009581010000440A02AF81010000B780029A
:100293009581010000450A02AD81010000818002C1
:1002A3009581010000460A02AB81010000938002A0
:1002B3009581010000470A02A981010000A580027F
:1002C3009581010000480A02A7810100000781020D
:1002D3009581010000490A028D810100004A0A014B
:1002E300E803053F100AFF00013075030201060011
:1002F30000000000000000000000000000000000FB
:100303000000000000000000000000FFFF06008066
:100313000CE803140953696D706C65424C455065D4
:10032300726970686572616C051250002003020ADD
:10033300000201060302F0FF020106070968656C6B
:100343006C6F210302F0FF53696D706C6520424CA2
:1003530045205065726970686572616CB712000060
:10036300BD120A436861726163746572697374696B
:10037300632031000243686172616374657269735B
:100383007469632032000843686172616374657243
:100393006973746963203300104368617261637425
:1003A3006572697374696320340002436861726122
:1003B3006374657269737469632035000291810106
:1003C300000083810295810100006C0B02B581035B
:1003D30000002F090297810100006D0B0295810136
:1003E30000007E0B02B781010000300902978101F2
:1003F30000007F0B029581010000900B02B981027E
:1004030000003109029781010000910B02958101DF
:100413000000A20B02BB8100000032090299810394
:1004230000003309029781010000A30B02958101AB
:100433000000B40B02BD8104000039090297810159
:100443000000B50B120122128D03120122298D0324
:100453001201225A8D03120122958D03120122BF2C
:100463008D03120122E98D03120122008E03120172
:1004730022178E031201222E8E03120122578E039E
:100483001201226A8E03120122808E03120122932B
:100493008E03120122BA8E03120122D0A502120189
:1004A30022D4A6021201220CA7021201222FA702B4
:1004B3001201223AA7021201225DA7021201226C45
:1004C300A80212012241A902120122BCA9021201AF
:1004D3002244AA021201227FAA02120122B6AA0210
:1004E30012012244AB021201221DAC021201227D31
:1004F300AC0212012288AC0212012207AD021201E2
:10050300220AAD021201220DAD021201229CAD029C
:100513001201229FAD02120122CFAD02120122F974
:10052300AD02120122E7AE0212012299AF021201BB
:10053300229DD902120122C5D902120122F3D90246
:100543001201222ADA0212012288DA02120122D3CC
:10055300DA021201221EDB021201225EDB02120109
:1005630022A4DB02120122D2DB021201228FDC025F
:1005730012012299DC02120122A6DC02120122D905
:10058300DC02120122A5DD02120122B1DD021201F9
:1005930022C9DD02120122D3DD02120122CE980309
:1005A300120122DC9803120122F498031201220C97
:1005B300990312012261B9011201220DBA0112013C
:1005C3002288BA01120122A9BB01120122E5BB0153
:1005D3001201228EBC0112012275BD01120122D922
:1005E300BE0112012230BF01120122B1BF0112016B
:1005F30022A1C001120122EEC00112012274C10125
:10060300120122A6C101120122BAC301120122FC66
:10061300C3011201221AC4011201229DC401120155
:100623002271C50112012239C601120122E3C70258
:10063300120122B6C8021201225FC902120122B2BC
:10064300C90212012262CA02120122EECA02120177
:1006530022DACB0212012209CC021201221CCD02A2
:1006630012012264CD0212012239CE021201227537
:10067300CE0212012291CE02120122999B03120192
:10068300227CF70212012292F702120122B8F7022A
:10069300120122D4F802120122DEF80212012213FF
:1006A300FA021201220BFB0212012276D40212017A
:1006B30022A6D502120122D9D50212012223D60283
:1006C300120122EAD702120122FF6C0012012269F1
:1006D3006D00120122C86E00120122D86E001201B1
:1006E30022056F001201225C6F00120122057000C7
:1006F3001201220C7100120122D67100120122365E
:1007030073001201227973001201221E7400120178
:10071300226B74001201229174001201229F760051
:10072300120122A47600120122A97800120122F6F6
:1007330078001201226979001201229C79001201CA
:10074300223E7A00120122E77A001201221F7B0067
:10075300120122227B001201226A7B00120122AACB
:100763007B00120122017C00120122478303120144
:10077300225F8303120122A78303120122BD830395
:10078300120122048403120122188503120122A5F7
:100793008503120122F08503120122B42500120100
:1007A30022C02500120122FB25001201224026004F
:1007B300120122002700120122862700120122EBD8
:1007C30027001201221728001201225028001201CB
:1007D300228E2A00120122722C00120122582E00AE
:1007E3001201229B2F00120122E93100120122FB88
:1007F3003200120122463400120122563500120142
:1008030022733500120122AE3500120122D03500C9
:10081300120122333600120122F43A001201228916
:100823003B00120122DA3B00120122013C001201BB
:1008330022533C00120122713C00120122CB3C00E6
:10084300120122B43D001201222A3F00120122AEFE
:100853003F001201225ADE0212012264DE0212015B
:1008630022A7DE02120122C2DE0212012252DF029D
:100873001201227ADF02120122B7DF02120122EEF5
:10088300DF0212012217E0021201228CE0021201A0
:1008930022A1E002120122B6E002120122E7E002E5
:1008A300120122FBE00212012220E1021201225A6C
:1008B300E10212012286E102120122BEE1021201CB
:1008C300223DE20212012286E202120122B0E2027A
:1008D300120122DBE202120122E19403120122CF70
:1008E3008D02120122FD8D021201224B8F02120191
:1008F300222B90021201224A9002120122C7900277
:100903001201220A91021201226092021201222193
:100913009302120122A895021201224996021201A2
:10092300223F97021201223C980212012296990259
:10093300120122219A02120122869303120122EF4D
:1009430093031201224394031201226A94031201B6
:10095300229B940312012203E30212012270E30299
:10096300120122B7E302120122CFE402120122CBC9
:10097300E502120122AEE6021201220AB0021201BE
:10098300224CB0021201221EB102120122F7B1025F
:10099300120122F1B202120122D3B3021201223C4C
:1009A300B402120122F2B40212012266B50212014C
:1009B30022D2B502120122FBB50212012275B60240
:1009C3001201220EB70212012273B702120122880A
:1009D300B702120122CEB702120122E7B7021201B7
:1009E300224CB8021201224FB802120122EE7C00FF
:1009F300120122167D00120122547D0012012212DF
:100A03007E00120122797E00120122957E001201DE
:100A130022BD7E00120122ED7E00120122FC7E0027
:100A2300120122797F001201229F7F00120122FF0F
:100A3300A901120122DDAB011201220FAE01120145
:100A4300224BAE0112012278AE0112012262AF01E4
:100A5300120122ADAF01120122F8AF011201220AE5
:100A6300B0011201224AB0011201227FB00112012A
:100A730022CDB001120122FCB0011201221FB101EB
:100A83001201226CB101120122F1B1011201220BF8
:100A9300B4011201224AB6011201228BB6011201DE
:100AA300222DB8011201226EB801120122E1B80110
:100AB30012012237B901120122C1F201120122BF30
:100AC300F30112012258FA0112012279FC011201E9
:100AD3002244FE01120122ACFF0112012215400043
:100AE300120122C440001201220A41001201224ACB
:100AF3004200120122E043001201225A4400120173
:100B030022754400120122F044001201224A4600D9
:100B1300120122AA4700120122B048001201221139
:100B23004A001201222A4A00120122884A001201B5
:100B330022764B00120122A94B00120122194C000C
:100B4300120122934C00120122DD4C00120122A754
:100B53004D001201227C4E001201225B4F00120154
:100B630022E64F00120122545000120122C8500005
:100B7300120122F35000120122B251001201221776
:100B83005300120122345300120122535300120165
:100B9300224454001201226954001201229354008A
:100BA3001201220E5500120122685500120122D1B2
:100BB30056001201227F5700120122C05700120172
:100BC30022EDE4011201223BE50112012247E50176
:100BD30012012225E60112012256E60112012287A3
:100BE300E60112012207E7011201223FE701120188
:100BF3002291E701120122CEE701120122EBE90162
:100C030012012211EC01120122FCED01120122E674
:100C1300EF01120122F87F00120122EC950112016B
:100C2300221C9601120122F59C011201227A9E01D7
:100C330012012277A4011201225FA5011201229C55
:100C4300A501120122BFA501120122F0A501120183
:100C530022F9A50112012203A601120122F1A60124
:100C6300120122E7A701120122F05700120122EF1D
:100C73005B00120122F55B001201223063001201B6
:100C830022496800120122008003120122FA800324
:100C93001201226E8103120122AC81031201222070
:100CA3008203120122998203120122A282031201FA
:100CB30022AE8203120122C38203120122018303A3
:100CC30012012217830312012270E7021201227D0F
:100CD300E70212012297E702120122D6E70212016C
:100CE3002214E80212012279E8021201228EE8029C
:100CF30012012299E802120122A6E802120122BD82
:100D0300E802120122CBE802120122D6E802120104
:100D130022E2E802120122F1E802120122FCE802B7
:100D23001201221FE902120122C6E902120122D690
:100D3300E902120122F0E9021201220DEA02120174
:100D43002229EA021201224EEA0212012259EA0280
:100D53001201226EEA0212012282EA02120122E346
:100D6300EA02120122E9EA02120122EFEA02120167
:100D730022F5EA021201220DEB0212012240EB02DC
:100D8300120122C3D60112012247D701120122F612
:100D9300D70112012255D90112012276DB0112017A
:100DA3002262DC0112012297DC01120122B9DC016B
:100DB30012012268DD0112012260DF011201228982
:100DC300DF011201221BE0011201224DE001120199
:100DD300225AE001120122B1E001120122D7E001FF
:100DE30012012244E30112012247E4011201229F6E
:100DF300E40112012252C8011201225CC90112014D
:100E03002243CA011201224DCA011201226FCA01F3
:100E13001201227BCA0112012214CC0112012243C6
:100E2300CC011201225FCD01120122B8CD011201C2
:100E3300221ECF01120122FDCF0112012259D0013E
:100E4300120122C6D00112012201D1011201224056
:100E5300D101120122F9D30112012213D40112018B
:100E6300229FD401120122ADD40112012206D50121
:100E730012012214D50112012287D501120122EB9E
:100E8300D50112012235D601120122A29A021201C2
:100E930022C49A02120122EA9C02120122FF9F023B
:100EA30012012217A102120122CAA102120122ACCD
:100EB300A202120122CC8E03120122F18E0312012F
:100EC30022638F0312012269C00212012272C0023F
:100ED3001201227BC00212012252C102120122031B
:100EE300C30212012239C30212012273C302120187
:100EF30022A9C302120122E3C30212012217C40270
:100F030012012243C4021201228CC402120122C61E
:100F1300C4021201220FC50212012267C502120187
:100F2300229CC502120122F7C50212012231C60218
:100F330012012282C602120122B8C602120122F253
:100F4300C60212012220C70212012243C702120164
:100F5300225B9A03120122879A03120122E29A0367
:100F6300120122EC9A03120122FC9A0312012206B7
:100F7300CF0212012210CF021201224ECF02120120
:100F83002297CF02120122D1CF0212012227D002CF
:100F930012012248D00212012251D0021201229CD6
:100FA300D002120122C5D002120122CFD0021201B7
:100FB300223BD102120122D1D1021201221BD20201
:100FC3001201224BD202120122D4D20212012214A4
:100FD300D3021201224CD3021201225ED302120168
:100FE300227DD30212012286D3021201224CD402A3
:100FF300120122FE9603120122238B0312012259AE
:101003008B031201228F8B03120122D88C0312014E
:10101300221D9C03120122339C031201223D9C03D7
:10102300120122879C03120122BDEB02120122D27C
:10103300EB0212012285EC02120122C5EC0212011D
:1010430022DEEC0212012212ED021201225FED02F6
:1010530012012293ED02120122D5ED02120122D1D7
:10106300EF02120122F597031201221E98031201C7
:10107300224798031201228998031201221A860338
:101083001201223F86031201226986031201228282
:101093009D03120122C28101120122268401120141
:1010A30022D78501120122D986011201226287010A
:1010B300120122E687011201220B88011201224448
:1010C3008B01120122B88B01120122A98C0112019A
:1010D30022E38C01120122238D01120122D68E01FB
:1010E300120122298F01120122728F01120122E0C3
:1010F3008F011201221290011201222A9001120182
:10110300223F91011201224F91011201226A9201A1
:101113001201228C9201120122C292011201226653
:101123009401120122A59401120122C79501120113
:1011330022A59903120122B69903120122399D03B4
:10114300120122789D03120122E77F001201220679
:101153009B03120122169B031201222E9B031201F1
:1011630022969B03120122FA95031201227F960312
:10117300120122E596031201220E92031201223775
:101183009203120122A29203120122F3920312018B
:10119300224C9303120122ABFE02120122C0FE0273
:1011A30012012234FF021201224EFF0212012265B4
:1011B300FF0212012278FF0212012290FF021201A4
:1011C30022A5FF02120122E0F302120122F7F30229
:1011D30012012270F40212012245F50212012217B4
:1011E300F702120122719003120122C1900312012E
:1011F300224A9103120122B09103120122E68803CD
:10120300120122108903120122D68903120122B18D
:101213008A0312012273B80212012230B9021201A9
:10122300226BB90212012293B902120122F5B9020B
:1012330012012241BA02120122A1BA02120122347E
:10124300BB0212012233BC02120122C2BD021201EF
:101253002245BE02120122ACBE02120122C3BE020B
:10126300120122CDBF021201220BC0021201220081
:101273008002120122608302120122E88402120119
:10128300223F85021201225E8502120122DC8502C1
:101293001201226C87021201225088021201225C81
:1012A3008C021201222C8D02120122DEEF021201A6
:1012B3002208F202120122A7F202120122B7F3025C
:1012C30012012215FB021201225AFB02120122779C
:1012D300FB021201222DFC0212012280FC021201E8
:1012E300225EFD0212012272FE02120122C99D0337
:1012F300120122D6FF01E066701008A3E066700AAF
:1013030008A3E066700408A3E06622C3E796080911
:10131300E7960809E7960809E79622C3E09608A32B
:10132300E09608A3E09608A3E09622C008C3E096DF
:10133300F50808A3E096420808A3E096420808A32C
:10134300E09645087001D3D00822080808EAC0E0F7
:10135300EBC0E086F0E7A4FA180986F0E7A42AFABE
:10136300180986F0E7A42AFA180986F0E7A42AFAEE
:101373001986F0E7A4FBE5F02AFA190886F0E7A43A
:101383002BFBE5F03AFA190886F0E7A42BFBE5F00E
:101393003AFA18180986F0E7A4C5F02BFBE43AFAE9
:1013A3001908E7C5F0C6A426F6E5F03BFBE43AFAD4
:1013B3001886F0E7A4F6E5F00826F6E43B08F6E421
:1013C3003A08F6D0E0FBD0E0FA22E4CFC0E0E4CE66
:1013D300C0E0E4CDC0E0E4CCC0E075F020E626F642
:1013E30008E633F608E633F608E633F6181818EC81
:1013F30033FCED33FDEE33FEEF33FFC3EC9709ED22
:101403009709EE9709EF97191919400FFFEC97FC0D
:1014130009ED97FD09EE97FE191906D5F0BFECF714
:1014230009EDF709EEF709EFF7191919D0E0FCD028
:10143300E0FDD0E0FED0E0FF226016080808C6C336
:1014430013C618C613C618C613C618C613C6D5E0E6
:10145300EA227009080808226016181818C6C33350
:10146300C608C633C608C633C608C633C6D5E0EABF
:1014730022E627F60809E637F60809E637F60809EB
:10148300E637F622E026F608A3E036F608A3E036B0
:10149300F608A3E036F622E026F008A3E036F008CB
:1014A300A3E036F008A3E036F022C3E697F6080976
:1014B300E697F60809E697F60809E697F622C3E0E9
:1014C30096F008A3E096F008A3E096F008A3E09650
:1014D300F022E657F60809E657F60809E657F60834
:1014E30009E657F622E056F608A3E056F608A3E00D
:1014F30056F608A3E056F622E056F008A3E056F0AD
:1015030008A3E056F008A3E056F022E0F608A3E0B3
:10151300F608A3E0F608A3E0F622E6F008A3E6F057
:1015230008A3E6F008A3E6F022E0FAA3E0FBA3E0B9
:10153300FCA3E0FD22EAF0A3EBF0A3ECF0A3EDF0B3
:1015430022E0F8A3E0F9A3E0FAA3E0FB22E8F0A38A
:10155300E9F0A3EAF0A3EBF022CAC0E0E6F0A308A7
:10156300DAFAD0E0FA22CAC0E0E0A3C582CCC58291
:10157300C583CDC583F0A3C582CCC582C583CDC544
:1015830083DAE6D0E0CA22C3E498F8E499F91215A5
:10159300CB8026C3E49AFAE49BFBE920E7E9121522
:1015A300CBE498F8E499F922C3E498F8E499F912A2
:1015B30015CBE498F8E499F9C3E49AFAE49BFB2287
:1015C300EB20E7CFE920E7E0B90010BB0008E88A89
:1015D300F084F8AAF022E4FBC8FA22EB70227B1015
:1015E300C833C8C933C9335007C39AC3DBF2800673
:1015F3009A50012ADBEAC833F4C8C933F4C9FA2282
:1016030075F008E4C833C8C933C933C99AC99B50B4
:1016130004C92AC93BD5F0ECFBC833F4C8E4C9FAC2
:1016230022600D08C6A2E713C618C613C6D5E0F399
:1016330022600C08C6C313C618C613C6D5E0F4222D
:10164300700422600D18C6C333C608C633C6D5E07E
:10165300F41822251810AF08F518400C1519800846
:10166300F51840021519D2AF2200C0D0251810AFCB
:1016730008F518500C05198008F51850020519D201
:10168300AFD0D0222518F58210AF08F518400C15FD
:10169300198008F51840021519D2AF851983222540
:1016A30018F582E43519F583222518F8E43519F97C
:1016B300222518FAE43519FB222518FCE43519FD17
:1016C30022E4732518C582C0E0E51934FFC583C041
:1016D300E0E518C3958224F810AF08858319858245
:1016E300188008858319858218D2AFCEF0A3E52030
:1016F300F0A37808E608F0A3DEFAEFF0A3E581246F
:10170300FAF8E608F0A3E608F0A3E608F0A3080851
:10171300E608F0A3E608F0A315811581D0E0FED01A
:10172300E0F8158115811581E8C0E0EEC0E02225BF
:1017330018C582C0E0E51934FFC583C0E0E518C3CE
:10174300958224F910AF088583198582188008854E
:101753008319858218D2AFCEF0A3E520F0A37808D1
:10176300E608F0A3DEFAEFF0A3E58124FBF8E60830
:10177300F0A3E608F0A30808E608F0A3E608F0A340
:1017830015811581D0E0FED0E0F815811581E8C000
:10179300E0EEC0E022851983851882E0A3FEE0A372
:1017A300F5207808E0A3F608DFFAE0A3FFE0A3C082
:1017B300E0E0A3C0E0E0A3C0E0E0A3C0E0E0A3C09A
:1017C300E010AF0885821885831980088582188503
:1017D3008319D2AFD083D08202011F851983851864
:1017E30082E0A3FEE0A3F5207808E0A3F608DFFA81
:1017F300E0A3FFE0A3C0E0E0A3C0E0E0A3C0E0E01B
:10180300A3C0E010AF0885821885831980088582FC
:1018130018858319D2AFD083D08222C0D02518C5B2
:1018230082C0E0E51934FFC583C0E0E518C39582A3
:1018330024F310AF088583198582188008858319DE
:10184300858218D2AFC8F0A3E9F0A3EAF0A3EBF0C6
:10185300A37908E709F0A3D8FAECF0A3EDF0A3EE1F
:10186300F0A3EFF0A3D0E0F0A3D0E0F0A3D0E0F03A
:10187300A3E520F0A3E5F0F0A32285198385188260
:10188300E0C0E0A3E0F9A3E0FAA3E0FBA37808E05B
:10189300F608A3DFFAE0FCA3E0FDA3E0FEA3E0FF6C
:1018A300A3E0C0E0A3E0C0E0A3E0F5D0A3E0F5200F
:1018B300A3E0A3F5F010AF0885831985821880088B
:1018C300858319858218D2AFD082D083D0E0F8D037
:1018D300E03274048006740280027401C0E0F404F0
:1018E300121687D0E012155C2274048004740280FF
:1018F30000CCC0E0EDC0E0E518C39CCCAD195001AD
:101903001D10AF068C188D1980068C188D19D2AF57
:10191300121569D0E0FDD0E0FC22D083D082E9C06B
:10192300E0E493A3C386F0C5F095F0F908E493A32C
:1019330086F0C5F095F0700BE493A3C3994005E9D5
:10194300048002A3E475F002A42582F582E5F03554
:1019530083F583D0E0F9E493A3C0E0E493C0E022ED
:10196300D083D082ECC0E0EDC0E0E493A3FCE49329
:10197300A3FDED4C600D1219AFEC24FFFCED34FF19
:10198300FD80EFE493A3FCE493A3FDED4C600D1203
:1019930019EEEC24FFFCED34FFFD80EFD0E0FDD029
:1019A300E0FCE493A3C0E0E493C0E022C0E0C3E41E
:1019B3009396087401939618400FE4936670080891
:1019C300740193661870007019A3A3C3E493960877
:1019D3007401939618A3A3400DD0E0D0E0D0E002A9
:1019E300199FA3A3A3A3A3A3D0E022C0E0C0F088C0
:1019F300F0E4936670080874019366187000A8F009
:101A0300A3A3700BD0F0D0E0D0E0D0E002199FA3E5
:061A1300A3D0F0D0E02298
:101A1C0074F5121732EAFEEBFFEE2434F8EF3400C3
:101A2C00F988088909EE2435F582EF3400F583E056
:101A3C00F8EE2437F582EF3400F583E0F50AEC85F7
:101A4C000AF0A4FCAAF0850AF0EDA42AFDE82CF813
:101A5C00E43DF97A257B001215CBEA8508828509CD
:101A6C0083F0F8740758F97401B900028004C33389
:101A7C00D9FCFAE8131313541FF8EE28F8EF3400CE
:101A8C00F9E8245DF582E93400F583E05A6008EE4C
:101A9C002434F582EF802CEE2434F582EF3400F5FB
:101AAC0083E0C0E0EE2436F582EF3400F583E0F5F8
:101ABC00F0D0E084A8F0EE28F8EF3400F9E82438F0
:101ACC00F582E93400F583E0F97F040217DE74F542
:101ADC00121732EAFEEBFFEE2434F582EF3400F5F8
:101AEC0083E0C0E0EE2435F582EF3400F583D0E0DE
:101AFC00F08E828F83A3A3A3A3A3A3A3C082C083CE
:101B0C008E828F83A3A3A3A3A3E0F8A3E0F9D083D1
:101B1C00D082E0C398F508A3E099F509EE247FF58F
:101B2C0082EF3400F583E064017069EE2480F58265
:101B3C00EF3400F583E0F8A3E0F98E828F83A3A342
:101B4C00A3A3A3A3A3E0FCA3E0FD8E828F83A3A396
:101B5C00A3A3A3E0FAA3E0FBC3EA9CEB9D5010C344
:101B6C00EC98ED99402EC3EA98EB995027800EC360
:101B7C00EA98EB994007C3EC98ED9940177CDC7D13
:101B8C0004EEFAEFFB120B73EE247FF582EF3400B8
:101B9C00F583E4F0EE2434F8EF3400F9E8FCE9FDC9
:101BAC00EE2435F582EF3400F583E0F8EE2437F5BA
:101BBC0082EF3400F583E0F50AE508850AF0A4F518
:101BCC0008AAF0850AF0E509A42AF509E82508F821
:101BDC00E43509F97A257B001215CBEA8C828D83CA
:101BEC00F0F8740758F97401B900028004C333D9B2
:101BFC00FCFAE8131313541FF8EE28F8EF3400F92D
:101C0C00E8245DF582E93400F583E05A6008EE249F
:101C1C0034F582EF802CEE2434F582EF3400F5831A
:101C2C00E0C0E0EE2436F582EF3400F583E0F5F009
:101C3C00D0E084A8F0EE28F8EF3400F9E82438F569
:101C4C0082E93400F583E0F9122531021AD5C082FD
:101C5C00C083851882851983E0F8A3E0F9C3EA9C58
:101C6C00EB9D5010C3EC98ED99401BC3EA98EB998F
:101C7C005014800EC3EA98EB994007C3EC98ED9989
:101C8C004004790180027900D083D08222EAC39C7F
:101C9C00FAEB9DFB2274EF1217329003A2E064085A
:101CAC006005E06407702A9061C8E060249003D05E
:101CBC00E0F4601DE0F875F003A4C8AAF02AF974EA
:101CCC00D228FE740339FF8E828F83A3A3A3E07006
:101CDC0003021DD1906060E0C0E0EE2468F582EF55
:101CEC003400F583D0E0F0750C45750D05750800D2
:101CFC00750900E5D914F50AE5D95403F50E6017FA
:101D0C007403650E605CE50A6010EE2467F582EFE3
:101D1C003400F583E07003021DB6900540E06401C9
:101D2C00602AEE2482F582EF3400F583E0600478BB
:101D3C000480027800850A08E508C398FA95E0FB50
:101D4C00120A418A088B09EA45097005120D658053
:101D5C0074EE2482F582EF3400F583E070048A0C73
:101D6C008B0DE50A6012850C82850D83F50BE5D988
:101D7C00F0A3150BE50B70F6EE2482F582EF340020
:101D8C00F583E0604474FC250AF50A780C1218D926
:101D9C00AC0AA90EEEFAEFFB120C0F740212166CC1
:101DAC00E97026AA08AB091211EB793D8E828F835C
:101DBC00A3A3A3A3E0FA7B00120915EEFAEFFB1222
:101DCC000B8B120C21790080747403650E605685A0
:101DDC000A1075110078101218D9AC0CAD0DAA08A8
:101DEC00AB09120BEB740212166CEE2468F582EF41
:101DFC003400F583E064807004747F8001E0F50C9E
:101E0C00780C1218DDE50EF50C780C1218DDA90A09
:101E1C00AC08AD099003D0E0FA7B001208D974022B
:101E2C0012166C80139003A2E06408600BAC0CAD2E
:101E3C000DEEFAEFFB120C7B120D7179017F0A0289
:101E4C0017DE74F512173274FC121656EAFEEBFF0D
:101E5C008908A2AFE433F509C2AF806AEE2463F8B7
:101E6C00EF3400F97A007B00A2AFE433F50AC2AF7D
:101E7C0088828983E0FCA3E0FDEC4D603A8882897E
:101E8C0083E0FAA3E0FB8A828B83E0FCA3E0FD886D
:101E9C00828983ECF0A3EDF08A828B83E4F0A3F0CB
:101EAC0088828983E0FCA3E0FDEC4D700A8882896E
:101EBC0083A3A3E4F0A3F0E50AA2E092AF1211EB26
:101ECC009004E3E004F0EE2463F582EF3400F58334
:101EDC00E0F8A3E0F9E849603DEE2463F582EF34C5
:101EEC0000F583E02402FAA3E03400FBEA2402F5B7
:101EFC000AEB3400F50B780A1218D98A828B83E02E
:101F0C00FCA3E0F9EEFAEFFB120BAF740212166CA5
:101F1C00E97003021E689004E3E060639004E4E05F
:101F2C00F89004E3E0C398500C740265087050906C
:101F3C0004E5E0604A8E828F83A3A3A3A3E08518F7
:101F4C0082851983F0A3E4F09004E3E0F8740212A4
:101F5C0016A2E8F0A3E4F09004E3E0F89004E2E0C9
:101F6C0028F074021216A2AC82AD838518828519F2
:101F7C0083AA82AB8379011208E59004E3E4F0E5CF
:101F8C0009A2E092AF740412166C021AD50000007C
:101F9C008521878522C622C0E0C0D0E8C0E0E9C018
:101FAC00E0EAC0E0EBC0E0ECC0E0EDC0E0EEC0E089
:101FBC00C008C009C00AC00BC082C083C0F0A2AF69
:101FCC00E433FEC2AF759B00906182E0A2E0501238
:101FDC00E591A2E0500C7591FE740165217003121D
:101FEC001CA1E0A2E55051E591A2E5504B7591DFA3
:101FFC009003A2E064076005E06408702374016537
:10200C0021703579019003D0E0FA75F003A4CAA8C9
:10201C00F028FB74D22AFA74033BFB121E4E801874
:10202C00E0640D70139003C4E004F064287002E4C3
:10203C00F07A00E0F9120D77906182E0A2E640039D
:10204C000220EAE591A2E640030220EA7591BF90D6
:10205C0003A2E064057008120CA5120CB1800312E7
:10206C000CAB752100120D05E99003A3F079001259
:10207C000CF9120AE97A017B009003A1E0F9120F26
:10208C00C9907803E064427055900544E014F070F8
:10209C004DC2AF1220A200782AD0E0F618D0E0F69C
:1020AC00E59F540770057509FF800375097FC4C04F
:1020BC00E07829E6F50808E65509F509740B780867
:1020CC00121634D0E02508F8906270E0A2E740F8D0
:1020DC00E8C333906272F0906270E0D2E0F09061ED
:1020EC0081E0A2E35009E5E9A2E3500375E9F7A307
:1020FC00E0A2E75009E591A2E7500375917FEEA2AB
:10210C00E092AFD0F0D083D082D00BD00AD009D0DF
:10211C0008D0E0FED0E0FDD0E0FCD0E0FBD0E0FA4F
:10212C00D0E0F9D0E0F8D0D0D0E032C0E0C0D0C0E0
:10213C0082C083906183E0A2E05009E5BFA2E05029
:10214C000375BFFEE0A2E15009E5BFA2E1500375A3
:10215C00BFFDE0A2E25009E5BFA2E2500375BFFB50
:10216C00E0A2E35009E5BFA2E3500375BFF7E0A27C
:10217C00E45009E5BFA2E4500375BFEFE0A2E550BF
:10218C0009E5BFA2E5500375BFDFE0A2E65009E503
:10219C00BFA2E6500375BFBFD083D0828088C0E059
:1021AC00C0D0E8C0E0E9C0E0EAC0E0EBC0E0ECC0C1
:1021BC00E0EDC0E0C0F0E5A7A2E6500FE5A1A2E675
:1021CC00500953A7BF75A1BF12220FE5A7A2E55076
:1021DC000CE5A1A2E5500653A7DF75A1DFE5A7A288
:1021EC00E15009E5A1A2E1500375A1FDE5A7A2E22A
:1021FC00500CE5A1A2E2500653A7FB75A1FBD0F051
:10220C0002212074F81217327521019003A2E064A8
:10221C00067015120C3F8A828B83A3A3A3A3A3A3DE
:10222C00E0FAA3E0FB120C93A2AFE433FED2AF9022
:10223C0003A8E0640170187A207B009003A1E0F9F8
:10224C0012104D7A207B009003A1E0F9120FCF9071
:10225C006182E0D2E6F0900541E0602185C62280E3
:10226C00169003A7E064017008E5C654F84405F520
:10227C00C653BEFC121F9C7401652160E4EEA2E003
:10228C0092AF7F010217DE008E238F248582288572
:10229C008327851882851983E0CEA3E0CF85288219
:1022AC00852783EBC9EAC8EDCBECCA75F010C3E8FF
:1022BC0033C8E933C9EA33CAEB33CBC3EA9EF526FC
:1022CC00EB9FF525B35004AB25AA26EC33CCED33AC
:1022DC00CDD5F0DAAE23AF242274ED1217328A0872
:1022EC008B098C0A8D0B74131216A2780C12150E16
:1022FC007808790C12130E7510017511C87512003F
:10230C0075130050127808790C1214AD78107908F6
:10231C0012130E50168010780C79081214AD781028
:10232C00790C12130E40047901800279007F0C02A3
:10233C0017DE74ED1217328A088B098C0A8D0B7418
:10234C00131216A2780C12150E780C790812130EB3
:10235C0040117808790C1214ADAA08AB09AC0AAD7F
:10236C000B80227510007511007512007513017821
:10237C0010790C1214AD78107908121474AA10ABE1
:10238C0011AC12AD1380A68A828B837508FF750978
:10239C00FF750AFF750B0078081214FB7F040217F7
:1023AC00DE74F51217328C828D83780812150E8A22
:1023BC00828B8378081214C1EA2404F8EB3400F9F8
:1023CC008C828D83A3A3A3A3E0FCA3E0FD88828968
:1023DC0083C3E09CF0A3E09DF088828983C3E094E2
:1023EC0020A3E0944E40268A828B837508FF7509E2
:1023FC00FF750AFF750BFF780812149A8A828B837B
:10240C00A3A3A3A3E02420F0A3E0344EF002239373
:10241C0074F5121732E9FE9004F7E0FAA3E0FBEE34
:10242C00C333F8E433F974C928F582748039F58321
:10243C00E02AF508A3E03BF50978081218D97A4090
:10244C007B427C0F7D00122294740212166C8A0857
:10245C008B098C0A8D0B7410780812143CAA08ABEB
:10246C00097F040217DE74F11217328A0C8B0D8C63
:10247C000E8D0F740F1216A2E0FAA3E0FB7411126A
:10248C0016A2E0F508A3E0F50978081218D9EA2499
:10249C0001F508EB3400F509E4F50AF50B780C7935
:1024AC000812134D750871750902780C790812130E
:1024BC004DAA0CAB0DAC0EAD0F1222947402121679
:1024CC006C8B09EA450960047A0180027A00EC2AD7
:1024DC00FCED3400FD74131216A2E0F8A3E0F9E849
:1024EC00FEE9FFECF8EDF97A717B021215CB880846
:1024FC0089098E828F83780812151DECF8EDF97A14
:10250C00717B021215CB8A088B0974057808121698
:10251C00438E828F83A3A3A3A3E508F0A3E509F060
:10252C007F080217DEC082C083E9906000F0D08380
:10253C00D08222C2AF02000022C0E074F212181E38
:10254C00A2AFE433FED2AFE589A2E15003121191A0
:10255C00758900C2C5EEA2E092AF7F0102187DC062
:10256C00E074F212181EA2AFE433FED2AFE58BA2D8
:10257C00E05003121191758B00C2E880D8C0E0C006
:10258C00D0E8C0E0E9C0E0E5A8D2AFC2C7A2E7A29C
:0E259C00E792AFD0E0F9D0E0F8D0D0D0E03236
:1025AC00FFFFFFFFFFFFFFFFC082C083E99009FD23
:1025BC00F002284374F71216C6E99002E1F07C1978
:1025CC007D037AFF7BFF12082B9002E274FFF0A3CD
:1025DC00F0A3E4F0A3F079051207B39002E1E0F95F
:1025EC001206D57A497B081209F37F0102179874F9
:1025FC00F41216C68A088B09EB548060309002E105
:10260C00E0F9120FB18A0A8B0BAE0AAF0BEE4F60DA
:10261C00138E828F83E064B070031207CBEEFAEF57
:10262C00FB120F9FAA08E5096480FB80047A007BEB
:10263C000002281274F21216C674FC121656EAFE28
:10264C00EBFFEE4F603874021216A2EEF0A3EF12FD
:10265C002A77ECF0A3ED122A77AA82AB831206CF6D
:10266C00E9F508707374121216A212362BE50A459E
:10267C000B60658E828F831226EEEE4F7005750807
:10268C000280557A067B001210058A0C8B0DA80C63
:10269C00A90DE8497005750813803D88828983E48B
:1026AC001226F8A3A3EEF0A3EF123AC4E50AF0A3A6
:1026BC00E50BF09002E71227809002E76017E0FC30
:1026CC00A3E08003EAFCEBFD8C828D8312278070E3
:1026DC00F38C828D83123550A908740412166C0287
:1026EC003CC6A3A3A3A3E0FEA3E0FF22F0A3F088C3
:1026FC008289832274F21216C6890AE975F017A42E
:10270C00FEAFF09002E6E4F09002E4122780600A3B
:10271C0012100B9002E4E4F0A3F0EEFAEFFB1210AF
:10272C00058A088B09EA4509602FEEFCEFFD79005C
:10273C00120F8D9002E4E508F0A3E509F07B008010
:10274C000812276AE4F0A3F00BEBC3950A40F2E5FC
:10275C000A9002E6F0790080027913023CC6EB7510
:10276C00F017A4F8A9F09002E4E028FAA3E0398A63
:10277C0082F583221232E6EA4B2274F41216C675E5
:10278C000800750900740C1216A2123A98FEE9FFA3
:10279C00800CE5082401F508E5093400F509C3E5CA
:1027AC00089CE5099D503285080A85090B7403784D
:1027BC000A121643EA250AF8EB350BF9888289834D
:1027CC00A3A3A3A3A3A312362BEE650A7003EF6594
:1027DC000B70BFE8FAE9FB80047A007B0080277459
:1027EC00F41216C67900EAA2E0501B750838750978
:1027FC008178081218D97C047D007AFF7B091207B6
:10280C00AD740212166C7F04021798C082C08390BC
:10281C0002E712284A601C88828983A3A3E06A70AD
:10282C0003A3E06B8882898370E8A3A3A3A312326D
:10283C00E280047A007B00D083D08202011F123D1B
:10284C0099E8492274EE1216C674FC121656EAFE6A
:10285C00EBFF851882851983E4F0A3F0EE240212B5
:10286C003534EE2405122A65EE2404F50EEF122EF3
:10287C004AE024FE603924FC604624FE605224FEAB
:10288C00605E24FE700302296A24FE70030229E2B2
:10289C0024FE70030229F124FE7003022A0024FC9A
:1028AC007003022A0F24FE7003022A1E022A5B9078
:1028BC0003007417F0A3E4122A7F12044D022A5B62
:1028CC00851882851983AC82AD831207D1022A2B1D
:1028DC00851882851983AC82AD831207D7022A2B07
:1028EC00850C08850D0974021216A2AC82AD838585
:1028FC0008828509831232E21206F38A0C8B0DAC26
:10290C000CAD0DEC4D6042E4F50CF50D780C121885
:10291C00D9750C00750D03780C1218D9750C01754E
:10292C000D03780C1218D974081216A21218F0792B
:10293C00161232DC120813740812166CE9F50C70BE
:10294C000B1232D8120465800F750C018508828534
:10295C000983122A6D123550850C08022A2E740236
:10296C001216A2AC82AD83850C82850D831232E2E5
:10297C001206F38A108B11AC10AD11EC4D6043852F
:10298C000C82850D83A3A31218F07510007511032A
:10299C0078101218D975100175110378101218D906
:1029AC0074081216A21218F079161232DC120813DF
:1029BC00740812166CE9F509700B1232D812046BFC
:1029CC00800F750901850C82850D83122A6D1235D5
:1029DC0050850908804C851882851983AC82AD839B
:1029EC001207DD803A851882851983AC82AD83127B
:1029FC0007E3802B851882851983AC82AD8312077F
:102A0C00E9801C851882851983AC82AD831207EF8F
:102A1C00800D851882851983AC82AD831207F5E988
:102A2C00F508E50860298E828F83A3E06414601F8B
:102A3C00850E82850F83E0900300122A77123D9554
:102A4C00900301123550E508A3122A7F120447EEB9
:102A5C00FAEFFB12077102343CF50CEF3400F50D64
:102A6C0022123D9985188285198322F0851882855A
:102A7C00198322F07C007D03850A82850B83123238
:102A8C00E62274EE1216C674FC1216568A0A8B0BCA
:102A9C008C0E8D0FEA2405F508EB3400F5097C1536
:102AAC007D0079007A007B03120F8DE5082402F576
:102ABC000CE509122A688518828519838582108590
:102ACC00831178101218D9850882850983A3A3A3D2
:102ADC00A3122F921218D9E5082405F510E5093434
:102AEC0000F51178101218D9850C82850D831232DD
:102AFC00EC1206ED740612166C8A108B11AE10AF28
:102B0C0011E50A2402F50AE50B123537EE4F700376
:102B1C00022C54801774021216A21232E288828997
:102B2C0083EAF0A3EBF0900300E004F0900300E0E4
:102B3C00C394054003022C54E4F510F511781012DF
:102B4C0018D97510E975110278101218D97510EA98
:102B5C0075110278101218D974061216A21218F0F8
:102B6C007910EEFCEFFD1232DC1208137408121609
:102B7C006CE9705E850882850983A3A3A3A3A3A334
:102B8C00A3E0F89002E9E0687048122F921218D96D
:102B9C007CEA7D02E5082408FAE5093400FB120FF3
:102BAC0087740212166CE960298E828F83A3A3A30B
:102BBC00A31232E2900300E0F510740278101216A2
:102BCC004374012510F58274033511F583EAF0A3E3
:102BDC00EBF074021216A285821085831178101204
:102BEC0018D974021216A21218F0850C82850D8366
:102BFC00123DAA1206F9740412166C8A108B11AECF
:102C0C0010AF11900300E0F51075110074027810EC
:102C1C0012164374002510F874033511F988828953
:102C2C0083A31227807003022B18E82403F8E934DD
:102C3C0000F9EE4F6003022B218882898374FFF028
:102C4C00A3F0900300E004F0900300E0600A12325D
:102C5C00D81204597900800B8508828509831235B6
:102C6C0047790A02343C74EA1216C674FE121656E0
:102C7C008C128D13EA2405F50CEB123F141226F27C
:102C8C00750800750900EA2402F510EB3400F51103
:102C9C0085188285198385820A85830B780A121818
:102CAC00D9850C82850D83A3A3A3A3122E541218CD
:102CBC00D9E50C2405F50AE50D123537780A1218FA
:102CCC00D9850C82850D83123DA81206ED7406126F
:102CDC00166C8A0A8B0BEA450B7003022E05EA244C
:102CEC0004F50EEB122E4A1226F28A828B83A3A3D2
:102CFC00A3E0F98510828511831232E21206DBE91A
:102D0C00F5096003022E05E4F514F5157814121874
:102D1C00D97514E975150278141218D97514EA7559
:102D2C00150278141218D974061216A21218F0791A
:102D3C0013AC0AAD0B8510828511831232E2120896
:102D4C0013740812166CE9F5096003022E05900243
:102D5C00E9E0F8E5087009E02402900301F080171F
:102D6C00900301E0FCE82402FAE43400FBEA6C7006
:102D7C0001EB6003022E09850882AA82122F899426
:102D8C0014122F815073850E82850F83E0C0E0747E
:102D9C00022A122E41D0E0F00508850E82850F83A1
:102DAC00A3E0C0E085080A7402250A122E41D0E087
:102DBC00F005089002E9122E541218D97CEA7D0213
:102DCC0085080A7402250AFA74033400FB120F7585
:102DDC00740212166C9002E9E02508F50874FF6E77
:102DEC00700374FF6F6012EE24010EEF3400FFE5E8
:102DFC0008C394145003022C9CE50860131231CDC7
:102E0C008510828511831232E212045F79008014DE
:102E1C00E509700375090A851282851383EEF0A308
:102E2C00EFF0A909740212166C7F0E021798850830
:102E3C000C7402250CF58274033400F583223400E3
:102E4C00F50F850E82F58322123AD72274EE1216F4
:102E5C00C674FE1216568C0E8D0FEA2405F50CEB7B
:102E6C00122A68750B00900300E4F0F50AEA2402BC
:102E7C00F508EB3400F5098049900300E0FA900264
:102E8C00E9E0F8122F899417122F81400D9003005E
:102E9C00E0F87416C3989002E9F0122F921218D928
:102EAC007CEA7D0274012AFA74033400FB120F755C
:102EBC00740212166C9002E9E0F8900300E028F01E
:102ECC00050AE50C2416F582E50D122E45E0F8E511
:102EDC000AC3984003022F6A900300E0C394165073
:102EEC007DE50AC333F8E433F9E50C28FEE50D392A
:102EFC00FF851882851983AC82AD838E828F8312F5
:102F0C0032E21206F38A108B11AC10AD11EC4D703D
:102F1C0005750B018043E4F510F51178101218D9E2
:102F2C007510E975110278101218D97510EA75111F
:102F3C000278101218D974061216A21218F079160B
:102F4C008508828509831232E2120813740812165E
:102F5C006CE9F50B7003022E8512354380107C0052
:102F6C007D038508828509831232E2120471A90B54
:102F7C00740202343EE99400C365D03322EA28F887
:102F8C00E43400F9E822E0F5107511007810227491
:102F9C00EA1216C674FC1216568A0C8B0D8C128D06
:102FAC0013EA2405F50AEB1235377508007509008C
:102FBC00E50A2402F510E50B3400F5117402121623
:102FCC00A285820E85830F780E1218D9850A828508
:102FDC000B83A3A3A3A3123A831218D9E50A2405E1
:102FEC00F50EE50B3400F50F780E1218D98510820A
:102FFC0085118312353D1232DC1206ED7406121661
:10300C006C8A0E8B0FAE0EAF0FE50C2402F50EE59D
:10301C000D3400F50F80408882898374FFF0050819
:10302C00122E3A74FFF005089002E9E0F50C750DCC
:10303C0000780C1218D97CEA7D0285080C740225E4
:10304C000CFA74033400FB120F75740212166C9098
:10305C0002E9E02508F508EE4F60718E828F83A39C
:10306C00A3A3E0F9850E82850F831232E21206DBF0
:10307C00E9F509EE2404122A65E97044E4F514F527
:10308C001578141218D97514E975150278141218DC
:10309C00D97514EA75150278141218D97408121619
:1030AC00A21218F07911EEFCEFFD850E82850F83CC
:1030BC001232E2120813740812166CE9F509602733
:1030CC00850C82850D831231C3123550E5087003CF
:1030DC000231A91231CD850E82850F831232E21294
:1030EC00047779000231BE850882AA82EA9002E94F
:1030FC007009E02404900301F08022E0F8900301B1
:10310C00E0F514E82404FCE43400FDEC65147001D3
:10311C00ED70C0122F899412122F8150B6850C823B
:10312C00850D83E0C0E074022A122E41D0E0F00538
:10313C0008850C82850D83A3E0C0E0122E3AD0E006
:10314C001231DF85820C85830D780C1218D974042A
:10315C001216A21218F0851082851183123DAA1244
:10316C0006F9740412166C8A0C8B0DAE0CAF0D851F
:10317C00080C7402250CF874033400F9EE4F70033C
:10318C00023023851882851983E088828983123165
:10319C00DFA3E0C0E0122E3AD0E0023031E5097036
:1031AC000375090A850A82850B831231C3123550C7
:1031BC00A9097404022E32123D998512828513835B
:1031CC0022900301E0F5F0E50884900300F07C0008
:1031DC007D0322F005088518828519832274EC1270
:1031EC0016C674FE1216568A088B098C0E8D0FEAC1
:1031FC002405FEEB3400FF851882851983AC82AD63
:10320C00838E828F831232E21206F38A0A8B0BEEC4
:10321C002418122A65EA450B70030232B3123425C6
:10322C0050328518828519831232E21208078A10EF
:10323C008B11EA4511606B7912AC0AAD0B850882D3
:10324C008509831232E28510828511831216C4E936
:10325C00F50A7058E4F50AF50B780A1218D98E8223
:10326C008F83A3A3E0F50A780A1218D9EE2403126F
:10327C003534780A1218D98E828F831232EC1208E8
:10328C0019740612166CE9F50A7021850C82850DED
:10329C0083E0701F8508828509831232E212047D57
:1032AC008011750A0E8009750A018004E50A600315
:1032BC00123543850C82850D83E060047900800211
:1032CC00A90A740212166C7F0C0217987C007D03FD
:1032DC00850A82850B831232E622E0FAA3E0FB22F8
:1032EC00E0FCA3E0FD8508828509831232E6227496
:1032FC00EE1216C674FE1216568A088B098C0C8DAB
:10330C000DEA2405FEEB3400FF750E00851882854E
:10331C001983AC82AD838E828F831232E21206F354
:10332C008A0A8B0BEA450B700302341112342550B8
:10333C00358518828519831232E21208078A0E8BA2
:10334C000FEA450F605E7912AC0AAD0B85088285D9
:10335C0009831232E2850E82850F831216C4E9F5B9
:10336C000E600302341485088285098312362BAA59
:10337C000AFB1207FB8A108B11A810A911E84970DF
:10338C001E7AFF7BFF1207FB8A108B11A810A91164
:10339C00E849606C88828983E50AF0A3E50BF07537
:1033AC000A008007750E0E805F050A9002E6E0FAAF
:1033BC00E50AC39A504AE50A75F017A4FAABF088EF
:1033CC00828983A3A3E02AFAA3E03BFB8A828B8346
:1033DC0012353DEC4D70D2750A17750B00780A1238
:1033EC0018D9EEFCEFFD120F75740212166CEEFC80
:1033FC00EFFD8508828509831232E2120483801462
:10340C00750E098003750E01123D91850C82850D98
:10341C0083123550A90E022F7CE5082402F508E52D
:10342C00093400F5098A828B83A3A3A3E0A2E522C9
:10343C00740412166C7F0A02179874EC1216C68C60
:10344C00108D11EA2405F50CEB122A68750F00EAB1
:10345C002402F50AEB123537850A82F5831232E223
:10346C001207FB8A088B09EA450970030235297596
:10347C000E008071850C82850D83E06401704F8E87
:10348C00828F83A3A31218F08E828F83A3A3A3A38E
:10349C00E0F51275130078121218D9EE2405F51206
:1034AC00EF3400F51378121218D91232DC12081905
:1034BC00740612166CE9F50F6014850C82850D8369
:1034CC00E4F0123D918510828511831235507C17E2
:1034DC007D007900EEFAEFFB120F8D8E828F83E464
:1034EC00F0A3F0050E9002E6E0F8E50EC398501E2E
:1034FC00E50E75F017A4F8A9F0850882850983A359
:10350C00A3123F1E12353DEC4D600302348085083A
:10351C008285098374FFF0A3F0E50F70061232DC8C
:10352C00120489A90F0232D3F50AEF3400F50B22ED
:10353C00A3E0FCA3E0FD228E828F83123D99850EC1
:10354C0082850F83E8F0A3E9F022C082C083900249
:10355C00E2E06A7003A3E06B70067AE27B028004FF
:10356C007A007B00022843C082C08378008C828D55
:10357C0083E06A7003A3E06B7010E875F003A4F8A5
:10358C00A9F0EC28FAED39FB8015088C828D83A309
:10359C00A3A3E06A7003A3E06B60DF7A007B0002F8
:1035AC00284374F61216C61207C58A828B83E582ED
:1035BC00458370067A007B008007A3A3A3A3123275
:1035CC00E2023C4274F21216C6E9FE740E1216A206
:1035DC0012362B74101216A2123AA38C828D83E031
:1035EC0064027036A3123D9FF50CA3E0F9A80C748D
:1035FC00026870037429697021750C02750D0078CE
:10360C000C1218D978081218D9780A1218D9EEF9B0
:10361C0012083D740612166C80027901023CC6E059
:10362C00F50AA3E0F50B2274E81216C674FB121609
:10363C0056E9851882851983F08A168B17ECFEEDF6
:10364C00FF751000741D1216A2123D95741D1216F2
:10365C00A21235508E828F83A3A3A3E0A2E4502D37
:10366C00741D1216A21232E21208078A828B83E5AD
:10367C008245837003023A74790AEEFCEFFDAA16B8
:10368C00AB171216C4E9F5106003023A77741F12D7
:10369C0016A2123AA374211216A212362B742312FC
:1036AC0016A2E0F50EA3E0F50F8E828F83E0640284
:1036BC006003023A22A3123D95850882850983A3F3
:1036CC00858212858313EE2406122A6588828983EB
:1036DC00E0FAA3E0F9EA2400F514E439F5157814BE
:1036EC00121963010000280128173707000228DC93
:1036FC0037032849370029133901293E390229DFBC
:10370C0038032913390429BD39223AE50E450F60D7
:10371C0003023A1D850C82850D83123A98FAE9FB57
:10372C008A828B83E0850A82850B83123ACE12182B
:10373C00D98A828B83A3E0FCA3E00239A7E50E456E
:10374C000F6003023A1D850A82850B837401F01207
:10375C003AAB850882850983F07C007D008E828FD0
:10376C0083A3A3A3A3E02401FAA3E03400FB120675
:10377C00F3EA4B60418A828B83E02402F8850A824B
:10378C00850B83E028F0EA2404F8EB3400F98882F6
:10379C008983E0851282851383123AE0123ACE12A5
:1037AC0018D98A828B8312353CE5082403FAE50983
:1037BC003400FB0239AC850A82850B83E02404F0CB
:1037CC007C047D007900AA12AB13120F8D023A779C
:1037DC00E50E450F6003023A1D123AABFEA3E0FF63
:1037EC00850A82850B837404F0EE85088285098333
:1037FC00F0EF851282851383F074031216A2AC824B
:10380C00AD83EEFAEFFB1206F38A0C8B0DEA450D35
:10381C0070030238C08A828B83A3A31226EE740134
:10382C001216A285820E85830F780E1218D9740594
:10383C001216A21218F07CFF7DFF1206F974041206
:10384C00166C8B0FEA450F7033850C82850D831235
:10385C003A831218D9850C82850D83A31218F07C3B
:10386C00027D007A937B81120525740412166CE993
:10387C00700A74011216A274FFF0A3F08E828F836B
:10388C00E064027039750C02750D00780C1218D9B1
:10389C008E828F8312353CE5082404FAE509340046
:1038AC00FB120F75740212166C850A82850B83E06D
:1038BC002402800974011216A2EEF0A3EFF0740139
:1038CC001216A2123A94F074011216A2A3123A8C98
:1038DC00023A17E50E450F6003023A1D850C8285EE
:1038EC000D8312353DAA16AB17120831850A828555
:1038FC000B837402F0EA850882850983F0851282B5
:10390C00851383EB023A1AE50E450F6003023A1D4C
:10391C00123AABF8A3E0F9850A82850B837402F0A6
:10392C00E8850882850983F0E98512828513830274
:10393C003A1A850C82850D831232E2120F6FEAFC63
:10394C008C82A882C3950EE4950F405FE8650E70DB
:10395C0002E50F70047C008022851882851983E0B3
:10396C00FAE50E2AFAE50F3400FBC3EA98EB940053
:10397C005003E08005E50ECCC39CFCEC850A8285E7
:10398C000B83F08C0A750B00780A1218D9850C82FF
:10399C00850D83E0250EFCA3E0350FFDAA08AB09CD
:1039AC00120F75740212166C023A77751007023AF0
:1039BC0077E50E450F705A850C82850D83123D9567
:1039CC00850A82850B8374071226FA123A8C12260A
:1039DC00FAA3E0851282851383F0E82402FAE93415
:1039EC0000FB8A828B83123A8C123ABB123A94A354
:1039FC00123AC4123A9DF0E82405F8E93400F9882B
:103A0C00828983123A9DA3123AE0A3A3A3A3F08068
:103A1C005A75100B8055741D1216A21232E2120741
:103A2C00C58A828B83E5824583603D123D95880C67
:103A3C00890DE8450D6031780E1218D9780A1218E4
:103A4C00D978081218D974061216A2E0F9EEFCEF18
:103A5C00FDAA16AB17850C82850D831216C474064D
:103A6C0012166CE9F510800375100EA9107405126E
:103A7C00166C7F10021798E0F50E750F00780E2269
:103A8C00E085088285098322123AEA22123D99E8E0
:103A9C0022123AEAA3A322E0F508A3E0F509228555
:103AAC000C82850D83E0F8A3E0F5838882E022A3E5
:103ABC00A3F08A828B83A322F088828983A3A3A399
:103ACC00A322F08A828B83123AD722E0F50A750B77
:103ADC0000780A22F088828983A3123AEA22E085D0
:103AEC000882850983A3A32274EE1216C674FE12F3
:103AFC0016568A0A8B0BECFAEDFB74141216A2E024
:103B0C00F510A3E0F51174161216A2E0FE7418124B
:103B1C0016A2E0F50EA3E0F50F851882851983AC8B
:103B2C0082AD831206F38A0C8B0DEA450D60498534
:103B3C0018828519831232E21207C58A828B83E5BB
:103B4C00824583602FA3A3123AA3E508450960249C
:103B5C00780E1218D978101218D9EEF9AC0CAD0DEC
:103B6C00AA0AAB0B8508828509831216C474041249
:103B7C00166C8006790E80027901022F7C74F61285
:103B8C0016C674FE121656740C1216A2123A9885AA
:103B9C001882851983F074011216A2E9F0E4F50875
:103BAC00F50978081218D975080278081218D97412
:103BBC00041216A285820885830978081218D91276
:103BCC000819740612166C740212166C806874F75D
:103BDC001216C6EAFEEBFF89087C197D0312083128
:103BEC00EA5402600BA908EEFAEFFB1206E780021A
:103BFC0079010225F674F61216C674FF6A70037406
:103C0C00FF6B70168C828D83123C47E4F08C828D96
:103C1C0083A3A3A3123C47A380181208018A088B24
:103C2C0009A808A909E849600D8882898374FF12E4
:103C3C0026F8A3A3E4F07F0202179874FFF0A3F018
:103C4C008C828D83A3A32274F61216C61208018AE5
:103C5C00828B83E58245836006A3A3E0FA80027A17
:103C6C00007B0080D174F21216C68A088B09ECFE18
:103C7C00EDFF740E1216A2E0F50A1208018A0C8BE5
:103C8C000DA80CA90DE8497026EEFCEFFD7AFF7B20
:103C9C00FF1208018A0C8B0DA80CA90DE8497004C1
:103CAC007911801688828983E508F0A3E509F088EC
:103CBC00828983A3A3E50AF079007F060217987422
:103CCC00EE1216C6EAFEEBFF8C088D09890C7414F3
:103CDC001216A2123D9574161216A21232E2750D2E
:103CEC0000E8496003023D897402650C6003023DE3
:103CFC008474121216A2123D9FFCA3E0F9EC24006E
:103D0C00F50EE439F50FEAF4F8EBF4F9EC58F8E5B4
:103D1C000F59F9E849705CE5082406F8ED3400F910
:103D2C00880A890B8882F583123DAA1208318A1001
:103D3C008B11E50E65107004E50F65116042780E6D
:103D4C001218D9850A82850B83123DAA1208377482
:103D5C000212166CE9F50D7027780E1218D9850829
:103D6C0082850983A3A3123DA812084F7402121670
:103D7C006C800D750D808008750D0D8003750D0B15
:103D8C00A90D0234418E828F83123D9922E0F8A353
:103D9C00E0F922123D9988828983E022A3A3E0FCFA
:103DAC00A3E0FDEEFAEFFB2274E81216C674E712DC
:103DBC001656851882851983EAF0A3EBF08C168DC4
:103DCC0017890E75080075090074311216A2E0F5FA
:103DDC0012A3E0F51374331216A2E0F514A3E0F568
:103DEC001574351216A2E0F50FE50975F003A4F869
:103DFC00A9F0851882851983123F1EE0F47003A385
:103E0C00E0F47003023F01EE2402F50CEF123F14B4
:103E1C00E07003023F0185160A85170B780A121809
:103E2C00D9AC14AD15AA12AB131207B97402121641
:103E3C006C8A0A8B0BEA450B7003023F01E4F51008
:103E4C00F51178101218D974061216A285821085F5
:103E5C00831178101218D974091216A28582108554
:103E6C00831178101218D9851282851383A3A3A30A
:103E7C00A31218F07914AC0AAD0B8E828F83123218
:103E8C00E2120813740812166CE97069850A8285AF
:103E9C000B83A3A3A3A3123D9574021216A2123591
:103EAC0050850C82850D83E0A2E05018A90E740297
:103EBC001216A2AC82AD838E828F831232E212076D
:103ECC000BE94208850C82850D83E0A2E15026E5C2
:103EDC000FF50A780A1218DDA90E74031216A2AC9B
:103EEC0082AD838E828F831232E212070574011227
:103EFC00166CE942080509E509C394025003023D1A
:103F0C00F5A9087419023A7B3400F50D850C82F57D
:103F1C008322E028FEA3E039FF8E828F832274F285
:103F2C001216C6EAFEEBFF890B7401650B600E746A
:103F3C0002650B706A7901120A11E97062EEFAEFF0
:103F4C00FB1207FB8A088B09EA45096047750A00D2
:103F5C00800B7C177D007900120F8D050A9002E60C
:103F6C00E0F8E50AC3985021E50A75F017A4F8A902
:103F7C00F0850882850983A3A3E028FAA3E039FB26
:103F8C008A828B8312284A70C985088285098374BA
:103F9C00FFF0A3F07C197D03EEFAEFFB12082B0265
:103FAC003CC674F21216C68A088B09ECFEEDFF743F
:103FBC000E1216A212362B9009FDE0F4603D7A0920
:103FCC007B00120F99EA4B60328A828B8374B1F0BA
:103FDC00A3E4123ABDA3123ABBA3E508F0A3E5098A
:103FEC0012400AEEF0A3EF12400AA3A3E50AF0A3D5
:103FFC00E50BF09009FDE0F9120FA5023CC6F08A22
:10400C00828B83A3A3A3A3A322C082C083906190BD
:10401C007404F0A37448F0A37402F09061807440AF
:10402C00F09061BC7403F09061877419F090626534
:10403C00741BF0906249E0C3941390619C400A7425
:10404C0009F090606674018007740DF0906066E46E
:10405C00F090619A7433F0A37455F09061A0743AA7
:10406C00F090053FE064017009C2919003A674675B
:10407C0080059003A67461F09025B2E4939061865C
:10408C00F09025ACE493F46027E493540FF890611E
:10409C0085E0686012E5C654804449F5C6E59E5437
:1040AC007F644970F8E8F053C680E59E547F70FA3F
:1040BC007905120D59024243C082C083E5A8F8531A
:1040CC00A87E906181E4F0A3F0A3F0C2BA539AFEEB
:1040DC00C289759B00C2C275E90075910075BF005D
:1040EC0075A91175B905906181F0A374C0F0A3E4B2
:1040FC00F0D2BA439A0174805842A8024243C0825B
:10410C00C08374F81216569003A4E0F8A3E0F9E803
:10411C004970030242389003A4E0544060237908AC
:10412C00851882851983AA82AB83120BCD851882E0
:10413C00851983AA82AB831208C19003A4E054BFF3
:10414C00F0E054806010790C7A657B05120BCD90F1
:10415C0003A4E0547FF0E0A2E0503190619A7433F4
:10416C00F0A37455F09061A0743AF090053FE064B0
:10417C00017009C2919003A6746780059003A67420
:10418C0061F01208C79003A4E054FEF0E054026002
:10419C003190619A743FF0A3745AF09061A0747FCF
:1041AC00F090053FE064017009D2919003A6747100
:1041BC0080059003A6746AF01208C79003A4E0541B
:1041CC00FDF0E0540460139025B0E493906186F008
:1041DC001208CD9003A4E054FBF0E0540860139057
:1041EC0025B1E493906186F01208CD9003A4E054BD
:1041FC00F7F0E0541060139025B2E493906186F0D0
:10420C001208CD9003A4E054EFF0E05420600A12A1
:10421C0008CD9003A4E054DFF0A3E05401600D122C
:10422C000AF51208D39003A5E054FEF07408121698
:10423C006C024243F0A3F0D083D08202011F74ECD5
:10424C001216C674F4121656851882851983AC8220
:10425C00AD8375838175826D74041215699025B0D8
:10426C0093F460030243D6907808E0C394025003A1
:10427C000243B674041216A2AC82AD8375838175A9
:10428C00822A740812156985188285198385821211
:10429C0085831374041216A2AC82AD83750EFF7560
:1042AC000FFF7FFF7E00750C48750D788015740824
:1042BC006E700302434A74096E700302434A740A17
:1042CC006E607B850C82850D83780812150E8C82AE
:1042DC008D83A909E50AC9F8881074187808121496
:1042EC003CE5104508F8C3E098A3E099850C82855D
:1042FC000D83780812150E40188C828D83741878F3
:10430C000812143CE5104508F8E0C398F8A3E080C7
:10431C001C7418780812143CE5104508FAE9FB8C5B
:10432C00828D83E0F8A3E0F9EAC398F8EB99F9C31E
:10433C00E8950EE9950F5006880E890FEEFF0EE5F5
:10434C000C2404F50CE50D3400F50DEEC39413505C
:10435C00030242BA74FF650E700474FF650F60238C
:10436C008F087402780812164374482508F5827475
:10437C00783509F583780812150E8512828513831A
:10438C00E508F0EC2402FCED3400FD851282851367
:10439C0083A3858212858313740C1216A2E5826C9A
:1043AC007003E5836D60030242A87508017509006E
:1043BC0078081218D974021216A2AC82AD837A6CEA
:1043CC007B0912116D740212166C740C12166C7F30
:1043DC000C021798C082C0839061AE7468F0A3740D
:1043EC006AF090624574FBF0A304F053F4FD43FEB5
:1043FC000290053F7401F09061A0E0643A90619ADC
:10440C0070237433F0A37455F09061A0743AF07477
:10441C000164017009C2919003A67467802890030F
:10442C00A674618021743FF0A3745AF09061A0745B
:10443C007FF0740164017009D2919003A6747180AD
:10444C00059003A6746A0242427F08021798C08244
:10445C00C0839004F1E06401700A9004F6E06004FB
:10446C00790C80027900024243C082C08375E1F16D
:10447C009004F4E0605B14600914605F14605714DE
:10448C00705E120B079004EAE0F97AEB7B04120CD5
:10449C00DB7AD67BBE7C897D8E120D117A557B55CD
:1044AC007C557D00120CE79004F5E0F9120CF379C1
:1044BC0001120D4D9004E8E0F8A3E0C82416F58233
:1044CC00E83400F583741FF0A3740BF079000242FA
:1044DC0043120B0D80AF120B1380AA120B1980A57F
:1044EC00791280EA74F01216C675D90D9004D5E0D5
:1044FC00A2E0E4331313F89004EAE0C4333354C05D
:10450C00484401F5D978E8790488828983A3A3A368
:10451C00E0F5D988828983A3A882A983E864EE7028
:10452C0003E9640470E378D5790488828983A3E075
:10453C00F5D988828983A3A882A983E864DB7003F8
:10454C00E9640470E575E1959004D5E0F97AD67BC1
:10455C0004120CE1900A1F74B9F0A3740AF0A3744E
:10456C0015F0A3740CF0A37415F0A3740CF0A374E1
:10457C0015F0A3740CF0A374BFF0A3740AF0A37429
:10458C0015F0A3740CF0A374D7F0A3740AF0900A7E
:10459C002D7415F0A3740CF0A37415F0A3740CF027
:1045AC00A37415F0A3740CF0A37415F0A3740CF0A1
:1045BC00A37415F0A3740CF0A37415F0A3740CF091
:1045CC009004F4E064019004E87012E0F8A3E0F5C4
:1045DC00838882A3A37508007509088010E0F8A3EE
:1045EC00E0F5838882A3A3750804750900750A0099
:1045FC00750B007808121487750CFF750DFF750E7E
:10460C00FF750F007808790C1214D59004E8E0F8C7
:10461C00A3E0C8240EF582E83400F583780812155F
:10462C001D9004E8E0F8A3E0C82414F582E83400F7
:10463C00F5837413F09003A27402F002445574F7DE
:10464C001216C69004FAE02407F5D99004EAE0C4E7
:10465C00333354C0F5D978E8790488828983A3A3CD
:10466C00A3E0F5D988828983A3A882A983E864EEA4
:10467C007003E9640470E39004FAE0601F78E87951
:10468C0004FAE82413F582E93400F583E0F5D988BF
:10469C00828983A3A882A9831AEA70E690051AE09E
:1046AC002407F5D99004EAE0C4333354C04404F52C
:1046BC00D978E8790488828983A3A3A3E0F5D98803
:1046CC00828983A3A882A983E864EE7003E9640459
:1046DC0070E390051AE0601F78E87904FAE8243357
:1046EC00F582E93400F583E0F5D988828983A3A8A3
:1046FC0082A9831AEA70E675E195900A1F74C5F0D9
:10470C00A3740AF0A37415F0A3740CF0A37415F041
:10471C00A3740CF0A37415F0A3740CF0A374BFF085
:10472C00A3740AF0A37415F0A3740CF0A374D7F05F
:10473C00A3740AF0900A2D7415F0A3740CF0A374F2
:10474C0015F0A3740CF0A37415F0A3740CF0A374FF
:10475C0015F0A3740CF0A37415F0A3740CF0A374EF
:10476C0015F0A3740CF09004E8E0F8A3E0C8240E54
:10477C00F582E83400F58374FFF0A3F0A3F0A3F006
:10478C009004E8E0F8A3E0C82414F582E83400F5BE
:10479C00837412F09003A27401F0FF02179874F75F
:1047AC001216C69004FAE02407F5D99004EAE0C486
:1047BC00333354C04402F5D978E87904888289836C
:1047CC00A3A3A3E0F5D988828983A3A882A983E84F
:1047DC0064EE7003E9640470E39004FAE0601F78FF
:1047EC00E87904FAE82413F582E93400F583E0F55E
:1047FC00D988828983A3A882A9831AEA70E675E115
:10480C0095900A1F74D1F0A3740AF0A374D1F0A38D
:10481C00740AF0A374D1F0A3740AF0A374D1F0A3BA
:10482C00740AF0A374D1F0A3740AF0A374D1F0A3AA
:10483C00740AF0A374D7F0A3740AF0900A2D7415BF
:10484C00F0A3740CF0A37415F0A3740CF0A37415FE
:10485C00F0A3740CF0A37415F0A3740CF0A37415EE
:10486C00F0A3740CF0A37415F0A3740CF09004E88E
:10487C00E0F8A3E0C8240EF582E83400F58374FF59
:10488C00F0A3F0A3F0A3F09004E8E0F8A3E0C824B0
:10489C0014F582E83400F5837414F09003A27404C8
:1048AC00F0024B7174F71216C69004FAE02407F567
:1048BC00D99004EAE0C4333354C04406F5D978E8FF
:1048CC00790488828983A3A3A3E0F5D9888289839C
:1048DC00A3A882A983E864EE7003E9640470E390F2
:1048EC0004FAE0601F78E87904FAE82413F582E909
:1048FC003400F583E0F5D988828983A3A882A98343
:10490C001AEA70E690051AE02407F5D99004EAE05B
:10491C00C4333354C04404F5D978E87904888289C7
:10492C0083A3A3A3E0F5D988828983A3A882A98352
:10493C00E864EE7003E9640470E390051AE0601F0C
:10494C0078E87904FAE82433F582E93400F583E059
:10495C00F5D988828983A3A882A9831AEA70E6759F
:10496C00E195900A1F74CBF0A3740AF0A37415F0B0
:10497C00A3740CF0A37415F0A3740CF0A37415F0CD
:10498C00A3740CF0A37415F0A3740CF0A37415F0BD
:10499C00A3740CF0A374D7F0A3740AF0900A2D74CE
:1049AC0015F0A3740CF0A37415F0A3740CF0A3749D
:1049BC0015F0A3740CF0A37415F0A3740CF0A3748D
:1049CC0015F0A3740CF0A37415F0A3740CF0900400
:1049DC00E8E0F8A3E0C8240EF582E83400F583740F
:1049EC00FFF0A3F0A3F0A3F09004E8E0F8A3E0C874
:1049FC002414F582E83400F5837415F09003A27446
:104A0C0003F0024B71C082C0839004E8E0F8A3E08D
:104A1C00C82406F582E83400F583E402424074F7BA
:104A2C001216C69003D0E0F875F003A4C8AAF02AB9
:104A3C00F974D228F8740339F9E82405FAE934003A
:104A4C00FB8A828B83E0FCA3E0FD88828983A3A38D
:104A5C00A3A3A3A3A3A3A3ECF0A3EDF08882898363
:104A6C00A3A3A3A3A3A3A3E024FFF8A3E034FFF91B
:104A7C008A828B83E8F0A3E9F0024B7174F712166B
:104A8C00C6EAFEEBFF9061D0E06003024B6575D97E
:104A9C000E75D90375D904EE248BF582EF3400F52D
:104AAC0083E5822408F8E5833400F9E0F5D9A3E81E
:104ABC0065827003E9658370F2EE2483F582EF342E
:104ACC0000F583E5822404F8E5833400F9E0F5D998
:104ADC00A3E865827003E9658370F275E195790846
:104AEC00EE248BFAEF3400FB120BC17904EE248315
:104AFC00FAEF3400FB120BC17C00EEF8EFF9ECFA84
:104B0C00C3E49AFA95E0FBEE2AFAEF3BFBEA248A1F
:104B1C00F582EB3400F583E0C0E0E824AAF582E9E5
:104B2C003400F583D0E0F00C88828983A3A882A995
:104B3C0083ECC3940840C7EE246FF582EF3400F584
:104B4C0083E0F8A3E0F9EE2471F582EF3400F583ED
:104B5C00E8F0A3E9F07901800279008008F0EEA278
:104B6C00E092AF79007F01021798C082C08375D99B
:104B7C000275D90375D90575E195EA246FF582EBB9
:104B8C003400F583E0F8A3E0F9EA2471F582EB3404
:104B9C0000F583E8F0A3E9F0790102424374F612C0
:104BAC0016C6EAFEEBFF9005457406F075084575D0
:104BBC00090578081218D97C017903120C097402C2
:104BCC0012166C75D90675D903758245758305E087
:104BDC00F5D9A3E582644A7004E583640570F07529
:104BEC00E1959003A2E06408701EEE246FF582EF4D
:104BFC003400F583E0F8A3E0F9EE2471F582EF348C
:104C0C0000F583E8F0A3E9F07901024E7774F6120F
:104C1C0016C6EAFEEBFF9061D0E070667801900555
:104C2C0045740BF09003A2E0640770197508457584
:104C3C00090578081218D97C017903120C09740241
:104C4C0012166C7805740128F5D975D9037582454F
:104C5C00758305E8FAE0F5D9A31AEA70F875E195C1
:104C6C00EE246FF582EF3400F583E0F8A3E0F9EE63
:104C7C002471F582EF3400F583E8F0A3E9F07901B3
:104C8C0080027900024E7774F71216C6EAFEEBFF2B
:104C9C0075D90375D90375D90DEE24DDF582EF3482
:104CAC0000F583E0F5D975E1957904120D17EE2422
:104CBC006FF582EF3400F583E0F8A3E0F9EE247190
:104CCC00F582EF3400F583E8F0A3E9F07901024BAB
:104CDC007174F61216C6EAFEEBFF9061D0E0F87420
:104CEC0080C398FAEE2482F582EF3400F583E060FD
:104CFC0004780480027800E8240BF8EAC398500387
:104D0C00024DA27D09900545EDF0EE24E2F8EF345A
:104D1C0000F97A467B057C0888828983E08A828B3D
:104D2C0083F088828983A3A882A9838A828B83A338
:104D3C00AA82AB831CEC70E0EE2482F582EF340087
:104D4C00F583E0601D75084575090578081218D9BA
:104D5C007C097903EEFAEFFB120C09740212166C43
:104D6C007D0D74012DF5D975D903758245758305B3
:104D7C008D08E0F5D9A31508E50870F675E195796D
:104D8C0004120D17EE241DF582EF3400F583E4F0C8
:104D9C00A3F0790180027900024E7774F61216C6E0
:104DAC00EAFEEBFF9061D0E0F87480C398FAEE2431
:104DBC0082F582EF3400F583E06004780480027899
:104DCC0000E82408F8EAC3985003024E7578069060
:104DDC000545740CF09003BFE0900546F09003C0BD
:104DEC00E0900547F09003C1E0900548F09003C2B5
:104DFC00E0900549F09003C3E090054AF0EE248260
:104E0C00F582EF3400F583E0601B750845750905E4
:104E1C0078081218D97C067903EEFA120C09740280
:104E2C0012166C780A740128F5D975D90375824568
:104E3C007583058808E0F5D9A31508E50870F675A3
:104E4C00E1957904120D17EE246FF582EF3400F51D
:104E5C0083E0F8A3E0F9EE2471F582EF3400F583DA
:104E6C00E8F0A3E9F07901800279007F020217983B
:104E7C0074F61216C6EAFEEBFF9061D0E0F874806F
:104E8C00C398FAEE2482F582EF3400F583E06004D7
:104E9C00780480027800E82404F8EAC398500302EE
:104EAC004F567802900545E8F0EE24F4F582EF3485
:104EBC0000F583E0900546F0EE2482F582EF340095
:104ECC00F583E0601B75084575090578081218D93B
:104EDC007C027903EEFA120C09740212166C780635
:104EEC00740128F5D975D903758245758305880831
:104EFC00E0F5D9A31508E50870F675E195EE247375
:104F0C00F582EF3400F583E4F0EE247FF582EF3484
:104F1C0000F583E4F0EE241DF582EF3400F583E414
:104F2C00F0A3F07904120D17EE240DF582EF340086
:104F3C00F583E0F8A3E0F9EE2471F582EF3400F587
:104F4C0083E8F0A3E9F0790180027900024E7774CE
:104F5C00F61216C69061D0E0F87480C398FCEA246F
:104F6C0082F582EB3400F583E060047804800278EB
:104F7C0000E82404F8ECC398405B79029005457472
:104F8C0007F0EA24F5F582EB3400F583E090054652
:104F9C00F0EA2482F582EB3400F583E060187508A2
:104FAC004575090578081218D97C0209120C097488
:104FBC000212166C7906740129F5D975D90375821C
:104FCC0045758305E9F8E0F5D9A318E870F875E1A3
:104FDC0095790180027900024E7774F51216C6E9B4
:104FEC00FCA2AFE433F50AC2AF7D0080010DEA24C8
:104FFC006EF582EB3400F583E0F8EDC398501A8D12
:10500C0008EA2508F8EB3400F9E8246AF582E9345B
:10501C0000F583E06C70D68024EA246EF8EB340043
:10502C00F9E0FEEA2EFAEB3400FBEA246AF582EB97
:10503C003400F583ECF088828983E004F0E50AA261
:10504C00E092AF7F0302179874F61216C6A2AFE473
:10505C0033FDC2AFEA246EF582EB3400F583E01425
:10506C00F07C0060368C08EA2508F8EB3400F9E88F
:10507C00246BF582E93400F583E0C0E0E8246AF59E
:10508C0082E93400F583D0E0F00CEA246EF582EB73
:10509C003400F583E0F8ECC39840CAEA246DF5823D
:1050AC00EB3400F58374FFF0EA2469F582EB3400ED
:1050BC00F583E4F0EDA2E092AF024E77C082C0839C
:1050CC00E5A8F8C2AFEA246AF582EB3400F583E96F
:1050DC00F0EA2469F582EB3400F583E4F0E8A2E70A
:1050EC00A2E792AF02424374F31216C6EAFEEBFF3C
:1050FC00ECFAEDFB8A828B83A3A3A3A3E0541FF0ED
:10510C00EE2436F582EF3400F583E4F0F50AEEFC7C
:10511C00EFFD8A828B83E0C0E0EC245DF582ED34F8
:10512C0000F583D0E0F0750B00E50A33333354F807
:10513C00F50C8A828B83E0F508750900E50B78087D
:10514C00121624E508A2E0502FEE2436F8EF3400B6
:10515C00F988828983E0F508EE2508F508EF34001C
:10516C00F509E5082438F582E5093400F583E50CEA
:10517C00F088828983E004F0050B050CE50BC394E1
:10518C000840AF050A8A828B83A3AA82AB838C82E8
:10519C008D83A3AC82AD83E50AC394055003025101
:1051AC001E7F0502179874F71216C69003CEE064A2
:1051BC000170030253107A009003D4E06003025391
:1051CC00107401F0A3E4F0A3F090043404F0900404
:1051DC0039F09003D7E4F0A3F0A3F0A3F09003E12F
:1051EC0004F0900407E4F09003EAF0A3F0A3F0A31A
:1051FC00F0A3F0A3F0A3F0900451F0900445F090CC
:10520C00043A7480F0A3E4F0900440F09004BCF0F5
:10521C00A3F0A3F0A3F0A3F0A3F0A3F0A3F09004E9
:10522C00C5F0900454F09004A4F0A3F0A3F0A3F004
:10523C00A3F0A3F0A3F0A3F0A3F0A3F09004B0F0BC
:10524C009004B2F09004AEF09004C8F0A3F0A3F078
:10525C00A3F0A3F0A3F0A3F0A3F078CE7903E82495
:10526C006EF582E93400F58374FFF00A8882898335
:10527C00A3A882A983EAC3940440E37ACE7B037883
:10528C00DC790488828983E0C0E0EA2461F582EB52
:10529C003400F583D0E0F088828983A3A882A983A7
:1052AC008A828B83A3AA82AB83E864E17003E964EE
:1052BC000470D07ACE7B0378B5790388828983A376
:1052CC00E0C0E0EA24E6F582EB3400F583D0E0F0B0
:1052DC0088828983A3A882A9838A828B83A3AA82CA
:1052EC00AB83E864BD7003E9640370CF9003CEE038
:1052FC0004F0640170089003D6E09003D0F07AD2E9
:10530C007B0380047A007B00024B71C082C08390C7
:10531C0003D5E4F09003D4F09003CEF0A3F0A37483
:10532C00FFF075E1F1024243C082C083780079003E
:10533C009003D5E0600478D2790388828983A3A393
:10534C00A3A3E0F902424374F61216C6EAFEEBFF81
:10535C00EE2463F582EF3400F583E0F8A3E0F9E87E
:10536C004970030253F8EE2463F8EF3400F97A0025
:10537C007B00A2AFE433F508C2AF88828983E0FCDE
:10538C00A3E0FDEC4D603A88828983E0FAA3E0FB50
:10539C008A828B83E0FCA3E0FD88828983ECF0A3F6
:1053AC00EDF08A828B83E4F0A3F088828983E0FCA1
:1053BC00A3E0FDEC4D700A88828983A3A3E4F0A3DB
:1053CC00F0E508A2E092AF1211EB9004E2E004F0D9
:1053DC009004E3E004F0EE2463F582EF3400F583EF
:1053EC00E0F8A3E0F9E84960030253728E828F83E0
:1053FC00A3A3A3E0600F8E828F83A3A3A3E4F090FA
:10540C0003CFE014F09003CEE014F070069003D0BC
:10541C0074FFF08E828F83A3A3E4F09004E1E0701C
:10542C000D9003CFE0640170057900120CF9EEFACF
:10543C00EFFB120C39024E7774F71216C6EAFEEB2C
:10544C00FF8E828F83A3A3A3A3E0FA7B001209151E
:10545C00EEFAEFFB120B8B120C21024B71C082C0C7
:10546C008378B5790388828983A3E4F08882898361
:10547C00A3A882A983E864BD7003E9640370E69075
:10548C0003B6740102424274F61216C6EAFEEBFF32
:10549C00EC2403F8ED3400F988088909EC2407F8AA
:1054AC00ED3400F9E8FCE9FD8C828D83E0F8A3E093
:1054BC00F9850882850983E0FAA3E0FB1215CBEE8F
:1054CC00240DF582EF3400F583E8F0A3E9F08C822B
:1054DC008D83E0F8A3E0F9850882850983E0FAA3BF
:1054EC00E0FB1215CB8B09EA45096013EE240DF590
:1054FC0082EF3400F583E02401F0A3E03400F002E5
:10550C004E7774F61216C6EAFEEBFFEE242EF582E9
:10551C00EF3400F583E0FCA3E0FD780079FAECFAB7
:10552C00EDFB1215CBEE246FF582EF3400F583E81A
:10553C00F0A3E9F0780079FAECFAEDFB1215CB8BBD
:10554C0009EA45096013EE246FF582EF3400F58308
:10555C00E02401F0A3E03400F0024E7774EC121654
:10556C00C6EAFEEBFF74141216A2780812150E127E
:10557C000CBD8A0C8B0D8C0E8D0F751002751100E5
:10558C00751200751300780C79101214747510FFD5
:10559C007511FF7512FF780C79101214D5780C1256
:1055AC0018D58E828F83E0F8A3E0F5838882A3A3BD
:1055BC0012152C1222E5740412166CE960030256C3
:1055CC00CC8E828F83E02402F8A3E03400F9E8FA51
:1055DC00E9FB8A828B83780812149A8A828B8375F2
:1055EC0008FF7509FF750AFF750B0078081214FB8C
:1055FC00EE240BF582EF3400F583C082C0838E82DB
:10560C008F83A3A3A3A3A3E02401F8A3E03400F9A0
:10561C00D083D082E0687003A3E069700579010241
:10562C0056CE8E828F83A3A3A3A3A3A3A3E02401AE
:10563C00F0A3E03400F0EE2473F582EF3400F58330
:10564C00E064017036EE2474F582EF3400F583E0EB
:10565C00F8A3E0F98E828F83A3A3A3A3A3A3A3E053
:10566C00687003A3E0697013EE2474F582EF3400C4
:10567C00F583E02401F0A3E03400F0EE247FF58202
:10568C00EF3400F583E064017036EE2480F582EF90
:10569C003400F583E0F8A3E0F98E828F83A3A3A3F3
:1056AC00A3A3A3A3E0687003A3E0697013EE2480A6
:1056BC00F582EF3400F583E02401F0A3E03400F030
:1056CC0079000243DB74F61216C6E9FEECFFEA24FD
:1056DC0062F582EB3400F583E06401600302577AD3
:1056EC009061D0E0F508EA2482F582EB3400F58372
:1056FC00E060047804800278007480C39508FC95FF
:10570C00E0FDEF28F8E43400F9E82402F8E934006D
:10571C00F9EC98ED99A2D265D033404E740A12166A
:10572C00A2E0F508A3E0F509EA2482F582EB340047
:10573C00F583E0601578081218D9EFFCEEF9120C1D
:10574C0009740212166C74042FFF74012FF5D98E94
:10575C00D9EF600F850882850983F8E0F5D9A31885
:10576C00E870F875E195790080067907800279FF79
:10577C00024E7774F71216C6A2AFE433FEC2AF8A9C
:10578C00828B83E0F8A3E0F9E8498A828B83600A74
:10579C00A3A3E0F8A3E0F5838882ECF0A3EDF08AF4
:1057AC00828B83A3A3ECF0A3EDF08C828D83E4F0C9
:1057BC00A3024B6974F71216C6E96021F88C828D2E
:1057CC0083E08A828B83F08C828D83A3AC82AD8341
:1057DC008A828B83A3AA82AB8318E870E0ECFAED83
:1057EC00FB024B7174F41216C6907803E06442709D
:1057FC0055900544E014F0704DC2AF12580A007871
:10580C002AD0E0F618D0E0F6E59F5407700575092C
:10581C00FF800375097FC4C0E07829E6F50808E627
:10582C005509F509740B7808121634D0E02508F8E0
:10583C00906270E0A2E740F8E8C333906272F09097
:10584C006270E0D2E0F09003D0E0F47003025BEA07
:10585C00E0F875F003A4C8AAF02AF974D228FE74F3
:10586C000339FFEE2401F582EF3401F583E0F8A350
:10587C00E0F9E849601EEE2401F582EF3401F5836E
:10588C00E0FAA3E0FBEE2400F582EF3401F583E0AF
:10589C00F9120FC98E828F83A3A3A3A3A3A3A3E0A2
:1058AC00F8A3E0F98E828F83A3A3A3A3A3E8F0A3AC
:1058BC00E9F0906054E09003A9F0906055E09003FB
:1058CC00AAF0906056E09003ABF0906057E0900324
:1058DC00ACF0906058E09003ADF0906059E090030C
:1058EC00AEF090605AE09003AFF090605BE09003F4
:1058FC00B0F090605CE0FC9003B1F090605DE0FB78
:10590C009003B2F090605EE0FD9003B3F090605FA6
:10591C00E0FA9003B4F09003AFE08C082508F8E4AB
:10592C003400F98D08E82508F8E93400F98B08E80B
:10593C002508F8E93400F98A08E82508FAE9340062
:10594C00FBEE24F6F582EF3400F583E02AF0A3E0B9
:10595C003BF08C08EE24F8F582EF3400F583E0255B
:10596C0008F0A3E03400F0EE24FAF582EF3400F5F1
:10597C0083E02401F0A3E03400F0EE24FEF582EF86
:10598C003400F583E0F8A3E0F9E849604290600048
:10599C00E0C333FCE433FDE82CF582E93DF583E00C
:1059AC002AF0A3E03BF0906000E0FA9003B1E0FC39
:1059BC00EAC333FAE433FBE82AF8E93BF9E8244A72
:1059CC00F582E93400F583E02CF0A3E03400F0908C
:1059DC0003AFE070119003B2E0700BA3E07007A36B
:1059EC00E07003025AE78E828F83A3A3A3A3A3E0E4
:1059FC00F8A3E0F9EE240DF582EF3400F583E028EE
:105A0C00F8A3E039F9EE240BF582EF3400F583E8C6
:105A1C00F0A3E9F0EE240FF582EF3400F583E4F007
:105A2C00EE241CF582EF3400F583E06401701EEE69
:105A3C002420F582EF3400F583E0F8A3E0F9EE249E
:105A4C001DF582EF3400F583E8F0A3E9F09003AA8A
:105A5C00E06052EE241CF582EF3400F5837401F003
:105A6C00EE2469F582EF3400F583E07038EE247390
:105A7C00F582EF3400F583E0702BEE247FF582EF96
:105A8C003400F583E0701EEE2420F582EF3400F52F
:105A9C0083E0F8A3E0F9EE241DF582EF3400F583E2
:105AAC00E8F0A3E9F0906062E07003025B9A8E82EA
:105ABC008F83E0F8A3E0F9E82406FCE93400FDE864
:105ACC002402FAE93400FB120CB78E828F83E0F8C3
:105ADC00A3E0C82412F582E8025BA09003B1E06059
:105AEC003AEE240FF582EF3400F583E4F0EE241C3B
:105AFC00F582EF3400F583E064017040EE2420F56C
:105B0C0082EF3400F583E0F8A3E0F9EE241DF58272
:105B1C00EF3400F583E8F0A3E98020EE24FCF58255
:105B2C00EF3400F583E02401F0A3E03400F0EE2420
